{"project/contracts/MeeToken.sol":{"MeeToken":{"abi":[{"inputs":[],"stateMutability":"nonpayable","type":"constructor"},{"inputs":[{"internalType":"address","name":"spender","type":"address"},{"internalType":"uint256","name":"allowance","type":"uint256"},{"internalType":"uint256","name":"needed","type":"uint256"}],"name":"ERC20InsufficientAllowance","type":"error"},{"inputs":[{"internalType":"address","name":"sender","type":"address"},{"internalType":"uint256","name":"balance","type":"uint256"},{"internalType":"uint256","name":"needed","type":"uint256"}],"name":"ERC20InsufficientBalance","type":"error"},{"inputs":[{"internalType":"address","name":"approver","type":"address"}],"name":"ERC20InvalidApprover","type":"error"},{"inputs":[{"internalType":"address","name":"receiver","type":"address"}],"name":"ERC20InvalidReceiver","type":"error"},{"inputs":[{"internalType":"address","name":"sender","type":"address"}],"name":"ERC20InvalidSender","type":"error"},{"inputs":[{"internalType":"address","name":"spender","type":"address"}],"name":"ERC20InvalidSpender","type":"error"},{"inputs":[{"internalType":"address","name":"owner","type":"address"}],"name":"OwnableInvalidOwner","type":"error"},{"inputs":[{"internalType":"address","name":"account","type":"address"}],"name":"OwnableUnauthorizedAccount","type":"error"},{"anonymous":false,"inputs":[{"indexed":true,"internalType":"address","name":"owner","type":"address"},{"indexed":true,"internalType":"address","name":"spender","type":"address"},{"indexed":false,"internalType":"uint256","name":"value","type":"uint256"}],"name":"Approval","type":"event"},{"anonymous":false,"inputs":[{"indexed":true,"internalType":"address","name":"minter","type":"address"}],"name":"MinterAuthorized","type":"event"},{"anonymous":false,"inputs":[{"indexed":true,"internalType":"address","name":"minter","type":"address"}],"name":"MinterRevoked","type":"event"},{"anonymous":false,"inputs":[{"indexed":true,"internalType":"address","name":"previousOwner","type":"address"},{"indexed":true,"internalType":"address","name":"newOwner","type":"address"}],"name":"OwnershipTransferred","type":"event"},{"anonymous":false,"inputs":[{"indexed":true,"internalType":"address","name":"from","type":"address"},{"indexed":false,"internalType":"uint256","name":"amount","type":"uint256"},{"indexed":true,"internalType":"address","name":"burner","type":"address"}],"name":"TokensBurned","type":"event"},{"anonymous":false,"inputs":[{"indexed":true,"internalType":"address","name":"to","type":"address"},{"indexed":false,"internalType":"uint256","name":"amount","type":"uint256"},{"indexed":true,"internalType":"address","name":"minter","type":"address"}],"name":"TokensMinted","type":"event"},{"anonymous":false,"inputs":[{"indexed":true,"internalType":"address","name":"from","type":"address"},{"indexed":true,"internalType":"address","name":"to","type":"address"},{"indexed":false,"internalType":"uint256","name":"value","type":"uint256"}],"name":"Transfer","type":"event"},{"inputs":[{"internalType":"address","name":"owner","type":"address"},{"internalType":"address","name":"spender","type":"address"}],"name":"allowance","outputs":[{"internalType":"uint256","name":"","type":"uint256"}],"stateMutability":"view","type":"function"},{"inputs":[{"internalType":"address","name":"spender","type":"address"},{"internalType":"uint256","name":"value","type":"uint256"}],"name":"approve","outputs":[{"internalType":"bool","name":"","type":"bool"}],"stateMutability":"nonpayable","type":"function"},{"inputs":[{"internalType":"address","name":"minter","type":"address"}],"name":"authorizeMinter","outputs":[],"stateMutability":"nonpayable","type":"function"},{"inputs":[{"internalType":"address","name":"","type":"address"}],"name":"authorizedMinters","outputs":[{"internalType":"bool","name":"","type":"bool"}],"stateMutability":"view","type":"function"},{"inputs":[{"internalType":"address","name":"account","type":"address"}],"name":"balanceOf","outputs":[{"internalType":"uint256","name":"","type":"uint256"}],"stateMutability":"view","type":"function"},{"inputs":[{"internalType":"address","name":"from","type":"address"},{"internalType":"uint256","name":"amount","type":"uint256"}],"name":"burn","outputs":[],"stateMutability":"nonpayable","type":"function"},{"inputs":[{"internalType":"uint256","name":"amount","type":"uint256"}],"name":"burnFrom","outputs":[],"stateMutability":"nonpayable","type":"function"},{"inputs":[],"name":"decimals","outputs":[{"internalType":"uint8","name":"","type":"uint8"}],"stateMutability":"view","type":"function"},{"inputs":[{"internalType":"address","name":"account","type":"address"}],"name":"isMinter","outputs":[{"internalType":"bool","name":"","type":"bool"}],"stateMutability":"view","type":"function"},{"inputs":[{"internalType":"address","name":"to","type":"address"},{"internalType":"uint256","name":"amount","type":"uint256"}],"name":"mint","outputs":[],"stateMutability":"nonpayable","type":"function"},{"inputs":[],"name":"name","outputs":[{"internalType":"string","name":"","type":"string"}],"stateMutability":"view","type":"function"},{"inputs":[],"name":"owner","outputs":[{"internalType":"address","name":"","type":"address"}],"stateMutability":"view","type":"function"},{"inputs":[],"name":"renounceOwnership","outputs":[],"stateMutability":"nonpayable","type":"function"},{"inputs":[{"internalType":"address","name":"minter","type":"address"}],"name":"revokeMinter","outputs":[],"stateMutability":"nonpayable","type":"function"},{"inputs":[],"name":"symbol","outputs":[{"internalType":"string","name":"","type":"string"}],"stateMutability":"view","type":"function"},{"inputs":[],"name":"totalSupply","outputs":[{"internalType":"uint256","name":"","type":"uint256"}],"stateMutability":"view","type":"function"},{"inputs":[{"internalType":"address","name":"to","type":"address"},{"internalType":"uint256","name":"value","type":"uint256"}],"name":"transfer","outputs":[{"internalType":"bool","name":"","type":"bool"}],"stateMutability":"nonpayable","type":"function"},{"inputs":[{"internalType":"address","name":"from","type":"address"},{"internalType":"address","name":"to","type":"address"},{"internalType":"uint256","name":"value","type":"uint256"}],"name":"transferFrom","outputs":[{"internalType":"bool","name":"","type":"bool"}],"stateMutability":"nonpayable","type":"function"},{"inputs":[{"internalType":"address","name":"newOwner","type":"address"}],"name":"transferOwnership","outputs":[],"stateMutability":"nonpayable","type":"function"}],"evm":{"bytecode":{"linkReferences":{},"object":"60806040523461036e57604080519081016001600160401b03811182821017610281576040908152600882526726b2b2aa37b5b2b760c11b602083015280519081016001600160401b038111828210176102815760405260038152624d454560e81b602082015281516001600160401b03811161028157600354600181811c91168015610364575b602082101461026357601f8111610301575b50602092601f82116001146102a057928192935f92610295575b50508160011b915f199060031b1c1916176003555b80516001600160401b03811161028157600454600181811c91168015610277575b602082101461026357601f8111610200575b50602091601f82116001146101a0579181925f92610195575b50508160011b915f199060031b1c1916176004555b33156101825760058054336001600160a01b03198216811790925560405191906001600160a01b03167f8be0079c531659141344cd1fd0a4f28419497f9722a3daafe3b4186f6b6457e05f80a3610ba490816103738239f35b631e4fbdf760e01b5f525f60045260245ffd5b015190505f80610114565b601f1982169260045f52805f20915f5b8581106101e8575083600195106101d0575b505050811b01600455610129565b01515f1960f88460031b161c191690555f80806101c2565b919260206001819286850151815501940192016101b0565b60045f527f8a35acfbc15ff81a39ae7d344fd709f28e8600b4aa8c65c6b64bfe7fe36bd19b601f830160051c81019160208410610259575b601f0160051c01905b81811061024e57506100fb565b5f8155600101610241565b9091508190610238565b634e487b7160e01b5f52602260045260245ffd5b90607f16906100e9565b634e487b7160e01b5f52604160045260245ffd5b015190505f806100b3565b601f1982169360035f52805f20915f5b8681106102e957508360019596106102d1575b505050811b016003556100c8565b01515f1960f88460031b161c191690555f80806102c3565b919260206001819286850151815501940192016102b0565b60035f527fc2575a0e9e593c00f959f8c92f12db2869c3395a3b0502d05e2516446f71f85b601f830160051c8101916020841061035a575b601f0160051c01905b81811061034f5750610099565b5f8155600101610342565b9091508190610339565b90607f1690610087565b5f80fdfe6080806040526004361015610012575f80fd5b5f3560e01c90816306fdde03146108af57508063095ea7b31461082d5780630c984832146107c557806318160ddd146107a857806323b872dd146106c9578063274ff7ce1461067b578063313ce5671461066057806340c10f191461055e57806370a0823114610527578063715018a6146104cc5780638da5cb5b146104a457806395d89b41146103895780639dc29fac146102f5578063a9059cbb146102c4578063aa271e1a14610269578063aa2fe91b1461022c578063cfbd4885146101c7578063dd62ed3e146101775763f2fde38b146100ed575f80fd5b34610173576020366003190112610173576101066109a8565b61010e610a19565b6001600160a01b0316801561016057600580546001600160a01b0319811683179091556001600160a01b03167f8be0079c531659141344cd1fd0a4f28419497f9722a3daafe3b4186f6b6457e05f80a3005b631e4fbdf760e01b5f525f60045260245ffd5b5f80fd5b34610173576040366003190112610173576101906109a8565b6101986109be565b6001600160a01b039182165f908152600160209081526040808320949093168252928352819020549051908152f35b34610173576020366003190112610173576101e06109a8565b6101e8610a19565b6001600160a01b03165f818152600660205260408120805460ff191690557f44f4322f8daa225d5f4877ad0f7d3dfba248a774396f3ca99405ed40a044fe819080a2005b34610173576020366003190112610173576001600160a01b0361024d6109a8565b165f526006602052602060ff60405f2054166040519015158152f35b346101735760203660031901126101735760206001600160a01b0361028c6109a8565b16805f526006825260ff60405f2054169081156102af575b506040519015158152f35b6005546001600160a01b0316149050826102a4565b34610173576040366003190112610173576102ea6102e06109a8565b6024359033610a40565b602060405160018152f35b346101735760403660031901126101735761030e6109a8565b602435335f52600660205260ff60405f2054168015610375575b610331906109d4565b61033b8183610aea565b60405190815233916001600160a01b0316907f08009940fb138ae33fbb70c10b643e840c71f1654344cc173975a815e117e68790602090a3005b506005546001600160a01b03163314610328565b34610173575f366003190112610173576040515f6004548060011c9060018116801561049a575b6020831081146104865782855290811561046a5750600114610415575b50819003601f01601f191681019067ffffffffffffffff821181831017610401576103fd8291826040528261097e565b0390f35b634e487b7160e01b5f52604160045260245ffd5b905060045f527f8a35acfbc15ff81a39ae7d344fd709f28e8600b4aa8c65c6b64bfe7fe36bd19b5f905b828210610454575060209150820101826103cd565b600181602092548385880101520191019061043f565b90506020925060ff191682840152151560051b820101826103cd565b634e487b7160e01b5f52602260045260245ffd5b91607f16916103b0565b34610173575f366003190112610173576005546040516001600160a01b039091168152602090f35b34610173575f366003190112610173576104e4610a19565b600580546001600160a01b031981169091555f906001600160a01b03167f8be0079c531659141344cd1fd0a4f28419497f9722a3daafe3b4186f6b6457e08280a3005b34610173576020366003190112610173576001600160a01b036105486109a8565b165f525f602052602060405f2054604051908152f35b34610173576040366003190112610173576105776109a8565b60243590335f52600660205260ff60405f205416801561064c575b61059b906109d4565b6001600160a01b031680156106395760025482810180911161062557600255805f525f60205260405f20828154019055805f7fddf252ad1be2c89b69c2b068fc378daa952ba7f163c4a11628f55a4df523b3ef6020604051868152a36040519182527f969cd201f68f120baff2bf3c59bc3b534434e08b69a71a14ab85cb79cd3b63e460203393a3005b634e487b7160e01b5f52601160045260245ffd5b63ec442f0560e01b5f525f60045260245ffd5b506005546001600160a01b03163314610592565b34610173575f36600319011261017357602060405160128152f35b34610173576020366003190112610173576004356106998133610aea565b60405190815233907f08009940fb138ae33fbb70c10b643e840c71f1654344cc173975a815e117e68760203392a3005b34610173576060366003190112610173576106e26109a8565b6106ea6109be565b6001600160a01b0382165f818152600160209081526040808320338452909152902054909260443592915f198110610728575b506102ea9350610a40565b83811061078d57841561077a573315610767576102ea945f52600160205260405f2060018060a01b0333165f526020528360405f20910390558461071d565b634a1406b160e11b5f525f60045260245ffd5b63e602df0560e01b5f525f60045260245ffd5b8390637dc7a0d960e11b5f523360045260245260445260645ffd5b34610173575f366003190112610173576020600254604051908152f35b34610173576020366003190112610173576107de6109a8565b6107e6610a19565b6001600160a01b03165f818152600660205260408120805460ff191660011790557f83b05b6735acd4b85e3bded8e72c851d1a87718f81e3c8e6f0c9d9a2baa88e469080a2005b34610173576040366003190112610173576108466109a8565b60243590331561077a576001600160a01b031690811561076757335f52600160205260405f20825f526020528060405f20556040519081527f8c5be1e5ebec7d5bd14f71427d1e84f3dd0314c0f7b2291e5b200ac8c7c3b92560203392a3602060405160018152f35b34610173575f366003190112610173575f6003548060011c90600181168015610974575b6020831081146104865782855290811561046a575060011461091f5750819003601f01601f191681019067ffffffffffffffff821181831017610401576103fd8291826040528261097e565b905060035f527fc2575a0e9e593c00f959f8c92f12db2869c3395a3b0502d05e2516446f71f85b5f905b82821061095e575060209150820101826103cd565b6001816020925483858801015201910190610949565b91607f16916108d3565b602060409281835280519182918282860152018484015e5f828201840152601f01601f1916010190565b600435906001600160a01b038216820361017357565b602435906001600160a01b038216820361017357565b156109db57565b60405162461bcd60e51b8152602060048201526016602482015275139bdd08185d5d1a1bdc9a5e9959081d1bc81b5a5b9d60521b6044820152606490fd5b6005546001600160a01b03163303610a2d57565b63118cdaa760e01b5f523360045260245ffd5b6001600160a01b0316908115610ad7576001600160a01b031691821561063957815f525f60205260405f2054818110610abe57817fddf252ad1be2c89b69c2b068fc378daa952ba7f163c4a11628f55a4df523b3ef92602092855f525f84520360405f2055845f525f825260405f20818154019055604051908152a3565b8263391434e360e21b5f5260045260245260445260645ffd5b634b637e8f60e11b5f525f60045260245ffd5b9091906001600160a01b03168015610ad757805f525f60205260405f2054838110610b54576020845f94957fddf252ad1be2c89b69c2b068fc378daa952ba7f163c4a11628f55a4df523b3ef938587528684520360408620558060025403600255604051908152a3565b915063391434e360e21b5f5260045260245260445260645ffdfea2646970667358221220ed5c480b8cdd4cbefef119e0759cff29a9190f43698cad40209fec891953890a64736f6c634300081c0033","opcodes":"PUSH1 0x80 PUSH1 0x40 MSTORE CALLVALUE PUSH2 0x36E JUMPI PUSH1 0x40 DUP1 MLOAD SWAP1 DUP2 ADD PUSH1 0x1 PUSH1 0x1 PUSH1 0x40 SHL SUB DUP2 GT DUP3 DUP3 LT OR PUSH2 0x281 JUMPI PUSH1 0x40 SWAP1 DUP2 MSTORE PUSH1 0x8 DUP3 MSTORE PUSH8 0x26B2B2AA37B5B2B7 PUSH1 0xC1 SHL PUSH1 0x20 DUP4 ADD MSTORE DUP1 MLOAD SWAP1 DUP2 ADD PUSH1 0x1 PUSH1 0x1 PUSH1 0x40 SHL SUB DUP2 GT DUP3 DUP3 LT OR PUSH2 0x281 JUMPI PUSH1 0x40 MSTORE PUSH1 0x3 DUP2 MSTORE PUSH3 0x4D4545 PUSH1 0xE8 SHL PUSH1 0x20 DUP3 ADD MSTORE DUP2 MLOAD PUSH1 0x1 PUSH1 0x1 PUSH1 0x40 SHL SUB DUP2 GT PUSH2 0x281 JUMPI PUSH1 0x3 SLOAD PUSH1 0x1 DUP2 DUP2 SHR SWAP2 AND DUP1 ISZERO PUSH2 0x364 JUMPI JUMPDEST PUSH1 0x20 DUP3 LT EQ PUSH2 0x263 JUMPI PUSH1 0x1F DUP2 GT PUSH2 0x301 JUMPI JUMPDEST POP PUSH1 0x20 SWAP3 PUSH1 0x1F DUP3 GT PUSH1 0x1 EQ PUSH2 0x2A0 JUMPI SWAP3 DUP2 SWAP3 SWAP4 PUSH0 SWAP3 PUSH2 0x295 JUMPI JUMPDEST POP POP DUP2 PUSH1 0x1 SHL SWAP2 PUSH0 NOT SWAP1 PUSH1 0x3 SHL SHR NOT AND OR PUSH1 0x3 SSTORE JUMPDEST DUP1 MLOAD PUSH1 0x1 PUSH1 0x1 PUSH1 0x40 SHL SUB DUP2 GT PUSH2 0x281 JUMPI PUSH1 0x4 SLOAD PUSH1 0x1 DUP2 DUP2 SHR SWAP2 AND DUP1 ISZERO PUSH2 0x277 JUMPI JUMPDEST PUSH1 0x20 DUP3 LT EQ PUSH2 0x263 JUMPI PUSH1 0x1F DUP2 GT PUSH2 0x200 JUMPI JUMPDEST POP PUSH1 0x20 SWAP2 PUSH1 0x1F DUP3 GT PUSH1 0x1 EQ PUSH2 0x1A0 JUMPI SWAP2 DUP2 SWAP3 PUSH0 SWAP3 PUSH2 0x195 JUMPI JUMPDEST POP POP DUP2 PUSH1 0x1 SHL SWAP2 PUSH0 NOT SWAP1 PUSH1 0x3 SHL SHR NOT AND OR PUSH1 0x4 SSTORE JUMPDEST CALLER ISZERO PUSH2 0x182 JUMPI PUSH1 0x5 DUP1 SLOAD CALLER PUSH1 0x1 PUSH1 0x1 PUSH1 0xA0 SHL SUB NOT DUP3 AND DUP2 OR SWAP1 SWAP3 SSTORE PUSH1 0x40 MLOAD SWAP2 SWAP1 PUSH1 0x1 PUSH1 0x1 PUSH1 0xA0 SHL SUB AND PUSH32 0x8BE0079C531659141344CD1FD0A4F28419497F9722A3DAAFE3B4186F6B6457E0 PUSH0 DUP1 LOG3 PUSH2 0xBA4 SWAP1 DUP2 PUSH2 0x373 DUP3 CODECOPY RETURN JUMPDEST PUSH4 0x1E4FBDF7 PUSH1 0xE0 SHL PUSH0 MSTORE PUSH0 PUSH1 0x4 MSTORE PUSH1 0x24 PUSH0 REVERT JUMPDEST ADD MLOAD SWAP1 POP PUSH0 DUP1 PUSH2 0x114 JUMP JUMPDEST PUSH1 0x1F NOT DUP3 AND SWAP3 PUSH1 0x4 PUSH0 MSTORE DUP1 PUSH0 KECCAK256 SWAP2 PUSH0 JUMPDEST DUP6 DUP2 LT PUSH2 0x1E8 JUMPI POP DUP4 PUSH1 0x1 SWAP6 LT PUSH2 0x1D0 JUMPI JUMPDEST POP POP POP DUP2 SHL ADD PUSH1 0x4 SSTORE PUSH2 0x129 JUMP JUMPDEST ADD MLOAD PUSH0 NOT PUSH1 0xF8 DUP5 PUSH1 0x3 SHL AND SHR NOT AND SWAP1 SSTORE PUSH0 DUP1 DUP1 PUSH2 0x1C2 JUMP JUMPDEST SWAP2 SWAP3 PUSH1 0x20 PUSH1 0x1 DUP2 SWAP3 DUP7 DUP6 ADD MLOAD DUP2 SSTORE ADD SWAP5 ADD SWAP3 ADD PUSH2 0x1B0 JUMP JUMPDEST PUSH1 0x4 PUSH0 MSTORE PUSH32 0x8A35ACFBC15FF81A39AE7D344FD709F28E8600B4AA8C65C6B64BFE7FE36BD19B PUSH1 0x1F DUP4 ADD PUSH1 0x5 SHR DUP2 ADD SWAP2 PUSH1 0x20 DUP5 LT PUSH2 0x259 JUMPI JUMPDEST PUSH1 0x1F ADD PUSH1 0x5 SHR ADD SWAP1 JUMPDEST DUP2 DUP2 LT PUSH2 0x24E JUMPI POP PUSH2 0xFB JUMP JUMPDEST PUSH0 DUP2 SSTORE PUSH1 0x1 ADD PUSH2 0x241 JUMP JUMPDEST SWAP1 SWAP2 POP DUP2 SWAP1 PUSH2 0x238 JUMP JUMPDEST PUSH4 0x4E487B71 PUSH1 0xE0 SHL PUSH0 MSTORE PUSH1 0x22 PUSH1 0x4 MSTORE PUSH1 0x24 PUSH0 REVERT JUMPDEST SWAP1 PUSH1 0x7F AND SWAP1 PUSH2 0xE9 JUMP JUMPDEST PUSH4 0x4E487B71 PUSH1 0xE0 SHL PUSH0 MSTORE PUSH1 0x41 PUSH1 0x4 MSTORE PUSH1 0x24 PUSH0 REVERT JUMPDEST ADD MLOAD SWAP1 POP PUSH0 DUP1 PUSH2 0xB3 JUMP JUMPDEST PUSH1 0x1F NOT DUP3 AND SWAP4 PUSH1 0x3 PUSH0 MSTORE DUP1 PUSH0 KECCAK256 SWAP2 PUSH0 JUMPDEST DUP7 DUP2 LT PUSH2 0x2E9 JUMPI POP DUP4 PUSH1 0x1 SWAP6 SWAP7 LT PUSH2 0x2D1 JUMPI JUMPDEST POP POP POP DUP2 SHL ADD PUSH1 0x3 SSTORE PUSH2 0xC8 JUMP JUMPDEST ADD MLOAD PUSH0 NOT PUSH1 0xF8 DUP5 PUSH1 0x3 SHL AND SHR NOT AND SWAP1 SSTORE PUSH0 DUP1 DUP1 PUSH2 0x2C3 JUMP JUMPDEST SWAP2 SWAP3 PUSH1 0x20 PUSH1 0x1 DUP2 SWAP3 DUP7 DUP6 ADD MLOAD DUP2 SSTORE ADD SWAP5 ADD SWAP3 ADD PUSH2 0x2B0 JUMP JUMPDEST PUSH1 0x3 PUSH0 MSTORE PUSH32 0xC2575A0E9E593C00F959F8C92F12DB2869C3395A3B0502D05E2516446F71F85B PUSH1 0x1F DUP4 ADD PUSH1 0x5 SHR DUP2 ADD SWAP2 PUSH1 0x20 DUP5 LT PUSH2 0x35A JUMPI JUMPDEST PUSH1 0x1F ADD PUSH1 0x5 SHR ADD SWAP1 JUMPDEST DUP2 DUP2 LT PUSH2 0x34F JUMPI POP PUSH2 0x99 JUMP JUMPDEST PUSH0 DUP2 SSTORE PUSH1 0x1 ADD PUSH2 0x342 JUMP JUMPDEST SWAP1 SWAP2 POP DUP2 SWAP1 PUSH2 0x339 JUMP JUMPDEST SWAP1 PUSH1 0x7F AND SWAP1 PUSH2 0x87 JUMP JUMPDEST PUSH0 DUP1 REVERT INVALID PUSH1 0x80 DUP1 PUSH1 0x40 MSTORE PUSH1 0x4 CALLDATASIZE LT ISZERO PUSH2 0x12 JUMPI PUSH0 DUP1 REVERT JUMPDEST PUSH0 CALLDATALOAD PUSH1 0xE0 SHR SWAP1 DUP2 PUSH4 0x6FDDE03 EQ PUSH2 0x8AF JUMPI POP DUP1 PUSH4 0x95EA7B3 EQ PUSH2 0x82D JUMPI DUP1 PUSH4 0xC984832 EQ PUSH2 0x7C5 JUMPI DUP1 PUSH4 0x18160DDD EQ PUSH2 0x7A8 JUMPI DUP1 PUSH4 0x23B872DD EQ PUSH2 0x6C9 JUMPI DUP1 PUSH4 0x274FF7CE EQ PUSH2 0x67B JUMPI DUP1 PUSH4 0x313CE567 EQ PUSH2 0x660 JUMPI DUP1 PUSH4 0x40C10F19 EQ PUSH2 0x55E JUMPI DUP1 PUSH4 0x70A08231 EQ PUSH2 0x527 JUMPI DUP1 PUSH4 0x715018A6 EQ PUSH2 0x4CC JUMPI DUP1 PUSH4 0x8DA5CB5B EQ PUSH2 0x4A4 JUMPI DUP1 PUSH4 0x95D89B41 EQ PUSH2 0x389 JUMPI DUP1 PUSH4 0x9DC29FAC EQ PUSH2 0x2F5 JUMPI DUP1 PUSH4 0xA9059CBB EQ PUSH2 0x2C4 JUMPI DUP1 PUSH4 0xAA271E1A EQ PUSH2 0x269 JUMPI DUP1 PUSH4 0xAA2FE91B EQ PUSH2 0x22C JUMPI DUP1 PUSH4 0xCFBD4885 EQ PUSH2 0x1C7 JUMPI DUP1 PUSH4 0xDD62ED3E EQ PUSH2 0x177 JUMPI PUSH4 0xF2FDE38B EQ PUSH2 0xED JUMPI PUSH0 DUP1 REVERT JUMPDEST CALLVALUE PUSH2 0x173 JUMPI PUSH1 0x20 CALLDATASIZE PUSH1 0x3 NOT ADD SLT PUSH2 0x173 JUMPI PUSH2 0x106 PUSH2 0x9A8 JUMP JUMPDEST PUSH2 0x10E PUSH2 0xA19 JUMP JUMPDEST PUSH1 0x1 PUSH1 0x1 PUSH1 0xA0 SHL SUB AND DUP1 ISZERO PUSH2 0x160 JUMPI PUSH1 0x5 DUP1 SLOAD PUSH1 0x1 PUSH1 0x1 PUSH1 0xA0 SHL SUB NOT DUP2 AND DUP4 OR SWAP1 SWAP2 SSTORE PUSH1 0x1 PUSH1 0x1 PUSH1 0xA0 SHL SUB AND PUSH32 0x8BE0079C531659141344CD1FD0A4F28419497F9722A3DAAFE3B4186F6B6457E0 PUSH0 DUP1 LOG3 STOP JUMPDEST PUSH4 0x1E4FBDF7 PUSH1 0xE0 SHL PUSH0 MSTORE PUSH0 PUSH1 0x4 MSTORE PUSH1 0x24 PUSH0 REVERT JUMPDEST PUSH0 DUP1 REVERT JUMPDEST CALLVALUE PUSH2 0x173 JUMPI PUSH1 0x40 CALLDATASIZE PUSH1 0x3 NOT ADD SLT PUSH2 0x173 JUMPI PUSH2 0x190 PUSH2 0x9A8 JUMP JUMPDEST PUSH2 0x198 PUSH2 0x9BE JUMP JUMPDEST PUSH1 0x1 PUSH1 0x1 PUSH1 0xA0 SHL SUB SWAP2 DUP3 AND PUSH0 SWAP1 DUP2 MSTORE PUSH1 0x1 PUSH1 0x20 SWAP1 DUP2 MSTORE PUSH1 0x40 DUP1 DUP4 KECCAK256 SWAP5 SWAP1 SWAP4 AND DUP3 MSTORE SWAP3 DUP4 MSTORE DUP2 SWAP1 KECCAK256 SLOAD SWAP1 MLOAD SWAP1 DUP2 MSTORE RETURN JUMPDEST CALLVALUE PUSH2 0x173 JUMPI PUSH1 0x20 CALLDATASIZE PUSH1 0x3 NOT ADD SLT PUSH2 0x173 JUMPI PUSH2 0x1E0 PUSH2 0x9A8 JUMP JUMPDEST PUSH2 0x1E8 PUSH2 0xA19 JUMP JUMPDEST PUSH1 0x1 PUSH1 0x1 PUSH1 0xA0 SHL SUB AND PUSH0 DUP2 DUP2 MSTORE PUSH1 0x6 PUSH1 0x20 MSTORE PUSH1 0x40 DUP2 KECCAK256 DUP1 SLOAD PUSH1 0xFF NOT AND SWAP1 SSTORE PUSH32 0x44F4322F8DAA225D5F4877AD0F7D3DFBA248A774396F3CA99405ED40A044FE81 SWAP1 DUP1 LOG2 STOP JUMPDEST CALLVALUE PUSH2 0x173 JUMPI PUSH1 0x20 CALLDATASIZE PUSH1 0x3 NOT ADD SLT PUSH2 0x173 JUMPI PUSH1 0x1 PUSH1 0x1 PUSH1 0xA0 SHL SUB PUSH2 0x24D PUSH2 0x9A8 JUMP JUMPDEST AND PUSH0 MSTORE PUSH1 0x6 PUSH1 0x20 MSTORE PUSH1 0x20 PUSH1 0xFF PUSH1 0x40 PUSH0 KECCAK256 SLOAD AND PUSH1 0x40 MLOAD SWAP1 ISZERO ISZERO DUP2 MSTORE RETURN JUMPDEST CALLVALUE PUSH2 0x173 JUMPI PUSH1 0x20 CALLDATASIZE PUSH1 0x3 NOT ADD SLT PUSH2 0x173 JUMPI PUSH1 0x20 PUSH1 0x1 PUSH1 0x1 PUSH1 0xA0 SHL SUB PUSH2 0x28C PUSH2 0x9A8 JUMP JUMPDEST AND DUP1 PUSH0 MSTORE PUSH1 0x6 DUP3 MSTORE PUSH1 0xFF PUSH1 0x40 PUSH0 KECCAK256 SLOAD AND SWAP1 DUP2 ISZERO PUSH2 0x2AF JUMPI JUMPDEST POP PUSH1 0x40 MLOAD SWAP1 ISZERO ISZERO DUP2 MSTORE RETURN JUMPDEST PUSH1 0x5 SLOAD PUSH1 0x1 PUSH1 0x1 PUSH1 0xA0 SHL SUB AND EQ SWAP1 POP DUP3 PUSH2 0x2A4 JUMP JUMPDEST CALLVALUE PUSH2 0x173 JUMPI PUSH1 0x40 CALLDATASIZE PUSH1 0x3 NOT ADD SLT PUSH2 0x173 JUMPI PUSH2 0x2EA PUSH2 0x2E0 PUSH2 0x9A8 JUMP JUMPDEST PUSH1 0x24 CALLDATALOAD SWAP1 CALLER PUSH2 0xA40 JUMP JUMPDEST PUSH1 0x20 PUSH1 0x40 MLOAD PUSH1 0x1 DUP2 MSTORE RETURN JUMPDEST CALLVALUE PUSH2 0x173 JUMPI PUSH1 0x40 CALLDATASIZE PUSH1 0x3 NOT ADD SLT PUSH2 0x173 JUMPI PUSH2 0x30E PUSH2 0x9A8 JUMP JUMPDEST PUSH1 0x24 CALLDATALOAD CALLER PUSH0 MSTORE PUSH1 0x6 PUSH1 0x20 MSTORE PUSH1 0xFF PUSH1 0x40 PUSH0 KECCAK256 SLOAD AND DUP1 ISZERO PUSH2 0x375 JUMPI JUMPDEST PUSH2 0x331 SWAP1 PUSH2 0x9D4 JUMP JUMPDEST PUSH2 0x33B DUP2 DUP4 PUSH2 0xAEA JUMP JUMPDEST PUSH1 0x40 MLOAD SWAP1 DUP2 MSTORE CALLER SWAP2 PUSH1 0x1 PUSH1 0x1 PUSH1 0xA0 SHL SUB AND SWAP1 PUSH32 0x8009940FB138AE33FBB70C10B643E840C71F1654344CC173975A815E117E687 SWAP1 PUSH1 0x20 SWAP1 LOG3 STOP JUMPDEST POP PUSH1 0x5 SLOAD PUSH1 0x1 PUSH1 0x1 PUSH1 0xA0 SHL SUB AND CALLER EQ PUSH2 0x328 JUMP JUMPDEST CALLVALUE PUSH2 0x173 JUMPI PUSH0 CALLDATASIZE PUSH1 0x3 NOT ADD SLT PUSH2 0x173 JUMPI PUSH1 0x40 MLOAD PUSH0 PUSH1 0x4 SLOAD DUP1 PUSH1 0x1 SHR SWAP1 PUSH1 0x1 DUP2 AND DUP1 ISZERO PUSH2 0x49A JUMPI JUMPDEST PUSH1 0x20 DUP4 LT DUP2 EQ PUSH2 0x486 JUMPI DUP3 DUP6 MSTORE SWAP1 DUP2 ISZERO PUSH2 0x46A JUMPI POP PUSH1 0x1 EQ PUSH2 0x415 JUMPI JUMPDEST POP DUP2 SWAP1 SUB PUSH1 0x1F ADD PUSH1 0x1F NOT AND DUP2 ADD SWAP1 PUSH8 0xFFFFFFFFFFFFFFFF DUP3 GT DUP2 DUP4 LT OR PUSH2 0x401 JUMPI PUSH2 0x3FD DUP3 SWAP2 DUP3 PUSH1 0x40 MSTORE DUP3 PUSH2 0x97E JUMP JUMPDEST SUB SWAP1 RETURN JUMPDEST PUSH4 0x4E487B71 PUSH1 0xE0 SHL PUSH0 MSTORE PUSH1 0x41 PUSH1 0x4 MSTORE PUSH1 0x24 PUSH0 REVERT JUMPDEST SWAP1 POP PUSH1 0x4 PUSH0 MSTORE PUSH32 0x8A35ACFBC15FF81A39AE7D344FD709F28E8600B4AA8C65C6B64BFE7FE36BD19B PUSH0 SWAP1 JUMPDEST DUP3 DUP3 LT PUSH2 0x454 JUMPI POP PUSH1 0x20 SWAP2 POP DUP3 ADD ADD DUP3 PUSH2 0x3CD JUMP JUMPDEST PUSH1 0x1 DUP2 PUSH1 0x20 SWAP3 SLOAD DUP4 DUP6 DUP9 ADD ADD MSTORE ADD SWAP2 ADD SWAP1 PUSH2 0x43F JUMP JUMPDEST SWAP1 POP PUSH1 0x20 SWAP3 POP PUSH1 0xFF NOT AND DUP3 DUP5 ADD MSTORE ISZERO ISZERO PUSH1 0x5 SHL DUP3 ADD ADD DUP3 PUSH2 0x3CD JUMP JUMPDEST PUSH4 0x4E487B71 PUSH1 0xE0 SHL PUSH0 MSTORE PUSH1 0x22 PUSH1 0x4 MSTORE PUSH1 0x24 PUSH0 REVERT JUMPDEST SWAP2 PUSH1 0x7F AND SWAP2 PUSH2 0x3B0 JUMP JUMPDEST CALLVALUE PUSH2 0x173 JUMPI PUSH0 CALLDATASIZE PUSH1 0x3 NOT ADD SLT PUSH2 0x173 JUMPI PUSH1 0x5 SLOAD PUSH1 0x40 MLOAD PUSH1 0x1 PUSH1 0x1 PUSH1 0xA0 SHL SUB SWAP1 SWAP2 AND DUP2 MSTORE PUSH1 0x20 SWAP1 RETURN JUMPDEST CALLVALUE PUSH2 0x173 JUMPI PUSH0 CALLDATASIZE PUSH1 0x3 NOT ADD SLT PUSH2 0x173 JUMPI PUSH2 0x4E4 PUSH2 0xA19 JUMP JUMPDEST PUSH1 0x5 DUP1 SLOAD PUSH1 0x1 PUSH1 0x1 PUSH1 0xA0 SHL SUB NOT DUP2 AND SWAP1 SWAP2 SSTORE PUSH0 SWAP1 PUSH1 0x1 PUSH1 0x1 PUSH1 0xA0 SHL SUB AND PUSH32 0x8BE0079C531659141344CD1FD0A4F28419497F9722A3DAAFE3B4186F6B6457E0 DUP3 DUP1 LOG3 STOP JUMPDEST CALLVALUE PUSH2 0x173 JUMPI PUSH1 0x20 CALLDATASIZE PUSH1 0x3 NOT ADD SLT PUSH2 0x173 JUMPI PUSH1 0x1 PUSH1 0x1 PUSH1 0xA0 SHL SUB PUSH2 0x548 PUSH2 0x9A8 JUMP JUMPDEST AND PUSH0 MSTORE PUSH0 PUSH1 0x20 MSTORE PUSH1 0x20 PUSH1 0x40 PUSH0 KECCAK256 SLOAD PUSH1 0x40 MLOAD SWAP1 DUP2 MSTORE RETURN JUMPDEST CALLVALUE PUSH2 0x173 JUMPI PUSH1 0x40 CALLDATASIZE PUSH1 0x3 NOT ADD SLT PUSH2 0x173 JUMPI PUSH2 0x577 PUSH2 0x9A8 JUMP JUMPDEST PUSH1 0x24 CALLDATALOAD SWAP1 CALLER PUSH0 MSTORE PUSH1 0x6 PUSH1 0x20 MSTORE PUSH1 0xFF PUSH1 0x40 PUSH0 KECCAK256 SLOAD AND DUP1 ISZERO PUSH2 0x64C JUMPI JUMPDEST PUSH2 0x59B SWAP1 PUSH2 0x9D4 JUMP JUMPDEST PUSH1 0x1 PUSH1 0x1 PUSH1 0xA0 SHL SUB AND DUP1 ISZERO PUSH2 0x639 JUMPI PUSH1 0x2 SLOAD DUP3 DUP2 ADD DUP1 SWAP2 GT PUSH2 0x625 JUMPI PUSH1 0x2 SSTORE DUP1 PUSH0 MSTORE PUSH0 PUSH1 0x20 MSTORE PUSH1 0x40 PUSH0 KECCAK256 DUP3 DUP2 SLOAD ADD SWAP1 SSTORE DUP1 PUSH0 PUSH32 0xDDF252AD1BE2C89B69C2B068FC378DAA952BA7F163C4A11628F55A4DF523B3EF PUSH1 0x20 PUSH1 0x40 MLOAD DUP7 DUP2 MSTORE LOG3 PUSH1 0x40 MLOAD SWAP2 DUP3 MSTORE PUSH32 0x969CD201F68F120BAFF2BF3C59BC3B534434E08B69A71A14AB85CB79CD3B63E4 PUSH1 0x20 CALLER SWAP4 LOG3 STOP JUMPDEST PUSH4 0x4E487B71 PUSH1 0xE0 SHL PUSH0 MSTORE PUSH1 0x11 PUSH1 0x4 MSTORE PUSH1 0x24 PUSH0 REVERT JUMPDEST PUSH4 0xEC442F05 PUSH1 0xE0 SHL PUSH0 MSTORE PUSH0 PUSH1 0x4 MSTORE PUSH1 0x24 PUSH0 REVERT JUMPDEST POP PUSH1 0x5 SLOAD PUSH1 0x1 PUSH1 0x1 PUSH1 0xA0 SHL SUB AND CALLER EQ PUSH2 0x592 JUMP JUMPDEST CALLVALUE PUSH2 0x173 JUMPI PUSH0 CALLDATASIZE PUSH1 0x3 NOT ADD SLT PUSH2 0x173 JUMPI PUSH1 0x20 PUSH1 0x40 MLOAD PUSH1 0x12 DUP2 MSTORE RETURN JUMPDEST CALLVALUE PUSH2 0x173 JUMPI PUSH1 0x20 CALLDATASIZE PUSH1 0x3 NOT ADD SLT PUSH2 0x173 JUMPI PUSH1 0x4 CALLDATALOAD PUSH2 0x699 DUP2 CALLER PUSH2 0xAEA JUMP JUMPDEST PUSH1 0x40 MLOAD SWAP1 DUP2 MSTORE CALLER SWAP1 PUSH32 0x8009940FB138AE33FBB70C10B643E840C71F1654344CC173975A815E117E687 PUSH1 0x20 CALLER SWAP3 LOG3 STOP JUMPDEST CALLVALUE PUSH2 0x173 JUMPI PUSH1 0x60 CALLDATASIZE PUSH1 0x3 NOT ADD SLT PUSH2 0x173 JUMPI PUSH2 0x6E2 PUSH2 0x9A8 JUMP JUMPDEST PUSH2 0x6EA PUSH2 0x9BE JUMP JUMPDEST PUSH1 0x1 PUSH1 0x1 PUSH1 0xA0 SHL SUB DUP3 AND PUSH0 DUP2 DUP2 MSTORE PUSH1 0x1 PUSH1 0x20 SWAP1 DUP2 MSTORE PUSH1 0x40 DUP1 DUP4 KECCAK256 CALLER DUP5 MSTORE SWAP1 SWAP2 MSTORE SWAP1 KECCAK256 SLOAD SWAP1 SWAP3 PUSH1 0x44 CALLDATALOAD SWAP3 SWAP2 PUSH0 NOT DUP2 LT PUSH2 0x728 JUMPI JUMPDEST POP PUSH2 0x2EA SWAP4 POP PUSH2 0xA40 JUMP JUMPDEST DUP4 DUP2 LT PUSH2 0x78D JUMPI DUP5 ISZERO PUSH2 0x77A JUMPI CALLER ISZERO PUSH2 0x767 JUMPI PUSH2 0x2EA SWAP5 PUSH0 MSTORE PUSH1 0x1 PUSH1 0x20 MSTORE PUSH1 0x40 PUSH0 KECCAK256 PUSH1 0x1 DUP1 PUSH1 0xA0 SHL SUB CALLER AND PUSH0 MSTORE PUSH1 0x20 MSTORE DUP4 PUSH1 0x40 PUSH0 KECCAK256 SWAP2 SUB SWAP1 SSTORE DUP5 PUSH2 0x71D JUMP JUMPDEST PUSH4 0x4A1406B1 PUSH1 0xE1 SHL PUSH0 MSTORE PUSH0 PUSH1 0x4 MSTORE PUSH1 0x24 PUSH0 REVERT JUMPDEST PUSH4 0xE602DF05 PUSH1 0xE0 SHL PUSH0 MSTORE PUSH0 PUSH1 0x4 MSTORE PUSH1 0x24 PUSH0 REVERT JUMPDEST DUP4 SWAP1 PUSH4 0x7DC7A0D9 PUSH1 0xE1 SHL PUSH0 MSTORE CALLER PUSH1 0x4 MSTORE PUSH1 0x24 MSTORE PUSH1 0x44 MSTORE PUSH1 0x64 PUSH0 REVERT JUMPDEST CALLVALUE PUSH2 0x173 JUMPI PUSH0 CALLDATASIZE PUSH1 0x3 NOT ADD SLT PUSH2 0x173 JUMPI PUSH1 0x20 PUSH1 0x2 SLOAD PUSH1 0x40 MLOAD SWAP1 DUP2 MSTORE RETURN JUMPDEST CALLVALUE PUSH2 0x173 JUMPI PUSH1 0x20 CALLDATASIZE PUSH1 0x3 NOT ADD SLT PUSH2 0x173 JUMPI PUSH2 0x7DE PUSH2 0x9A8 JUMP JUMPDEST PUSH2 0x7E6 PUSH2 0xA19 JUMP JUMPDEST PUSH1 0x1 PUSH1 0x1 PUSH1 0xA0 SHL SUB AND PUSH0 DUP2 DUP2 MSTORE PUSH1 0x6 PUSH1 0x20 MSTORE PUSH1 0x40 DUP2 KECCAK256 DUP1 SLOAD PUSH1 0xFF NOT AND PUSH1 0x1 OR SWAP1 SSTORE PUSH32 0x83B05B6735ACD4B85E3BDED8E72C851D1A87718F81E3C8E6F0C9D9A2BAA88E46 SWAP1 DUP1 LOG2 STOP JUMPDEST CALLVALUE PUSH2 0x173 JUMPI PUSH1 0x40 CALLDATASIZE PUSH1 0x3 NOT ADD SLT PUSH2 0x173 JUMPI PUSH2 0x846 PUSH2 0x9A8 JUMP JUMPDEST PUSH1 0x24 CALLDATALOAD SWAP1 CALLER ISZERO PUSH2 0x77A JUMPI PUSH1 0x1 PUSH1 0x1 PUSH1 0xA0 SHL SUB AND SWAP1 DUP2 ISZERO PUSH2 0x767 JUMPI CALLER PUSH0 MSTORE PUSH1 0x1 PUSH1 0x20 MSTORE PUSH1 0x40 PUSH0 KECCAK256 DUP3 PUSH0 MSTORE PUSH1 0x20 MSTORE DUP1 PUSH1 0x40 PUSH0 KECCAK256 SSTORE PUSH1 0x40 MLOAD SWAP1 DUP2 MSTORE PUSH32 0x8C5BE1E5EBEC7D5BD14F71427D1E84F3DD0314C0F7B2291E5B200AC8C7C3B925 PUSH1 0x20 CALLER SWAP3 LOG3 PUSH1 0x20 PUSH1 0x40 MLOAD PUSH1 0x1 DUP2 MSTORE RETURN JUMPDEST CALLVALUE PUSH2 0x173 JUMPI PUSH0 CALLDATASIZE PUSH1 0x3 NOT ADD SLT PUSH2 0x173 JUMPI PUSH0 PUSH1 0x3 SLOAD DUP1 PUSH1 0x1 SHR SWAP1 PUSH1 0x1 DUP2 AND DUP1 ISZERO PUSH2 0x974 JUMPI JUMPDEST PUSH1 0x20 DUP4 LT DUP2 EQ PUSH2 0x486 JUMPI DUP3 DUP6 MSTORE SWAP1 DUP2 ISZERO PUSH2 0x46A JUMPI POP PUSH1 0x1 EQ PUSH2 0x91F JUMPI POP DUP2 SWAP1 SUB PUSH1 0x1F ADD PUSH1 0x1F NOT AND DUP2 ADD SWAP1 PUSH8 0xFFFFFFFFFFFFFFFF DUP3 GT DUP2 DUP4 LT OR PUSH2 0x401 JUMPI PUSH2 0x3FD DUP3 SWAP2 DUP3 PUSH1 0x40 MSTORE DUP3 PUSH2 0x97E JUMP JUMPDEST SWAP1 POP PUSH1 0x3 PUSH0 MSTORE PUSH32 0xC2575A0E9E593C00F959F8C92F12DB2869C3395A3B0502D05E2516446F71F85B PUSH0 SWAP1 JUMPDEST DUP3 DUP3 LT PUSH2 0x95E JUMPI POP PUSH1 0x20 SWAP2 POP DUP3 ADD ADD DUP3 PUSH2 0x3CD JUMP JUMPDEST PUSH1 0x1 DUP2 PUSH1 0x20 SWAP3 SLOAD DUP4 DUP6 DUP9 ADD ADD MSTORE ADD SWAP2 ADD SWAP1 PUSH2 0x949 JUMP JUMPDEST SWAP2 PUSH1 0x7F AND SWAP2 PUSH2 0x8D3 JUMP JUMPDEST PUSH1 0x20 PUSH1 0x40 SWAP3 DUP2 DUP4 MSTORE DUP1 MLOAD SWAP2 DUP3 SWAP2 DUP3 DUP3 DUP7 ADD MSTORE ADD DUP5 DUP5 ADD MCOPY PUSH0 DUP3 DUP3 ADD DUP5 ADD MSTORE PUSH1 0x1F ADD PUSH1 0x1F NOT AND ADD ADD SWAP1 JUMP JUMPDEST PUSH1 0x4 CALLDATALOAD SWAP1 PUSH1 0x1 PUSH1 0x1 PUSH1 0xA0 SHL SUB DUP3 AND DUP3 SUB PUSH2 0x173 JUMPI JUMP JUMPDEST PUSH1 0x24 CALLDATALOAD SWAP1 PUSH1 0x1 PUSH1 0x1 PUSH1 0xA0 SHL SUB DUP3 AND DUP3 SUB PUSH2 0x173 JUMPI JUMP JUMPDEST ISZERO PUSH2 0x9DB JUMPI JUMP JUMPDEST PUSH1 0x40 MLOAD PUSH3 0x461BCD PUSH1 0xE5 SHL DUP2 MSTORE PUSH1 0x20 PUSH1 0x4 DUP3 ADD MSTORE PUSH1 0x16 PUSH1 0x24 DUP3 ADD MSTORE PUSH22 0x139BDD08185D5D1A1BDC9A5E9959081D1BC81B5A5B9D PUSH1 0x52 SHL PUSH1 0x44 DUP3 ADD MSTORE PUSH1 0x64 SWAP1 REVERT JUMPDEST PUSH1 0x5 SLOAD PUSH1 0x1 PUSH1 0x1 PUSH1 0xA0 SHL SUB AND CALLER SUB PUSH2 0xA2D JUMPI JUMP JUMPDEST PUSH4 0x118CDAA7 PUSH1 0xE0 SHL PUSH0 MSTORE CALLER PUSH1 0x4 MSTORE PUSH1 0x24 PUSH0 REVERT JUMPDEST PUSH1 0x1 PUSH1 0x1 PUSH1 0xA0 SHL SUB AND SWAP1 DUP2 ISZERO PUSH2 0xAD7 JUMPI PUSH1 0x1 PUSH1 0x1 PUSH1 0xA0 SHL SUB AND SWAP2 DUP3 ISZERO PUSH2 0x639 JUMPI DUP2 PUSH0 MSTORE PUSH0 PUSH1 0x20 MSTORE PUSH1 0x40 PUSH0 KECCAK256 SLOAD DUP2 DUP2 LT PUSH2 0xABE JUMPI DUP2 PUSH32 0xDDF252AD1BE2C89B69C2B068FC378DAA952BA7F163C4A11628F55A4DF523B3EF SWAP3 PUSH1 0x20 SWAP3 DUP6 PUSH0 MSTORE PUSH0 DUP5 MSTORE SUB PUSH1 0x40 PUSH0 KECCAK256 SSTORE DUP5 PUSH0 MSTORE PUSH0 DUP3 MSTORE PUSH1 0x40 PUSH0 KECCAK256 DUP2 DUP2 SLOAD ADD SWAP1 SSTORE PUSH1 0x40 MLOAD SWAP1 DUP2 MSTORE LOG3 JUMP JUMPDEST DUP3 PUSH4 0x391434E3 PUSH1 0xE2 SHL PUSH0 MSTORE PUSH1 0x4 MSTORE PUSH1 0x24 MSTORE PUSH1 0x44 MSTORE PUSH1 0x64 PUSH0 REVERT JUMPDEST PUSH4 0x4B637E8F PUSH1 0xE1 SHL PUSH0 MSTORE PUSH0 PUSH1 0x4 MSTORE PUSH1 0x24 PUSH0 REVERT JUMPDEST SWAP1 SWAP2 SWAP1 PUSH1 0x1 PUSH1 0x1 PUSH1 0xA0 SHL SUB AND DUP1 ISZERO PUSH2 0xAD7 JUMPI DUP1 PUSH0 MSTORE PUSH0 PUSH1 0x20 MSTORE PUSH1 0x40 PUSH0 KECCAK256 SLOAD DUP4 DUP2 LT PUSH2 0xB54 JUMPI PUSH1 0x20 DUP5 PUSH0 SWAP5 SWAP6 PUSH32 0xDDF252AD1BE2C89B69C2B068FC378DAA952BA7F163C4A11628F55A4DF523B3EF SWAP4 DUP6 DUP8 MSTORE DUP7 DUP5 MSTORE SUB PUSH1 0x40 DUP7 KECCAK256 SSTORE DUP1 PUSH1 0x2 SLOAD SUB PUSH1 0x2 SSTORE PUSH1 0x40 MLOAD SWAP1 DUP2 MSTORE LOG3 JUMP JUMPDEST SWAP2 POP PUSH4 0x391434E3 PUSH1 0xE2 SHL PUSH0 MSTORE PUSH1 0x4 MSTORE PUSH1 0x24 MSTORE PUSH1 0x44 MSTORE PUSH1 0x64 PUSH0 REVERT INVALID LOG2 PUSH5 0x6970667358 0x22 SLT KECCAK256 0xED TLOAD BASEFEE SIGNEXTEND DUP13 0xDD 0x4C 0xBE INVALID CALL NOT 0xE0 PUSH22 0x9CFF29A9190F43698CAD40209FEC891953890A64736F PUSH13 0x634300081C0033000000000000 "},"methodIdentifiers":{"allowance(address,address)":"dd62ed3e","approve(address,uint256)":"095ea7b3","authorizeMinter(address)":"0c984832","authorizedMinters(address)":"aa2fe91b","balanceOf(address)":"70a08231","burn(address,uint256)":"9dc29fac","burnFrom(uint256)":"274ff7ce","decimals()":"313ce567","isMinter(address)":"aa271e1a","mint(address,uint256)":"40c10f19","name()":"06fdde03","owner()":"8da5cb5b","renounceOwnership()":"715018a6","revokeMinter(address)":"cfbd4885","symbol()":"95d89b41","totalSupply()":"18160ddd","transfer(address,uint256)":"a9059cbb","transferFrom(address,address,uint256)":"23b872dd","transferOwnership(address)":"f2fde38b"}}}}}