{"project/contracts/MeeBadgeNFT.sol":{"MeeBadgeNFT":{"abi":[{"inputs":[],"stateMutability":"nonpayable","type":"constructor"},{"inputs":[{"internalType":"address","name":"sender","type":"address"},{"internalType":"uint256","name":"tokenId","type":"uint256"},{"internalType":"address","name":"owner","type":"address"}],"name":"ERC721IncorrectOwner","type":"error"},{"inputs":[{"internalType":"address","name":"operator","type":"address"},{"internalType":"uint256","name":"tokenId","type":"uint256"}],"name":"ERC721InsufficientApproval","type":"error"},{"inputs":[{"internalType":"address","name":"approver","type":"address"}],"name":"ERC721InvalidApprover","type":"error"},{"inputs":[{"internalType":"address","name":"operator","type":"address"}],"name":"ERC721InvalidOperator","type":"error"},{"inputs":[{"internalType":"address","name":"owner","type":"address"}],"name":"ERC721InvalidOwner","type":"error"},{"inputs":[{"internalType":"address","name":"receiver","type":"address"}],"name":"ERC721InvalidReceiver","type":"error"},{"inputs":[{"internalType":"address","name":"sender","type":"address"}],"name":"ERC721InvalidSender","type":"error"},{"inputs":[{"internalType":"uint256","name":"tokenId","type":"uint256"}],"name":"ERC721NonexistentToken","type":"error"},{"inputs":[],"name":"EnforcedPause","type":"error"},{"inputs":[],"name":"ExpectedPause","type":"error"},{"inputs":[{"internalType":"address","name":"owner","type":"address"}],"name":"OwnableInvalidOwner","type":"error"},{"inputs":[{"internalType":"address","name":"account","type":"address"}],"name":"OwnableUnauthorizedAccount","type":"error"},{"anonymous":false,"inputs":[{"indexed":true,"internalType":"address","name":"owner","type":"address"},{"indexed":true,"internalType":"address","name":"approved","type":"address"},{"indexed":true,"internalType":"uint256","name":"tokenId","type":"uint256"}],"name":"Approval","type":"event"},{"anonymous":false,"inputs":[{"indexed":true,"internalType":"address","name":"owner","type":"address"},{"indexed":true,"internalType":"address","name":"operator","type":"address"},{"indexed":false,"internalType":"bool","name":"approved","type":"bool"}],"name":"ApprovalForAll","type":"event"},{"anonymous":false,"inputs":[{"indexed":true,"internalType":"address","name":"to","type":"address"},{"indexed":true,"internalType":"uint256","name":"tokenId","type":"uint256"},{"indexed":false,"internalType":"string","name":"name","type":"string"},{"indexed":false,"internalType":"string","name":"power","type":"string"},{"indexed":false,"internalType":"uint256","name":"level","type":"uint256"},{"indexed":false,"internalType":"enum MeeBadgeNFT.Rarity","name":"rarity","type":"uint8"}],"name":"BadgeMinted","type":"event"},{"anonymous":false,"inputs":[{"indexed":true,"internalType":"uint256","name":"tokenId","type":"uint256"},{"indexed":false,"internalType":"uint256","name":"newLevel","type":"uint256"},{"indexed":false,"internalType":"string","name":"enhancedPower","type":"string"}],"name":"BadgeUpgraded","type":"event"},{"anonymous":false,"inputs":[{"indexed":false,"internalType":"uint256","name":"_fromTokenId","type":"uint256"},{"indexed":false,"internalType":"uint256","name":"_toTokenId","type":"uint256"}],"name":"BatchMetadataUpdate","type":"event"},{"anonymous":false,"inputs":[{"indexed":false,"internalType":"uint256","name":"_tokenId","type":"uint256"}],"name":"MetadataUpdate","type":"event"},{"anonymous":false,"inputs":[{"indexed":true,"internalType":"address","name":"previousOwner","type":"address"},{"indexed":true,"internalType":"address","name":"newOwner","type":"address"}],"name":"OwnershipTransferred","type":"event"},{"anonymous":false,"inputs":[{"indexed":false,"internalType":"address","name":"account","type":"address"}],"name":"Paused","type":"event"},{"anonymous":false,"inputs":[{"indexed":true,"internalType":"address","name":"user","type":"address"},{"indexed":false,"internalType":"uint256","name":"tokenId","type":"uint256"},{"indexed":false,"internalType":"string","name":"power","type":"string"},{"indexed":false,"internalType":"uint256","name":"boostValue","type":"uint256"}],"name":"PowerActivated","type":"event"},{"anonymous":false,"inputs":[{"indexed":true,"internalType":"address","name":"user","type":"address"},{"indexed":false,"internalType":"string","name":"setId","type":"string"},{"indexed":false,"internalType":"uint256","name":"rewardTokenId","type":"uint256"},{"indexed":false,"internalType":"string","name":"meeBotQuote","type":"string"}],"name":"QuestSetCompleted","type":"event"},{"anonymous":false,"inputs":[{"indexed":false,"internalType":"string","name":"setId","type":"string"},{"indexed":false,"internalType":"string","name":"title","type":"string"}],"name":"QuestSetCreated","type":"event"},{"anonymous":false,"inputs":[{"indexed":true,"internalType":"address","name":"from","type":"address"},{"indexed":true,"internalType":"address","name":"to","type":"address"},{"indexed":true,"internalType":"uint256","name":"tokenId","type":"uint256"}],"name":"Transfer","type":"event"},{"anonymous":false,"inputs":[{"indexed":false,"internalType":"address","name":"account","type":"address"}],"name":"Unpaused","type":"event"},{"inputs":[{"internalType":"uint256","name":"tokenId","type":"uint256"}],"name":"activatePower","outputs":[],"stateMutability":"nonpayable","type":"function"},{"inputs":[{"internalType":"uint256","name":"","type":"uint256"}],"name":"activeQuestSets","outputs":[{"internalType":"string","name":"","type":"string"}],"stateMutability":"view","type":"function"},{"inputs":[{"internalType":"address","name":"to","type":"address"},{"internalType":"uint256","name":"tokenId","type":"uint256"}],"name":"approve","outputs":[],"stateMutability":"nonpayable","type":"function"},{"inputs":[{"internalType":"address","name":"minter","type":"address"}],"name":"authorizeMinter","outputs":[],"stateMutability":"nonpayable","type":"function"},{"inputs":[{"internalType":"address","name":"","type":"address"}],"name":"authorizedMinters","outputs":[{"internalType":"bool","name":"","type":"bool"}],"stateMutability":"view","type":"function"},{"inputs":[{"internalType":"uint256","name":"","type":"uint256"}],"name":"badges","outputs":[{"internalType":"uint256","name":"tokenId","type":"uint256"},{"internalType":"string","name":"name","type":"string"},{"internalType":"string","name":"description","type":"string"},{"internalType":"string","name":"power","type":"string"},{"internalType":"uint256","name":"level","type":"uint256"},{"internalType":"uint256","name":"maxLevel","type":"uint256"},{"internalType":"enum MeeBadgeNFT.Rarity","name":"rarity","type":"uint8"},{"internalType":"enum MeeBadgeNFT.Category","name":"category","type":"uint8"},{"internalType":"uint256","name":"mintedAt","type":"uint256"},{"internalType":"address","name":"originalOwner","type":"address"},{"internalType":"bool","name":"isQuestReward","type":"bool"},{"internalType":"string","name":"questId","type":"string"},{"internalType":"uint256","name":"powerBoost","type":"uint256"},{"internalType":"bool","name":"isUpgradeable","type":"bool"}],"stateMutability":"view","type":"function"},{"inputs":[{"internalType":"address","name":"owner","type":"address"}],"name":"balanceOf","outputs":[{"internalType":"uint256","name":"","type":"uint256"}],"stateMutability":"view","type":"function"},{"inputs":[{"internalType":"string","name":"setId","type":"string"},{"internalType":"string","name":"title","type":"string"},{"internalType":"string","name":"description","type":"string"},{"internalType":"string[]","name":"requiredBadges","type":"string[]"},{"internalType":"string","name":"rewardName","type":"string"},{"internalType":"string","name":"rewardDescription","type":"string"},{"internalType":"string","name":"rewardPower","type":"string"},{"internalType":"uint256","name":"rewardPowerBoost","type":"uint256"},{"internalType":"enum MeeBadgeNFT.Rarity","name":"rewardRarity","type":"uint8"},{"internalType":"enum MeeBadgeNFT.Category","name":"rewardCategory","type":"uint8"},{"internalType":"string","name":"rewardTokenURI","type":"string"},{"internalType":"string","name":"meeBotQuote","type":"string"},{"internalType":"uint256","name":"xpReward","type":"uint256"},{"internalType":"uint256","name":"tokenReward","type":"uint256"}],"name":"createQuestSet","outputs":[],"stateMutability":"nonpayable","type":"function"},{"inputs":[],"name":"getActiveQuestSets","outputs":[{"internalType":"string[]","name":"","type":"string[]"}],"stateMutability":"view","type":"function"},{"inputs":[{"internalType":"uint256","name":"tokenId","type":"uint256"}],"name":"getApproved","outputs":[{"internalType":"address","name":"","type":"address"}],"stateMutability":"view","type":"function"},{"inputs":[{"internalType":"address","name":"user","type":"address"},{"internalType":"string","name":"setId","type":"string"}],"name":"getQuestSetProgress","outputs":[{"internalType":"uint256","name":"completed","type":"uint256"},{"internalType":"uint256","name":"total","type":"uint256"},{"internalType":"bool","name":"isCompleted","type":"bool"},{"internalType":"string","name":"meeBotQuote","type":"string"}],"stateMutability":"view","type":"function"},{"inputs":[{"internalType":"enum MeeBadgeNFT.Rarity","name":"rarity","type":"uint8"}],"name":"getRarityMaxLevel","outputs":[{"internalType":"uint256","name":"","type":"uint256"}],"stateMutability":"pure","type":"function"},{"inputs":[{"internalType":"enum MeeBadgeNFT.Rarity","name":"rarity","type":"uint8"}],"name":"getRarityXPReward","outputs":[{"internalType":"uint256","name":"","type":"uint256"}],"stateMutability":"pure","type":"function"},{"inputs":[{"internalType":"address","name":"user","type":"address"}],"name":"getUserBadgesWithPowers","outputs":[{"components":[{"internalType":"uint256","name":"tokenId","type":"uint256"},{"internalType":"string","name":"name","type":"string"},{"internalType":"string","name":"description","type":"string"},{"internalType":"string","name":"power","type":"string"},{"internalType":"uint256","name":"level","type":"uint256"},{"internalType":"uint256","name":"maxLevel","type":"uint256"},{"internalType":"enum MeeBadgeNFT.Rarity","name":"rarity","type":"uint8"},{"internalType":"enum MeeBadgeNFT.Category","name":"category","type":"uint8"},{"internalType":"uint256","name":"mintedAt","type":"uint256"},{"internalType":"address","name":"originalOwner","type":"address"},{"internalType":"bool","name":"isQuestReward","type":"bool"},{"internalType":"string","name":"questId","type":"string"},{"internalType":"uint256","name":"powerBoost","type":"uint256"},{"internalType":"bool","name":"isUpgradeable","type":"bool"}],"internalType":"struct MeeBadgeNFT.Badge[]","name":"","type":"tuple[]"}],"stateMutability":"view","type":"function"},{"inputs":[{"internalType":"address","name":"owner","type":"address"},{"internalType":"address","name":"operator","type":"address"}],"name":"isApprovedForAll","outputs":[{"internalType":"bool","name":"","type":"bool"}],"stateMutability":"view","type":"function"},{"inputs":[{"internalType":"address","name":"to","type":"address"},{"internalType":"string","name":"name","type":"string"},{"internalType":"string","name":"description","type":"string"},{"internalType":"string","name":"power","type":"string"},{"internalType":"uint256","name":"powerBoost","type":"uint256"},{"internalType":"enum MeeBadgeNFT.Rarity","name":"rarity","type":"uint8"},{"internalType":"enum MeeBadgeNFT.Category","name":"category","type":"uint8"},{"internalType":"string","name":"tokenURI","type":"string"},{"internalType":"bool","name":"isQuestReward","type":"bool"},{"internalType":"string","name":"questId","type":"string"}],"name":"mintBadge","outputs":[{"internalType":"uint256","name":"","type":"uint256"}],"stateMutability":"nonpayable","type":"function"},{"inputs":[],"name":"name","outputs":[{"internalType":"string","name":"","type":"string"}],"stateMutability":"view","type":"function"},{"inputs":[],"name":"owner","outputs":[{"internalType":"address","name":"","type":"address"}],"stateMutability":"view","type":"function"},{"inputs":[{"internalType":"uint256","name":"tokenId","type":"uint256"}],"name":"ownerOf","outputs":[{"internalType":"address","name":"","type":"address"}],"stateMutability":"view","type":"function"},{"inputs":[],"name":"pause","outputs":[],"stateMutability":"nonpayable","type":"function"},{"inputs":[],"name":"paused","outputs":[{"internalType":"bool","name":"","type":"bool"}],"stateMutability":"view","type":"function"},{"inputs":[{"internalType":"address","name":"","type":"address"},{"internalType":"string","name":"","type":"string"}],"name":"questSetCompleted","outputs":[{"internalType":"bool","name":"","type":"bool"}],"stateMutability":"view","type":"function"},{"inputs":[{"internalType":"string","name":"","type":"string"},{"internalType":"uint256","name":"","type":"uint256"}],"name":"questSetCompletors","outputs":[{"internalType":"address","name":"","type":"address"}],"stateMutability":"view","type":"function"},{"inputs":[{"internalType":"string","name":"","type":"string"}],"name":"questSets","outputs":[{"internalType":"string","name":"setId","type":"string"},{"internalType":"string","name":"title","type":"string"},{"internalType":"string","name":"description","type":"string"},{"components":[{"internalType":"uint256","name":"tokenId","type":"uint256"},{"internalType":"string","name":"name","type":"string"},{"internalType":"string","name":"description","type":"string"},{"internalType":"string","name":"power","type":"string"},{"internalType":"uint256","name":"level","type":"uint256"},{"internalType":"uint256","name":"maxLevel","type":"uint256"},{"internalType":"enum MeeBadgeNFT.Rarity","name":"rarity","type":"uint8"},{"internalType":"enum MeeBadgeNFT.Category","name":"category","type":"uint8"},{"internalType":"uint256","name":"mintedAt","type":"uint256"},{"internalType":"address","name":"originalOwner","type":"address"},{"internalType":"bool","name":"isQuestReward","type":"bool"},{"internalType":"string","name":"questId","type":"string"},{"internalType":"uint256","name":"powerBoost","type":"uint256"},{"internalType":"bool","name":"isUpgradeable","type":"bool"}],"internalType":"struct MeeBadgeNFT.Badge","name":"rewardBadge","type":"tuple"},{"internalType":"uint256","name":"completions","type":"uint256"},{"internalType":"bool","name":"isActive","type":"bool"},{"internalType":"string","name":"meeBotQuote","type":"string"},{"internalType":"uint256","name":"xpReward","type":"uint256"},{"internalType":"uint256","name":"tokenReward","type":"uint256"}],"stateMutability":"view","type":"function"},{"inputs":[],"name":"renounceOwnership","outputs":[],"stateMutability":"nonpayable","type":"function"},{"inputs":[{"internalType":"address","name":"from","type":"address"},{"internalType":"address","name":"to","type":"address"},{"internalType":"uint256","name":"tokenId","type":"uint256"}],"name":"safeTransferFrom","outputs":[],"stateMutability":"nonpayable","type":"function"},{"inputs":[{"internalType":"address","name":"from","type":"address"},{"internalType":"address","name":"to","type":"address"},{"internalType":"uint256","name":"tokenId","type":"uint256"},{"internalType":"bytes","name":"data","type":"bytes"}],"name":"safeTransferFrom","outputs":[],"stateMutability":"nonpayable","type":"function"},{"inputs":[{"internalType":"address","name":"operator","type":"address"},{"internalType":"bool","name":"approved","type":"bool"}],"name":"setApprovalForAll","outputs":[],"stateMutability":"nonpayable","type":"function"},{"inputs":[{"internalType":"bytes4","name":"interfaceId","type":"bytes4"}],"name":"supportsInterface","outputs":[{"internalType":"bool","name":"","type":"bool"}],"stateMutability":"view","type":"function"},{"inputs":[],"name":"symbol","outputs":[{"internalType":"string","name":"","type":"string"}],"stateMutability":"view","type":"function"},{"inputs":[{"internalType":"uint256","name":"tokenId","type":"uint256"}],"name":"tokenURI","outputs":[{"internalType":"string","name":"","type":"string"}],"stateMutability":"view","type":"function"},{"inputs":[{"internalType":"address","name":"from","type":"address"},{"internalType":"address","name":"to","type":"address"},{"internalType":"uint256","name":"tokenId","type":"uint256"}],"name":"transferFrom","outputs":[],"stateMutability":"nonpayable","type":"function"},{"inputs":[{"internalType":"address","name":"newOwner","type":"address"}],"name":"transferOwnership","outputs":[],"stateMutability":"nonpayable","type":"function"},{"inputs":[],"name":"unpause","outputs":[],"stateMutability":"nonpayable","type":"function"},{"inputs":[{"internalType":"uint256","name":"tokenId","type":"uint256"}],"name":"upgradeBadge","outputs":[],"stateMutability":"nonpayable","type":"function"},{"inputs":[{"internalType":"uint256","name":"tokenId","type":"uint256"},{"internalType":"uint8","name":"newRarity","type":"uint8"}],"name":"upgradeBadgeRarity","outputs":[],"stateMutability":"nonpayable","type":"function"},{"inputs":[{"internalType":"address","name":"","type":"address"},{"internalType":"uint256","name":"","type":"uint256"}],"name":"userBadges","outputs":[{"internalType":"uint256","name":"","type":"uint256"}],"stateMutability":"view","type":"function"},{"inputs":[{"internalType":"address","name":"","type":"address"},{"internalType":"string","name":"","type":"string"}],"name":"userHasBadge","outputs":[{"internalType":"bool","name":"","type":"bool"}],"stateMutability":"view","type":"function"},{"inputs":[{"internalType":"address","name":"","type":"address"}],"name":"userLevel","outputs":[{"internalType":"uint256","name":"","type":"uint256"}],"stateMutability":"view","type":"function"},{"inputs":[{"internalType":"address","name":"","type":"address"}],"name":"userXP","outputs":[{"internalType":"uint256","name":"","type":"uint256"}],"stateMutability":"view","type":"function"}],"evm":{"bytecode":{"linkReferences":{},"object":"60806040523461037857604080519081016001600160401b0381118282101761028e576040908152601282527113595950da185a5b8810985919d94813919560721b602083015280519081016001600160401b0381118282101761028e5760405260088152674d4545424144474560c01b602082015281516001600160401b03811161028e575f54600181811c9116801561036e575b602082101461027057601f811161030c575b50602092601f82116001146102ad57928192935f926102a2575b50508160011b915f199060031b1c1916175f555b80516001600160401b03811161028e57600154600181811c91168015610284575b602082101461027057601f811161020d575b50602091601f82116001146101ad579181925f926101a2575b50508160011b915f199060031b1c1916176001555b331561018f5760078054336001600160a01b03198216811790925560405191906001600160a01b03167f8be0079c531659141344cd1fd0a4f28419497f9722a3daafe3b4186f6b6457e05f80a361351a908161037d8239f35b631e4fbdf760e01b5f525f60045260245ffd5b015190505f80610121565b601f1982169260015f52805f20915f5b8581106101f5575083600195106101dd575b505050811b01600155610136565b01515f1960f88460031b161c191690555f80806101cf565b919260206001819286850151815501940192016101bd565b60015f527fb10e2d527612073b26eecdfd717e6a320cf44b4afac2b0732d9fcbe2b7fa0cf6601f830160051c81019160208410610266575b601f0160051c01905b81811061025b5750610108565b5f815560010161024e565b9091508190610245565b634e487b7160e01b5f52602260045260245ffd5b90607f16906100f6565b634e487b7160e01b5f52604160045260245ffd5b015190505f806100c1565b601f198216935f8052805f20915f5b8681106102f457508360019596106102dc575b505050811b015f556100d5565b01515f1960f88460031b161c191690555f80806102cf565b919260206001819286850151815501940192016102bc565b5f80527f290decd9548b62a8d60345a988386fc84ba6bc95484008f6362f93160ef3e563601f830160051c81019160208410610364575b601f0160051c01905b81811061035957506100a7565b5f815560010161034c565b9091508190610343565b90607f1690610095565b5f80fdfe6080806040526004361015610012575f80fd5b5f3560e01c90816301ffc9a7146124d65750806306fdde0314612434578063081812fc146123f8578063095ea7b31461230e57806309cf6c29146122925780630c9848321461224e578063111f57d61461221c57806311651d5b146121045780631e4190f1146120cd578063239322301461209557806323b872dd1461207e578063280e31cc146120465780632dc58040146118495780633f4ba83a146117db57806342842e0e146117ac5780635c975abb146117875780636352211e1461175757806370a0823114611706578063715018a6146116ab578063763f4df1146116835780638456cb59146116105780638da5cb5b146115e85780638f41e098146115aa57806395d89b41146114e0578063973417d31461131f57806398e36d8b146111e5578063a22cb46514611141578063aa2fe91b14611104578063b88d4fde14611097578063c87b56dd14611060578063dbb568a914610e94578063dc6d0a1214610cc3578063df91cc2314610c6b578063e36cf90614610baf578063e4a9b26014610ac9578063e985e9c514610a72578063f27bacdb146104c2578063f2fde38b1461043c578063f390db18146102085763fd52920e146101d4575f80fd5b34610204576020366003190112610204576004356005811015610204576101fc602091612f9b565b604051908152f35b5f80fd5b346102045760403660031901126102045760043560243560ff811680910361020457335f52601260205260ff60405f2054168015610428575b156103e3575f82815260026020526040902054610268906001600160a01b03161515612deb565b600481116103a757815f52600960205260405f2061028c60ff600b83015416612e6c565b600681019160ff835416906102a0826127ea565b81811115610362576102b1826127ea565b6102ba816127ea565b6102c48185612cd7565b0360ff811161034e5760ff600a9116029160ff831692830361034e5760ff610320917f9bf2f37aa04bdb81dbb914b6f742f4aed11541eded6eb43a6b0147833f3e198794610317600a8601918254612d23565b90555416612f9b565b600582015560048101546103496040519283928352604060208401526003604084019101612f1a565b0390a2005b634e487b7160e01b5f52601160045260245ffd5b60405162461bcd60e51b815260206004820152601960248201527f4e657720726172697479206d75737420626520686967686572000000000000006044820152606490fd5b60405162461bcd60e51b8152602060048201526014602482015273125b9d985b1a59081c985c9a5d1e481b195d995b60621b6044820152606490fd5b60405162461bcd60e51b815260206004820152601960248201527f4e6f7420617574686f72697a656420746f2075706772616465000000000000006044820152606490fd5b506007546001600160a01b03163314610241565b346102045760203660031901126102045761045561257f565b61045d613044565b6001600160a01b031680156104af57600780546001600160a01b0319811683179091556001600160a01b03167f8be0079c531659141344cd1fd0a4f28419497f9722a3daafe3b4186f6b6457e05f80a3005b631e4fbdf760e01b5f525f60045260245ffd5b34610204576101c0366003190112610204576004356001600160401b038111610204576104f3903690600401612655565b6024356001600160401b03811161020457610512903690600401612655565b6044356001600160401b03811161020457610531903690600401612655565b606435906001600160401b038211610204573660238301121561020457816004013561055c81612a04565b9261056a60405194856125e3565b8184526024602085019260051b820101903682116102045760248101925b828410610a4357505050506084356001600160401b038111610204576105b2903690600401612655565b60a4356001600160401b038111610204576105d1903690600401612655565b60c4356001600160401b038111610204576105f0903690600401612655565b9161010435936005851015610204576101243591600583101561020457610144356001600160401b0381116102045761062d903690600401612655565b5061016435926001600160401b03841161020457899661076f966106576001963690600401612655565b96610660613044565b6040519461066d866125ab565b5f8652602086015260408501526060840152846080840152600560a0840152610695816127ea565b60c08301526106a3816127ea565b60e08201525f6101008201525f610120820152826101408201528561016082015260e435610180820152826101a082015260405196879586936106e5856125c7565b888552610765602086018c815260408701928352606087019485526080870195865261075b60208061012061010060a08c019b5f8d5260c081019d8e5260e081019e8f52019d8e610184359052019d8e6101a4359052604051928184925191829101835e8101600c8152030190209c518d612bdf565b5160018c01612bdf565b5160028a01612bdf565b518051906003890190600160401b831161099b5781548383558084106109cc575b50602001905f5260205f205f915b8383106109af57505050506108ff926014969594926108d76101a06108f59451805160048d01556107d78c600560208401519101612bdf565b6107e98c600660408401519101612bdf565b6107fb8c600760608401519101612bdf565b608081015160088d015560a081015160098d0155600a8c0161082a60c0830151610824816127ea565b82612cd7565b60e0820151610838816127ea565b610841816127ea565b815461ff00191660089190911b61ff0016179055610100810151600b8d0155610120810151600c8d0180546101408401516001600160a81b03199091166001600160a01b03939093169290921791151560a01b60ff60a01b169190911790556108b38c600d6101608401519101612bdf565b610180810151600e8d015501511515600f8b019060ff801983541691151516179055565b516010890155511515601188019060ff801983541691151516179055565b5160128601612bdf565b51601384015551910155601154600160401b81101561099b578060016109289201601155612692565b9290926109885761098361097592610961837f13691a45e823a54d20d9ab4cd2eb8a784e7de81a30f2dcb6f25b18c789739cb796612bdf565b60405193849360408552604085019061255b565b90838203602085015261255b565b0390a1005b634e487b7160e01b5f525f60045260245ffd5b634e487b7160e01b5f52604160045260245ffd5b60016020826109c083945186612bdf565b0192019201919061079e565b825f528360205f2091820191015b8181106109e75750610790565b806109f460019254612712565b80610a01575b50016109da565b601f81118314610a1657505f81555b8f6109fa565b610a3290825f5283601f60205f20920160051c82019101612bc9565b805f525f6020812081835555610a10565b83356001600160401b03811161020457602091610a67839260243691870101612655565b815201930192610588565b3461020457604036600319011261020457610a8b61257f565b610a93612595565b9060018060a01b03165f52600560205260405f209060018060a01b03165f52602052602060ff60405f2054166040519015158152f35b34610204575f36600319011261020457601154610ae581612a04565b90610af360405192836125e3565b80825260115f9081526020830191907f31ecc21a745e3968a04e9570e4425bc18fa8019c68028196b546d1669c200c68835b838310610b9257848660405191829160208301906020845251809152604083019060408160051b85010192915f905b828210610b6357505050500390f35b91936001919395506020610b828192603f198a8203018652885161255b565b9601920192018594939192610b54565b600160208192610ba18561274a565b815201920192019190610b25565b34610204576020366003190112610204576004355f81815260026020526040902054610be5906001600160a01b03161515612deb565b610c01610bf182613010565b6001600160a01b03163314612e2e565b805f5260096020527f587ab108ddcdc72e56fab598ec9d1c9d11006eed8222b2c11e6024c83fe1da92610c3660405f20612808565b91610c5d61018060608501519401519360405192835260606020840152606083019061255b565b9260408201528033930390a2005b3461020457604036600319011261020457610c8461257f565b6001600160a01b03165f908152600a602052604090208054602435919082101561020457602091610cb4916126be565b90549060031b1c604051908152f35b34610204576020366003190112610204576004355f81815260026020526040902054610cf9906001600160a01b03161515612deb565b610d05610bf182613010565b805f52600960205260405f20610d2160ff600b83015416612e6c565b600481018054916005810154831015610e5a5760648302928084046064148115171561034e57335f52600e6020528360405f205410610e23576001810180911161034e578255600a81018054906005820180921161034e5755335f52600e60205260405f2092835490810390811161034e576002610ddf93610e07927f9bf2f37aa04bdb81dbb914b6f742f4aed11541eded6eb43a6b0147833f3e1987965554926020610dcd8561341f565b60405196879360038486019101612eb0565b9061081360f21b82528051928391018583015e015f838201520301601f1981018452836125e3565b610349604051928392835260406020840152604083019061255b565b60405162461bcd60e51b815260206004820152600f60248201526e0496e73756666696369656e7420585608c1b6044820152606490fd5b60405162461bcd60e51b815260206004820152601260248201527110985919d948185d081b585e081b195d995b60721b6044820152606490fd5b34610204576020366003190112610204576001600160a01b03610eb561257f565b165f52600a60205260405f20604051808260208294549384815201905f5260205f20925f5b818110611047575050610eef925003826125e3565b805190610efb82612a04565b91610f0960405193846125e3565b808352610f18601f1991612a04565b015f5b818110610fd35750505f5b8151811015610f6c5780610f3c60019284612da7565b515f526009602052610f5060405f20612808565b610f5a8286612da7565b52610f658185612da7565b5001610f26565b826040518091602082016020835281518091526040830190602060408260051b8601019301915f905b828210610fa457505050500390f35b91936001919395506020610fc38192603f198a820301865288516128e6565b9601920192018594939192610f95565b602090604051610fe2816125ab565b5f8152606083820152606060408201526060808201525f60808201525f60a08201525f60c08201525f60e08201525f6101008201525f6101208201525f61014082015260606101608201525f6101808201525f6101a082015282828701015201610f1b565b8454835260019485019486945060209093019201610eda565b346102045760203660031901126102045761109361107f600435612dbb565b60405191829160208352602083019061255b565b0390f35b34610204576080366003190112610204576110b061257f565b6110b8612595565b90604435606435926001600160401b0384116102045736602385011215610204576110f061110294369060248160040135910161261f565b926110fc838383612a1b565b336132fb565b005b34610204576020366003190112610204576001600160a01b0361112561257f565b165f526012602052602060ff60405f2054166040519015158152f35b346102045760403660031901126102045761115a61257f565b6024359081151590818303610204576001600160a01b03169182156111d2576111a490335f52600560205260405f20845f5260205260405f209060ff801983541691151516179055565b6040519081527f17307eab39ab6107e8899845ad3d59bd9653f200f220920489ca2b5937696c3160203392a3005b82630b61174360e31b5f5260045260245ffd5b34610204576020366003190112610204576004355f52600960205260405f208054600182016112139061274a565b916112206002820161274a565b61122c6003830161274a565b60048301546005840154600685015460ff81169060081c60ff166007870154916008880154936009890161125f9061274a565b96600a8a015499600b015460ff16986040519c8d9c8d5260208d016101c090526101c08d0161128d9161255b565b8c810360408e015261129e9161255b565b8b810360608d01526112af9161255b565b9560808b015260a08a01526112c3816127ea565b60c08901526112d1816127ea565b60e08801526101008701526001600160a01b03811661012087015260a01c60ff16151561014086015284810361016086015261130c9161255b565b9161018084015215156101a08301520390f35b346102045761132d366126d3565b604051602081835180838601835e8101600c81520301902060405192611352846125c7565b61135b8261274a565b84526113696001830161274a565b602085015261137a6002830161274a565b60408501526003820193845461138f81612a04565b9561139d60405197886125e3565b81875260208701905f5260205f205f915b8383106114bd5750505050606081019485526113cc60048401612808565b6080820152601083015460a082015260ff601184015416151560c082015261012060146113fb6012860161274a565b60e0840190815260138601546101008501529401549101528351515f926001600160a01b0390921691835b86515181101561147557835f52600b60205260ff61145260405f2061144c848b51612da7565b51612673565b5416611461575b600101611426565b9361146d600191612bbb565b949050611459565b50909361149360ff91611093945f52600d60205260405f2090612673565b5416905190604051948594855260208501521515604084015260806060840152608083019061255b565b6001602081926114cf859b999b61274a565b8152019201920191909694966113ae565b34610204575f366003190112610204576040515f60015461150081612712565b80845290600181169081156115865750600114611528575b6110938361107f818503826125e3565b60015f9081527fb10e2d527612073b26eecdfd717e6a320cf44b4afac2b0732d9fcbe2b7fa0cf6939250905b80821061156c5750909150810160200161107f611518565b919260018160209254838588010152019101909291611554565b60ff191660208086019190915291151560051b8401909101915061107f9050611518565b3461020457602060ff6115dc6115bf366126d3565b6001600160a01b039091165f908152600b85526040902090612673565b54166040519015158152f35b34610204575f366003190112610204576007546040516001600160a01b039091168152602090f35b34610204575f36600319011261020457611628613044565b60075460ff8160a01c166116745760ff60a01b1916600160a01b176007556040513381527f62e78cea01bee320cd4e420270b5ea74000d11b0c9f74754ebdbfc544b05a25890602090a1005b63d93c066560e01b5f5260045ffd5b34610204576020366003190112610204576004356005811015610204576101fc602091612d30565b34610204575f366003190112610204576116c3613044565b600780546001600160a01b031981169091555f906001600160a01b03167f8be0079c531659141344cd1fd0a4f28419497f9722a3daafe3b4186f6b6457e08280a3005b34610204576020366003190112610204576001600160a01b0361172761257f565b168015611744575f526003602052602060405f2054604051908152f35b6322718ad960e21b5f525f60045260245ffd5b34610204576020366003190112610204576020611775600435613010565b6040516001600160a01b039091168152f35b34610204575f36600319011261020457602060ff60075460a01c166040519015158152f35b34610204576111026117bd366129ca565b90604051926117cd6020856125e3565b5f84526110fc838383612a1b565b34610204575f366003190112610204576117f3613044565b60075460ff8160a01c161561183a5760ff60a01b19166007556040513381527f5db9ee0a495bf2e6ff9c91a7834c1ba4fdd244a5e8aa4e537bd38aeae4b073aa90602090a1005b638dfc202b60e01b5f5260045ffd5b34610204576101403660031901126102045761186361257f565b6024356001600160401b03811161020457611882903690600401612655565b6044356001600160401b038111610204576118a1903690600401612655565b6064356001600160401b038111610204576118c0903690600401612655565b600560a43510156102045760c4359260058410156102045760e4356001600160401b038111610204576118f7903690600401612655565b6101043593841515850361020457610124356001600160401b03811161020457611925903690600401612655565b93335f52601260205260ff60405f2054168015612032575b15611ff457611b358895600b611bd69461198e9a6119947f7f0834db73d96152c9ea99a9e6c3b9db8880914d1e0ab78ba2442065b142ced6986008549d8e809d61198682612bbb565b60085561306b565b8b613278565b61199f60a435612f9b565b604051926119ac846125ab565b8b84528a602085015260408401528660608401526001608084015260a08301526119d760a4356127ea565b60a43560c08301526119e8816127ea565b60e08201524261010082015260018060a01b038c166101208201526101408101928a151584526101608201908152611b196101808301916084358352611b0f6101a0850194600186528d5f52600960205260405f209781518955611a53602083015160018b01612bdf565b611a64604083015160028b01612bdf565b611a75606083015160038b01612bdf565b608082015160048a015560a082015160058a015560068901611a9e60c0840151610824816127ea565b60e0830151611aac816127ea565b611ab5816127ea565b815461ff001916600891821b61ff00161790915561010083015160078b015561012090920151918901805491516001600160a81b03199092166001600160a01b03939093169290921790151560a01b60ff60a01b16179055565b5160098601612bdf565b51600a84015551151591019060ff801983541691151516179055565b60018060a01b0388165f52600a602052611b528560405f20612cef565b6001600160a01b0388165f908152600b60205260409020611b739085612673565b805460ff19166001179055611b8960a435612d30565b60018060a01b0389165f52600e602052611ba860405f20918254612d23565b9055611bb3886132b9565b611bc86040519460808652608086019061255b565b90848203602086015261255b565b9160016040820152611be960a4356127ea565b60a43560608201526001600160a01b0387169281900390a315611c12575b602090604051908152f35b5f5b601154811015611fea57611c30611c2a82612692565b5061274a565b90604051825190602081818601938085835e8101600c8152030190209060ff601183015416158015611fc3575b611fb85760015f600384018054915b828110611f62575b505050611c89575b5050600191505b01611c14565b6001600160a01b0386165f908152600d60205260409020611caa9085612673565b600160ff1982541617905560108201611cc38154612bbb565b90556020604051809286518091835e810160108152030190208054600160401b81101561099b57600194611d20827fd71751fea029601efbed7a274791edcaf2a56d222fb5f8443d4dd1af84d55daf9488611f3b950181556126be565b81549060031b90888060a01b038b16821b91898060a01b03901b1916179055611f58600854611d4e81612bbb565b600855611d5b818b61306b565b602090611d77604051611d6e84826125e3565b5f815282613278565b611ef0611d8660048901612808565b828152611ebc8d600b6101a061010085019442865261012081019360018060a01b03168452875f5260098952611e8860405f2094825186558a830197611dd0895160018901612bdf565b611de1604085015160028901612bdf565b611df2606085015160038901612bdf565b6080840151600488015560a0840151600588015560068701611e1b60c0860151610824816127ea565b60e0850151611e29816127ea565b611e32816127ea565b815461ff00600892831b1661ff001990911617909155905160078801559051908601805461014085015160ff60a01b90151560a01b166001600160a01b039093166001600160a81b031990911617919091179055565b611e9a61016082015160098601612bdf565b610180810151600a8501550151151591019060ff801983541691151516179055565b8a8060a01b038d165f52600a8452611ed78360405f20612cef565b8a8060a01b038d165f52600b845260405f209051612673565b8960ff198254161790556013870154898060a01b038c165f52600e8352611f1c60405f20918254612d23565b9055611f278b6132b9565b60405194859460608652606086019061255b565b9184015282810360408401526012888060a01b038b169601612f1a565b0390a28480611c7c565b60018060a01b038a165f52600b60205260ff611f95602060405f20611f8785876126be565b509060405193848093612eb0565b90815203019020541615611fab57600101611c6c565b505050505f878080611c74565b505060019150611c83565b5060018060a01b0386165f52600d60205260ff611fe360405f2086612673565b5416611c5d565b5060209150611c07565b60405162461bcd60e51b8152602060048201526016602482015275139bdd08185d5d1a1bdc9a5e9959081d1bc81b5a5b9d60521b6044820152606490fd5b506007546001600160a01b0316331461193d565b34610204576020366003190112610204576001600160a01b0361206761257f565b165f52600f602052602060405f2054604051908152f35b346102045761110261208f366129ca565b91612a1b565b34610204576020366003190112610204576001600160a01b036120b661257f565b165f52600e602052602060405f2054604051908152f35b3461020457602036600319011261020457600435601154811015610204576120f490612692565b6109885761107f6110939161274a565b34610204576020366003190112610204576004356001600160401b03811161020457602061213781923690600401612655565b604051928184925191829101835e8101600c81520301902061012061215b8261274a565b916121686001820161274a565b61220c6121776002840161274a565b61218360048501612808565b906010850154916121f260ff601188015416916121e46121a560128a0161274a565b946121d6601460138c01549b0154996121c86040519e8f9e8f818152019061255b565b8d810360208f01529061255b565b908b820360408d015261255b565b9089820360608b01526128e6565b926080880152151560a087015285820360c087015261255b565b9160e08401526101008301520390f35b3461020457602060ff6115dc612231366126d3565b6001600160a01b039091165f908152600d85526040902090612673565b346102045760203660031901126102045761226761257f565b61226f613044565b6001600160a01b03165f908152601260205260409020805460ff19166001179055005b34610204576040366003190112610204576004356001600160401b038111610204576122c2903690600401612655565b604051815160243592602091839181908401835e810160108152030190208054821015610204576020916122f5916126be565b905460405160039290921b1c6001600160a01b03168152f35b346102045760403660031901126102045761232761257f565b60243561233381613010565b331515806123e5575b806123b8575b6123a55781906001600160a01b0384811691167f8c5be1e5ebec7d5bd14f71427d1e84f3dd0314c0f7b2291e5b200ac8c7c3b9255f80a45f90815260046020526040902080546001600160a01b0319166001600160a01b03909216919091179055005b63a9fbf51f60e01b5f523360045260245ffd5b506001600160a01b0381165f90815260056020908152604080832033845290915290205460ff1615612342565b506001600160a01b03811633141561233c565b346102045760203660031901126102045760043561241581613010565b505f526004602052602060018060a01b0360405f205416604051908152f35b34610204575f366003190112610204576040515f5f5461245381612712565b8084529060018116908115611586575060011461247a576110938361107f818503826125e3565b5f8080527f290decd9548b62a8d60345a988386fc84ba6bc95484008f6362f93160ef3e563939250905b8082106124bc5750909150810160200161107f611518565b9192600181602092548385880101520191019092916124a4565b34610204576020366003190112610204576004359063ffffffff60e01b821680920361020457602091632483248360e11b8114908115612518575b5015158152f35b6380ac58cd60e01b81149150811561254a575b8115612539575b5083612511565b6301ffc9a760e01b14905083612532565b635b5e139f60e01b8114915061252b565b805180835260209291819084018484015e5f828201840152601f01601f1916010190565b600435906001600160a01b038216820361020457565b602435906001600160a01b038216820361020457565b6101c081019081106001600160401b0382111761099b57604052565b61014081019081106001600160401b0382111761099b57604052565b90601f801991011681019081106001600160401b0382111761099b57604052565b6001600160401b03811161099b57601f01601f191660200190565b92919261262b82612604565b9161263960405193846125e3565b829481845281830111610204578281602093845f960137010152565b9080601f83011215610204578160206126709335910161261f565b90565b6040518151909260209284929081908501845e82019081520301902090565b6011548110156126aa5760115f5260205f2001905f90565b634e487b7160e01b5f52603260045260245ffd5b80548210156126aa575f5260205f2001905f90565b906040600319830112610204576004356001600160a01b03811681036102045791602435906001600160401b0382116102045761267091600401612655565b90600182811c92168015612740575b602083101461272c57565b634e487b7160e01b5f52602260045260245ffd5b91607f1691612721565b9060405191825f82549261275d84612712565b80845293600181169081156127c85750600114612784575b50612782925003836125e3565b565b90505f9291925260205f20905f915b8183106127ac575050906020612782928201015f612775565b6020919350806001915483858901015201910190918492612793565b90506020925061278294915060ff191682840152151560051b8201015f612775565b600511156127f457565b634e487b7160e01b5f52602160045260245ffd5b90604051612815816125ab565b6101a060ff600b83958054855261282e6001820161274a565b602086015261283f6002820161274a565b60408601526128506003820161274a565b606086015260048101546080860152600581015460a086015282600682015481811661287b816127ea565b60c088015260081c1661288d816127ea565b60e0860152600781015461010086015260088101546001600160a01b03811661012087015260a01c831615156101408601526128cb6009820161274a565b610160860152600a8101546101808601520154161515910152565b90815181526101a0806129b361293761292561291360208801516101c060208901526101c088019061255b565b6040880151878203604089015261255b565b6060870151868203606088015261255b565b6080860151608086015260a086015160a086015260c0860151612959816127ea565b60c086015260e086015161296c816127ea565b60e086015261010086015161010086015260018060a01b0361012087015116610120860152610140860151151561014086015261016086015185820361016087015261255b565b936101808101516101808501520151151591015290565b6060906003190112610204576004356001600160a01b038116810361020457906024356001600160a01b0381168103610204579060443590565b6001600160401b03811161099b5760051b60200190565b6001600160a01b0390911691908215612ba8575f828152600260205260409020546001600160a01b031692829033151580612b13575b5084612ae0575b805f52600360205260405f2060018154019055815f52600260205260405f20816bffffffffffffffffffffffff60a01b825416179055847fddf252ad1be2c89b69c2b068fc378daa952ba7f163c4a11628f55a4df523b3ef5f80a46001600160a01b0316808303612ac857505050565b6364283d7b60e01b5f5260045260245260445260645ffd5b5f82815260046020526040902080546001600160a01b0319169055845f52600360205260405f205f198154019055612a58565b90915080612b57575b15612b295782905f612a51565b8284612b4157637e27328960e01b5f5260045260245ffd5b63177e802f60e01b5f523360045260245260445ffd5b503384148015612b86575b80612b1c57505f838152600460205260409020546001600160a01b03163314612b1c565b505f84815260056020908152604080832033845290915290205460ff16612b62565b633250574960e11b5f525f60045260245ffd5b5f19811461034e5760010190565b818110612bd4575050565b5f8155600101612bc9565b91909182516001600160401b03811161099b57612bfc8254612712565b601f8111612c9c575b506020601f8211600114612c3e57819293945f92612c33575b50508160011b915f199060031b1c1916179055565b015190505f80612c1e565b601f19821690835f52805f20915f5b818110612c8457509583600195969710612c6c575b505050811b019055565b01515f1960f88460031b161c191690555f8080612c62565b9192602060018192868b015181550194019201612c4d565b612cc790835f5260205f20601f840160051c81019160208510612ccd575b601f0160051c0190612bc9565b5f612c05565b9091508190612cba565b90612ce1816127ea565b60ff80198354169116179055565b8054600160401b81101561099b57612d0c916001820181556126be565b819291549060031b91821b915f19901b1916179055565b9190820180921161034e57565b612d39816127ea565b8015612da157612d48816127ea565b60018114612d9b57612d59816127ea565b60028114612d9557612d6a816127ea565b60038114612d8e57600490612d7e816127ea565b14612d8857603290565b6103e890565b506101f490565b5060c890565b50606490565b50603290565b80518210156126aa5760209160051b010190565b612dc481613010565b505f526006602052612dd860405f2061274a565b5f604051612de76020826125e3565b5290565b15612df257565b60405162461bcd60e51b815260206004820152601460248201527310985919d948191bd95cc81b9bdd08195e1a5cdd60621b6044820152606490fd5b15612e3557565b60405162461bcd60e51b815260206004820152600f60248201526e2737ba103130b233b29037bbb732b960891b6044820152606490fd5b15612e7357565b60405162461bcd60e51b81526020600482015260156024820152744261646765206e6f74207570677261646561626c6560581b6044820152606490fd5b5f9291815491612ebf83612712565b9260018116908115612f075750600114612ed857505050565b90919293505f5260205f205f905b838210612ef35750500190565b600181602092548486015201910190612ee6565b60ff191683525050811515909102019150565b5f9291815491612f2983612712565b8083529260018116908115612f7e5750600114612f4557505050565b5f9081526020812093945091925b838310612f64575060209250010190565b600181602092949394548385870101520191019190612f53565b915050602093945060ff929192191683830152151560051b010190565b612fa4816127ea565b801561300a57612fb3816127ea565b6001811461300457612fc4816127ea565b60028114612ffe57612fd5816127ea565b60038114612ff857600490612fe9816127ea565b14612ff357600390565b600f90565b50600a90565b50600790565b50600590565b50600390565b5f818152600260205260409020546001600160a01b0316908115613032575090565b637e27328960e01b5f5260045260245ffd5b6007546001600160a01b0316330361305857565b63118cdaa760e01b5f523360045260245ffd5b906020906040519061307d83836125e3565b5f82526001600160a01b038416938415612ba8575f8281526002855260409020546001600160a01b03168015159081613247575b865f526003865260405f2060018154019055835f526002865260405f20876bffffffffffffffffffffffff60a01b8254161790558387827fddf252ad1be2c89b69c2b068fc378daa952ba7f163c4a11628f55a4df523b3ef5f80a450613234573b61311d575b50505050565b9161315a91819495936040519384928392630a85bd0160e11b84523360048501525f6024850152604484015260806064840152608483019061255b565b03815f885af15f91816131f4575b506131bd5750503d156131b5573d9061318082612604565b9161318e60405193846125e3565b82523d5f8284013e5b815191826131b25783633250574960e11b5f5260045260245ffd5b01fd5b606090613197565b909291506001600160e01b03191663757a42ff60e11b016131e257505f808080613117565b633250574960e11b5f5260045260245ffd5b9091508381813d831161322d575b61320c81836125e3565b8101031261020457516001600160e01b03198116810361020457905f613168565b503d613202565b6339e3563760e11b5f525f60045260245ffd5b5f8481526004602052604080822080546001600160a01b031916905582825260038852902080545f190190556130b1565b6020906132b07ff8e1a15aba9398e019f0b49df1a4fde98ee17ae345cb5f6b5e2c27f5033e8ce793825f526006845260405f20612bdf565b604051908152a1565b6001600160a01b03165f818152600f6020908152604080832054600e909252909120546103e89004919082116132ed575050565b5f52600f60205260405f2055565b823b613309575b5050505050565b604051630a85bd0160e11b81526001600160a01b03918216600482015291811660248301526044820193909352608060648201529116916020908290819061335590608483019061255b565b03815f865af15f91816133da575b506133b857503d156133b1573d61337981612604565b9061338760405192836125e3565b81523d5f602083013e5b805190816133ac5782633250574960e11b5f5260045260245ffd5b602001fd5b6060613391565b6001600160e01b03191663757a42ff60e11b016131e257505f80808080613302565b9091506020813d602011613417575b816133f6602093836125e3565b8101031261020457516001600160e01b03198116810361020457905f613363565b3d91506133e9565b80156134c4575f81805b6134b0575061343781612604565b9061344560405192836125e3565b808252601f1961345482612604565b013660208401375b809280156134a9575f19820191821161034e578193600a8206603001928360301161034e57845111156126aa57600a9260f81b6001600160f81b0319165f1a908401601f0153049161345c565b5050905090565b906134bc600a91612bbb565b910480613429565b506040516134d36040826125e3565b60018152600360fc1b60208201529056fea2646970667358221220f63facd168db6bfcb374fb2542d4f9c04ce2d931cb929c352af35d7875999e6364736f6c634300081c0033","opcodes":"PUSH1 0x80 PUSH1 0x40 MSTORE CALLVALUE PUSH2 0x378 JUMPI PUSH1 0x40 DUP1 MLOAD SWAP1 DUP2 ADD PUSH1 0x1 PUSH1 0x1 PUSH1 0x40 SHL SUB DUP2 GT DUP3 DUP3 LT OR PUSH2 0x28E JUMPI PUSH1 0x40 SWAP1 DUP2 MSTORE PUSH1 0x12 DUP3 MSTORE PUSH18 0x13595950DA185A5B8810985919D948139195 PUSH1 0x72 SHL PUSH1 0x20 DUP4 ADD MSTORE DUP1 MLOAD SWAP1 DUP2 ADD PUSH1 0x1 PUSH1 0x1 PUSH1 0x40 SHL SUB DUP2 GT DUP3 DUP3 LT OR PUSH2 0x28E JUMPI PUSH1 0x40 MSTORE PUSH1 0x8 DUP2 MSTORE PUSH8 0x4D45454241444745 PUSH1 0xC0 SHL PUSH1 0x20 DUP3 ADD MSTORE DUP2 MLOAD PUSH1 0x1 PUSH1 0x1 PUSH1 0x40 SHL SUB DUP2 GT PUSH2 0x28E JUMPI PUSH0 SLOAD PUSH1 0x1 DUP2 DUP2 SHR SWAP2 AND DUP1 ISZERO PUSH2 0x36E JUMPI JUMPDEST PUSH1 0x20 DUP3 LT EQ PUSH2 0x270 JUMPI PUSH1 0x1F DUP2 GT PUSH2 0x30C JUMPI JUMPDEST POP PUSH1 0x20 SWAP3 PUSH1 0x1F DUP3 GT PUSH1 0x1 EQ PUSH2 0x2AD JUMPI SWAP3 DUP2 SWAP3 SWAP4 PUSH0 SWAP3 PUSH2 0x2A2 JUMPI JUMPDEST POP POP DUP2 PUSH1 0x1 SHL SWAP2 PUSH0 NOT SWAP1 PUSH1 0x3 SHL SHR NOT AND OR PUSH0 SSTORE JUMPDEST DUP1 MLOAD PUSH1 0x1 PUSH1 0x1 PUSH1 0x40 SHL SUB DUP2 GT PUSH2 0x28E JUMPI PUSH1 0x1 SLOAD PUSH1 0x1 DUP2 DUP2 SHR SWAP2 AND DUP1 ISZERO PUSH2 0x284 JUMPI JUMPDEST PUSH1 0x20 DUP3 LT EQ PUSH2 0x270 JUMPI PUSH1 0x1F DUP2 GT PUSH2 0x20D JUMPI JUMPDEST POP PUSH1 0x20 SWAP2 PUSH1 0x1F DUP3 GT PUSH1 0x1 EQ PUSH2 0x1AD JUMPI SWAP2 DUP2 SWAP3 PUSH0 SWAP3 PUSH2 0x1A2 JUMPI JUMPDEST POP POP DUP2 PUSH1 0x1 SHL SWAP2 PUSH0 NOT SWAP1 PUSH1 0x3 SHL SHR NOT AND OR PUSH1 0x1 SSTORE JUMPDEST CALLER ISZERO PUSH2 0x18F JUMPI PUSH1 0x7 DUP1 SLOAD CALLER PUSH1 0x1 PUSH1 0x1 PUSH1 0xA0 SHL SUB NOT DUP3 AND DUP2 OR SWAP1 SWAP3 SSTORE PUSH1 0x40 MLOAD SWAP2 SWAP1 PUSH1 0x1 PUSH1 0x1 PUSH1 0xA0 SHL SUB AND PUSH32 0x8BE0079C531659141344CD1FD0A4F28419497F9722A3DAAFE3B4186F6B6457E0 PUSH0 DUP1 LOG3 PUSH2 0x351A SWAP1 DUP2 PUSH2 0x37D DUP3 CODECOPY RETURN JUMPDEST PUSH4 0x1E4FBDF7 PUSH1 0xE0 SHL PUSH0 MSTORE PUSH0 PUSH1 0x4 MSTORE PUSH1 0x24 PUSH0 REVERT JUMPDEST ADD MLOAD SWAP1 POP PUSH0 DUP1 PUSH2 0x121 JUMP JUMPDEST PUSH1 0x1F NOT DUP3 AND SWAP3 PUSH1 0x1 PUSH0 MSTORE DUP1 PUSH0 KECCAK256 SWAP2 PUSH0 JUMPDEST DUP6 DUP2 LT PUSH2 0x1F5 JUMPI POP DUP4 PUSH1 0x1 SWAP6 LT PUSH2 0x1DD JUMPI JUMPDEST POP POP POP DUP2 SHL ADD PUSH1 0x1 SSTORE PUSH2 0x136 JUMP JUMPDEST ADD MLOAD PUSH0 NOT PUSH1 0xF8 DUP5 PUSH1 0x3 SHL AND SHR NOT AND SWAP1 SSTORE PUSH0 DUP1 DUP1 PUSH2 0x1CF JUMP JUMPDEST SWAP2 SWAP3 PUSH1 0x20 PUSH1 0x1 DUP2 SWAP3 DUP7 DUP6 ADD MLOAD DUP2 SSTORE ADD SWAP5 ADD SWAP3 ADD PUSH2 0x1BD JUMP JUMPDEST PUSH1 0x1 PUSH0 MSTORE PUSH32 0xB10E2D527612073B26EECDFD717E6A320CF44B4AFAC2B0732D9FCBE2B7FA0CF6 PUSH1 0x1F DUP4 ADD PUSH1 0x5 SHR DUP2 ADD SWAP2 PUSH1 0x20 DUP5 LT PUSH2 0x266 JUMPI JUMPDEST PUSH1 0x1F ADD PUSH1 0x5 SHR ADD SWAP1 JUMPDEST DUP2 DUP2 LT PUSH2 0x25B JUMPI POP PUSH2 0x108 JUMP JUMPDEST PUSH0 DUP2 SSTORE PUSH1 0x1 ADD PUSH2 0x24E JUMP JUMPDEST SWAP1 SWAP2 POP DUP2 SWAP1 PUSH2 0x245 JUMP JUMPDEST PUSH4 0x4E487B71 PUSH1 0xE0 SHL PUSH0 MSTORE PUSH1 0x22 PUSH1 0x4 MSTORE PUSH1 0x24 PUSH0 REVERT JUMPDEST SWAP1 PUSH1 0x7F AND SWAP1 PUSH2 0xF6 JUMP JUMPDEST PUSH4 0x4E487B71 PUSH1 0xE0 SHL PUSH0 MSTORE PUSH1 0x41 PUSH1 0x4 MSTORE PUSH1 0x24 PUSH0 REVERT JUMPDEST ADD MLOAD SWAP1 POP PUSH0 DUP1 PUSH2 0xC1 JUMP JUMPDEST PUSH1 0x1F NOT DUP3 AND SWAP4 PUSH0 DUP1 MSTORE DUP1 PUSH0 KECCAK256 SWAP2 PUSH0 JUMPDEST DUP7 DUP2 LT PUSH2 0x2F4 JUMPI POP DUP4 PUSH1 0x1 SWAP6 SWAP7 LT PUSH2 0x2DC JUMPI JUMPDEST POP POP POP DUP2 SHL ADD PUSH0 SSTORE PUSH2 0xD5 JUMP JUMPDEST ADD MLOAD PUSH0 NOT PUSH1 0xF8 DUP5 PUSH1 0x3 SHL AND SHR NOT AND SWAP1 SSTORE PUSH0 DUP1 DUP1 PUSH2 0x2CF JUMP JUMPDEST SWAP2 SWAP3 PUSH1 0x20 PUSH1 0x1 DUP2 SWAP3 DUP7 DUP6 ADD MLOAD DUP2 SSTORE ADD SWAP5 ADD SWAP3 ADD PUSH2 0x2BC JUMP JUMPDEST PUSH0 DUP1 MSTORE PUSH32 0x290DECD9548B62A8D60345A988386FC84BA6BC95484008F6362F93160EF3E563 PUSH1 0x1F DUP4 ADD PUSH1 0x5 SHR DUP2 ADD SWAP2 PUSH1 0x20 DUP5 LT PUSH2 0x364 JUMPI JUMPDEST PUSH1 0x1F ADD PUSH1 0x5 SHR ADD SWAP1 JUMPDEST DUP2 DUP2 LT PUSH2 0x359 JUMPI POP PUSH2 0xA7 JUMP JUMPDEST PUSH0 DUP2 SSTORE PUSH1 0x1 ADD PUSH2 0x34C JUMP JUMPDEST SWAP1 SWAP2 POP DUP2 SWAP1 PUSH2 0x343 JUMP JUMPDEST SWAP1 PUSH1 0x7F AND SWAP1 PUSH2 0x95 JUMP JUMPDEST PUSH0 DUP1 REVERT INVALID PUSH1 0x80 DUP1 PUSH1 0x40 MSTORE PUSH1 0x4 CALLDATASIZE LT ISZERO PUSH2 0x12 JUMPI PUSH0 DUP1 REVERT JUMPDEST PUSH0 CALLDATALOAD PUSH1 0xE0 SHR SWAP1 DUP2 PUSH4 0x1FFC9A7 EQ PUSH2 0x24D6 JUMPI POP DUP1 PUSH4 0x6FDDE03 EQ PUSH2 0x2434 JUMPI DUP1 PUSH4 0x81812FC EQ PUSH2 0x23F8 JUMPI DUP1 PUSH4 0x95EA7B3 EQ PUSH2 0x230E JUMPI DUP1 PUSH4 0x9CF6C29 EQ PUSH2 0x2292 JUMPI DUP1 PUSH4 0xC984832 EQ PUSH2 0x224E JUMPI DUP1 PUSH4 0x111F57D6 EQ PUSH2 0x221C JUMPI DUP1 PUSH4 0x11651D5B EQ PUSH2 0x2104 JUMPI DUP1 PUSH4 0x1E4190F1 EQ PUSH2 0x20CD JUMPI DUP1 PUSH4 0x23932230 EQ PUSH2 0x2095 JUMPI DUP1 PUSH4 0x23B872DD EQ PUSH2 0x207E JUMPI DUP1 PUSH4 0x280E31CC EQ PUSH2 0x2046 JUMPI DUP1 PUSH4 0x2DC58040 EQ PUSH2 0x1849 JUMPI DUP1 PUSH4 0x3F4BA83A EQ PUSH2 0x17DB JUMPI DUP1 PUSH4 0x42842E0E EQ PUSH2 0x17AC JUMPI DUP1 PUSH4 0x5C975ABB EQ PUSH2 0x1787 JUMPI DUP1 PUSH4 0x6352211E EQ PUSH2 0x1757 JUMPI DUP1 PUSH4 0x70A08231 EQ PUSH2 0x1706 JUMPI DUP1 PUSH4 0x715018A6 EQ PUSH2 0x16AB JUMPI DUP1 PUSH4 0x763F4DF1 EQ PUSH2 0x1683 JUMPI DUP1 PUSH4 0x8456CB59 EQ PUSH2 0x1610 JUMPI DUP1 PUSH4 0x8DA5CB5B EQ PUSH2 0x15E8 JUMPI DUP1 PUSH4 0x8F41E098 EQ PUSH2 0x15AA JUMPI DUP1 PUSH4 0x95D89B41 EQ PUSH2 0x14E0 JUMPI DUP1 PUSH4 0x973417D3 EQ PUSH2 0x131F JUMPI DUP1 PUSH4 0x98E36D8B EQ PUSH2 0x11E5 JUMPI DUP1 PUSH4 0xA22CB465 EQ PUSH2 0x1141 JUMPI DUP1 PUSH4 0xAA2FE91B EQ PUSH2 0x1104 JUMPI DUP1 PUSH4 0xB88D4FDE EQ PUSH2 0x1097 JUMPI DUP1 PUSH4 0xC87B56DD EQ PUSH2 0x1060 JUMPI DUP1 PUSH4 0xDBB568A9 EQ PUSH2 0xE94 JUMPI DUP1 PUSH4 0xDC6D0A12 EQ PUSH2 0xCC3 JUMPI DUP1 PUSH4 0xDF91CC23 EQ PUSH2 0xC6B JUMPI DUP1 PUSH4 0xE36CF906 EQ PUSH2 0xBAF JUMPI DUP1 PUSH4 0xE4A9B260 EQ PUSH2 0xAC9 JUMPI DUP1 PUSH4 0xE985E9C5 EQ PUSH2 0xA72 JUMPI DUP1 PUSH4 0xF27BACDB EQ PUSH2 0x4C2 JUMPI DUP1 PUSH4 0xF2FDE38B EQ PUSH2 0x43C JUMPI DUP1 PUSH4 0xF390DB18 EQ PUSH2 0x208 JUMPI PUSH4 0xFD52920E EQ PUSH2 0x1D4 JUMPI PUSH0 DUP1 REVERT JUMPDEST CALLVALUE PUSH2 0x204 JUMPI PUSH1 0x20 CALLDATASIZE PUSH1 0x3 NOT ADD SLT PUSH2 0x204 JUMPI PUSH1 0x4 CALLDATALOAD PUSH1 0x5 DUP2 LT ISZERO PUSH2 0x204 JUMPI PUSH2 0x1FC PUSH1 0x20 SWAP2 PUSH2 0x2F9B JUMP JUMPDEST PUSH1 0x40 MLOAD SWAP1 DUP2 MSTORE RETURN JUMPDEST PUSH0 DUP1 REVERT JUMPDEST CALLVALUE PUSH2 0x204 JUMPI PUSH1 0x40 CALLDATASIZE PUSH1 0x3 NOT ADD SLT PUSH2 0x204 JUMPI PUSH1 0x4 CALLDATALOAD PUSH1 0x24 CALLDATALOAD PUSH1 0xFF DUP2 AND DUP1 SWAP2 SUB PUSH2 0x204 JUMPI CALLER PUSH0 MSTORE PUSH1 0x12 PUSH1 0x20 MSTORE PUSH1 0xFF PUSH1 0x40 PUSH0 KECCAK256 SLOAD AND DUP1 ISZERO PUSH2 0x428 JUMPI JUMPDEST ISZERO PUSH2 0x3E3 JUMPI PUSH0 DUP3 DUP2 MSTORE PUSH1 0x2 PUSH1 0x20 MSTORE PUSH1 0x40 SWAP1 KECCAK256 SLOAD PUSH2 0x268 SWAP1 PUSH1 0x1 PUSH1 0x1 PUSH1 0xA0 SHL SUB AND ISZERO ISZERO PUSH2 0x2DEB JUMP JUMPDEST PUSH1 0x4 DUP2 GT PUSH2 0x3A7 JUMPI DUP2 PUSH0 MSTORE PUSH1 0x9 PUSH1 0x20 MSTORE PUSH1 0x40 PUSH0 KECCAK256 PUSH2 0x28C PUSH1 0xFF PUSH1 0xB DUP4 ADD SLOAD AND PUSH2 0x2E6C JUMP JUMPDEST PUSH1 0x6 DUP2 ADD SWAP2 PUSH1 0xFF DUP4 SLOAD AND SWAP1 PUSH2 0x2A0 DUP3 PUSH2 0x27EA JUMP JUMPDEST DUP2 DUP2 GT ISZERO PUSH2 0x362 JUMPI PUSH2 0x2B1 DUP3 PUSH2 0x27EA JUMP JUMPDEST PUSH2 0x2BA DUP2 PUSH2 0x27EA JUMP JUMPDEST PUSH2 0x2C4 DUP2 DUP6 PUSH2 0x2CD7 JUMP JUMPDEST SUB PUSH1 0xFF DUP2 GT PUSH2 0x34E JUMPI PUSH1 0xFF PUSH1 0xA SWAP2 AND MUL SWAP2 PUSH1 0xFF DUP4 AND SWAP3 DUP4 SUB PUSH2 0x34E JUMPI PUSH1 0xFF PUSH2 0x320 SWAP2 PUSH32 0x9BF2F37AA04BDB81DBB914B6F742F4AED11541EDED6EB43A6B0147833F3E1987 SWAP5 PUSH2 0x317 PUSH1 0xA DUP7 ADD SWAP2 DUP3 SLOAD PUSH2 0x2D23 JUMP JUMPDEST SWAP1 SSTORE SLOAD AND PUSH2 0x2F9B JUMP JUMPDEST PUSH1 0x5 DUP3 ADD SSTORE PUSH1 0x4 DUP2 ADD SLOAD PUSH2 0x349 PUSH1 0x40 MLOAD SWAP3 DUP4 SWAP3 DUP4 MSTORE PUSH1 0x40 PUSH1 0x20 DUP5 ADD MSTORE PUSH1 0x3 PUSH1 0x40 DUP5 ADD SWAP2 ADD PUSH2 0x2F1A JUMP JUMPDEST SUB SWAP1 LOG2 STOP JUMPDEST PUSH4 0x4E487B71 PUSH1 0xE0 SHL PUSH0 MSTORE PUSH1 0x11 PUSH1 0x4 MSTORE PUSH1 0x24 PUSH0 REVERT JUMPDEST PUSH1 0x40 MLOAD PUSH3 0x461BCD PUSH1 0xE5 SHL DUP2 MSTORE PUSH1 0x20 PUSH1 0x4 DUP3 ADD MSTORE PUSH1 0x19 PUSH1 0x24 DUP3 ADD MSTORE PUSH32 0x4E657720726172697479206D7573742062652068696768657200000000000000 PUSH1 0x44 DUP3 ADD MSTORE PUSH1 0x64 SWAP1 REVERT JUMPDEST PUSH1 0x40 MLOAD PUSH3 0x461BCD PUSH1 0xE5 SHL DUP2 MSTORE PUSH1 0x20 PUSH1 0x4 DUP3 ADD MSTORE PUSH1 0x14 PUSH1 0x24 DUP3 ADD MSTORE PUSH20 0x125B9D985B1A59081C985C9A5D1E481B195D995B PUSH1 0x62 SHL PUSH1 0x44 DUP3 ADD MSTORE PUSH1 0x64 SWAP1 REVERT JUMPDEST PUSH1 0x40 MLOAD PUSH3 0x461BCD PUSH1 0xE5 SHL DUP2 MSTORE PUSH1 0x20 PUSH1 0x4 DUP3 ADD MSTORE PUSH1 0x19 PUSH1 0x24 DUP3 ADD MSTORE PUSH32 0x4E6F7420617574686F72697A656420746F207570677261646500000000000000 PUSH1 0x44 DUP3 ADD MSTORE PUSH1 0x64 SWAP1 REVERT JUMPDEST POP PUSH1 0x7 SLOAD PUSH1 0x1 PUSH1 0x1 PUSH1 0xA0 SHL SUB AND CALLER EQ PUSH2 0x241 JUMP JUMPDEST CALLVALUE PUSH2 0x204 JUMPI PUSH1 0x20 CALLDATASIZE PUSH1 0x3 NOT ADD SLT PUSH2 0x204 JUMPI PUSH2 0x455 PUSH2 0x257F JUMP JUMPDEST PUSH2 0x45D PUSH2 0x3044 JUMP JUMPDEST PUSH1 0x1 PUSH1 0x1 PUSH1 0xA0 SHL SUB AND DUP1 ISZERO PUSH2 0x4AF JUMPI PUSH1 0x7 DUP1 SLOAD PUSH1 0x1 PUSH1 0x1 PUSH1 0xA0 SHL SUB NOT DUP2 AND DUP4 OR SWAP1 SWAP2 SSTORE PUSH1 0x1 PUSH1 0x1 PUSH1 0xA0 SHL SUB AND PUSH32 0x8BE0079C531659141344CD1FD0A4F28419497F9722A3DAAFE3B4186F6B6457E0 PUSH0 DUP1 LOG3 STOP JUMPDEST PUSH4 0x1E4FBDF7 PUSH1 0xE0 SHL PUSH0 MSTORE PUSH0 PUSH1 0x4 MSTORE PUSH1 0x24 PUSH0 REVERT JUMPDEST CALLVALUE PUSH2 0x204 JUMPI PUSH2 0x1C0 CALLDATASIZE PUSH1 0x3 NOT ADD SLT PUSH2 0x204 JUMPI PUSH1 0x4 CALLDATALOAD PUSH1 0x1 PUSH1 0x1 PUSH1 0x40 SHL SUB DUP2 GT PUSH2 0x204 JUMPI PUSH2 0x4F3 SWAP1 CALLDATASIZE SWAP1 PUSH1 0x4 ADD PUSH2 0x2655 JUMP JUMPDEST PUSH1 0x24 CALLDATALOAD PUSH1 0x1 PUSH1 0x1 PUSH1 0x40 SHL SUB DUP2 GT PUSH2 0x204 JUMPI PUSH2 0x512 SWAP1 CALLDATASIZE SWAP1 PUSH1 0x4 ADD PUSH2 0x2655 JUMP JUMPDEST PUSH1 0x44 CALLDATALOAD PUSH1 0x1 PUSH1 0x1 PUSH1 0x40 SHL SUB DUP2 GT PUSH2 0x204 JUMPI PUSH2 0x531 SWAP1 CALLDATASIZE SWAP1 PUSH1 0x4 ADD PUSH2 0x2655 JUMP JUMPDEST PUSH1 0x64 CALLDATALOAD SWAP1 PUSH1 0x1 PUSH1 0x1 PUSH1 0x40 SHL SUB DUP3 GT PUSH2 0x204 JUMPI CALLDATASIZE PUSH1 0x23 DUP4 ADD SLT ISZERO PUSH2 0x204 JUMPI DUP2 PUSH1 0x4 ADD CALLDATALOAD PUSH2 0x55C DUP2 PUSH2 0x2A04 JUMP JUMPDEST SWAP3 PUSH2 0x56A PUSH1 0x40 MLOAD SWAP5 DUP6 PUSH2 0x25E3 JUMP JUMPDEST DUP2 DUP5 MSTORE PUSH1 0x24 PUSH1 0x20 DUP6 ADD SWAP3 PUSH1 0x5 SHL DUP3 ADD ADD SWAP1 CALLDATASIZE DUP3 GT PUSH2 0x204 JUMPI PUSH1 0x24 DUP2 ADD SWAP3 JUMPDEST DUP3 DUP5 LT PUSH2 0xA43 JUMPI POP POP POP POP PUSH1 0x84 CALLDATALOAD PUSH1 0x1 PUSH1 0x1 PUSH1 0x40 SHL SUB DUP2 GT PUSH2 0x204 JUMPI PUSH2 0x5B2 SWAP1 CALLDATASIZE SWAP1 PUSH1 0x4 ADD PUSH2 0x2655 JUMP JUMPDEST PUSH1 0xA4 CALLDATALOAD PUSH1 0x1 PUSH1 0x1 PUSH1 0x40 SHL SUB DUP2 GT PUSH2 0x204 JUMPI PUSH2 0x5D1 SWAP1 CALLDATASIZE SWAP1 PUSH1 0x4 ADD PUSH2 0x2655 JUMP JUMPDEST PUSH1 0xC4 CALLDATALOAD PUSH1 0x1 PUSH1 0x1 PUSH1 0x40 SHL SUB DUP2 GT PUSH2 0x204 JUMPI PUSH2 0x5F0 SWAP1 CALLDATASIZE SWAP1 PUSH1 0x4 ADD PUSH2 0x2655 JUMP JUMPDEST SWAP2 PUSH2 0x104 CALLDATALOAD SWAP4 PUSH1 0x5 DUP6 LT ISZERO PUSH2 0x204 JUMPI PUSH2 0x124 CALLDATALOAD SWAP2 PUSH1 0x5 DUP4 LT ISZERO PUSH2 0x204 JUMPI PUSH2 0x144 CALLDATALOAD PUSH1 0x1 PUSH1 0x1 PUSH1 0x40 SHL SUB DUP2 GT PUSH2 0x204 JUMPI PUSH2 0x62D SWAP1 CALLDATASIZE SWAP1 PUSH1 0x4 ADD PUSH2 0x2655 JUMP JUMPDEST POP PUSH2 0x164 CALLDATALOAD SWAP3 PUSH1 0x1 PUSH1 0x1 PUSH1 0x40 SHL SUB DUP5 GT PUSH2 0x204 JUMPI DUP10 SWAP7 PUSH2 0x76F SWAP7 PUSH2 0x657 PUSH1 0x1 SWAP7 CALLDATASIZE SWAP1 PUSH1 0x4 ADD PUSH2 0x2655 JUMP JUMPDEST SWAP7 PUSH2 0x660 PUSH2 0x3044 JUMP JUMPDEST PUSH1 0x40 MLOAD SWAP5 PUSH2 0x66D DUP7 PUSH2 0x25AB JUMP JUMPDEST PUSH0 DUP7 MSTORE PUSH1 0x20 DUP7 ADD MSTORE PUSH1 0x40 DUP6 ADD MSTORE PUSH1 0x60 DUP5 ADD MSTORE DUP5 PUSH1 0x80 DUP5 ADD MSTORE PUSH1 0x5 PUSH1 0xA0 DUP5 ADD MSTORE PUSH2 0x695 DUP2 PUSH2 0x27EA JUMP JUMPDEST PUSH1 0xC0 DUP4 ADD MSTORE PUSH2 0x6A3 DUP2 PUSH2 0x27EA JUMP JUMPDEST PUSH1 0xE0 DUP3 ADD MSTORE PUSH0 PUSH2 0x100 DUP3 ADD MSTORE PUSH0 PUSH2 0x120 DUP3 ADD MSTORE DUP3 PUSH2 0x140 DUP3 ADD MSTORE DUP6 PUSH2 0x160 DUP3 ADD MSTORE PUSH1 0xE4 CALLDATALOAD PUSH2 0x180 DUP3 ADD MSTORE DUP3 PUSH2 0x1A0 DUP3 ADD MSTORE PUSH1 0x40 MLOAD SWAP7 DUP8 SWAP6 DUP7 SWAP4 PUSH2 0x6E5 DUP6 PUSH2 0x25C7 JUMP JUMPDEST DUP9 DUP6 MSTORE PUSH2 0x765 PUSH1 0x20 DUP7 ADD DUP13 DUP2 MSTORE PUSH1 0x40 DUP8 ADD SWAP3 DUP4 MSTORE PUSH1 0x60 DUP8 ADD SWAP5 DUP6 MSTORE PUSH1 0x80 DUP8 ADD SWAP6 DUP7 MSTORE PUSH2 0x75B PUSH1 0x20 DUP1 PUSH2 0x120 PUSH2 0x100 PUSH1 0xA0 DUP13 ADD SWAP12 PUSH0 DUP14 MSTORE PUSH1 0xC0 DUP2 ADD SWAP14 DUP15 MSTORE PUSH1 0xE0 DUP2 ADD SWAP15 DUP16 MSTORE ADD SWAP14 DUP15 PUSH2 0x184 CALLDATALOAD SWAP1 MSTORE ADD SWAP14 DUP15 PUSH2 0x1A4 CALLDATALOAD SWAP1 MSTORE PUSH1 0x40 MLOAD SWAP3 DUP2 DUP5 SWAP3 MLOAD SWAP2 DUP3 SWAP2 ADD DUP4 MCOPY DUP2 ADD PUSH1 0xC DUP2 MSTORE SUB ADD SWAP1 KECCAK256 SWAP13 MLOAD DUP14 PUSH2 0x2BDF JUMP JUMPDEST MLOAD PUSH1 0x1 DUP13 ADD PUSH2 0x2BDF JUMP JUMPDEST MLOAD PUSH1 0x2 DUP11 ADD PUSH2 0x2BDF JUMP JUMPDEST MLOAD DUP1 MLOAD SWAP1 PUSH1 0x3 DUP10 ADD SWAP1 PUSH1 0x1 PUSH1 0x40 SHL DUP4 GT PUSH2 0x99B JUMPI DUP2 SLOAD DUP4 DUP4 SSTORE DUP1 DUP5 LT PUSH2 0x9CC JUMPI JUMPDEST POP PUSH1 0x20 ADD SWAP1 PUSH0 MSTORE PUSH1 0x20 PUSH0 KECCAK256 PUSH0 SWAP2 JUMPDEST DUP4 DUP4 LT PUSH2 0x9AF JUMPI POP POP POP POP PUSH2 0x8FF SWAP3 PUSH1 0x14 SWAP7 SWAP6 SWAP5 SWAP3 PUSH2 0x8D7 PUSH2 0x1A0 PUSH2 0x8F5 SWAP5 MLOAD DUP1 MLOAD PUSH1 0x4 DUP14 ADD SSTORE PUSH2 0x7D7 DUP13 PUSH1 0x5 PUSH1 0x20 DUP5 ADD MLOAD SWAP2 ADD PUSH2 0x2BDF JUMP JUMPDEST PUSH2 0x7E9 DUP13 PUSH1 0x6 PUSH1 0x40 DUP5 ADD MLOAD SWAP2 ADD PUSH2 0x2BDF JUMP JUMPDEST PUSH2 0x7FB DUP13 PUSH1 0x7 PUSH1 0x60 DUP5 ADD MLOAD SWAP2 ADD PUSH2 0x2BDF JUMP JUMPDEST PUSH1 0x80 DUP2 ADD MLOAD PUSH1 0x8 DUP14 ADD SSTORE PUSH1 0xA0 DUP2 ADD MLOAD PUSH1 0x9 DUP14 ADD SSTORE PUSH1 0xA DUP13 ADD PUSH2 0x82A PUSH1 0xC0 DUP4 ADD MLOAD PUSH2 0x824 DUP2 PUSH2 0x27EA JUMP JUMPDEST DUP3 PUSH2 0x2CD7 JUMP JUMPDEST PUSH1 0xE0 DUP3 ADD MLOAD PUSH2 0x838 DUP2 PUSH2 0x27EA JUMP JUMPDEST PUSH2 0x841 DUP2 PUSH2 0x27EA JUMP JUMPDEST DUP2 SLOAD PUSH2 0xFF00 NOT AND PUSH1 0x8 SWAP2 SWAP1 SWAP2 SHL PUSH2 0xFF00 AND OR SWAP1 SSTORE PUSH2 0x100 DUP2 ADD MLOAD PUSH1 0xB DUP14 ADD SSTORE PUSH2 0x120 DUP2 ADD MLOAD PUSH1 0xC DUP14 ADD DUP1 SLOAD PUSH2 0x140 DUP5 ADD MLOAD PUSH1 0x1 PUSH1 0x1 PUSH1 0xA8 SHL SUB NOT SWAP1 SWAP2 AND PUSH1 0x1 PUSH1 0x1 PUSH1 0xA0 SHL SUB SWAP4 SWAP1 SWAP4 AND SWAP3 SWAP1 SWAP3 OR SWAP2 ISZERO ISZERO PUSH1 0xA0 SHL PUSH1 0xFF PUSH1 0xA0 SHL AND SWAP2 SWAP1 SWAP2 OR SWAP1 SSTORE PUSH2 0x8B3 DUP13 PUSH1 0xD PUSH2 0x160 DUP5 ADD MLOAD SWAP2 ADD PUSH2 0x2BDF JUMP JUMPDEST PUSH2 0x180 DUP2 ADD MLOAD PUSH1 0xE DUP14 ADD SSTORE ADD MLOAD ISZERO ISZERO PUSH1 0xF DUP12 ADD SWAP1 PUSH1 0xFF DUP1 NOT DUP4 SLOAD AND SWAP2 ISZERO ISZERO AND OR SWAP1 SSTORE JUMP JUMPDEST MLOAD PUSH1 0x10 DUP10 ADD SSTORE MLOAD ISZERO ISZERO PUSH1 0x11 DUP9 ADD SWAP1 PUSH1 0xFF DUP1 NOT DUP4 SLOAD AND SWAP2 ISZERO ISZERO AND OR SWAP1 SSTORE JUMP JUMPDEST MLOAD PUSH1 0x12 DUP7 ADD PUSH2 0x2BDF JUMP JUMPDEST MLOAD PUSH1 0x13 DUP5 ADD SSTORE MLOAD SWAP2 ADD SSTORE PUSH1 0x11 SLOAD PUSH1 0x1 PUSH1 0x40 SHL DUP2 LT ISZERO PUSH2 0x99B JUMPI DUP1 PUSH1 0x1 PUSH2 0x928 SWAP3 ADD PUSH1 0x11 SSTORE PUSH2 0x2692 JUMP JUMPDEST SWAP3 SWAP1 SWAP3 PUSH2 0x988 JUMPI PUSH2 0x983 PUSH2 0x975 SWAP3 PUSH2 0x961 DUP4 PUSH32 0x13691A45E823A54D20D9AB4CD2EB8A784E7DE81A30F2DCB6F25B18C789739CB7 SWAP7 PUSH2 0x2BDF JUMP JUMPDEST PUSH1 0x40 MLOAD SWAP4 DUP5 SWAP4 PUSH1 0x40 DUP6 MSTORE PUSH1 0x40 DUP6 ADD SWAP1 PUSH2 0x255B JUMP JUMPDEST SWAP1 DUP4 DUP3 SUB PUSH1 0x20 DUP6 ADD MSTORE PUSH2 0x255B JUMP JUMPDEST SUB SWAP1 LOG1 STOP JUMPDEST PUSH4 0x4E487B71 PUSH1 0xE0 SHL PUSH0 MSTORE PUSH0 PUSH1 0x4 MSTORE PUSH1 0x24 PUSH0 REVERT JUMPDEST PUSH4 0x4E487B71 PUSH1 0xE0 SHL PUSH0 MSTORE PUSH1 0x41 PUSH1 0x4 MSTORE PUSH1 0x24 PUSH0 REVERT JUMPDEST PUSH1 0x1 PUSH1 0x20 DUP3 PUSH2 0x9C0 DUP4 SWAP5 MLOAD DUP7 PUSH2 0x2BDF JUMP JUMPDEST ADD SWAP3 ADD SWAP3 ADD SWAP2 SWAP1 PUSH2 0x79E JUMP JUMPDEST DUP3 PUSH0 MSTORE DUP4 PUSH1 0x20 PUSH0 KECCAK256 SWAP2 DUP3 ADD SWAP2 ADD JUMPDEST DUP2 DUP2 LT PUSH2 0x9E7 JUMPI POP PUSH2 0x790 JUMP JUMPDEST DUP1 PUSH2 0x9F4 PUSH1 0x1 SWAP3 SLOAD PUSH2 0x2712 JUMP JUMPDEST DUP1 PUSH2 0xA01 JUMPI JUMPDEST POP ADD PUSH2 0x9DA JUMP JUMPDEST PUSH1 0x1F DUP2 GT DUP4 EQ PUSH2 0xA16 JUMPI POP PUSH0 DUP2 SSTORE JUMPDEST DUP16 PUSH2 0x9FA JUMP JUMPDEST PUSH2 0xA32 SWAP1 DUP3 PUSH0 MSTORE DUP4 PUSH1 0x1F PUSH1 0x20 PUSH0 KECCAK256 SWAP3 ADD PUSH1 0x5 SHR DUP3 ADD SWAP2 ADD PUSH2 0x2BC9 JUMP JUMPDEST DUP1 PUSH0 MSTORE PUSH0 PUSH1 0x20 DUP2 KECCAK256 DUP2 DUP4 SSTORE SSTORE PUSH2 0xA10 JUMP JUMPDEST DUP4 CALLDATALOAD PUSH1 0x1 PUSH1 0x1 PUSH1 0x40 SHL SUB DUP2 GT PUSH2 0x204 JUMPI PUSH1 0x20 SWAP2 PUSH2 0xA67 DUP4 SWAP3 PUSH1 0x24 CALLDATASIZE SWAP2 DUP8 ADD ADD PUSH2 0x2655 JUMP JUMPDEST DUP2 MSTORE ADD SWAP4 ADD SWAP3 PUSH2 0x588 JUMP JUMPDEST CALLVALUE PUSH2 0x204 JUMPI PUSH1 0x40 CALLDATASIZE PUSH1 0x3 NOT ADD SLT PUSH2 0x204 JUMPI PUSH2 0xA8B PUSH2 0x257F JUMP JUMPDEST PUSH2 0xA93 PUSH2 0x2595 JUMP JUMPDEST SWAP1 PUSH1 0x1 DUP1 PUSH1 0xA0 SHL SUB AND PUSH0 MSTORE PUSH1 0x5 PUSH1 0x20 MSTORE PUSH1 0x40 PUSH0 KECCAK256 SWAP1 PUSH1 0x1 DUP1 PUSH1 0xA0 SHL SUB AND PUSH0 MSTORE PUSH1 0x20 MSTORE PUSH1 0x20 PUSH1 0xFF PUSH1 0x40 PUSH0 KECCAK256 SLOAD AND PUSH1 0x40 MLOAD SWAP1 ISZERO ISZERO DUP2 MSTORE RETURN JUMPDEST CALLVALUE PUSH2 0x204 JUMPI PUSH0 CALLDATASIZE PUSH1 0x3 NOT ADD SLT PUSH2 0x204 JUMPI PUSH1 0x11 SLOAD PUSH2 0xAE5 DUP2 PUSH2 0x2A04 JUMP JUMPDEST SWAP1 PUSH2 0xAF3 PUSH1 0x40 MLOAD SWAP3 DUP4 PUSH2 0x25E3 JUMP JUMPDEST DUP1 DUP3 MSTORE PUSH1 0x11 PUSH0 SWAP1 DUP2 MSTORE PUSH1 0x20 DUP4 ADD SWAP2 SWAP1 PUSH32 0x31ECC21A745E3968A04E9570E4425BC18FA8019C68028196B546D1669C200C68 DUP4 JUMPDEST DUP4 DUP4 LT PUSH2 0xB92 JUMPI DUP5 DUP7 PUSH1 0x40 MLOAD SWAP2 DUP3 SWAP2 PUSH1 0x20 DUP4 ADD SWAP1 PUSH1 0x20 DUP5 MSTORE MLOAD DUP1 SWAP2 MSTORE PUSH1 0x40 DUP4 ADD SWAP1 PUSH1 0x40 DUP2 PUSH1 0x5 SHL DUP6 ADD ADD SWAP3 SWAP2 PUSH0 SWAP1 JUMPDEST DUP3 DUP3 LT PUSH2 0xB63 JUMPI POP POP POP POP SUB SWAP1 RETURN JUMPDEST SWAP2 SWAP4 PUSH1 0x1 SWAP2 SWAP4 SWAP6 POP PUSH1 0x20 PUSH2 0xB82 DUP2 SWAP3 PUSH1 0x3F NOT DUP11 DUP3 SUB ADD DUP7 MSTORE DUP9 MLOAD PUSH2 0x255B JUMP JUMPDEST SWAP7 ADD SWAP3 ADD SWAP3 ADD DUP6 SWAP5 SWAP4 SWAP2 SWAP3 PUSH2 0xB54 JUMP JUMPDEST PUSH1 0x1 PUSH1 0x20 DUP2 SWAP3 PUSH2 0xBA1 DUP6 PUSH2 0x274A JUMP JUMPDEST DUP2 MSTORE ADD SWAP3 ADD SWAP3 ADD SWAP2 SWAP1 PUSH2 0xB25 JUMP JUMPDEST CALLVALUE PUSH2 0x204 JUMPI PUSH1 0x20 CALLDATASIZE PUSH1 0x3 NOT ADD SLT PUSH2 0x204 JUMPI PUSH1 0x4 CALLDATALOAD PUSH0 DUP2 DUP2 MSTORE PUSH1 0x2 PUSH1 0x20 MSTORE PUSH1 0x40 SWAP1 KECCAK256 SLOAD PUSH2 0xBE5 SWAP1 PUSH1 0x1 PUSH1 0x1 PUSH1 0xA0 SHL SUB AND ISZERO ISZERO PUSH2 0x2DEB JUMP JUMPDEST PUSH2 0xC01 PUSH2 0xBF1 DUP3 PUSH2 0x3010 JUMP JUMPDEST PUSH1 0x1 PUSH1 0x1 PUSH1 0xA0 SHL SUB AND CALLER EQ PUSH2 0x2E2E JUMP JUMPDEST DUP1 PUSH0 MSTORE PUSH1 0x9 PUSH1 0x20 MSTORE PUSH32 0x587AB108DDCDC72E56FAB598EC9D1C9D11006EED8222B2C11E6024C83FE1DA92 PUSH2 0xC36 PUSH1 0x40 PUSH0 KECCAK256 PUSH2 0x2808 JUMP JUMPDEST SWAP2 PUSH2 0xC5D PUSH2 0x180 PUSH1 0x60 DUP6 ADD MLOAD SWAP5 ADD MLOAD SWAP4 PUSH1 0x40 MLOAD SWAP3 DUP4 MSTORE PUSH1 0x60 PUSH1 0x20 DUP5 ADD MSTORE PUSH1 0x60 DUP4 ADD SWAP1 PUSH2 0x255B JUMP JUMPDEST SWAP3 PUSH1 0x40 DUP3 ADD MSTORE DUP1 CALLER SWAP4 SUB SWAP1 LOG2 STOP JUMPDEST CALLVALUE PUSH2 0x204 JUMPI PUSH1 0x40 CALLDATASIZE PUSH1 0x3 NOT ADD SLT PUSH2 0x204 JUMPI PUSH2 0xC84 PUSH2 0x257F JUMP JUMPDEST PUSH1 0x1 PUSH1 0x1 PUSH1 0xA0 SHL SUB AND PUSH0 SWAP1 DUP2 MSTORE PUSH1 0xA PUSH1 0x20 MSTORE PUSH1 0x40 SWAP1 KECCAK256 DUP1 SLOAD PUSH1 0x24 CALLDATALOAD SWAP2 SWAP1 DUP3 LT ISZERO PUSH2 0x204 JUMPI PUSH1 0x20 SWAP2 PUSH2 0xCB4 SWAP2 PUSH2 0x26BE JUMP JUMPDEST SWAP1 SLOAD SWAP1 PUSH1 0x3 SHL SHR PUSH1 0x40 MLOAD SWAP1 DUP2 MSTORE RETURN JUMPDEST CALLVALUE PUSH2 0x204 JUMPI PUSH1 0x20 CALLDATASIZE PUSH1 0x3 NOT ADD SLT PUSH2 0x204 JUMPI PUSH1 0x4 CALLDATALOAD PUSH0 DUP2 DUP2 MSTORE PUSH1 0x2 PUSH1 0x20 MSTORE PUSH1 0x40 SWAP1 KECCAK256 SLOAD PUSH2 0xCF9 SWAP1 PUSH1 0x1 PUSH1 0x1 PUSH1 0xA0 SHL SUB AND ISZERO ISZERO PUSH2 0x2DEB JUMP JUMPDEST PUSH2 0xD05 PUSH2 0xBF1 DUP3 PUSH2 0x3010 JUMP JUMPDEST DUP1 PUSH0 MSTORE PUSH1 0x9 PUSH1 0x20 MSTORE PUSH1 0x40 PUSH0 KECCAK256 PUSH2 0xD21 PUSH1 0xFF PUSH1 0xB DUP4 ADD SLOAD AND PUSH2 0x2E6C JUMP JUMPDEST PUSH1 0x4 DUP2 ADD DUP1 SLOAD SWAP2 PUSH1 0x5 DUP2 ADD SLOAD DUP4 LT ISZERO PUSH2 0xE5A JUMPI PUSH1 0x64 DUP4 MUL SWAP3 DUP1 DUP5 DIV PUSH1 0x64 EQ DUP2 ISZERO OR ISZERO PUSH2 0x34E JUMPI CALLER PUSH0 MSTORE PUSH1 0xE PUSH1 0x20 MSTORE DUP4 PUSH1 0x40 PUSH0 KECCAK256 SLOAD LT PUSH2 0xE23 JUMPI PUSH1 0x1 DUP2 ADD DUP1 SWAP2 GT PUSH2 0x34E JUMPI DUP3 SSTORE PUSH1 0xA DUP2 ADD DUP1 SLOAD SWAP1 PUSH1 0x5 DUP3 ADD DUP1 SWAP3 GT PUSH2 0x34E JUMPI SSTORE CALLER PUSH0 MSTORE PUSH1 0xE PUSH1 0x20 MSTORE PUSH1 0x40 PUSH0 KECCAK256 SWAP3 DUP4 SLOAD SWAP1 DUP2 SUB SWAP1 DUP2 GT PUSH2 0x34E JUMPI PUSH1 0x2 PUSH2 0xDDF SWAP4 PUSH2 0xE07 SWAP3 PUSH32 0x9BF2F37AA04BDB81DBB914B6F742F4AED11541EDED6EB43A6B0147833F3E1987 SWAP7 SSTORE SLOAD SWAP3 PUSH1 0x20 PUSH2 0xDCD DUP6 PUSH2 0x341F JUMP JUMPDEST PUSH1 0x40 MLOAD SWAP7 DUP8 SWAP4 PUSH1 0x3 DUP5 DUP7 ADD SWAP2 ADD PUSH2 0x2EB0 JUMP JUMPDEST SWAP1 PUSH2 0x813 PUSH1 0xF2 SHL DUP3 MSTORE DUP1 MLOAD SWAP3 DUP4 SWAP2 ADD DUP6 DUP4 ADD MCOPY ADD PUSH0 DUP4 DUP3 ADD MSTORE SUB ADD PUSH1 0x1F NOT DUP2 ADD DUP5 MSTORE DUP4 PUSH2 0x25E3 JUMP JUMPDEST PUSH2 0x349 PUSH1 0x40 MLOAD SWAP3 DUP4 SWAP3 DUP4 MSTORE PUSH1 0x40 PUSH1 0x20 DUP5 ADD MSTORE PUSH1 0x40 DUP4 ADD SWAP1 PUSH2 0x255B JUMP JUMPDEST PUSH1 0x40 MLOAD PUSH3 0x461BCD PUSH1 0xE5 SHL DUP2 MSTORE PUSH1 0x20 PUSH1 0x4 DUP3 ADD MSTORE PUSH1 0xF PUSH1 0x24 DUP3 ADD MSTORE PUSH15 0x496E73756666696369656E7420585 PUSH1 0x8C SHL PUSH1 0x44 DUP3 ADD MSTORE PUSH1 0x64 SWAP1 REVERT JUMPDEST PUSH1 0x40 MLOAD PUSH3 0x461BCD PUSH1 0xE5 SHL DUP2 MSTORE PUSH1 0x20 PUSH1 0x4 DUP3 ADD MSTORE PUSH1 0x12 PUSH1 0x24 DUP3 ADD MSTORE PUSH18 0x10985919D948185D081B585E081B195D995B PUSH1 0x72 SHL PUSH1 0x44 DUP3 ADD MSTORE PUSH1 0x64 SWAP1 REVERT JUMPDEST CALLVALUE PUSH2 0x204 JUMPI PUSH1 0x20 CALLDATASIZE PUSH1 0x3 NOT ADD SLT PUSH2 0x204 JUMPI PUSH1 0x1 PUSH1 0x1 PUSH1 0xA0 SHL SUB PUSH2 0xEB5 PUSH2 0x257F JUMP JUMPDEST AND PUSH0 MSTORE PUSH1 0xA PUSH1 0x20 MSTORE PUSH1 0x40 PUSH0 KECCAK256 PUSH1 0x40 MLOAD DUP1 DUP3 PUSH1 0x20 DUP3 SWAP5 SLOAD SWAP4 DUP5 DUP2 MSTORE ADD SWAP1 PUSH0 MSTORE PUSH1 0x20 PUSH0 KECCAK256 SWAP3 PUSH0 JUMPDEST DUP2 DUP2 LT PUSH2 0x1047 JUMPI POP POP PUSH2 0xEEF SWAP3 POP SUB DUP3 PUSH2 0x25E3 JUMP JUMPDEST DUP1 MLOAD SWAP1 PUSH2 0xEFB DUP3 PUSH2 0x2A04 JUMP JUMPDEST SWAP2 PUSH2 0xF09 PUSH1 0x40 MLOAD SWAP4 DUP5 PUSH2 0x25E3 JUMP JUMPDEST DUP1 DUP4 MSTORE PUSH2 0xF18 PUSH1 0x1F NOT SWAP2 PUSH2 0x2A04 JUMP JUMPDEST ADD PUSH0 JUMPDEST DUP2 DUP2 LT PUSH2 0xFD3 JUMPI POP POP PUSH0 JUMPDEST DUP2 MLOAD DUP2 LT ISZERO PUSH2 0xF6C JUMPI DUP1 PUSH2 0xF3C PUSH1 0x1 SWAP3 DUP5 PUSH2 0x2DA7 JUMP JUMPDEST MLOAD PUSH0 MSTORE PUSH1 0x9 PUSH1 0x20 MSTORE PUSH2 0xF50 PUSH1 0x40 PUSH0 KECCAK256 PUSH2 0x2808 JUMP JUMPDEST PUSH2 0xF5A DUP3 DUP7 PUSH2 0x2DA7 JUMP JUMPDEST MSTORE PUSH2 0xF65 DUP2 DUP6 PUSH2 0x2DA7 JUMP JUMPDEST POP ADD PUSH2 0xF26 JUMP JUMPDEST DUP3 PUSH1 0x40 MLOAD DUP1 SWAP2 PUSH1 0x20 DUP3 ADD PUSH1 0x20 DUP4 MSTORE DUP2 MLOAD DUP1 SWAP2 MSTORE PUSH1 0x40 DUP4 ADD SWAP1 PUSH1 0x20 PUSH1 0x40 DUP3 PUSH1 0x5 SHL DUP7 ADD ADD SWAP4 ADD SWAP2 PUSH0 SWAP1 JUMPDEST DUP3 DUP3 LT PUSH2 0xFA4 JUMPI POP POP POP POP SUB SWAP1 RETURN JUMPDEST SWAP2 SWAP4 PUSH1 0x1 SWAP2 SWAP4 SWAP6 POP PUSH1 0x20 PUSH2 0xFC3 DUP2 SWAP3 PUSH1 0x3F NOT DUP11 DUP3 SUB ADD DUP7 MSTORE DUP9 MLOAD PUSH2 0x28E6 JUMP JUMPDEST SWAP7 ADD SWAP3 ADD SWAP3 ADD DUP6 SWAP5 SWAP4 SWAP2 SWAP3 PUSH2 0xF95 JUMP JUMPDEST PUSH1 0x20 SWAP1 PUSH1 0x40 MLOAD PUSH2 0xFE2 DUP2 PUSH2 0x25AB JUMP JUMPDEST PUSH0 DUP2 MSTORE PUSH1 0x60 DUP4 DUP3 ADD MSTORE PUSH1 0x60 PUSH1 0x40 DUP3 ADD MSTORE PUSH1 0x60 DUP1 DUP3 ADD MSTORE PUSH0 PUSH1 0x80 DUP3 ADD MSTORE PUSH0 PUSH1 0xA0 DUP3 ADD MSTORE PUSH0 PUSH1 0xC0 DUP3 ADD MSTORE PUSH0 PUSH1 0xE0 DUP3 ADD MSTORE PUSH0 PUSH2 0x100 DUP3 ADD MSTORE PUSH0 PUSH2 0x120 DUP3 ADD MSTORE PUSH0 PUSH2 0x140 DUP3 ADD MSTORE PUSH1 0x60 PUSH2 0x160 DUP3 ADD MSTORE PUSH0 PUSH2 0x180 DUP3 ADD MSTORE PUSH0 PUSH2 0x1A0 DUP3 ADD MSTORE DUP3 DUP3 DUP8 ADD ADD MSTORE ADD PUSH2 0xF1B JUMP JUMPDEST DUP5 SLOAD DUP4 MSTORE PUSH1 0x1 SWAP5 DUP6 ADD SWAP5 DUP7 SWAP5 POP PUSH1 0x20 SWAP1 SWAP4 ADD SWAP3 ADD PUSH2 0xEDA JUMP JUMPDEST CALLVALUE PUSH2 0x204 JUMPI PUSH1 0x20 CALLDATASIZE PUSH1 0x3 NOT ADD SLT PUSH2 0x204 JUMPI PUSH2 0x1093 PUSH2 0x107F PUSH1 0x4 CALLDATALOAD PUSH2 0x2DBB JUMP JUMPDEST PUSH1 0x40 MLOAD SWAP2 DUP3 SWAP2 PUSH1 0x20 DUP4 MSTORE PUSH1 0x20 DUP4 ADD SWAP1 PUSH2 0x255B JUMP JUMPDEST SUB SWAP1 RETURN JUMPDEST CALLVALUE PUSH2 0x204 JUMPI PUSH1 0x80 CALLDATASIZE PUSH1 0x3 NOT ADD SLT PUSH2 0x204 JUMPI PUSH2 0x10B0 PUSH2 0x257F JUMP JUMPDEST PUSH2 0x10B8 PUSH2 0x2595 JUMP JUMPDEST SWAP1 PUSH1 0x44 CALLDATALOAD PUSH1 0x64 CALLDATALOAD SWAP3 PUSH1 0x1 PUSH1 0x1 PUSH1 0x40 SHL SUB DUP5 GT PUSH2 0x204 JUMPI CALLDATASIZE PUSH1 0x23 DUP6 ADD SLT ISZERO PUSH2 0x204 JUMPI PUSH2 0x10F0 PUSH2 0x1102 SWAP5 CALLDATASIZE SWAP1 PUSH1 0x24 DUP2 PUSH1 0x4 ADD CALLDATALOAD SWAP2 ADD PUSH2 0x261F JUMP JUMPDEST SWAP3 PUSH2 0x10FC DUP4 DUP4 DUP4 PUSH2 0x2A1B JUMP JUMPDEST CALLER PUSH2 0x32FB JUMP JUMPDEST STOP JUMPDEST CALLVALUE PUSH2 0x204 JUMPI PUSH1 0x20 CALLDATASIZE PUSH1 0x3 NOT ADD SLT PUSH2 0x204 JUMPI PUSH1 0x1 PUSH1 0x1 PUSH1 0xA0 SHL SUB PUSH2 0x1125 PUSH2 0x257F JUMP JUMPDEST AND PUSH0 MSTORE PUSH1 0x12 PUSH1 0x20 MSTORE PUSH1 0x20 PUSH1 0xFF PUSH1 0x40 PUSH0 KECCAK256 SLOAD AND PUSH1 0x40 MLOAD SWAP1 ISZERO ISZERO DUP2 MSTORE RETURN JUMPDEST CALLVALUE PUSH2 0x204 JUMPI PUSH1 0x40 CALLDATASIZE PUSH1 0x3 NOT ADD SLT PUSH2 0x204 JUMPI PUSH2 0x115A PUSH2 0x257F JUMP JUMPDEST PUSH1 0x24 CALLDATALOAD SWAP1 DUP2 ISZERO ISZERO SWAP1 DUP2 DUP4 SUB PUSH2 0x204 JUMPI PUSH1 0x1 PUSH1 0x1 PUSH1 0xA0 SHL SUB AND SWAP2 DUP3 ISZERO PUSH2 0x11D2 JUMPI PUSH2 0x11A4 SWAP1 CALLER PUSH0 MSTORE PUSH1 0x5 PUSH1 0x20 MSTORE PUSH1 0x40 PUSH0 KECCAK256 DUP5 PUSH0 MSTORE PUSH1 0x20 MSTORE PUSH1 0x40 PUSH0 KECCAK256 SWAP1 PUSH1 0xFF DUP1 NOT DUP4 SLOAD AND SWAP2 ISZERO ISZERO AND OR SWAP1 SSTORE JUMP JUMPDEST PUSH1 0x40 MLOAD SWAP1 DUP2 MSTORE PUSH32 0x17307EAB39AB6107E8899845AD3D59BD9653F200F220920489CA2B5937696C31 PUSH1 0x20 CALLER SWAP3 LOG3 STOP JUMPDEST DUP3 PUSH4 0xB611743 PUSH1 0xE3 SHL PUSH0 MSTORE PUSH1 0x4 MSTORE PUSH1 0x24 PUSH0 REVERT JUMPDEST CALLVALUE PUSH2 0x204 JUMPI PUSH1 0x20 CALLDATASIZE PUSH1 0x3 NOT ADD SLT PUSH2 0x204 JUMPI PUSH1 0x4 CALLDATALOAD PUSH0 MSTORE PUSH1 0x9 PUSH1 0x20 MSTORE PUSH1 0x40 PUSH0 KECCAK256 DUP1 SLOAD PUSH1 0x1 DUP3 ADD PUSH2 0x1213 SWAP1 PUSH2 0x274A JUMP JUMPDEST SWAP2 PUSH2 0x1220 PUSH1 0x2 DUP3 ADD PUSH2 0x274A JUMP JUMPDEST PUSH2 0x122C PUSH1 0x3 DUP4 ADD PUSH2 0x274A JUMP JUMPDEST PUSH1 0x4 DUP4 ADD SLOAD PUSH1 0x5 DUP5 ADD SLOAD PUSH1 0x6 DUP6 ADD SLOAD PUSH1 0xFF DUP2 AND SWAP1 PUSH1 0x8 SHR PUSH1 0xFF AND PUSH1 0x7 DUP8 ADD SLOAD SWAP2 PUSH1 0x8 DUP9 ADD SLOAD SWAP4 PUSH1 0x9 DUP10 ADD PUSH2 0x125F SWAP1 PUSH2 0x274A JUMP JUMPDEST SWAP7 PUSH1 0xA DUP11 ADD SLOAD SWAP10 PUSH1 0xB ADD SLOAD PUSH1 0xFF AND SWAP9 PUSH1 0x40 MLOAD SWAP13 DUP14 SWAP13 DUP14 MSTORE PUSH1 0x20 DUP14 ADD PUSH2 0x1C0 SWAP1 MSTORE PUSH2 0x1C0 DUP14 ADD PUSH2 0x128D SWAP2 PUSH2 0x255B JUMP JUMPDEST DUP13 DUP2 SUB PUSH1 0x40 DUP15 ADD MSTORE PUSH2 0x129E SWAP2 PUSH2 0x255B JUMP JUMPDEST DUP12 DUP2 SUB PUSH1 0x60 DUP14 ADD MSTORE PUSH2 0x12AF SWAP2 PUSH2 0x255B JUMP JUMPDEST SWAP6 PUSH1 0x80 DUP12 ADD MSTORE PUSH1 0xA0 DUP11 ADD MSTORE PUSH2 0x12C3 DUP2 PUSH2 0x27EA JUMP JUMPDEST PUSH1 0xC0 DUP10 ADD MSTORE PUSH2 0x12D1 DUP2 PUSH2 0x27EA JUMP JUMPDEST PUSH1 0xE0 DUP9 ADD MSTORE PUSH2 0x100 DUP8 ADD MSTORE PUSH1 0x1 PUSH1 0x1 PUSH1 0xA0 SHL SUB DUP2 AND PUSH2 0x120 DUP8 ADD MSTORE PUSH1 0xA0 SHR PUSH1 0xFF AND ISZERO ISZERO PUSH2 0x140 DUP7 ADD MSTORE DUP5 DUP2 SUB PUSH2 0x160 DUP7 ADD MSTORE PUSH2 0x130C SWAP2 PUSH2 0x255B JUMP JUMPDEST SWAP2 PUSH2 0x180 DUP5 ADD MSTORE ISZERO ISZERO PUSH2 0x1A0 DUP4 ADD MSTORE SUB SWAP1 RETURN JUMPDEST CALLVALUE PUSH2 0x204 JUMPI PUSH2 0x132D CALLDATASIZE PUSH2 0x26D3 JUMP JUMPDEST PUSH1 0x40 MLOAD PUSH1 0x20 DUP2 DUP4 MLOAD DUP1 DUP4 DUP7 ADD DUP4 MCOPY DUP2 ADD PUSH1 0xC DUP2 MSTORE SUB ADD SWAP1 KECCAK256 PUSH1 0x40 MLOAD SWAP3 PUSH2 0x1352 DUP5 PUSH2 0x25C7 JUMP JUMPDEST PUSH2 0x135B DUP3 PUSH2 0x274A JUMP JUMPDEST DUP5 MSTORE PUSH2 0x1369 PUSH1 0x1 DUP4 ADD PUSH2 0x274A JUMP JUMPDEST PUSH1 0x20 DUP6 ADD MSTORE PUSH2 0x137A PUSH1 0x2 DUP4 ADD PUSH2 0x274A JUMP JUMPDEST PUSH1 0x40 DUP6 ADD MSTORE PUSH1 0x3 DUP3 ADD SWAP4 DUP5 SLOAD PUSH2 0x138F DUP2 PUSH2 0x2A04 JUMP JUMPDEST SWAP6 PUSH2 0x139D PUSH1 0x40 MLOAD SWAP8 DUP9 PUSH2 0x25E3 JUMP JUMPDEST DUP2 DUP8 MSTORE PUSH1 0x20 DUP8 ADD SWAP1 PUSH0 MSTORE PUSH1 0x20 PUSH0 KECCAK256 PUSH0 SWAP2 JUMPDEST DUP4 DUP4 LT PUSH2 0x14BD JUMPI POP POP POP POP PUSH1 0x60 DUP2 ADD SWAP5 DUP6 MSTORE PUSH2 0x13CC PUSH1 0x4 DUP5 ADD PUSH2 0x2808 JUMP JUMPDEST PUSH1 0x80 DUP3 ADD MSTORE PUSH1 0x10 DUP4 ADD SLOAD PUSH1 0xA0 DUP3 ADD MSTORE PUSH1 0xFF PUSH1 0x11 DUP5 ADD SLOAD AND ISZERO ISZERO PUSH1 0xC0 DUP3 ADD MSTORE PUSH2 0x120 PUSH1 0x14 PUSH2 0x13FB PUSH1 0x12 DUP7 ADD PUSH2 0x274A JUMP JUMPDEST PUSH1 0xE0 DUP5 ADD SWAP1 DUP2 MSTORE PUSH1 0x13 DUP7 ADD SLOAD PUSH2 0x100 DUP6 ADD MSTORE SWAP5 ADD SLOAD SWAP2 ADD MSTORE DUP4 MLOAD MLOAD PUSH0 SWAP3 PUSH1 0x1 PUSH1 0x1 PUSH1 0xA0 SHL SUB SWAP1 SWAP3 AND SWAP2 DUP4 JUMPDEST DUP7 MLOAD MLOAD DUP2 LT ISZERO PUSH2 0x1475 JUMPI DUP4 PUSH0 MSTORE PUSH1 0xB PUSH1 0x20 MSTORE PUSH1 0xFF PUSH2 0x1452 PUSH1 0x40 PUSH0 KECCAK256 PUSH2 0x144C DUP5 DUP12 MLOAD PUSH2 0x2DA7 JUMP JUMPDEST MLOAD PUSH2 0x2673 JUMP JUMPDEST SLOAD AND PUSH2 0x1461 JUMPI JUMPDEST PUSH1 0x1 ADD PUSH2 0x1426 JUMP JUMPDEST SWAP4 PUSH2 0x146D PUSH1 0x1 SWAP2 PUSH2 0x2BBB JUMP JUMPDEST SWAP5 SWAP1 POP PUSH2 0x1459 JUMP JUMPDEST POP SWAP1 SWAP4 PUSH2 0x1493 PUSH1 0xFF SWAP2 PUSH2 0x1093 SWAP5 PUSH0 MSTORE PUSH1 0xD PUSH1 0x20 MSTORE PUSH1 0x40 PUSH0 KECCAK256 SWAP1 PUSH2 0x2673 JUMP JUMPDEST SLOAD AND SWAP1 MLOAD SWAP1 PUSH1 0x40 MLOAD SWAP5 DUP6 SWAP5 DUP6 MSTORE PUSH1 0x20 DUP6 ADD MSTORE ISZERO ISZERO PUSH1 0x40 DUP5 ADD MSTORE PUSH1 0x80 PUSH1 0x60 DUP5 ADD MSTORE PUSH1 0x80 DUP4 ADD SWAP1 PUSH2 0x255B JUMP JUMPDEST PUSH1 0x1 PUSH1 0x20 DUP2 SWAP3 PUSH2 0x14CF DUP6 SWAP12 SWAP10 SWAP12 PUSH2 0x274A JUMP JUMPDEST DUP2 MSTORE ADD SWAP3 ADD SWAP3 ADD SWAP2 SWAP1 SWAP7 SWAP5 SWAP7 PUSH2 0x13AE JUMP JUMPDEST CALLVALUE PUSH2 0x204 JUMPI PUSH0 CALLDATASIZE PUSH1 0x3 NOT ADD SLT PUSH2 0x204 JUMPI PUSH1 0x40 MLOAD PUSH0 PUSH1 0x1 SLOAD PUSH2 0x1500 DUP2 PUSH2 0x2712 JUMP JUMPDEST DUP1 DUP5 MSTORE SWAP1 PUSH1 0x1 DUP2 AND SWAP1 DUP2 ISZERO PUSH2 0x1586 JUMPI POP PUSH1 0x1 EQ PUSH2 0x1528 JUMPI JUMPDEST PUSH2 0x1093 DUP4 PUSH2 0x107F DUP2 DUP6 SUB DUP3 PUSH2 0x25E3 JUMP JUMPDEST PUSH1 0x1 PUSH0 SWAP1 DUP2 MSTORE PUSH32 0xB10E2D527612073B26EECDFD717E6A320CF44B4AFAC2B0732D9FCBE2B7FA0CF6 SWAP4 SWAP3 POP SWAP1 JUMPDEST DUP1 DUP3 LT PUSH2 0x156C JUMPI POP SWAP1 SWAP2 POP DUP2 ADD PUSH1 0x20 ADD PUSH2 0x107F PUSH2 0x1518 JUMP JUMPDEST SWAP2 SWAP3 PUSH1 0x1 DUP2 PUSH1 0x20 SWAP3 SLOAD DUP4 DUP6 DUP9 ADD ADD MSTORE ADD SWAP2 ADD SWAP1 SWAP3 SWAP2 PUSH2 0x1554 JUMP JUMPDEST PUSH1 0xFF NOT AND PUSH1 0x20 DUP1 DUP7 ADD SWAP2 SWAP1 SWAP2 MSTORE SWAP2 ISZERO ISZERO PUSH1 0x5 SHL DUP5 ADD SWAP1 SWAP2 ADD SWAP2 POP PUSH2 0x107F SWAP1 POP PUSH2 0x1518 JUMP JUMPDEST CALLVALUE PUSH2 0x204 JUMPI PUSH1 0x20 PUSH1 0xFF PUSH2 0x15DC PUSH2 0x15BF CALLDATASIZE PUSH2 0x26D3 JUMP JUMPDEST PUSH1 0x1 PUSH1 0x1 PUSH1 0xA0 SHL SUB SWAP1 SWAP2 AND PUSH0 SWAP1 DUP2 MSTORE PUSH1 0xB DUP6 MSTORE PUSH1 0x40 SWAP1 KECCAK256 SWAP1 PUSH2 0x2673 JUMP JUMPDEST SLOAD AND PUSH1 0x40 MLOAD SWAP1 ISZERO ISZERO DUP2 MSTORE RETURN JUMPDEST CALLVALUE PUSH2 0x204 JUMPI PUSH0 CALLDATASIZE PUSH1 0x3 NOT ADD SLT PUSH2 0x204 JUMPI PUSH1 0x7 SLOAD PUSH1 0x40 MLOAD PUSH1 0x1 PUSH1 0x1 PUSH1 0xA0 SHL SUB SWAP1 SWAP2 AND DUP2 MSTORE PUSH1 0x20 SWAP1 RETURN JUMPDEST CALLVALUE PUSH2 0x204 JUMPI PUSH0 CALLDATASIZE PUSH1 0x3 NOT ADD SLT PUSH2 0x204 JUMPI PUSH2 0x1628 PUSH2 0x3044 JUMP JUMPDEST PUSH1 0x7 SLOAD PUSH1 0xFF DUP2 PUSH1 0xA0 SHR AND PUSH2 0x1674 JUMPI PUSH1 0xFF PUSH1 0xA0 SHL NOT AND PUSH1 0x1 PUSH1 0xA0 SHL OR PUSH1 0x7 SSTORE PUSH1 0x40 MLOAD CALLER DUP2 MSTORE PUSH32 0x62E78CEA01BEE320CD4E420270B5EA74000D11B0C9F74754EBDBFC544B05A258 SWAP1 PUSH1 0x20 SWAP1 LOG1 STOP JUMPDEST PUSH4 0xD93C0665 PUSH1 0xE0 SHL PUSH0 MSTORE PUSH1 0x4 PUSH0 REVERT JUMPDEST CALLVALUE PUSH2 0x204 JUMPI PUSH1 0x20 CALLDATASIZE PUSH1 0x3 NOT ADD SLT PUSH2 0x204 JUMPI PUSH1 0x4 CALLDATALOAD PUSH1 0x5 DUP2 LT ISZERO PUSH2 0x204 JUMPI PUSH2 0x1FC PUSH1 0x20 SWAP2 PUSH2 0x2D30 JUMP JUMPDEST CALLVALUE PUSH2 0x204 JUMPI PUSH0 CALLDATASIZE PUSH1 0x3 NOT ADD SLT PUSH2 0x204 JUMPI PUSH2 0x16C3 PUSH2 0x3044 JUMP JUMPDEST PUSH1 0x7 DUP1 SLOAD PUSH1 0x1 PUSH1 0x1 PUSH1 0xA0 SHL SUB NOT DUP2 AND SWAP1 SWAP2 SSTORE PUSH0 SWAP1 PUSH1 0x1 PUSH1 0x1 PUSH1 0xA0 SHL SUB AND PUSH32 0x8BE0079C531659141344CD1FD0A4F28419497F9722A3DAAFE3B4186F6B6457E0 DUP3 DUP1 LOG3 STOP JUMPDEST CALLVALUE PUSH2 0x204 JUMPI PUSH1 0x20 CALLDATASIZE PUSH1 0x3 NOT ADD SLT PUSH2 0x204 JUMPI PUSH1 0x1 PUSH1 0x1 PUSH1 0xA0 SHL SUB PUSH2 0x1727 PUSH2 0x257F JUMP JUMPDEST AND DUP1 ISZERO PUSH2 0x1744 JUMPI PUSH0 MSTORE PUSH1 0x3 PUSH1 0x20 MSTORE PUSH1 0x20 PUSH1 0x40 PUSH0 KECCAK256 SLOAD PUSH1 0x40 MLOAD SWAP1 DUP2 MSTORE RETURN JUMPDEST PUSH4 0x22718AD9 PUSH1 0xE2 SHL PUSH0 MSTORE PUSH0 PUSH1 0x4 MSTORE PUSH1 0x24 PUSH0 REVERT JUMPDEST CALLVALUE PUSH2 0x204 JUMPI PUSH1 0x20 CALLDATASIZE PUSH1 0x3 NOT ADD SLT PUSH2 0x204 JUMPI PUSH1 0x20 PUSH2 0x1775 PUSH1 0x4 CALLDATALOAD PUSH2 0x3010 JUMP JUMPDEST PUSH1 0x40 MLOAD PUSH1 0x1 PUSH1 0x1 PUSH1 0xA0 SHL SUB SWAP1 SWAP2 AND DUP2 MSTORE RETURN JUMPDEST CALLVALUE PUSH2 0x204 JUMPI PUSH0 CALLDATASIZE PUSH1 0x3 NOT ADD SLT PUSH2 0x204 JUMPI PUSH1 0x20 PUSH1 0xFF PUSH1 0x7 SLOAD PUSH1 0xA0 SHR AND PUSH1 0x40 MLOAD SWAP1 ISZERO ISZERO DUP2 MSTORE RETURN JUMPDEST CALLVALUE PUSH2 0x204 JUMPI PUSH2 0x1102 PUSH2 0x17BD CALLDATASIZE PUSH2 0x29CA JUMP JUMPDEST SWAP1 PUSH1 0x40 MLOAD SWAP3 PUSH2 0x17CD PUSH1 0x20 DUP6 PUSH2 0x25E3 JUMP JUMPDEST PUSH0 DUP5 MSTORE PUSH2 0x10FC DUP4 DUP4 DUP4 PUSH2 0x2A1B JUMP JUMPDEST CALLVALUE PUSH2 0x204 JUMPI PUSH0 CALLDATASIZE PUSH1 0x3 NOT ADD SLT PUSH2 0x204 JUMPI PUSH2 0x17F3 PUSH2 0x3044 JUMP JUMPDEST PUSH1 0x7 SLOAD PUSH1 0xFF DUP2 PUSH1 0xA0 SHR AND ISZERO PUSH2 0x183A JUMPI PUSH1 0xFF PUSH1 0xA0 SHL NOT AND PUSH1 0x7 SSTORE PUSH1 0x40 MLOAD CALLER DUP2 MSTORE PUSH32 0x5DB9EE0A495BF2E6FF9C91A7834C1BA4FDD244A5E8AA4E537BD38AEAE4B073AA SWAP1 PUSH1 0x20 SWAP1 LOG1 STOP JUMPDEST PUSH4 0x8DFC202B PUSH1 0xE0 SHL PUSH0 MSTORE PUSH1 0x4 PUSH0 REVERT JUMPDEST CALLVALUE PUSH2 0x204 JUMPI PUSH2 0x140 CALLDATASIZE PUSH1 0x3 NOT ADD SLT PUSH2 0x204 JUMPI PUSH2 0x1863 PUSH2 0x257F JUMP JUMPDEST PUSH1 0x24 CALLDATALOAD PUSH1 0x1 PUSH1 0x1 PUSH1 0x40 SHL SUB DUP2 GT PUSH2 0x204 JUMPI PUSH2 0x1882 SWAP1 CALLDATASIZE SWAP1 PUSH1 0x4 ADD PUSH2 0x2655 JUMP JUMPDEST PUSH1 0x44 CALLDATALOAD PUSH1 0x1 PUSH1 0x1 PUSH1 0x40 SHL SUB DUP2 GT PUSH2 0x204 JUMPI PUSH2 0x18A1 SWAP1 CALLDATASIZE SWAP1 PUSH1 0x4 ADD PUSH2 0x2655 JUMP JUMPDEST PUSH1 0x64 CALLDATALOAD PUSH1 0x1 PUSH1 0x1 PUSH1 0x40 SHL SUB DUP2 GT PUSH2 0x204 JUMPI PUSH2 0x18C0 SWAP1 CALLDATASIZE SWAP1 PUSH1 0x4 ADD PUSH2 0x2655 JUMP JUMPDEST PUSH1 0x5 PUSH1 0xA4 CALLDATALOAD LT ISZERO PUSH2 0x204 JUMPI PUSH1 0xC4 CALLDATALOAD SWAP3 PUSH1 0x5 DUP5 LT ISZERO PUSH2 0x204 JUMPI PUSH1 0xE4 CALLDATALOAD PUSH1 0x1 PUSH1 0x1 PUSH1 0x40 SHL SUB DUP2 GT PUSH2 0x204 JUMPI PUSH2 0x18F7 SWAP1 CALLDATASIZE SWAP1 PUSH1 0x4 ADD PUSH2 0x2655 JUMP JUMPDEST PUSH2 0x104 CALLDATALOAD SWAP4 DUP5 ISZERO ISZERO DUP6 SUB PUSH2 0x204 JUMPI PUSH2 0x124 CALLDATALOAD PUSH1 0x1 PUSH1 0x1 PUSH1 0x40 SHL SUB DUP2 GT PUSH2 0x204 JUMPI PUSH2 0x1925 SWAP1 CALLDATASIZE SWAP1 PUSH1 0x4 ADD PUSH2 0x2655 JUMP JUMPDEST SWAP4 CALLER PUSH0 MSTORE PUSH1 0x12 PUSH1 0x20 MSTORE PUSH1 0xFF PUSH1 0x40 PUSH0 KECCAK256 SLOAD AND DUP1 ISZERO PUSH2 0x2032 JUMPI JUMPDEST ISZERO PUSH2 0x1FF4 JUMPI PUSH2 0x1B35 DUP9 SWAP6 PUSH1 0xB PUSH2 0x1BD6 SWAP5 PUSH2 0x198E SWAP11 PUSH2 0x1994 PUSH32 0x7F0834DB73D96152C9EA99A9E6C3B9DB8880914D1E0AB78BA2442065B142CED6 SWAP9 PUSH1 0x8 SLOAD SWAP14 DUP15 DUP1 SWAP14 PUSH2 0x1986 DUP3 PUSH2 0x2BBB JUMP JUMPDEST PUSH1 0x8 SSTORE PUSH2 0x306B JUMP JUMPDEST DUP12 PUSH2 0x3278 JUMP JUMPDEST PUSH2 0x199F PUSH1 0xA4 CALLDATALOAD PUSH2 0x2F9B JUMP JUMPDEST PUSH1 0x40 MLOAD SWAP3 PUSH2 0x19AC DUP5 PUSH2 0x25AB JUMP JUMPDEST DUP12 DUP5 MSTORE DUP11 PUSH1 0x20 DUP6 ADD MSTORE PUSH1 0x40 DUP5 ADD MSTORE DUP7 PUSH1 0x60 DUP5 ADD MSTORE PUSH1 0x1 PUSH1 0x80 DUP5 ADD MSTORE PUSH1 0xA0 DUP4 ADD MSTORE PUSH2 0x19D7 PUSH1 0xA4 CALLDATALOAD PUSH2 0x27EA JUMP JUMPDEST PUSH1 0xA4 CALLDATALOAD PUSH1 0xC0 DUP4 ADD MSTORE PUSH2 0x19E8 DUP2 PUSH2 0x27EA JUMP JUMPDEST PUSH1 0xE0 DUP3 ADD MSTORE TIMESTAMP PUSH2 0x100 DUP3 ADD MSTORE PUSH1 0x1 DUP1 PUSH1 0xA0 SHL SUB DUP13 AND PUSH2 0x120 DUP3 ADD MSTORE PUSH2 0x140 DUP2 ADD SWAP3 DUP11 ISZERO ISZERO DUP5 MSTORE PUSH2 0x160 DUP3 ADD SWAP1 DUP2 MSTORE PUSH2 0x1B19 PUSH2 0x180 DUP4 ADD SWAP2 PUSH1 0x84 CALLDATALOAD DUP4 MSTORE PUSH2 0x1B0F PUSH2 0x1A0 DUP6 ADD SWAP5 PUSH1 0x1 DUP7 MSTORE DUP14 PUSH0 MSTORE PUSH1 0x9 PUSH1 0x20 MSTORE PUSH1 0x40 PUSH0 KECCAK256 SWAP8 DUP2 MLOAD DUP10 SSTORE PUSH2 0x1A53 PUSH1 0x20 DUP4 ADD MLOAD PUSH1 0x1 DUP12 ADD PUSH2 0x2BDF JUMP JUMPDEST PUSH2 0x1A64 PUSH1 0x40 DUP4 ADD MLOAD PUSH1 0x2 DUP12 ADD PUSH2 0x2BDF JUMP JUMPDEST PUSH2 0x1A75 PUSH1 0x60 DUP4 ADD MLOAD PUSH1 0x3 DUP12 ADD PUSH2 0x2BDF JUMP JUMPDEST PUSH1 0x80 DUP3 ADD MLOAD PUSH1 0x4 DUP11 ADD SSTORE PUSH1 0xA0 DUP3 ADD MLOAD PUSH1 0x5 DUP11 ADD SSTORE PUSH1 0x6 DUP10 ADD PUSH2 0x1A9E PUSH1 0xC0 DUP5 ADD MLOAD PUSH2 0x824 DUP2 PUSH2 0x27EA JUMP JUMPDEST PUSH1 0xE0 DUP4 ADD MLOAD PUSH2 0x1AAC DUP2 PUSH2 0x27EA JUMP JUMPDEST PUSH2 0x1AB5 DUP2 PUSH2 0x27EA JUMP JUMPDEST DUP2 SLOAD PUSH2 0xFF00 NOT AND PUSH1 0x8 SWAP2 DUP3 SHL PUSH2 0xFF00 AND OR SWAP1 SWAP2 SSTORE PUSH2 0x100 DUP4 ADD MLOAD PUSH1 0x7 DUP12 ADD SSTORE PUSH2 0x120 SWAP1 SWAP3 ADD MLOAD SWAP2 DUP10 ADD DUP1 SLOAD SWAP2 MLOAD PUSH1 0x1 PUSH1 0x1 PUSH1 0xA8 SHL SUB NOT SWAP1 SWAP3 AND PUSH1 0x1 PUSH1 0x1 PUSH1 0xA0 SHL SUB SWAP4 SWAP1 SWAP4 AND SWAP3 SWAP1 SWAP3 OR SWAP1 ISZERO ISZERO PUSH1 0xA0 SHL PUSH1 0xFF PUSH1 0xA0 SHL AND OR SWAP1 SSTORE JUMP JUMPDEST MLOAD PUSH1 0x9 DUP7 ADD PUSH2 0x2BDF JUMP JUMPDEST MLOAD PUSH1 0xA DUP5 ADD SSTORE MLOAD ISZERO ISZERO SWAP2 ADD SWAP1 PUSH1 0xFF DUP1 NOT DUP4 SLOAD AND SWAP2 ISZERO ISZERO AND OR SWAP1 SSTORE JUMP JUMPDEST PUSH1 0x1 DUP1 PUSH1 0xA0 SHL SUB DUP9 AND PUSH0 MSTORE PUSH1 0xA PUSH1 0x20 MSTORE PUSH2 0x1B52 DUP6 PUSH1 0x40 PUSH0 KECCAK256 PUSH2 0x2CEF JUMP JUMPDEST PUSH1 0x1 PUSH1 0x1 PUSH1 0xA0 SHL SUB DUP9 AND PUSH0 SWAP1 DUP2 MSTORE PUSH1 0xB PUSH1 0x20 MSTORE PUSH1 0x40 SWAP1 KECCAK256 PUSH2 0x1B73 SWAP1 DUP6 PUSH2 0x2673 JUMP JUMPDEST DUP1 SLOAD PUSH1 0xFF NOT AND PUSH1 0x1 OR SWAP1 SSTORE PUSH2 0x1B89 PUSH1 0xA4 CALLDATALOAD PUSH2 0x2D30 JUMP JUMPDEST PUSH1 0x1 DUP1 PUSH1 0xA0 SHL SUB DUP10 AND PUSH0 MSTORE PUSH1 0xE PUSH1 0x20 MSTORE PUSH2 0x1BA8 PUSH1 0x40 PUSH0 KECCAK256 SWAP2 DUP3 SLOAD PUSH2 0x2D23 JUMP JUMPDEST SWAP1 SSTORE PUSH2 0x1BB3 DUP9 PUSH2 0x32B9 JUMP JUMPDEST PUSH2 0x1BC8 PUSH1 0x40 MLOAD SWAP5 PUSH1 0x80 DUP7 MSTORE PUSH1 0x80 DUP7 ADD SWAP1 PUSH2 0x255B JUMP JUMPDEST SWAP1 DUP5 DUP3 SUB PUSH1 0x20 DUP7 ADD MSTORE PUSH2 0x255B JUMP JUMPDEST SWAP2 PUSH1 0x1 PUSH1 0x40 DUP3 ADD MSTORE PUSH2 0x1BE9 PUSH1 0xA4 CALLDATALOAD PUSH2 0x27EA JUMP JUMPDEST PUSH1 0xA4 CALLDATALOAD PUSH1 0x60 DUP3 ADD MSTORE PUSH1 0x1 PUSH1 0x1 PUSH1 0xA0 SHL SUB DUP8 AND SWAP3 DUP2 SWAP1 SUB SWAP1 LOG3 ISZERO PUSH2 0x1C12 JUMPI JUMPDEST PUSH1 0x20 SWAP1 PUSH1 0x40 MLOAD SWAP1 DUP2 MSTORE RETURN JUMPDEST PUSH0 JUMPDEST PUSH1 0x11 SLOAD DUP2 LT ISZERO PUSH2 0x1FEA JUMPI PUSH2 0x1C30 PUSH2 0x1C2A DUP3 PUSH2 0x2692 JUMP JUMPDEST POP PUSH2 0x274A JUMP JUMPDEST SWAP1 PUSH1 0x40 MLOAD DUP3 MLOAD SWAP1 PUSH1 0x20 DUP2 DUP2 DUP7 ADD SWAP4 DUP1 DUP6 DUP4 MCOPY DUP2 ADD PUSH1 0xC DUP2 MSTORE SUB ADD SWAP1 KECCAK256 SWAP1 PUSH1 0xFF PUSH1 0x11 DUP4 ADD SLOAD AND ISZERO DUP1 ISZERO PUSH2 0x1FC3 JUMPI JUMPDEST PUSH2 0x1FB8 JUMPI PUSH1 0x1 PUSH0 PUSH1 0x3 DUP5 ADD DUP1 SLOAD SWAP2 JUMPDEST DUP3 DUP2 LT PUSH2 0x1F62 JUMPI JUMPDEST POP POP POP PUSH2 0x1C89 JUMPI JUMPDEST POP POP PUSH1 0x1 SWAP2 POP JUMPDEST ADD PUSH2 0x1C14 JUMP JUMPDEST PUSH1 0x1 PUSH1 0x1 PUSH1 0xA0 SHL SUB DUP7 AND PUSH0 SWAP1 DUP2 MSTORE PUSH1 0xD PUSH1 0x20 MSTORE PUSH1 0x40 SWAP1 KECCAK256 PUSH2 0x1CAA SWAP1 DUP6 PUSH2 0x2673 JUMP JUMPDEST PUSH1 0x1 PUSH1 0xFF NOT DUP3 SLOAD AND OR SWAP1 SSTORE PUSH1 0x10 DUP3 ADD PUSH2 0x1CC3 DUP2 SLOAD PUSH2 0x2BBB JUMP JUMPDEST SWAP1 SSTORE PUSH1 0x20 PUSH1 0x40 MLOAD DUP1 SWAP3 DUP7 MLOAD DUP1 SWAP2 DUP4 MCOPY DUP2 ADD PUSH1 0x10 DUP2 MSTORE SUB ADD SWAP1 KECCAK256 DUP1 SLOAD PUSH1 0x1 PUSH1 0x40 SHL DUP2 LT ISZERO PUSH2 0x99B JUMPI PUSH1 0x1 SWAP5 PUSH2 0x1D20 DUP3 PUSH32 0xD71751FEA029601EFBED7A274791EDCAF2A56D222FB5F8443D4DD1AF84D55DAF SWAP5 DUP9 PUSH2 0x1F3B SWAP6 ADD DUP2 SSTORE PUSH2 0x26BE JUMP JUMPDEST DUP2 SLOAD SWAP1 PUSH1 0x3 SHL SWAP1 DUP9 DUP1 PUSH1 0xA0 SHL SUB DUP12 AND DUP3 SHL SWAP2 DUP10 DUP1 PUSH1 0xA0 SHL SUB SWAP1 SHL NOT AND OR SWAP1 SSTORE PUSH2 0x1F58 PUSH1 0x8 SLOAD PUSH2 0x1D4E DUP2 PUSH2 0x2BBB JUMP JUMPDEST PUSH1 0x8 SSTORE PUSH2 0x1D5B DUP2 DUP12 PUSH2 0x306B JUMP JUMPDEST PUSH1 0x20 SWAP1 PUSH2 0x1D77 PUSH1 0x40 MLOAD PUSH2 0x1D6E DUP5 DUP3 PUSH2 0x25E3 JUMP JUMPDEST PUSH0 DUP2 MSTORE DUP3 PUSH2 0x3278 JUMP JUMPDEST PUSH2 0x1EF0 PUSH2 0x1D86 PUSH1 0x4 DUP10 ADD PUSH2 0x2808 JUMP JUMPDEST DUP3 DUP2 MSTORE PUSH2 0x1EBC DUP14 PUSH1 0xB PUSH2 0x1A0 PUSH2 0x100 DUP6 ADD SWAP5 TIMESTAMP DUP7 MSTORE PUSH2 0x120 DUP2 ADD SWAP4 PUSH1 0x1 DUP1 PUSH1 0xA0 SHL SUB AND DUP5 MSTORE DUP8 PUSH0 MSTORE PUSH1 0x9 DUP10 MSTORE PUSH2 0x1E88 PUSH1 0x40 PUSH0 KECCAK256 SWAP5 DUP3 MLOAD DUP7 SSTORE DUP11 DUP4 ADD SWAP8 PUSH2 0x1DD0 DUP10 MLOAD PUSH1 0x1 DUP10 ADD PUSH2 0x2BDF JUMP JUMPDEST PUSH2 0x1DE1 PUSH1 0x40 DUP6 ADD MLOAD PUSH1 0x2 DUP10 ADD PUSH2 0x2BDF JUMP JUMPDEST PUSH2 0x1DF2 PUSH1 0x60 DUP6 ADD MLOAD PUSH1 0x3 DUP10 ADD PUSH2 0x2BDF JUMP JUMPDEST PUSH1 0x80 DUP5 ADD MLOAD PUSH1 0x4 DUP9 ADD SSTORE PUSH1 0xA0 DUP5 ADD MLOAD PUSH1 0x5 DUP9 ADD SSTORE PUSH1 0x6 DUP8 ADD PUSH2 0x1E1B PUSH1 0xC0 DUP7 ADD MLOAD PUSH2 0x824 DUP2 PUSH2 0x27EA JUMP JUMPDEST PUSH1 0xE0 DUP6 ADD MLOAD PUSH2 0x1E29 DUP2 PUSH2 0x27EA JUMP JUMPDEST PUSH2 0x1E32 DUP2 PUSH2 0x27EA JUMP JUMPDEST DUP2 SLOAD PUSH2 0xFF00 PUSH1 0x8 SWAP3 DUP4 SHL AND PUSH2 0xFF00 NOT SWAP1 SWAP2 AND OR SWAP1 SWAP2 SSTORE SWAP1 MLOAD PUSH1 0x7 DUP9 ADD SSTORE SWAP1 MLOAD SWAP1 DUP7 ADD DUP1 SLOAD PUSH2 0x140 DUP6 ADD MLOAD PUSH1 0xFF PUSH1 0xA0 SHL SWAP1 ISZERO ISZERO PUSH1 0xA0 SHL AND PUSH1 0x1 PUSH1 0x1 PUSH1 0xA0 SHL SUB SWAP1 SWAP4 AND PUSH1 0x1 PUSH1 0x1 PUSH1 0xA8 SHL SUB NOT SWAP1 SWAP2 AND OR SWAP2 SWAP1 SWAP2 OR SWAP1 SSTORE JUMP JUMPDEST PUSH2 0x1E9A PUSH2 0x160 DUP3 ADD MLOAD PUSH1 0x9 DUP7 ADD PUSH2 0x2BDF JUMP JUMPDEST PUSH2 0x180 DUP2 ADD MLOAD PUSH1 0xA DUP6 ADD SSTORE ADD MLOAD ISZERO ISZERO SWAP2 ADD SWAP1 PUSH1 0xFF DUP1 NOT DUP4 SLOAD AND SWAP2 ISZERO ISZERO AND OR SWAP1 SSTORE JUMP JUMPDEST DUP11 DUP1 PUSH1 0xA0 SHL SUB DUP14 AND PUSH0 MSTORE PUSH1 0xA DUP5 MSTORE PUSH2 0x1ED7 DUP4 PUSH1 0x40 PUSH0 KECCAK256 PUSH2 0x2CEF JUMP JUMPDEST DUP11 DUP1 PUSH1 0xA0 SHL SUB DUP14 AND PUSH0 MSTORE PUSH1 0xB DUP5 MSTORE PUSH1 0x40 PUSH0 KECCAK256 SWAP1 MLOAD PUSH2 0x2673 JUMP JUMPDEST DUP10 PUSH1 0xFF NOT DUP3 SLOAD AND OR SWAP1 SSTORE PUSH1 0x13 DUP8 ADD SLOAD DUP10 DUP1 PUSH1 0xA0 SHL SUB DUP13 AND PUSH0 MSTORE PUSH1 0xE DUP4 MSTORE PUSH2 0x1F1C PUSH1 0x40 PUSH0 KECCAK256 SWAP2 DUP3 SLOAD PUSH2 0x2D23 JUMP JUMPDEST SWAP1 SSTORE PUSH2 0x1F27 DUP12 PUSH2 0x32B9 JUMP JUMPDEST PUSH1 0x40 MLOAD SWAP5 DUP6 SWAP5 PUSH1 0x60 DUP7 MSTORE PUSH1 0x60 DUP7 ADD SWAP1 PUSH2 0x255B JUMP JUMPDEST SWAP2 DUP5 ADD MSTORE DUP3 DUP2 SUB PUSH1 0x40 DUP5 ADD MSTORE PUSH1 0x12 DUP9 DUP1 PUSH1 0xA0 SHL SUB DUP12 AND SWAP7 ADD PUSH2 0x2F1A JUMP JUMPDEST SUB SWAP1 LOG2 DUP5 DUP1 PUSH2 0x1C7C JUMP JUMPDEST PUSH1 0x1 DUP1 PUSH1 0xA0 SHL SUB DUP11 AND PUSH0 MSTORE PUSH1 0xB PUSH1 0x20 MSTORE PUSH1 0xFF PUSH2 0x1F95 PUSH1 0x20 PUSH1 0x40 PUSH0 KECCAK256 PUSH2 0x1F87 DUP6 DUP8 PUSH2 0x26BE JUMP JUMPDEST POP SWAP1 PUSH1 0x40 MLOAD SWAP4 DUP5 DUP1 SWAP4 PUSH2 0x2EB0 JUMP JUMPDEST SWAP1 DUP2 MSTORE SUB ADD SWAP1 KECCAK256 SLOAD AND ISZERO PUSH2 0x1FAB JUMPI PUSH1 0x1 ADD PUSH2 0x1C6C JUMP JUMPDEST POP POP POP POP PUSH0 DUP8 DUP1 DUP1 PUSH2 0x1C74 JUMP JUMPDEST POP POP PUSH1 0x1 SWAP2 POP PUSH2 0x1C83 JUMP JUMPDEST POP PUSH1 0x1 DUP1 PUSH1 0xA0 SHL SUB DUP7 AND PUSH0 MSTORE PUSH1 0xD PUSH1 0x20 MSTORE PUSH1 0xFF PUSH2 0x1FE3 PUSH1 0x40 PUSH0 KECCAK256 DUP7 PUSH2 0x2673 JUMP JUMPDEST SLOAD AND PUSH2 0x1C5D JUMP JUMPDEST POP PUSH1 0x20 SWAP2 POP PUSH2 0x1C07 JUMP JUMPDEST PUSH1 0x40 MLOAD PUSH3 0x461BCD PUSH1 0xE5 SHL DUP2 MSTORE PUSH1 0x20 PUSH1 0x4 DUP3 ADD MSTORE PUSH1 0x16 PUSH1 0x24 DUP3 ADD MSTORE PUSH22 0x139BDD08185D5D1A1BDC9A5E9959081D1BC81B5A5B9D PUSH1 0x52 SHL PUSH1 0x44 DUP3 ADD MSTORE PUSH1 0x64 SWAP1 REVERT JUMPDEST POP PUSH1 0x7 SLOAD PUSH1 0x1 PUSH1 0x1 PUSH1 0xA0 SHL SUB AND CALLER EQ PUSH2 0x193D JUMP JUMPDEST CALLVALUE PUSH2 0x204 JUMPI PUSH1 0x20 CALLDATASIZE PUSH1 0x3 NOT ADD SLT PUSH2 0x204 JUMPI PUSH1 0x1 PUSH1 0x1 PUSH1 0xA0 SHL SUB PUSH2 0x2067 PUSH2 0x257F JUMP JUMPDEST AND PUSH0 MSTORE PUSH1 0xF PUSH1 0x20 MSTORE PUSH1 0x20 PUSH1 0x40 PUSH0 KECCAK256 SLOAD PUSH1 0x40 MLOAD SWAP1 DUP2 MSTORE RETURN JUMPDEST CALLVALUE PUSH2 0x204 JUMPI PUSH2 0x1102 PUSH2 0x208F CALLDATASIZE PUSH2 0x29CA JUMP JUMPDEST SWAP2 PUSH2 0x2A1B JUMP JUMPDEST CALLVALUE PUSH2 0x204 JUMPI PUSH1 0x20 CALLDATASIZE PUSH1 0x3 NOT ADD SLT PUSH2 0x204 JUMPI PUSH1 0x1 PUSH1 0x1 PUSH1 0xA0 SHL SUB PUSH2 0x20B6 PUSH2 0x257F JUMP JUMPDEST AND PUSH0 MSTORE PUSH1 0xE PUSH1 0x20 MSTORE PUSH1 0x20 PUSH1 0x40 PUSH0 KECCAK256 SLOAD PUSH1 0x40 MLOAD SWAP1 DUP2 MSTORE RETURN JUMPDEST CALLVALUE PUSH2 0x204 JUMPI PUSH1 0x20 CALLDATASIZE PUSH1 0x3 NOT ADD SLT PUSH2 0x204 JUMPI PUSH1 0x4 CALLDATALOAD PUSH1 0x11 SLOAD DUP2 LT ISZERO PUSH2 0x204 JUMPI PUSH2 0x20F4 SWAP1 PUSH2 0x2692 JUMP JUMPDEST PUSH2 0x988 JUMPI PUSH2 0x107F PUSH2 0x1093 SWAP2 PUSH2 0x274A JUMP JUMPDEST CALLVALUE PUSH2 0x204 JUMPI PUSH1 0x20 CALLDATASIZE PUSH1 0x3 NOT ADD SLT PUSH2 0x204 JUMPI PUSH1 0x4 CALLDATALOAD PUSH1 0x1 PUSH1 0x1 PUSH1 0x40 SHL SUB DUP2 GT PUSH2 0x204 JUMPI PUSH1 0x20 PUSH2 0x2137 DUP2 SWAP3 CALLDATASIZE SWAP1 PUSH1 0x4 ADD PUSH2 0x2655 JUMP JUMPDEST PUSH1 0x40 MLOAD SWAP3 DUP2 DUP5 SWAP3 MLOAD SWAP2 DUP3 SWAP2 ADD DUP4 MCOPY DUP2 ADD PUSH1 0xC DUP2 MSTORE SUB ADD SWAP1 KECCAK256 PUSH2 0x120 PUSH2 0x215B DUP3 PUSH2 0x274A JUMP JUMPDEST SWAP2 PUSH2 0x2168 PUSH1 0x1 DUP3 ADD PUSH2 0x274A JUMP JUMPDEST PUSH2 0x220C PUSH2 0x2177 PUSH1 0x2 DUP5 ADD PUSH2 0x274A JUMP JUMPDEST PUSH2 0x2183 PUSH1 0x4 DUP6 ADD PUSH2 0x2808 JUMP JUMPDEST SWAP1 PUSH1 0x10 DUP6 ADD SLOAD SWAP2 PUSH2 0x21F2 PUSH1 0xFF PUSH1 0x11 DUP9 ADD SLOAD AND SWAP2 PUSH2 0x21E4 PUSH2 0x21A5 PUSH1 0x12 DUP11 ADD PUSH2 0x274A JUMP JUMPDEST SWAP5 PUSH2 0x21D6 PUSH1 0x14 PUSH1 0x13 DUP13 ADD SLOAD SWAP12 ADD SLOAD SWAP10 PUSH2 0x21C8 PUSH1 0x40 MLOAD SWAP15 DUP16 SWAP15 DUP16 DUP2 DUP2 MSTORE ADD SWAP1 PUSH2 0x255B JUMP JUMPDEST DUP14 DUP2 SUB PUSH1 0x20 DUP16 ADD MSTORE SWAP1 PUSH2 0x255B JUMP JUMPDEST SWAP1 DUP12 DUP3 SUB PUSH1 0x40 DUP14 ADD MSTORE PUSH2 0x255B JUMP JUMPDEST SWAP1 DUP10 DUP3 SUB PUSH1 0x60 DUP12 ADD MSTORE PUSH2 0x28E6 JUMP JUMPDEST SWAP3 PUSH1 0x80 DUP9 ADD MSTORE ISZERO ISZERO PUSH1 0xA0 DUP8 ADD MSTORE DUP6 DUP3 SUB PUSH1 0xC0 DUP8 ADD MSTORE PUSH2 0x255B JUMP JUMPDEST SWAP2 PUSH1 0xE0 DUP5 ADD MSTORE PUSH2 0x100 DUP4 ADD MSTORE SUB SWAP1 RETURN JUMPDEST CALLVALUE PUSH2 0x204 JUMPI PUSH1 0x20 PUSH1 0xFF PUSH2 0x15DC PUSH2 0x2231 CALLDATASIZE PUSH2 0x26D3 JUMP JUMPDEST PUSH1 0x1 PUSH1 0x1 PUSH1 0xA0 SHL SUB SWAP1 SWAP2 AND PUSH0 SWAP1 DUP2 MSTORE PUSH1 0xD DUP6 MSTORE PUSH1 0x40 SWAP1 KECCAK256 SWAP1 PUSH2 0x2673 JUMP JUMPDEST CALLVALUE PUSH2 0x204 JUMPI PUSH1 0x20 CALLDATASIZE PUSH1 0x3 NOT ADD SLT PUSH2 0x204 JUMPI PUSH2 0x2267 PUSH2 0x257F JUMP JUMPDEST PUSH2 0x226F PUSH2 0x3044 JUMP JUMPDEST PUSH1 0x1 PUSH1 0x1 PUSH1 0xA0 SHL SUB AND PUSH0 SWAP1 DUP2 MSTORE PUSH1 0x12 PUSH1 0x20 MSTORE PUSH1 0x40 SWAP1 KECCAK256 DUP1 SLOAD PUSH1 0xFF NOT AND PUSH1 0x1 OR SWAP1 SSTORE STOP JUMPDEST CALLVALUE PUSH2 0x204 JUMPI PUSH1 0x40 CALLDATASIZE PUSH1 0x3 NOT ADD SLT PUSH2 0x204 JUMPI PUSH1 0x4 CALLDATALOAD PUSH1 0x1 PUSH1 0x1 PUSH1 0x40 SHL SUB DUP2 GT PUSH2 0x204 JUMPI PUSH2 0x22C2 SWAP1 CALLDATASIZE SWAP1 PUSH1 0x4 ADD PUSH2 0x2655 JUMP JUMPDEST PUSH1 0x40 MLOAD DUP2 MLOAD PUSH1 0x24 CALLDATALOAD SWAP3 PUSH1 0x20 SWAP2 DUP4 SWAP2 DUP2 SWAP1 DUP5 ADD DUP4 MCOPY DUP2 ADD PUSH1 0x10 DUP2 MSTORE SUB ADD SWAP1 KECCAK256 DUP1 SLOAD DUP3 LT ISZERO PUSH2 0x204 JUMPI PUSH1 0x20 SWAP2 PUSH2 0x22F5 SWAP2 PUSH2 0x26BE JUMP JUMPDEST SWAP1 SLOAD PUSH1 0x40 MLOAD PUSH1 0x3 SWAP3 SWAP1 SWAP3 SHL SHR PUSH1 0x1 PUSH1 0x1 PUSH1 0xA0 SHL SUB AND DUP2 MSTORE RETURN JUMPDEST CALLVALUE PUSH2 0x204 JUMPI PUSH1 0x40 CALLDATASIZE PUSH1 0x3 NOT ADD SLT PUSH2 0x204 JUMPI PUSH2 0x2327 PUSH2 0x257F JUMP JUMPDEST PUSH1 0x24 CALLDATALOAD PUSH2 0x2333 DUP2 PUSH2 0x3010 JUMP JUMPDEST CALLER ISZERO ISZERO DUP1 PUSH2 0x23E5 JUMPI JUMPDEST DUP1 PUSH2 0x23B8 JUMPI JUMPDEST PUSH2 0x23A5 JUMPI DUP2 SWAP1 PUSH1 0x1 PUSH1 0x1 PUSH1 0xA0 SHL SUB DUP5 DUP2 AND SWAP2 AND PUSH32 0x8C5BE1E5EBEC7D5BD14F71427D1E84F3DD0314C0F7B2291E5B200AC8C7C3B925 PUSH0 DUP1 LOG4 PUSH0 SWAP1 DUP2 MSTORE PUSH1 0x4 PUSH1 0x20 MSTORE PUSH1 0x40 SWAP1 KECCAK256 DUP1 SLOAD PUSH1 0x1 PUSH1 0x1 PUSH1 0xA0 SHL SUB NOT AND PUSH1 0x1 PUSH1 0x1 PUSH1 0xA0 SHL SUB SWAP1 SWAP3 AND SWAP2 SWAP1 SWAP2 OR SWAP1 SSTORE STOP JUMPDEST PUSH4 0xA9FBF51F PUSH1 0xE0 SHL PUSH0 MSTORE CALLER PUSH1 0x4 MSTORE PUSH1 0x24 PUSH0 REVERT JUMPDEST POP PUSH1 0x1 PUSH1 0x1 PUSH1 0xA0 SHL SUB DUP2 AND PUSH0 SWAP1 DUP2 MSTORE PUSH1 0x5 PUSH1 0x20 SWAP1 DUP2 MSTORE PUSH1 0x40 DUP1 DUP4 KECCAK256 CALLER DUP5 MSTORE SWAP1 SWAP2 MSTORE SWAP1 KECCAK256 SLOAD PUSH1 0xFF AND ISZERO PUSH2 0x2342 JUMP JUMPDEST POP PUSH1 0x1 PUSH1 0x1 PUSH1 0xA0 SHL SUB DUP2 AND CALLER EQ ISZERO PUSH2 0x233C JUMP JUMPDEST CALLVALUE PUSH2 0x204 JUMPI PUSH1 0x20 CALLDATASIZE PUSH1 0x3 NOT ADD SLT PUSH2 0x204 JUMPI PUSH1 0x4 CALLDATALOAD PUSH2 0x2415 DUP2 PUSH2 0x3010 JUMP JUMPDEST POP PUSH0 MSTORE PUSH1 0x4 PUSH1 0x20 MSTORE PUSH1 0x20 PUSH1 0x1 DUP1 PUSH1 0xA0 SHL SUB PUSH1 0x40 PUSH0 KECCAK256 SLOAD AND PUSH1 0x40 MLOAD SWAP1 DUP2 MSTORE RETURN JUMPDEST CALLVALUE PUSH2 0x204 JUMPI PUSH0 CALLDATASIZE PUSH1 0x3 NOT ADD SLT PUSH2 0x204 JUMPI PUSH1 0x40 MLOAD PUSH0 PUSH0 SLOAD PUSH2 0x2453 DUP2 PUSH2 0x2712 JUMP JUMPDEST DUP1 DUP5 MSTORE SWAP1 PUSH1 0x1 DUP2 AND SWAP1 DUP2 ISZERO PUSH2 0x1586 JUMPI POP PUSH1 0x1 EQ PUSH2 0x247A JUMPI PUSH2 0x1093 DUP4 PUSH2 0x107F DUP2 DUP6 SUB DUP3 PUSH2 0x25E3 JUMP JUMPDEST PUSH0 DUP1 DUP1 MSTORE PUSH32 0x290DECD9548B62A8D60345A988386FC84BA6BC95484008F6362F93160EF3E563 SWAP4 SWAP3 POP SWAP1 JUMPDEST DUP1 DUP3 LT PUSH2 0x24BC JUMPI POP SWAP1 SWAP2 POP DUP2 ADD PUSH1 0x20 ADD PUSH2 0x107F PUSH2 0x1518 JUMP JUMPDEST SWAP2 SWAP3 PUSH1 0x1 DUP2 PUSH1 0x20 SWAP3 SLOAD DUP4 DUP6 DUP9 ADD ADD MSTORE ADD SWAP2 ADD SWAP1 SWAP3 SWAP2 PUSH2 0x24A4 JUMP JUMPDEST CALLVALUE PUSH2 0x204 JUMPI PUSH1 0x20 CALLDATASIZE PUSH1 0x3 NOT ADD SLT PUSH2 0x204 JUMPI PUSH1 0x4 CALLDATALOAD SWAP1 PUSH4 0xFFFFFFFF PUSH1 0xE0 SHL DUP3 AND DUP1 SWAP3 SUB PUSH2 0x204 JUMPI PUSH1 0x20 SWAP2 PUSH4 0x24832483 PUSH1 0xE1 SHL DUP2 EQ SWAP1 DUP2 ISZERO PUSH2 0x2518 JUMPI JUMPDEST POP ISZERO ISZERO DUP2 MSTORE RETURN JUMPDEST PUSH4 0x80AC58CD PUSH1 0xE0 SHL DUP2 EQ SWAP2 POP DUP2 ISZERO PUSH2 0x254A JUMPI JUMPDEST DUP2 ISZERO PUSH2 0x2539 JUMPI JUMPDEST POP DUP4 PUSH2 0x2511 JUMP JUMPDEST PUSH4 0x1FFC9A7 PUSH1 0xE0 SHL EQ SWAP1 POP DUP4 PUSH2 0x2532 JUMP JUMPDEST PUSH4 0x5B5E139F PUSH1 0xE0 SHL DUP2 EQ SWAP2 POP PUSH2 0x252B JUMP JUMPDEST DUP1 MLOAD DUP1 DUP4 MSTORE PUSH1 0x20 SWAP3 SWAP2 DUP2 SWAP1 DUP5 ADD DUP5 DUP5 ADD MCOPY PUSH0 DUP3 DUP3 ADD DUP5 ADD MSTORE PUSH1 0x1F ADD PUSH1 0x1F NOT AND ADD ADD SWAP1 JUMP JUMPDEST PUSH1 0x4 CALLDATALOAD SWAP1 PUSH1 0x1 PUSH1 0x1 PUSH1 0xA0 SHL SUB DUP3 AND DUP3 SUB PUSH2 0x204 JUMPI JUMP JUMPDEST PUSH1 0x24 CALLDATALOAD SWAP1 PUSH1 0x1 PUSH1 0x1 PUSH1 0xA0 SHL SUB DUP3 AND DUP3 SUB PUSH2 0x204 JUMPI JUMP JUMPDEST PUSH2 0x1C0 DUP2 ADD SWAP1 DUP2 LT PUSH1 0x1 PUSH1 0x1 PUSH1 0x40 SHL SUB DUP3 GT OR PUSH2 0x99B JUMPI PUSH1 0x40 MSTORE JUMP JUMPDEST PUSH2 0x140 DUP2 ADD SWAP1 DUP2 LT PUSH1 0x1 PUSH1 0x1 PUSH1 0x40 SHL SUB DUP3 GT OR PUSH2 0x99B JUMPI PUSH1 0x40 MSTORE JUMP JUMPDEST SWAP1 PUSH1 0x1F DUP1 NOT SWAP2 ADD AND DUP2 ADD SWAP1 DUP2 LT PUSH1 0x1 PUSH1 0x1 PUSH1 0x40 SHL SUB DUP3 GT OR PUSH2 0x99B JUMPI PUSH1 0x40 MSTORE JUMP JUMPDEST PUSH1 0x1 PUSH1 0x1 PUSH1 0x40 SHL SUB DUP2 GT PUSH2 0x99B JUMPI PUSH1 0x1F ADD PUSH1 0x1F NOT AND PUSH1 0x20 ADD SWAP1 JUMP JUMPDEST SWAP3 SWAP2 SWAP3 PUSH2 0x262B DUP3 PUSH2 0x2604 JUMP JUMPDEST SWAP2 PUSH2 0x2639 PUSH1 0x40 MLOAD SWAP4 DUP5 PUSH2 0x25E3 JUMP JUMPDEST DUP3 SWAP5 DUP2 DUP5 MSTORE DUP2 DUP4 ADD GT PUSH2 0x204 JUMPI DUP3 DUP2 PUSH1 0x20 SWAP4 DUP5 PUSH0 SWAP7 ADD CALLDATACOPY ADD ADD MSTORE JUMP JUMPDEST SWAP1 DUP1 PUSH1 0x1F DUP4 ADD SLT ISZERO PUSH2 0x204 JUMPI DUP2 PUSH1 0x20 PUSH2 0x2670 SWAP4 CALLDATALOAD SWAP2 ADD PUSH2 0x261F JUMP JUMPDEST SWAP1 JUMP JUMPDEST PUSH1 0x40 MLOAD DUP2 MLOAD SWAP1 SWAP3 PUSH1 0x20 SWAP3 DUP5 SWAP3 SWAP1 DUP2 SWAP1 DUP6 ADD DUP5 MCOPY DUP3 ADD SWAP1 DUP2 MSTORE SUB ADD SWAP1 KECCAK256 SWAP1 JUMP JUMPDEST PUSH1 0x11 SLOAD DUP2 LT ISZERO PUSH2 0x26AA JUMPI PUSH1 0x11 PUSH0 MSTORE PUSH1 0x20 PUSH0 KECCAK256 ADD SWAP1 PUSH0 SWAP1 JUMP JUMPDEST PUSH4 0x4E487B71 PUSH1 0xE0 SHL PUSH0 MSTORE PUSH1 0x32 PUSH1 0x4 MSTORE PUSH1 0x24 PUSH0 REVERT JUMPDEST DUP1 SLOAD DUP3 LT ISZERO PUSH2 0x26AA JUMPI PUSH0 MSTORE PUSH1 0x20 PUSH0 KECCAK256 ADD SWAP1 PUSH0 SWAP1 JUMP JUMPDEST SWAP1 PUSH1 0x40 PUSH1 0x3 NOT DUP4 ADD SLT PUSH2 0x204 JUMPI PUSH1 0x4 CALLDATALOAD PUSH1 0x1 PUSH1 0x1 PUSH1 0xA0 SHL SUB DUP2 AND DUP2 SUB PUSH2 0x204 JUMPI SWAP2 PUSH1 0x24 CALLDATALOAD SWAP1 PUSH1 0x1 PUSH1 0x1 PUSH1 0x40 SHL SUB DUP3 GT PUSH2 0x204 JUMPI PUSH2 0x2670 SWAP2 PUSH1 0x4 ADD PUSH2 0x2655 JUMP JUMPDEST SWAP1 PUSH1 0x1 DUP3 DUP2 SHR SWAP3 AND DUP1 ISZERO PUSH2 0x2740 JUMPI JUMPDEST PUSH1 0x20 DUP4 LT EQ PUSH2 0x272C JUMPI JUMP JUMPDEST PUSH4 0x4E487B71 PUSH1 0xE0 SHL PUSH0 MSTORE PUSH1 0x22 PUSH1 0x4 MSTORE PUSH1 0x24 PUSH0 REVERT JUMPDEST SWAP2 PUSH1 0x7F AND SWAP2 PUSH2 0x2721 JUMP JUMPDEST SWAP1 PUSH1 0x40 MLOAD SWAP2 DUP3 PUSH0 DUP3 SLOAD SWAP3 PUSH2 0x275D DUP5 PUSH2 0x2712 JUMP JUMPDEST DUP1 DUP5 MSTORE SWAP4 PUSH1 0x1 DUP2 AND SWAP1 DUP2 ISZERO PUSH2 0x27C8 JUMPI POP PUSH1 0x1 EQ PUSH2 0x2784 JUMPI JUMPDEST POP PUSH2 0x2782 SWAP3 POP SUB DUP4 PUSH2 0x25E3 JUMP JUMPDEST JUMP JUMPDEST SWAP1 POP PUSH0 SWAP3 SWAP2 SWAP3 MSTORE PUSH1 0x20 PUSH0 KECCAK256 SWAP1 PUSH0 SWAP2 JUMPDEST DUP2 DUP4 LT PUSH2 0x27AC JUMPI POP POP SWAP1 PUSH1 0x20 PUSH2 0x2782 SWAP3 DUP3 ADD ADD PUSH0 PUSH2 0x2775 JUMP JUMPDEST PUSH1 0x20 SWAP2 SWAP4 POP DUP1 PUSH1 0x1 SWAP2 SLOAD DUP4 DUP6 DUP10 ADD ADD MSTORE ADD SWAP2 ADD SWAP1 SWAP2 DUP5 SWAP3 PUSH2 0x2793 JUMP JUMPDEST SWAP1 POP PUSH1 0x20 SWAP3 POP PUSH2 0x2782 SWAP5 SWAP2 POP PUSH1 0xFF NOT AND DUP3 DUP5 ADD MSTORE ISZERO ISZERO PUSH1 0x5 SHL DUP3 ADD ADD PUSH0 PUSH2 0x2775 JUMP JUMPDEST PUSH1 0x5 GT ISZERO PUSH2 0x27F4 JUMPI JUMP JUMPDEST PUSH4 0x4E487B71 PUSH1 0xE0 SHL PUSH0 MSTORE PUSH1 0x21 PUSH1 0x4 MSTORE PUSH1 0x24 PUSH0 REVERT JUMPDEST SWAP1 PUSH1 0x40 MLOAD PUSH2 0x2815 DUP2 PUSH2 0x25AB JUMP JUMPDEST PUSH2 0x1A0 PUSH1 0xFF PUSH1 0xB DUP4 SWAP6 DUP1 SLOAD DUP6 MSTORE PUSH2 0x282E PUSH1 0x1 DUP3 ADD PUSH2 0x274A JUMP JUMPDEST PUSH1 0x20 DUP7 ADD MSTORE PUSH2 0x283F PUSH1 0x2 DUP3 ADD PUSH2 0x274A JUMP JUMPDEST PUSH1 0x40 DUP7 ADD MSTORE PUSH2 0x2850 PUSH1 0x3 DUP3 ADD PUSH2 0x274A JUMP JUMPDEST PUSH1 0x60 DUP7 ADD MSTORE PUSH1 0x4 DUP2 ADD SLOAD PUSH1 0x80 DUP7 ADD MSTORE PUSH1 0x5 DUP2 ADD SLOAD PUSH1 0xA0 DUP7 ADD MSTORE DUP3 PUSH1 0x6 DUP3 ADD SLOAD DUP2 DUP2 AND PUSH2 0x287B DUP2 PUSH2 0x27EA JUMP JUMPDEST PUSH1 0xC0 DUP9 ADD MSTORE PUSH1 0x8 SHR AND PUSH2 0x288D DUP2 PUSH2 0x27EA JUMP JUMPDEST PUSH1 0xE0 DUP7 ADD MSTORE PUSH1 0x7 DUP2 ADD SLOAD PUSH2 0x100 DUP7 ADD MSTORE PUSH1 0x8 DUP2 ADD SLOAD PUSH1 0x1 PUSH1 0x1 PUSH1 0xA0 SHL SUB DUP2 AND PUSH2 0x120 DUP8 ADD MSTORE PUSH1 0xA0 SHR DUP4 AND ISZERO ISZERO PUSH2 0x140 DUP7 ADD MSTORE PUSH2 0x28CB PUSH1 0x9 DUP3 ADD PUSH2 0x274A JUMP JUMPDEST PUSH2 0x160 DUP7 ADD MSTORE PUSH1 0xA DUP2 ADD SLOAD PUSH2 0x180 DUP7 ADD MSTORE ADD SLOAD AND ISZERO ISZERO SWAP2 ADD MSTORE JUMP JUMPDEST SWAP1 DUP2 MLOAD DUP2 MSTORE PUSH2 0x1A0 DUP1 PUSH2 0x29B3 PUSH2 0x2937 PUSH2 0x2925 PUSH2 0x2913 PUSH1 0x20 DUP9 ADD MLOAD PUSH2 0x1C0 PUSH1 0x20 DUP10 ADD MSTORE PUSH2 0x1C0 DUP9 ADD SWAP1 PUSH2 0x255B JUMP JUMPDEST PUSH1 0x40 DUP9 ADD MLOAD DUP8 DUP3 SUB PUSH1 0x40 DUP10 ADD MSTORE PUSH2 0x255B JUMP JUMPDEST PUSH1 0x60 DUP8 ADD MLOAD DUP7 DUP3 SUB PUSH1 0x60 DUP9 ADD MSTORE PUSH2 0x255B JUMP JUMPDEST PUSH1 0x80 DUP7 ADD MLOAD PUSH1 0x80 DUP7 ADD MSTORE PUSH1 0xA0 DUP7 ADD MLOAD PUSH1 0xA0 DUP7 ADD MSTORE PUSH1 0xC0 DUP7 ADD MLOAD PUSH2 0x2959 DUP2 PUSH2 0x27EA JUMP JUMPDEST PUSH1 0xC0 DUP7 ADD MSTORE PUSH1 0xE0 DUP7 ADD MLOAD PUSH2 0x296C DUP2 PUSH2 0x27EA JUMP JUMPDEST PUSH1 0xE0 DUP7 ADD MSTORE PUSH2 0x100 DUP7 ADD MLOAD PUSH2 0x100 DUP7 ADD MSTORE PUSH1 0x1 DUP1 PUSH1 0xA0 SHL SUB PUSH2 0x120 DUP8 ADD MLOAD AND PUSH2 0x120 DUP7 ADD MSTORE PUSH2 0x140 DUP7 ADD MLOAD ISZERO ISZERO PUSH2 0x140 DUP7 ADD MSTORE PUSH2 0x160 DUP7 ADD MLOAD DUP6 DUP3 SUB PUSH2 0x160 DUP8 ADD MSTORE PUSH2 0x255B JUMP JUMPDEST SWAP4 PUSH2 0x180 DUP2 ADD MLOAD PUSH2 0x180 DUP6 ADD MSTORE ADD MLOAD ISZERO ISZERO SWAP2 ADD MSTORE SWAP1 JUMP JUMPDEST PUSH1 0x60 SWAP1 PUSH1 0x3 NOT ADD SLT PUSH2 0x204 JUMPI PUSH1 0x4 CALLDATALOAD PUSH1 0x1 PUSH1 0x1 PUSH1 0xA0 SHL SUB DUP2 AND DUP2 SUB PUSH2 0x204 JUMPI SWAP1 PUSH1 0x24 CALLDATALOAD PUSH1 0x1 PUSH1 0x1 PUSH1 0xA0 SHL SUB DUP2 AND DUP2 SUB PUSH2 0x204 JUMPI SWAP1 PUSH1 0x44 CALLDATALOAD SWAP1 JUMP JUMPDEST PUSH1 0x1 PUSH1 0x1 PUSH1 0x40 SHL SUB DUP2 GT PUSH2 0x99B JUMPI PUSH1 0x5 SHL PUSH1 0x20 ADD SWAP1 JUMP JUMPDEST PUSH1 0x1 PUSH1 0x1 PUSH1 0xA0 SHL SUB SWAP1 SWAP2 AND SWAP2 SWAP1 DUP3 ISZERO PUSH2 0x2BA8 JUMPI PUSH0 DUP3 DUP2 MSTORE PUSH1 0x2 PUSH1 0x20 MSTORE PUSH1 0x40 SWAP1 KECCAK256 SLOAD PUSH1 0x1 PUSH1 0x1 PUSH1 0xA0 SHL SUB AND SWAP3 DUP3 SWAP1 CALLER ISZERO ISZERO DUP1 PUSH2 0x2B13 JUMPI JUMPDEST POP DUP5 PUSH2 0x2AE0 JUMPI JUMPDEST DUP1 PUSH0 MSTORE PUSH1 0x3 PUSH1 0x20 MSTORE PUSH1 0x40 PUSH0 KECCAK256 PUSH1 0x1 DUP2 SLOAD ADD SWAP1 SSTORE DUP2 PUSH0 MSTORE PUSH1 0x2 PUSH1 0x20 MSTORE PUSH1 0x40 PUSH0 KECCAK256 DUP2 PUSH12 0xFFFFFFFFFFFFFFFFFFFFFFFF PUSH1 0xA0 SHL DUP3 SLOAD AND OR SWAP1 SSTORE DUP5 PUSH32 0xDDF252AD1BE2C89B69C2B068FC378DAA952BA7F163C4A11628F55A4DF523B3EF PUSH0 DUP1 LOG4 PUSH1 0x1 PUSH1 0x1 PUSH1 0xA0 SHL SUB AND DUP1 DUP4 SUB PUSH2 0x2AC8 JUMPI POP POP POP JUMP JUMPDEST PUSH4 0x64283D7B PUSH1 0xE0 SHL PUSH0 MSTORE PUSH1 0x4 MSTORE PUSH1 0x24 MSTORE PUSH1 0x44 MSTORE PUSH1 0x64 PUSH0 REVERT JUMPDEST PUSH0 DUP3 DUP2 MSTORE PUSH1 0x4 PUSH1 0x20 MSTORE PUSH1 0x40 SWAP1 KECCAK256 DUP1 SLOAD PUSH1 0x1 PUSH1 0x1 PUSH1 0xA0 SHL SUB NOT AND SWAP1 SSTORE DUP5 PUSH0 MSTORE PUSH1 0x3 PUSH1 0x20 MSTORE PUSH1 0x40 PUSH0 KECCAK256 PUSH0 NOT DUP2 SLOAD ADD SWAP1 SSTORE PUSH2 0x2A58 JUMP JUMPDEST SWAP1 SWAP2 POP DUP1 PUSH2 0x2B57 JUMPI JUMPDEST ISZERO PUSH2 0x2B29 JUMPI DUP3 SWAP1 PUSH0 PUSH2 0x2A51 JUMP JUMPDEST DUP3 DUP5 PUSH2 0x2B41 JUMPI PUSH4 0x7E273289 PUSH1 0xE0 SHL PUSH0 MSTORE PUSH1 0x4 MSTORE PUSH1 0x24 PUSH0 REVERT JUMPDEST PUSH4 0x177E802F PUSH1 0xE0 SHL PUSH0 MSTORE CALLER PUSH1 0x4 MSTORE PUSH1 0x24 MSTORE PUSH1 0x44 PUSH0 REVERT JUMPDEST POP CALLER DUP5 EQ DUP1 ISZERO PUSH2 0x2B86 JUMPI JUMPDEST DUP1 PUSH2 0x2B1C JUMPI POP PUSH0 DUP4 DUP2 MSTORE PUSH1 0x4 PUSH1 0x20 MSTORE PUSH1 0x40 SWAP1 KECCAK256 SLOAD PUSH1 0x1 PUSH1 0x1 PUSH1 0xA0 SHL SUB AND CALLER EQ PUSH2 0x2B1C JUMP JUMPDEST POP PUSH0 DUP5 DUP2 MSTORE PUSH1 0x5 PUSH1 0x20 SWAP1 DUP2 MSTORE PUSH1 0x40 DUP1 DUP4 KECCAK256 CALLER DUP5 MSTORE SWAP1 SWAP2 MSTORE SWAP1 KECCAK256 SLOAD PUSH1 0xFF AND PUSH2 0x2B62 JUMP JUMPDEST PUSH4 0x32505749 PUSH1 0xE1 SHL PUSH0 MSTORE PUSH0 PUSH1 0x4 MSTORE PUSH1 0x24 PUSH0 REVERT JUMPDEST PUSH0 NOT DUP2 EQ PUSH2 0x34E JUMPI PUSH1 0x1 ADD SWAP1 JUMP JUMPDEST DUP2 DUP2 LT PUSH2 0x2BD4 JUMPI POP POP JUMP JUMPDEST PUSH0 DUP2 SSTORE PUSH1 0x1 ADD PUSH2 0x2BC9 JUMP JUMPDEST SWAP2 SWAP1 SWAP2 DUP3 MLOAD PUSH1 0x1 PUSH1 0x1 PUSH1 0x40 SHL SUB DUP2 GT PUSH2 0x99B JUMPI PUSH2 0x2BFC DUP3 SLOAD PUSH2 0x2712 JUMP JUMPDEST PUSH1 0x1F DUP2 GT PUSH2 0x2C9C JUMPI JUMPDEST POP PUSH1 0x20 PUSH1 0x1F DUP3 GT PUSH1 0x1 EQ PUSH2 0x2C3E JUMPI DUP2 SWAP3 SWAP4 SWAP5 PUSH0 SWAP3 PUSH2 0x2C33 JUMPI JUMPDEST POP POP DUP2 PUSH1 0x1 SHL SWAP2 PUSH0 NOT SWAP1 PUSH1 0x3 SHL SHR NOT AND OR SWAP1 SSTORE JUMP JUMPDEST ADD MLOAD SWAP1 POP PUSH0 DUP1 PUSH2 0x2C1E JUMP JUMPDEST PUSH1 0x1F NOT DUP3 AND SWAP1 DUP4 PUSH0 MSTORE DUP1 PUSH0 KECCAK256 SWAP2 PUSH0 JUMPDEST DUP2 DUP2 LT PUSH2 0x2C84 JUMPI POP SWAP6 DUP4 PUSH1 0x1 SWAP6 SWAP7 SWAP8 LT PUSH2 0x2C6C JUMPI JUMPDEST POP POP POP DUP2 SHL ADD SWAP1 SSTORE JUMP JUMPDEST ADD MLOAD PUSH0 NOT PUSH1 0xF8 DUP5 PUSH1 0x3 SHL AND SHR NOT AND SWAP1 SSTORE PUSH0 DUP1 DUP1 PUSH2 0x2C62 JUMP JUMPDEST SWAP2 SWAP3 PUSH1 0x20 PUSH1 0x1 DUP2 SWAP3 DUP7 DUP12 ADD MLOAD DUP2 SSTORE ADD SWAP5 ADD SWAP3 ADD PUSH2 0x2C4D JUMP JUMPDEST PUSH2 0x2CC7 SWAP1 DUP4 PUSH0 MSTORE PUSH1 0x20 PUSH0 KECCAK256 PUSH1 0x1F DUP5 ADD PUSH1 0x5 SHR DUP2 ADD SWAP2 PUSH1 0x20 DUP6 LT PUSH2 0x2CCD JUMPI JUMPDEST PUSH1 0x1F ADD PUSH1 0x5 SHR ADD SWAP1 PUSH2 0x2BC9 JUMP JUMPDEST PUSH0 PUSH2 0x2C05 JUMP JUMPDEST SWAP1 SWAP2 POP DUP2 SWAP1 PUSH2 0x2CBA JUMP JUMPDEST SWAP1 PUSH2 0x2CE1 DUP2 PUSH2 0x27EA JUMP JUMPDEST PUSH1 0xFF DUP1 NOT DUP4 SLOAD AND SWAP2 AND OR SWAP1 SSTORE JUMP JUMPDEST DUP1 SLOAD PUSH1 0x1 PUSH1 0x40 SHL DUP2 LT ISZERO PUSH2 0x99B JUMPI PUSH2 0x2D0C SWAP2 PUSH1 0x1 DUP3 ADD DUP2 SSTORE PUSH2 0x26BE JUMP JUMPDEST DUP2 SWAP3 SWAP2 SLOAD SWAP1 PUSH1 0x3 SHL SWAP2 DUP3 SHL SWAP2 PUSH0 NOT SWAP1 SHL NOT AND OR SWAP1 SSTORE JUMP JUMPDEST SWAP2 SWAP1 DUP3 ADD DUP1 SWAP3 GT PUSH2 0x34E JUMPI JUMP JUMPDEST PUSH2 0x2D39 DUP2 PUSH2 0x27EA JUMP JUMPDEST DUP1 ISZERO PUSH2 0x2DA1 JUMPI PUSH2 0x2D48 DUP2 PUSH2 0x27EA JUMP JUMPDEST PUSH1 0x1 DUP2 EQ PUSH2 0x2D9B JUMPI PUSH2 0x2D59 DUP2 PUSH2 0x27EA JUMP JUMPDEST PUSH1 0x2 DUP2 EQ PUSH2 0x2D95 JUMPI PUSH2 0x2D6A DUP2 PUSH2 0x27EA JUMP JUMPDEST PUSH1 0x3 DUP2 EQ PUSH2 0x2D8E JUMPI PUSH1 0x4 SWAP1 PUSH2 0x2D7E DUP2 PUSH2 0x27EA JUMP JUMPDEST EQ PUSH2 0x2D88 JUMPI PUSH1 0x32 SWAP1 JUMP JUMPDEST PUSH2 0x3E8 SWAP1 JUMP JUMPDEST POP PUSH2 0x1F4 SWAP1 JUMP JUMPDEST POP PUSH1 0xC8 SWAP1 JUMP JUMPDEST POP PUSH1 0x64 SWAP1 JUMP JUMPDEST POP PUSH1 0x32 SWAP1 JUMP JUMPDEST DUP1 MLOAD DUP3 LT ISZERO PUSH2 0x26AA JUMPI PUSH1 0x20 SWAP2 PUSH1 0x5 SHL ADD ADD SWAP1 JUMP JUMPDEST PUSH2 0x2DC4 DUP2 PUSH2 0x3010 JUMP JUMPDEST POP PUSH0 MSTORE PUSH1 0x6 PUSH1 0x20 MSTORE PUSH2 0x2DD8 PUSH1 0x40 PUSH0 KECCAK256 PUSH2 0x274A JUMP JUMPDEST PUSH0 PUSH1 0x40 MLOAD PUSH2 0x2DE7 PUSH1 0x20 DUP3 PUSH2 0x25E3 JUMP JUMPDEST MSTORE SWAP1 JUMP JUMPDEST ISZERO PUSH2 0x2DF2 JUMPI JUMP JUMPDEST PUSH1 0x40 MLOAD PUSH3 0x461BCD PUSH1 0xE5 SHL DUP2 MSTORE PUSH1 0x20 PUSH1 0x4 DUP3 ADD MSTORE PUSH1 0x14 PUSH1 0x24 DUP3 ADD MSTORE PUSH20 0x10985919D948191BD95CC81B9BDD08195E1A5CDD PUSH1 0x62 SHL PUSH1 0x44 DUP3 ADD MSTORE PUSH1 0x64 SWAP1 REVERT JUMPDEST ISZERO PUSH2 0x2E35 JUMPI JUMP JUMPDEST PUSH1 0x40 MLOAD PUSH3 0x461BCD PUSH1 0xE5 SHL DUP2 MSTORE PUSH1 0x20 PUSH1 0x4 DUP3 ADD MSTORE PUSH1 0xF PUSH1 0x24 DUP3 ADD MSTORE PUSH15 0x2737BA103130B233B29037BBB732B9 PUSH1 0x89 SHL PUSH1 0x44 DUP3 ADD MSTORE PUSH1 0x64 SWAP1 REVERT JUMPDEST ISZERO PUSH2 0x2E73 JUMPI JUMP JUMPDEST PUSH1 0x40 MLOAD PUSH3 0x461BCD PUSH1 0xE5 SHL DUP2 MSTORE PUSH1 0x20 PUSH1 0x4 DUP3 ADD MSTORE PUSH1 0x15 PUSH1 0x24 DUP3 ADD MSTORE PUSH21 0x4261646765206E6F74207570677261646561626C65 PUSH1 0x58 SHL PUSH1 0x44 DUP3 ADD MSTORE PUSH1 0x64 SWAP1 REVERT JUMPDEST PUSH0 SWAP3 SWAP2 DUP2 SLOAD SWAP2 PUSH2 0x2EBF DUP4 PUSH2 0x2712 JUMP JUMPDEST SWAP3 PUSH1 0x1 DUP2 AND SWAP1 DUP2 ISZERO PUSH2 0x2F07 JUMPI POP PUSH1 0x1 EQ PUSH2 0x2ED8 JUMPI POP POP POP JUMP JUMPDEST SWAP1 SWAP2 SWAP3 SWAP4 POP PUSH0 MSTORE PUSH1 0x20 PUSH0 KECCAK256 PUSH0 SWAP1 JUMPDEST DUP4 DUP3 LT PUSH2 0x2EF3 JUMPI POP POP ADD SWAP1 JUMP JUMPDEST PUSH1 0x1 DUP2 PUSH1 0x20 SWAP3 SLOAD DUP5 DUP7 ADD MSTORE ADD SWAP2 ADD SWAP1 PUSH2 0x2EE6 JUMP JUMPDEST PUSH1 0xFF NOT AND DUP4 MSTORE POP POP DUP2 ISZERO ISZERO SWAP1 SWAP2 MUL ADD SWAP2 POP JUMP JUMPDEST PUSH0 SWAP3 SWAP2 DUP2 SLOAD SWAP2 PUSH2 0x2F29 DUP4 PUSH2 0x2712 JUMP JUMPDEST DUP1 DUP4 MSTORE SWAP3 PUSH1 0x1 DUP2 AND SWAP1 DUP2 ISZERO PUSH2 0x2F7E JUMPI POP PUSH1 0x1 EQ PUSH2 0x2F45 JUMPI POP POP POP JUMP JUMPDEST PUSH0 SWAP1 DUP2 MSTORE PUSH1 0x20 DUP2 KECCAK256 SWAP4 SWAP5 POP SWAP2 SWAP3 JUMPDEST DUP4 DUP4 LT PUSH2 0x2F64 JUMPI POP PUSH1 0x20 SWAP3 POP ADD ADD SWAP1 JUMP JUMPDEST PUSH1 0x1 DUP2 PUSH1 0x20 SWAP3 SWAP5 SWAP4 SWAP5 SLOAD DUP4 DUP6 DUP8 ADD ADD MSTORE ADD SWAP2 ADD SWAP2 SWAP1 PUSH2 0x2F53 JUMP JUMPDEST SWAP2 POP POP PUSH1 0x20 SWAP4 SWAP5 POP PUSH1 0xFF SWAP3 SWAP2 SWAP3 NOT AND DUP4 DUP4 ADD MSTORE ISZERO ISZERO PUSH1 0x5 SHL ADD ADD SWAP1 JUMP JUMPDEST PUSH2 0x2FA4 DUP2 PUSH2 0x27EA JUMP JUMPDEST DUP1 ISZERO PUSH2 0x300A JUMPI PUSH2 0x2FB3 DUP2 PUSH2 0x27EA JUMP JUMPDEST PUSH1 0x1 DUP2 EQ PUSH2 0x3004 JUMPI PUSH2 0x2FC4 DUP2 PUSH2 0x27EA JUMP JUMPDEST PUSH1 0x2 DUP2 EQ PUSH2 0x2FFE JUMPI PUSH2 0x2FD5 DUP2 PUSH2 0x27EA JUMP JUMPDEST PUSH1 0x3 DUP2 EQ PUSH2 0x2FF8 JUMPI PUSH1 0x4 SWAP1 PUSH2 0x2FE9 DUP2 PUSH2 0x27EA JUMP JUMPDEST EQ PUSH2 0x2FF3 JUMPI PUSH1 0x3 SWAP1 JUMP JUMPDEST PUSH1 0xF SWAP1 JUMP JUMPDEST POP PUSH1 0xA SWAP1 JUMP JUMPDEST POP PUSH1 0x7 SWAP1 JUMP JUMPDEST POP PUSH1 0x5 SWAP1 JUMP JUMPDEST POP PUSH1 0x3 SWAP1 JUMP JUMPDEST PUSH0 DUP2 DUP2 MSTORE PUSH1 0x2 PUSH1 0x20 MSTORE PUSH1 0x40 SWAP1 KECCAK256 SLOAD PUSH1 0x1 PUSH1 0x1 PUSH1 0xA0 SHL SUB AND SWAP1 DUP2 ISZERO PUSH2 0x3032 JUMPI POP SWAP1 JUMP JUMPDEST PUSH4 0x7E273289 PUSH1 0xE0 SHL PUSH0 MSTORE PUSH1 0x4 MSTORE PUSH1 0x24 PUSH0 REVERT JUMPDEST PUSH1 0x7 SLOAD PUSH1 0x1 PUSH1 0x1 PUSH1 0xA0 SHL SUB AND CALLER SUB PUSH2 0x3058 JUMPI JUMP JUMPDEST PUSH4 0x118CDAA7 PUSH1 0xE0 SHL PUSH0 MSTORE CALLER PUSH1 0x4 MSTORE PUSH1 0x24 PUSH0 REVERT JUMPDEST SWAP1 PUSH1 0x20 SWAP1 PUSH1 0x40 MLOAD SWAP1 PUSH2 0x307D DUP4 DUP4 PUSH2 0x25E3 JUMP JUMPDEST PUSH0 DUP3 MSTORE PUSH1 0x1 PUSH1 0x1 PUSH1 0xA0 SHL SUB DUP5 AND SWAP4 DUP5 ISZERO PUSH2 0x2BA8 JUMPI PUSH0 DUP3 DUP2 MSTORE PUSH1 0x2 DUP6 MSTORE PUSH1 0x40 SWAP1 KECCAK256 SLOAD PUSH1 0x1 PUSH1 0x1 PUSH1 0xA0 SHL SUB AND DUP1 ISZERO ISZERO SWAP1 DUP2 PUSH2 0x3247 JUMPI JUMPDEST DUP7 PUSH0 MSTORE PUSH1 0x3 DUP7 MSTORE PUSH1 0x40 PUSH0 KECCAK256 PUSH1 0x1 DUP2 SLOAD ADD SWAP1 SSTORE DUP4 PUSH0 MSTORE PUSH1 0x2 DUP7 MSTORE PUSH1 0x40 PUSH0 KECCAK256 DUP8 PUSH12 0xFFFFFFFFFFFFFFFFFFFFFFFF PUSH1 0xA0 SHL DUP3 SLOAD AND OR SWAP1 SSTORE DUP4 DUP8 DUP3 PUSH32 0xDDF252AD1BE2C89B69C2B068FC378DAA952BA7F163C4A11628F55A4DF523B3EF PUSH0 DUP1 LOG4 POP PUSH2 0x3234 JUMPI EXTCODESIZE PUSH2 0x311D JUMPI JUMPDEST POP POP POP POP JUMP JUMPDEST SWAP2 PUSH2 0x315A SWAP2 DUP2 SWAP5 SWAP6 SWAP4 PUSH1 0x40 MLOAD SWAP4 DUP5 SWAP3 DUP4 SWAP3 PUSH4 0xA85BD01 PUSH1 0xE1 SHL DUP5 MSTORE CALLER PUSH1 0x4 DUP6 ADD MSTORE PUSH0 PUSH1 0x24 DUP6 ADD MSTORE PUSH1 0x44 DUP5 ADD MSTORE PUSH1 0x80 PUSH1 0x64 DUP5 ADD MSTORE PUSH1 0x84 DUP4 ADD SWAP1 PUSH2 0x255B JUMP JUMPDEST SUB DUP2 PUSH0 DUP9 GAS CALL PUSH0 SWAP2 DUP2 PUSH2 0x31F4 JUMPI JUMPDEST POP PUSH2 0x31BD JUMPI POP POP RETURNDATASIZE ISZERO PUSH2 0x31B5 JUMPI RETURNDATASIZE SWAP1 PUSH2 0x3180 DUP3 PUSH2 0x2604 JUMP JUMPDEST SWAP2 PUSH2 0x318E PUSH1 0x40 MLOAD SWAP4 DUP5 PUSH2 0x25E3 JUMP JUMPDEST DUP3 MSTORE RETURNDATASIZE PUSH0 DUP3 DUP5 ADD RETURNDATACOPY JUMPDEST DUP2 MLOAD SWAP2 DUP3 PUSH2 0x31B2 JUMPI DUP4 PUSH4 0x32505749 PUSH1 0xE1 SHL PUSH0 MSTORE PUSH1 0x4 MSTORE PUSH1 0x24 PUSH0 REVERT JUMPDEST ADD REVERT JUMPDEST PUSH1 0x60 SWAP1 PUSH2 0x3197 JUMP JUMPDEST SWAP1 SWAP3 SWAP2 POP PUSH1 0x1 PUSH1 0x1 PUSH1 0xE0 SHL SUB NOT AND PUSH4 0x757A42FF PUSH1 0xE1 SHL ADD PUSH2 0x31E2 JUMPI POP PUSH0 DUP1 DUP1 DUP1 PUSH2 0x3117 JUMP JUMPDEST PUSH4 0x32505749 PUSH1 0xE1 SHL PUSH0 MSTORE PUSH1 0x4 MSTORE PUSH1 0x24 PUSH0 REVERT JUMPDEST SWAP1 SWAP2 POP DUP4 DUP2 DUP2 RETURNDATASIZE DUP4 GT PUSH2 0x322D JUMPI JUMPDEST PUSH2 0x320C DUP2 DUP4 PUSH2 0x25E3 JUMP JUMPDEST DUP2 ADD SUB SLT PUSH2 0x204 JUMPI MLOAD PUSH1 0x1 PUSH1 0x1 PUSH1 0xE0 SHL SUB NOT DUP2 AND DUP2 SUB PUSH2 0x204 JUMPI SWAP1 PUSH0 PUSH2 0x3168 JUMP JUMPDEST POP RETURNDATASIZE PUSH2 0x3202 JUMP JUMPDEST PUSH4 0x39E35637 PUSH1 0xE1 SHL PUSH0 MSTORE PUSH0 PUSH1 0x4 MSTORE PUSH1 0x24 PUSH0 REVERT JUMPDEST PUSH0 DUP5 DUP2 MSTORE PUSH1 0x4 PUSH1 0x20 MSTORE PUSH1 0x40 DUP1 DUP3 KECCAK256 DUP1 SLOAD PUSH1 0x1 PUSH1 0x1 PUSH1 0xA0 SHL SUB NOT AND SWAP1 SSTORE DUP3 DUP3 MSTORE PUSH1 0x3 DUP9 MSTORE SWAP1 KECCAK256 DUP1 SLOAD PUSH0 NOT ADD SWAP1 SSTORE PUSH2 0x30B1 JUMP JUMPDEST PUSH1 0x20 SWAP1 PUSH2 0x32B0 PUSH32 0xF8E1A15ABA9398E019F0B49DF1A4FDE98EE17AE345CB5F6B5E2C27F5033E8CE7 SWAP4 DUP3 PUSH0 MSTORE PUSH1 0x6 DUP5 MSTORE PUSH1 0x40 PUSH0 KECCAK256 PUSH2 0x2BDF JUMP JUMPDEST PUSH1 0x40 MLOAD SWAP1 DUP2 MSTORE LOG1 JUMP JUMPDEST PUSH1 0x1 PUSH1 0x1 PUSH1 0xA0 SHL SUB AND PUSH0 DUP2 DUP2 MSTORE PUSH1 0xF PUSH1 0x20 SWAP1 DUP2 MSTORE PUSH1 0x40 DUP1 DUP4 KECCAK256 SLOAD PUSH1 0xE SWAP1 SWAP3 MSTORE SWAP1 SWAP2 KECCAK256 SLOAD PUSH2 0x3E8 SWAP1 DIV SWAP2 SWAP1 DUP3 GT PUSH2 0x32ED JUMPI POP POP JUMP JUMPDEST PUSH0 MSTORE PUSH1 0xF PUSH1 0x20 MSTORE PUSH1 0x40 PUSH0 KECCAK256 SSTORE JUMP JUMPDEST DUP3 EXTCODESIZE PUSH2 0x3309 JUMPI JUMPDEST POP POP POP POP POP JUMP JUMPDEST PUSH1 0x40 MLOAD PUSH4 0xA85BD01 PUSH1 0xE1 SHL DUP2 MSTORE PUSH1 0x1 PUSH1 0x1 PUSH1 0xA0 SHL SUB SWAP2 DUP3 AND PUSH1 0x4 DUP3 ADD MSTORE SWAP2 DUP2 AND PUSH1 0x24 DUP4 ADD MSTORE PUSH1 0x44 DUP3 ADD SWAP4 SWAP1 SWAP4 MSTORE PUSH1 0x80 PUSH1 0x64 DUP3 ADD MSTORE SWAP2 AND SWAP2 PUSH1 0x20 SWAP1 DUP3 SWAP1 DUP2 SWAP1 PUSH2 0x3355 SWAP1 PUSH1 0x84 DUP4 ADD SWAP1 PUSH2 0x255B JUMP JUMPDEST SUB DUP2 PUSH0 DUP7 GAS CALL PUSH0 SWAP2 DUP2 PUSH2 0x33DA JUMPI JUMPDEST POP PUSH2 0x33B8 JUMPI POP RETURNDATASIZE ISZERO PUSH2 0x33B1 JUMPI RETURNDATASIZE PUSH2 0x3379 DUP2 PUSH2 0x2604 JUMP JUMPDEST SWAP1 PUSH2 0x3387 PUSH1 0x40 MLOAD SWAP3 DUP4 PUSH2 0x25E3 JUMP JUMPDEST DUP2 MSTORE RETURNDATASIZE PUSH0 PUSH1 0x20 DUP4 ADD RETURNDATACOPY JUMPDEST DUP1 MLOAD SWAP1 DUP2 PUSH2 0x33AC JUMPI DUP3 PUSH4 0x32505749 PUSH1 0xE1 SHL PUSH0 MSTORE PUSH1 0x4 MSTORE PUSH1 0x24 PUSH0 REVERT JUMPDEST PUSH1 0x20 ADD REVERT JUMPDEST PUSH1 0x60 PUSH2 0x3391 JUMP JUMPDEST PUSH1 0x1 PUSH1 0x1 PUSH1 0xE0 SHL SUB NOT AND PUSH4 0x757A42FF PUSH1 0xE1 SHL ADD PUSH2 0x31E2 JUMPI POP PUSH0 DUP1 DUP1 DUP1 DUP1 PUSH2 0x3302 JUMP JUMPDEST SWAP1 SWAP2 POP PUSH1 0x20 DUP2 RETURNDATASIZE PUSH1 0x20 GT PUSH2 0x3417 JUMPI JUMPDEST DUP2 PUSH2 0x33F6 PUSH1 0x20 SWAP4 DUP4 PUSH2 0x25E3 JUMP JUMPDEST DUP2 ADD SUB SLT PUSH2 0x204 JUMPI MLOAD PUSH1 0x1 PUSH1 0x1 PUSH1 0xE0 SHL SUB NOT DUP2 AND DUP2 SUB PUSH2 0x204 JUMPI SWAP1 PUSH0 PUSH2 0x3363 JUMP JUMPDEST RETURNDATASIZE SWAP2 POP PUSH2 0x33E9 JUMP JUMPDEST DUP1 ISZERO PUSH2 0x34C4 JUMPI PUSH0 DUP2 DUP1 JUMPDEST PUSH2 0x34B0 JUMPI POP PUSH2 0x3437 DUP2 PUSH2 0x2604 JUMP JUMPDEST SWAP1 PUSH2 0x3445 PUSH1 0x40 MLOAD SWAP3 DUP4 PUSH2 0x25E3 JUMP JUMPDEST DUP1 DUP3 MSTORE PUSH1 0x1F NOT PUSH2 0x3454 DUP3 PUSH2 0x2604 JUMP JUMPDEST ADD CALLDATASIZE PUSH1 0x20 DUP5 ADD CALLDATACOPY JUMPDEST DUP1 SWAP3 DUP1 ISZERO PUSH2 0x34A9 JUMPI PUSH0 NOT DUP3 ADD SWAP2 DUP3 GT PUSH2 0x34E JUMPI DUP2 SWAP4 PUSH1 0xA DUP3 MOD PUSH1 0x30 ADD SWAP3 DUP4 PUSH1 0x30 GT PUSH2 0x34E JUMPI DUP5 MLOAD GT ISZERO PUSH2 0x26AA JUMPI PUSH1 0xA SWAP3 PUSH1 0xF8 SHL PUSH1 0x1 PUSH1 0x1 PUSH1 0xF8 SHL SUB NOT AND PUSH0 BYTE SWAP1 DUP5 ADD PUSH1 0x1F ADD MSTORE8 DIV SWAP2 PUSH2 0x345C JUMP JUMPDEST POP POP SWAP1 POP SWAP1 JUMP JUMPDEST SWAP1 PUSH2 0x34BC PUSH1 0xA SWAP2 PUSH2 0x2BBB JUMP JUMPDEST SWAP2 DIV DUP1 PUSH2 0x3429 JUMP JUMPDEST POP PUSH1 0x40 MLOAD PUSH2 0x34D3 PUSH1 0x40 DUP3 PUSH2 0x25E3 JUMP JUMPDEST PUSH1 0x1 DUP2 MSTORE PUSH1 0x3 PUSH1 0xFC SHL PUSH1 0x20 DUP3 ADD MSTORE SWAP1 JUMP INVALID LOG2 PUSH5 0x6970667358 0x22 SLT KECCAK256 0xF6 EXTCODEHASH 0xAC 0xD1 PUSH9 0xDB6BFCB374FB2542D4 0xF9 0xC0 0x4C 0xE2 0xD9 BALANCE 0xCB SWAP3 SWAP13 CALLDATALOAD 0x2A RETURN TSTORE PUSH25 0x75999E6364736F6C634300081C003300000000000000000000 "},"methodIdentifiers":{"activatePower(uint256)":"e36cf906","activeQuestSets(uint256)":"1e4190f1","approve(address,uint256)":"095ea7b3","authorizeMinter(address)":"0c984832","authorizedMinters(address)":"aa2fe91b","badges(uint256)":"98e36d8b","balanceOf(address)":"70a08231","createQuestSet(string,string,string,string[],string,string,string,uint256,uint8,uint8,string,string,uint256,uint256)":"f27bacdb","getActiveQuestSets()":"e4a9b260","getApproved(uint256)":"081812fc","getQuestSetProgress(address,string)":"973417d3","getRarityMaxLevel(uint8)":"fd52920e","getRarityXPReward(uint8)":"763f4df1","getUserBadgesWithPowers(address)":"dbb568a9","isApprovedForAll(address,address)":"e985e9c5","mintBadge(address,string,string,string,uint256,uint8,uint8,string,bool,string)":"2dc58040","name()":"06fdde03","owner()":"8da5cb5b","ownerOf(uint256)":"6352211e","pause()":"8456cb59","paused()":"5c975abb","questSetCompleted(address,string)":"111f57d6","questSetCompletors(string,uint256)":"09cf6c29","questSets(string)":"11651d5b","renounceOwnership()":"715018a6","safeTransferFrom(address,address,uint256)":"42842e0e","safeTransferFrom(address,address,uint256,bytes)":"b88d4fde","setApprovalForAll(address,bool)":"a22cb465","supportsInterface(bytes4)":"01ffc9a7","symbol()":"95d89b41","tokenURI(uint256)":"c87b56dd","transferFrom(address,address,uint256)":"23b872dd","transferOwnership(address)":"f2fde38b","unpause()":"3f4ba83a","upgradeBadge(uint256)":"dc6d0a12","upgradeBadgeRarity(uint256,uint8)":"f390db18","userBadges(address,uint256)":"df91cc23","userHasBadge(address,string)":"8f41e098","userLevel(address)":"280e31cc","userXP(address)":"23932230"}}}}}