{"project/contracts/QuestManager.sol":{"QuestManager":{"abi":[{"inputs":[{"internalType":"address","name":"_meeToken","type":"address"},{"internalType":"address","name":"_badgeNFT","type":"address"},{"internalType":"address","name":"_footballNFT","type":"address"}],"stateMutability":"nonpayable","type":"constructor"},{"inputs":[{"internalType":"address","name":"owner","type":"address"}],"name":"OwnableInvalidOwner","type":"error"},{"inputs":[{"internalType":"address","name":"account","type":"address"}],"name":"OwnableUnauthorizedAccount","type":"error"},{"anonymous":false,"inputs":[{"indexed":true,"internalType":"address","name":"previousOwner","type":"address"},{"indexed":true,"internalType":"address","name":"newOwner","type":"address"}],"name":"OwnershipTransferred","type":"event"},{"anonymous":false,"inputs":[{"indexed":true,"internalType":"address","name":"user","type":"address"},{"indexed":true,"internalType":"uint256","name":"questId","type":"uint256"},{"indexed":false,"internalType":"uint256","name":"rewardAmount","type":"uint256"}],"name":"QuestCompleted","type":"event"},{"anonymous":false,"inputs":[{"indexed":true,"internalType":"uint256","name":"questId","type":"uint256"},{"indexed":false,"internalType":"string","name":"name","type":"string"},{"indexed":false,"internalType":"string","name":"rewardType","type":"string"}],"name":"QuestCreated","type":"event"},{"inputs":[],"name":"badgeNFT","outputs":[{"internalType":"contract MeeBadgeNFT","name":"","type":"address"}],"stateMutability":"view","type":"function"},{"inputs":[],"name":"checkAuthorization","outputs":[{"internalType":"bool","name":"isAuthorized","type":"bool"},{"internalType":"bool","name":"tokenAuthorized","type":"bool"},{"internalType":"bool","name":"badgeAuthorized","type":"bool"},{"internalType":"bool","name":"footballNFTAuthorized","type":"bool"}],"stateMutability":"view","type":"function"},{"inputs":[{"internalType":"uint256","name":"questId","type":"uint256"}],"name":"completeQuest","outputs":[],"stateMutability":"nonpayable","type":"function"},{"inputs":[{"internalType":"address","name":"","type":"address"},{"internalType":"uint256","name":"","type":"uint256"}],"name":"completed","outputs":[{"internalType":"bool","name":"","type":"bool"}],"stateMutability":"view","type":"function"},{"inputs":[{"internalType":"string","name":"name","type":"string"},{"internalType":"string","name":"description","type":"string"},{"internalType":"uint256","name":"rewardAmount","type":"uint256"},{"internalType":"string","name":"rewardType","type":"string"},{"internalType":"string","name":"badgeName","type":"string"},{"internalType":"string","name":"badgeDescription","type":"string"},{"internalType":"string","name":"badgeTokenURI","type":"string"}],"name":"createQuest","outputs":[{"internalType":"uint256","name":"","type":"uint256"}],"stateMutability":"nonpayable","type":"function"},{"inputs":[{"internalType":"string","name":"name","type":"string"},{"internalType":"string","name":"description","type":"string"},{"internalType":"uint256","name":"rewardAmount","type":"uint256"},{"internalType":"string","name":"playerName","type":"string"},{"internalType":"string","name":"playerPosition","type":"string"},{"internalType":"uint256","name":"playerRating","type":"uint256"},{"internalType":"string","name":"playerNationality","type":"string"},{"internalType":"bool","name":"isLegendary","type":"bool"},{"internalType":"string","name":"playerTokenURI","type":"string"}],"name":"createQuestWithPlayerReward","outputs":[{"internalType":"uint256","name":"","type":"uint256"}],"stateMutability":"nonpayable","type":"function"},{"inputs":[{"internalType":"uint256","name":"questId","type":"uint256"}],"name":"deactivateQuest","outputs":[],"stateMutability":"nonpayable","type":"function"},{"inputs":[],"name":"footballNFT","outputs":[{"internalType":"contract FootballNFT","name":"","type":"address"}],"stateMutability":"view","type":"function"},{"inputs":[],"name":"getContractAddresses","outputs":[{"internalType":"address","name":"meeTokenAddress","type":"address"},{"internalType":"address","name":"badgeNFTAddress","type":"address"},{"internalType":"address","name":"footballNFTAddress","type":"address"},{"internalType":"address","name":"questManagerAddress","type":"address"}],"stateMutability":"view","type":"function"},{"inputs":[{"internalType":"uint256","name":"questId","type":"uint256"}],"name":"getQuest","outputs":[{"components":[{"internalType":"string","name":"name","type":"string"},{"internalType":"string","name":"description","type":"string"},{"internalType":"uint256","name":"rewardAmount","type":"uint256"},{"internalType":"string","name":"rewardType","type":"string"},{"internalType":"string","name":"badgeName","type":"string"},{"internalType":"string","name":"badgeDescription","type":"string"},{"internalType":"string","name":"badgeTokenURI","type":"string"},{"internalType":"string","name":"playerName","type":"string"},{"internalType":"string","name":"playerPosition","type":"string"},{"internalType":"uint256","name":"playerRating","type":"uint256"},{"internalType":"string","name":"playerNationality","type":"string"},{"internalType":"bool","name":"isLegendary","type":"bool"},{"internalType":"bool","name":"isActive","type":"bool"},{"internalType":"uint256","name":"completions","type":"uint256"}],"internalType":"struct QuestManager.Quest","name":"","type":"tuple"}],"stateMutability":"view","type":"function"},{"inputs":[{"internalType":"address","name":"user","type":"address"},{"internalType":"uint256","name":"questId","type":"uint256"}],"name":"hasCompletedQuest","outputs":[{"internalType":"bool","name":"","type":"bool"}],"stateMutability":"view","type":"function"},{"inputs":[],"name":"meeToken","outputs":[{"internalType":"contract MeeToken","name":"","type":"address"}],"stateMutability":"view","type":"function"},{"inputs":[],"name":"owner","outputs":[{"internalType":"address","name":"","type":"address"}],"stateMutability":"view","type":"function"},{"inputs":[],"name":"questCounter","outputs":[{"internalType":"uint256","name":"","type":"uint256"}],"stateMutability":"view","type":"function"},{"inputs":[{"internalType":"uint256","name":"","type":"uint256"}],"name":"quests","outputs":[{"internalType":"string","name":"name","type":"string"},{"internalType":"string","name":"description","type":"string"},{"internalType":"uint256","name":"rewardAmount","type":"uint256"},{"internalType":"string","name":"rewardType","type":"string"},{"internalType":"string","name":"badgeName","type":"string"},{"internalType":"string","name":"badgeDescription","type":"string"},{"internalType":"string","name":"badgeTokenURI","type":"string"},{"internalType":"string","name":"playerName","type":"string"},{"internalType":"string","name":"playerPosition","type":"string"},{"internalType":"uint256","name":"playerRating","type":"uint256"},{"internalType":"string","name":"playerNationality","type":"string"},{"internalType":"bool","name":"isLegendary","type":"bool"},{"internalType":"bool","name":"isActive","type":"bool"},{"internalType":"uint256","name":"completions","type":"uint256"}],"stateMutability":"view","type":"function"},{"inputs":[],"name":"renounceOwnership","outputs":[],"stateMutability":"nonpayable","type":"function"},{"inputs":[{"internalType":"address","name":"newOwner","type":"address"}],"name":"transferOwnership","outputs":[],"stateMutability":"nonpayable","type":"function"}],"evm":{"bytecode":{"linkReferences":{},"object":"60803461011057601f612cf638819003918201601f19168301916001600160401b03831184841017610114578084926060946040528339810103126101105761004781610128565b90610060604061005960208401610128565b9201610128565b9033156100fd575f8054336001600160a01b0319821681178355604051959290916001600160a01b0316907f8be0079c531659141344cd1fd0a4f28419497f9722a3daafe3b4186f6b6457e09080a3600480546001600160a01b03199081166001600160a01b0393841617909155600580548216938316939093179092556006805490921692169190911790555f600355612bb9908161013d8239f35b631e4fbdf760e01b5f525f60045260245ffd5b5f80fd5b634e487b7160e01b5f52604160045260245ffd5b51906001600160a01b03821682036101105756fe6080806040526004361015610012575f80fd5b5f905f3560e01c908163378295331461278f5750806339527ea8146126325780634348e0e91461260a57806349f86f341461235e578063528be0a914611d82578063656bbbfa14611d595780636b85a35d146110fc578063715018a6146110a25780637d7591f0146110845780638da5cb5b1461105d578063953874d214611016578063aa995c2c14610d3d578063e085f98014610e9c578063e9d2821d14610e0c578063f2fde38b14610d86578063f8be734714610d3d5763ff8b17be146100d9575f80fd5b34610d3a5760e0366003190112610d3a576004356001600160401b038111610d3857610109903690600401612842565b906024356001600160401b038111610d3857610129903690600401612842565b916064356001600160401b038111610d3457610149903690600401612842565b906084356001600160401b038111610d3057610169903690600401612842565b9160a4356001600160401b038111610d2c57610189903690600401612842565b60c4356001600160401b038111610d28576101a8903690600401612842565b906101b1612b3d565b600354946101be8661298e565b600355604051976101ce896127d6565b85895260208901526044356040890152836060890152608088015260a087015260c08601526020946040516102038782612806565b85815260e08201526040516102188782612806565b858152610100820152846101208201526040516102358782612806565b858152610140820152846101608201526001610180820152846101a082015283855260018652604085209481518051906001600160401b0382116107d157819061027f895461289e565b601f8111610cdd575b508990601f8311600114610c76578492610c6b575b50508160011b915f199060031b1c19161786555b60208201518051906001600160401b0382116107d15781906102d660018a015461289e565b601f8111610c1d575b508990601f8311600114610bb5578492610baa575b50508160011b915f199060031b1c19161760018701555b6040820151600287015560608201518051906001600160401b0382116107d157819061033a60038a015461289e565b601f8111610b5c575b508990601f8311600114610af4578492610ae9575b50508160011b915f199060031b1c19161760038701555b60808201518051906001600160401b0382116107d157819061039460048a015461289e565b601f8111610a9b575b508990601f8311600114610a33578492610a28575b50508160011b915f199060031b1c19161760048701555b60a08201518051906001600160401b0382116107d15781906103ee60058a015461289e565b601f81116109da575b508990601f8311600114610972578492610967575b50508160011b915f199060031b1c19161760058701555b60c08201518051906001600160401b0382116107d157819061044860068a015461289e565b601f8111610919575b508990601f83116001146108b15784926108a6575b50508160011b915f199060031b1c19161760068701555b60e08201518051906001600160401b0382116107d15781906104a260078a015461289e565b601f8111610858575b508990601f83116001146107f05784926107e5575b50508160011b915f199060031b1c19161760078701555b6101008201518051906001600160401b0382116107d15781906104fd60088a015461289e565b601f8111610780575b508990601f831160011461071857849261070d575b50508160011b915f199060031b1c19161760088701555b6101208201516009870155600a860190610140830151908151916001600160401b0383116106f957610564845461289e565b601f81116106b6575b508991601f8411600114610635575f516020612b645f395f51905f52979561061f958561061299968c9d96600c966101a0969261062a575b50508160011b915f199060031b1c19161790555b6105f9600b85016105dd6101608401511515829060ff801983541691151516179055565b610180830151815461ff00191690151560081b61ff0016179055565b01519101556040519384936040855260408501906127b2565b90838203898501526127b2565b0390a2604051908152f35b015190505f806105a5565b9190601f1984168584528b8420935b8c8282106106a05750509561061f956001868c9d96600c966101a0966106129d9a5f516020612b645f395f51905f529f9d10610688575b505050811b0190556105b9565b01515f1960f88460031b161c191690555f808061067b565b6001859682939686015181550195019301610644565b8483528a8320601f850160051c8101918c86106106ef575b601f0160051c01905b8181106106e4575061056d565b8381556001016106d7565b90915081906106ce565b634e487b7160e01b82526041600452602482fd5b015190505f8061051b565b60088a0185528a85209250601f198416855b8c82821061076a575050908460019594939210610752575b505050811b016008870155610532565b01515f1960f88460031b161c191690555f8080610742565b600185968293968601518155019501930161072a565b909150600889018452898420601f840160051c8101918b85106107c7575b90601f859493920160051c01905b8181106107b95750610506565b8581558493506001016107ac565b909150819061079e565b634e487b7160e01b83526041600452602483fd5b015190505f806104c0565b60078a0185528a85209250601f198416855b8c82821061084257505090846001959493921061082a575b505050811b0160078701556104d7565b01515f1960f88460031b161c191690555f808061081a565b6001859682939686015181550195019301610802565b909150600789018452898420601f840160051c81018b851061089f575b90849392915b601f830160051c820181106108915750506104ab565b86815585945060010161087b565b5080610875565b015190505f80610466565b60068a0185528a85209250601f198416855b8c8282106109035750509084600195949392106108eb575b505050811b01600687015561047d565b01515f1960f88460031b161c191690555f80806108db565b60018596829396860151815501950193016108c3565b909150600689018452898420601f840160051c81018b8510610960575b90849392915b601f830160051c82018110610952575050610451565b86815585945060010161093c565b5080610936565b015190505f8061040c565b60058a0185528a85209250601f198416855b8c8282106109c45750509084600195949392106109ac575b505050811b016005870155610423565b01515f1960f88460031b161c191690555f808061099c565b6001859682939686015181550195019301610984565b909150600589018452898420601f840160051c81018b8510610a21575b90849392915b601f830160051c82018110610a135750506103f7565b8681558594506001016109fd565b50806109f7565b015190505f806103b2565b60048a0185528a85209250601f198416855b8c828210610a85575050908460019594939210610a6d575b505050811b0160048701556103c9565b01515f1960f88460031b161c191690555f8080610a5d565b6001859682939686015181550195019301610a45565b909150600489018452898420601f840160051c81018b8510610ae2575b90849392915b601f830160051c82018110610ad457505061039d565b868155859450600101610abe565b5080610ab8565b015190505f80610358565b60038a0185528a85209250601f198416855b8c828210610b46575050908460019594939210610b2e575b505050811b01600387015561036f565b01515f1960f88460031b161c191690555f8080610b1e565b6001859682939686015181550195019301610b06565b909150600389018452898420601f840160051c81018b8510610ba3575b90849392915b601f830160051c82018110610b95575050610343565b868155859450600101610b7f565b5080610b79565b015190505f806102f4565b60018a0185528a85209250601f198416855b8c828210610c07575050908460019594939210610bef575b505050811b01600187015561030b565b01515f1960f88460031b161c191690555f8080610bdf565b6001859682939686015181550195019301610bc7565b909150600189018452898420601f840160051c81018b8510610c64575b90849392915b601f830160051c82018110610c565750506102df565b868155859450600101610c40565b5080610c3a565b015190505f8061029d565b92508884528984209084935b8b601f1985168610610cc457506001945083601f19811610610cac575b505050811b0186556102b1565b01515f1960f88460031b161c191690555f8080610c9f565b8282015184559485019460019093019290910190610c82565b909150888452898420601f840160051c81018b8510610d21575b90849392915b601f830160051c82018110610d13575050610288565b868155859450600101610cfd565b5080610cf7565b8580fd5b8480fd5b8380fd5b8280fd5b505b80fd5b5034610d3a576040366003190112610d3a5760209060ff906040906001600160a01b03610d68612888565b16815260028452818120602435825284522054166040519015158152f35b5034610d3a576020366003190112610d3a57610da0612888565b610da8612b3d565b6001600160a01b03168015610df85781546001600160a01b03198116821783556001600160a01b03167f8be0079c531659141344cd1fd0a4f28419497f9722a3daafe3b4186f6b6457e08380a380f35b631e4fbdf760e01b82526004829052602482fd5b5034610d3a576020366003190112610d3a57600435610e29612b3d565b808252600160205260ff600b60408420015460081c1615610e5e578152600160205260408120600b01805461ff001916905580f35b60405162461bcd60e51b8152602060048201526016602482015275517565737420616c726561647920696e61637469766560501b6044820152606490fd5b5034610d3a576020366003190112610d3a576004358152600160205260409020610ec5816128d6565b610ed1600183016128d6565b91600281015460038201610ee4906128d6565b610ef0600484016128d6565b610efc600585016128d6565b610f08600686016128d6565b610f14600787016128d6565b90610f21600888016128d6565b92600988015494600a8901610f35906128d6565b96600b8a015499600c0154986040519c8d9c8d6101c081526101c001610f5a916127b2565b8d810360208f0152610f6b916127b2565b9060408d01528b810360608d0152610f82916127b2565b8a810360808c0152610f93916127b2565b89810360a08b0152610fa4916127b2565b88810360c08a0152610fb5916127b2565b87810360e0890152610fc6916127b2565b868103610100880152610fd8916127b2565b90610120860152848103610140860152610ff1916127b2565b9160ff8116151561016085015260081c60ff1615156101808401526101a08301520390f35b5034610d3a5780600319360112610d3a57600454600554600654604080516001600160a01b0394851681529284166020840152921691810191909152306060820152608090f35b5034610d3a5780600319360112610d3a57546040516001600160a01b039091168152602090f35b5034610d3a5780600319360112610d3a576020600354604051908152f35b5034610d3a5780600319360112610d3a576110bb612b3d565b80546001600160a01b03198116825581906001600160a01b03167f8be0079c531659141344cd1fd0a4f28419497f9722a3daafe3b4186f6b6457e08280a380f35b5034610d3a57610120366003190112610d3a576004356001600160401b038111610d385761112e903690600401612842565b6024356001600160401b038111610d345761114d903690600401612842565b6064356001600160401b038111610d305761116c903690600401612842565b906084356001600160401b038111610d2c5761118c903690600401612842565b9260c4356001600160401b038111610d28576111ac903690600401612842565b60e435908115158203611d5557610104356001600160401b038111611d51576111d9903690600401612842565b956111e2612b3d565b600354956111ef8761298e565b600355604051956111ff876127d6565b85875260208701526044356040870152611217612a31565b606087015260209760405161122c8a82612806565b8a815260808801526040516112418a82612806565b8a815260a088015260c087015260e086015261010085015260a43561012085015261014084015215156101608301526001610180830152846101a0830152828552600184526040852082518051906001600160401b0382116118a25781906112a9845461289e565b601f8111611d06575b508790601f8311600114611c9f578992611c94575b50508160011b915f199060031b1c19161781555b60208301518051906001600160401b0382116118a2578190611300600185015461289e565b601f8111611c46575b508790601f8311600114611bd9578992611bce575b50508160011b915f199060031b1c19161760018201555b6040830151600282015560608301518051906001600160401b0382116118a2578190611364600385015461289e565b601f8111611b80575b508790601f8311600114611b13578992611b08575b50508160011b915f199060031b1c19161760038201555b60808301518051906001600160401b0382116118a25781906113be600485015461289e565b601f8111611aba575b508790601f8311600114611a4d578992611a42575b50508160011b915f199060031b1c19161760048201555b60a08301518051906001600160401b0382116118a2578190611418600585015461289e565b601f81116119f4575b508790601f831160011461198757899261197c575b50508160011b915f199060031b1c19161760058201555b60c08301518051906001600160401b0382116118a2578190611472600685015461289e565b601f811161192e575b508790601f83116001146118c15789926118b6575b50508160011b915f199060031b1c19161760068201555b60e08301518051906001600160401b0382116118a25781906114cc600785015461289e565b601f8111611851575b508790601f83116001146117e45789926117d9575b50508160011b915f199060031b1c19161760078201555b600881016101008401518051906001600160401b03821161170a578190611528845461289e565b601f811161178b575b508890601f8311600114611729578a9261171e575b50508160011b915f199060031b1c19161790555b6101208301516009820155600a8101926101408101518051906001600160401b03821161170a5761158b865461289e565b601f81116116c7575b50969795969495879589916001601f85111461164c579280600c95935f516020612b645f395f51905f52999a936101a09692611641575b50508160011b915f199060031b1c19161790555b611603600b85016105dd6101608401511515829060ff801983541691151516179055565b0151910155604061161c815192828452828401906127b2565b65383630bcb2b960d11b878483039283828701526006815201520190a2604051908152f35b015190505f806115cb565b9190601f1984168984528b8420935b8c8282106116ae57505093600c95935f516020612b645f395f51905f52999a93600193836101a09810611696575b505050811b0190556115df565b01515f1960f88460031b161c191690555f8080611689565b8484015186558c9a50600190950194938401930161165b565b868a52888a20601f840160051c8101918a8510611700575b601f0160051c01905b8181106116f55750611594565b8a81556001016116e8565b90915081906116df565b634e487b7160e01b89526041600452602489fd5b015190505f80611546565b848b52898b209250601f1984168b5b8b82821061177557505090846001959493921061175d575b505050811b01905561155a565b01515f1960f88460031b161c191690555f8080611750565b6001859682939686015181550195019301611738565b909150838a52888a20601f840160051c8101918a85106117cf575b90601f859493920160051c01905b8181106117c15750611531565b8b81558493506001016117b4565b90915081906117a6565b015190505f806114ea565b92506007840189528789209089935b89601f198516861061183857506001945083601f19811610611820575b505050811b016007820155611501565b01515f1960f88460031b161c191690555f8080611810565b82820151845594850194600190930192909101906117f3565b909150600784018952878920601f840160051c810191898510611898575b90601f859493920160051c01905b81811061188a57506114d5565b8a815584935060010161187d565b909150819061186f565b634e487b7160e01b88526041600452602488fd5b015190505f80611490565b92506006840189528789209089935b89601f198516861061191557506001945083601f198116106118fd575b505050811b0160068201556114a7565b01515f1960f88460031b161c191690555f80806118ed565b82820151845594850194600190930192909101906118d0565b909150600684018952878920601f840160051c8101898510611975575b90849392915b601f830160051c8201811061196757505061147b565b8b8155859450600101611951565b508061194b565b015190505f80611436565b92506005840189528789209089935b89601f19851686106119db57506001945083601f198116106119c3575b505050811b01600582015561144d565b01515f1960f88460031b161c191690555f80806119b3565b8282015184559485019460019093019290910190611996565b909150600584018952878920601f840160051c8101898510611a3b575b90849392915b601f830160051c82018110611a2d575050611421565b8b8155859450600101611a17565b5080611a11565b015190505f806113dc565b92506004840189528789209089935b89601f1985168610611aa157506001945083601f19811610611a89575b505050811b0160048201556113f3565b01515f1960f88460031b161c191690555f8080611a79565b8282015184559485019460019093019290910190611a5c565b909150600484018952878920601f840160051c8101898510611b01575b90849392915b601f830160051c82018110611af35750506113c7565b8b8155859450600101611add565b5080611ad7565b015190505f80611382565b92506003840189528789209089935b89601f1985168610611b6757506001945083601f19811610611b4f575b505050811b016003820155611399565b01515f1960f88460031b161c191690555f8080611b3f565b8282015184559485019460019093019290910190611b22565b909150600384018952878920601f840160051c8101898510611bc7575b90849392915b601f830160051c82018110611bb957505061136d565b8b8155859450600101611ba3565b5080611b9d565b015190505f8061131e565b92506001840189528789209089935b89601f1985168610611c2d57506001945083601f19811610611c15575b505050811b016001820155611335565b01515f1960f88460031b161c191690555f8080611c05565b8282015184559485019460019093019290910190611be8565b909150600184018952878920601f840160051c8101898510611c8d575b90849392915b601f830160051c82018110611c7f575050611309565b8b8155859450600101611c69565b5080611c63565b015190505f806112c7565b92508389528789209089935b89601f1985168610611ced57506001945083601f19811610611cd5575b505050811b0181556112db565b01515f1960f88460031b161c191690555f8080611cc8565b8282015184559485019460019093019290910190611cab565b909150838952878920601f840160051c8101898510611d4a575b90849392915b601f830160051c82018110611d3c5750506112b2565b8b8155859450600101611d26565b5080611d20565b8780fd5b8680fd5b5034610d3a5780600319360112610d3a576004546040516001600160a01b039091168152602090f35b503461227157602036600319011261227157600435805f52600160205260ff600b60405f20015460081c161561232857335f52600260205260405f20815f5260205260ff60405f2054166122ef576024602060018060a01b0360045416604051928380926355138f0d60e11b82523060048301525afa908115612266575f916122d0575b501561227557805f52600160205260405f20335f52600260205260405f20825f5260205260405f20600160ff19825416179055600c8101611e47815461298e565b90556004546002820180549092916001600160a01b031690813b15612271575f916044839260405194859384926340c10f1960e01b845233600485015260248401525af1801561226657612251575b5060038101604051611eb381611eac81856129b0565b0382612806565b60208151910120611ec2612a31565b60208151910120145f1461203157506006546001600160a01b03168015611ff65781602091611f618760096006960154611f7b60ff600b870154166040519889978896879563a905b12960e01b875233600488015260e06024880152611f46611f3160e48901600786016129b0565b8881036003190160448a0152600885016129b0565b906064880152600319878203016084880152600a83016129b0565b92151560a48601528483036003190160c4860152016129b0565b03925af18015611feb57611fbc575b505b546040519081527fe0b5124b12e878158288d1002ed1fb960faff0ec1c7b3168f86d9d1afd1b0d8b60203392a380f35b611fdd9060203d602011611fe4575b611fd58183612806565b810190612a55565b505f611f8a565b503d611fcb565b6040513d86823e3d90fd5b60405162461bcd60e51b8152602060048201526013602482015272119bdbdd18985b1b139195081b9bdd081cd95d606a1b6044820152606490fd5b612044611eac91604051928380926129b0565b602081519101209060409160056020845161205f8682612806565b8281520164626164676560d81b8152201461207c575b5050611f8c565b600554825163aa2fe91b60e01b81523060048201526001600160a01b0390911690602081602481855afa908115612247578791612218575b50156121be5761217f9291602091612164886120cf89612a64565b9386519788958694859362b7160160e61b8552336004860152610140602486015260068b61211c6121076101448901600486016129b0565b8881036003190160448a0152600585016129b0565b603c888203600319810160648b0152600b83526a28bab2b9ba102837bbb2b960a91b8f840152603260848b01528a60a48b0152600360c48b01520160e48901520191016129b0565b600161010485015283810360031901610124850152906127b2565b03925af19081156121b55750612196575b80612075565b6121ae9060203d602011611fe457611fd58183612806565b505f612190565b513d86823e3d90fd5b825162461bcd60e51b815260206004820152602d60248201527f51756573744d616e61676572206e6f7420617574686f72697a656420746f206d60448201526c696e742042616467654e46547360981b6064820152608490fd5b61223a915060203d602011612240575b6122328183612806565b810190612976565b5f6120b4565b503d612228565b84513d89823e3d90fd5b61225e9194505f90612806565b5f925f611e96565b6040513d5f823e3d90fd5b5f80fd5b60405162461bcd60e51b815260206004820152602d60248201527f51756573744d616e61676572206e6f7420617574686f72697a656420746f206d60448201526c696e74204d6565546f6b656e7360981b6064820152608490fd5b6122e9915060203d602011612240576122328183612806565b5f611e06565b60405162461bcd60e51b8152602060048201526011602482015270105b1c9958591e4818dbdb5c1b195d1959607a1b6044820152606490fd5b60405162461bcd60e51b815260206004820152600e60248201526d517565737420696e61637469766560901b6044820152606490fd5b346122715760203660031901126122715760405161237b816127d6565b606081526020810160609052604081015f90526060810160609052608081016060905260a081016060905260c081016060905260e081016060905261010081016060905261012081015f905261014081016060905261016081015f905261018081015f90526101a0015f90526004355f52600160205260405f20604051612401816127d6565b61240a826128d6565b8152612418600183016128d6565b916020820192835260028101546040830190815260038201612439906128d6565b606084019081529061244d600484016128d6565b60808501908152612460600585016128d6565b60a0860190815290612474600686016128d6565b60c08701908152612487600787016128d6565b60e0880190815261249a600888016128d6565b9161010089019283526009880154946101208a01958652600a89016124be906128d6565b946101408b01958652600b8a0154976101608c019a60ff8a1615158c526101808d019960081c60ff1615158a52600c0154996101a08d019a8b52604051809e819e6020835251602083016101c090526101e0830161251b916127b2565b9051828203601f1901604084015261253391906127b2565b9251606090910152518c8203601f190160808e015261255291906127b2565b90518b8203601f190160a08d015261256a91906127b2565b90518a8203601f190160c08c015261258291906127b2565b9051898203601f190160e08b015261259a91906127b2565b9051888203601f19016101008a01526125b391906127b2565b9051878203601f19016101208901526125cc91906127b2565b915161014087015251858203601f19016101608701526125ec91906127b2565b925115156101808501525115156101a0840152516101c08301520390f35b34612271575f366003190112612271576005546040516001600160a01b039091168152602090f35b34612271575f366003190112612271576024602060018060a01b0360045416604051928380926355138f0d60e11b82523060048301525afa8015612266576024915f91612770575b5060055460405163aa2fe91b60e01b81523060048201529260209184919082906001600160a01b03165afa8015612266576024925f91612751575b50600654604051634211c96160e11b81523060048201529360209185919082906001600160a01b03165afa908115612266576080935f92612730575b508280612727575b8361271e575b6040519315158452151560208401521515604083015215156060820152f35b925081926126ff565b925080926126f9565b61274a91925060203d602011612240576122328183612806565b90846126f1565b61276a915060203d602011612240576122328183612806565b836126b5565b612789915060203d602011612240576122328183612806565b8261267a565b34612271575f366003190112612271576006546001600160a01b03168152602090f35b805180835260209291819084018484015e5f828201840152601f01601f1916010190565b6101c081019081106001600160401b038211176127f257604052565b634e487b7160e01b5f52604160045260245ffd5b90601f801991011681019081106001600160401b038211176127f257604052565b6001600160401b0381116127f257601f01601f191660200190565b81601f820112156122715780359061285982612827565b926128676040519485612806565b8284526020838301011161227157815f926020809301838601378301015290565b600435906001600160a01b038216820361227157565b90600182811c921680156128cc575b60208310146128b857565b634e487b7160e01b5f52602260045260245ffd5b91607f16916128ad565b9060405191825f8254926128e98461289e565b80845293600181169081156129545750600114612910575b5061290e92500383612806565b565b90505f9291925260205f20905f915b81831061293857505090602061290e928201015f612901565b602091935080600191548385890101520191019091849261291f565b90506020925061290e94915060ff191682840152151560051b8201015f612901565b90816020910312612271575180151581036122715790565b5f19811461299c5760010190565b634e487b7160e01b5f52601160045260245ffd5b5f92918154916129bf8361289e565b8083529260018116908115612a1457506001146129db57505050565b5f9081526020812093945091925b8383106129fa575060209250010190565b6001816020929493945483858701015201910191906129e9565b915050602093945060ff929192191683830152151560051b010190565b60405190612a40604083612806565b6006825265383630bcb2b960d11b6020830152565b90816020910312612271575190565b8015612b1d575f81805b612b095750612a7c81612827565b90612a8a6040519283612806565b808252601f19612a9982612827565b013660208401375b80928015612b02575f19820191821161299c578193600a8206603001928360301161299c5784511115612aee57600a9260f81b6001600160f81b0319165f1a908401601f01530491612aa1565b634e487b7160e01b5f52603260045260245ffd5b5050905090565b90612b15600a9161298e565b910480612a6e565b50604051612b2c604082612806565b60018152600360fc1b602082015290565b5f546001600160a01b03163303612b5057565b63118cdaa760e01b5f523360045260245ffdfe5873af79ad2855095709e4952730b178b7c8c9290ebce0d50bb100007633f7f6a2646970667358221220ab460355c312b7f0a69d89128e4eb43c00b07dd997e36b2c2076f50c7a0665cd64736f6c634300081c0033","opcodes":"PUSH1 0x80 CALLVALUE PUSH2 0x110 JUMPI PUSH1 0x1F PUSH2 0x2CF6 CODESIZE DUP2 SWAP1 SUB SWAP2 DUP3 ADD PUSH1 0x1F NOT AND DUP4 ADD SWAP2 PUSH1 0x1 PUSH1 0x1 PUSH1 0x40 SHL SUB DUP4 GT DUP5 DUP5 LT OR PUSH2 0x114 JUMPI DUP1 DUP5 SWAP3 PUSH1 0x60 SWAP5 PUSH1 0x40 MSTORE DUP4 CODECOPY DUP2 ADD SUB SLT PUSH2 0x110 JUMPI PUSH2 0x47 DUP2 PUSH2 0x128 JUMP JUMPDEST SWAP1 PUSH2 0x60 PUSH1 0x40 PUSH2 0x59 PUSH1 0x20 DUP5 ADD PUSH2 0x128 JUMP JUMPDEST SWAP3 ADD PUSH2 0x128 JUMP JUMPDEST SWAP1 CALLER ISZERO PUSH2 0xFD JUMPI PUSH0 DUP1 SLOAD CALLER PUSH1 0x1 PUSH1 0x1 PUSH1 0xA0 SHL SUB NOT DUP3 AND DUP2 OR DUP4 SSTORE PUSH1 0x40 MLOAD SWAP6 SWAP3 SWAP1 SWAP2 PUSH1 0x1 PUSH1 0x1 PUSH1 0xA0 SHL SUB AND SWAP1 PUSH32 0x8BE0079C531659141344CD1FD0A4F28419497F9722A3DAAFE3B4186F6B6457E0 SWAP1 DUP1 LOG3 PUSH1 0x4 DUP1 SLOAD PUSH1 0x1 PUSH1 0x1 PUSH1 0xA0 SHL SUB NOT SWAP1 DUP2 AND PUSH1 0x1 PUSH1 0x1 PUSH1 0xA0 SHL SUB SWAP4 DUP5 AND OR SWAP1 SWAP2 SSTORE PUSH1 0x5 DUP1 SLOAD DUP3 AND SWAP4 DUP4 AND SWAP4 SWAP1 SWAP4 OR SWAP1 SWAP3 SSTORE PUSH1 0x6 DUP1 SLOAD SWAP1 SWAP3 AND SWAP3 AND SWAP2 SWAP1 SWAP2 OR SWAP1 SSTORE PUSH0 PUSH1 0x3 SSTORE PUSH2 0x2BB9 SWAP1 DUP2 PUSH2 0x13D DUP3 CODECOPY RETURN JUMPDEST PUSH4 0x1E4FBDF7 PUSH1 0xE0 SHL PUSH0 MSTORE PUSH0 PUSH1 0x4 MSTORE PUSH1 0x24 PUSH0 REVERT JUMPDEST PUSH0 DUP1 REVERT JUMPDEST PUSH4 0x4E487B71 PUSH1 0xE0 SHL PUSH0 MSTORE PUSH1 0x41 PUSH1 0x4 MSTORE PUSH1 0x24 PUSH0 REVERT JUMPDEST MLOAD SWAP1 PUSH1 0x1 PUSH1 0x1 PUSH1 0xA0 SHL SUB DUP3 AND DUP3 SUB PUSH2 0x110 JUMPI JUMP INVALID PUSH1 0x80 DUP1 PUSH1 0x40 MSTORE PUSH1 0x4 CALLDATASIZE LT ISZERO PUSH2 0x12 JUMPI PUSH0 DUP1 REVERT JUMPDEST PUSH0 SWAP1 PUSH0 CALLDATALOAD PUSH1 0xE0 SHR SWAP1 DUP2 PUSH4 0x37829533 EQ PUSH2 0x278F JUMPI POP DUP1 PUSH4 0x39527EA8 EQ PUSH2 0x2632 JUMPI DUP1 PUSH4 0x4348E0E9 EQ PUSH2 0x260A JUMPI DUP1 PUSH4 0x49F86F34 EQ PUSH2 0x235E JUMPI DUP1 PUSH4 0x528BE0A9 EQ PUSH2 0x1D82 JUMPI DUP1 PUSH4 0x656BBBFA EQ PUSH2 0x1D59 JUMPI DUP1 PUSH4 0x6B85A35D EQ PUSH2 0x10FC JUMPI DUP1 PUSH4 0x715018A6 EQ PUSH2 0x10A2 JUMPI DUP1 PUSH4 0x7D7591F0 EQ PUSH2 0x1084 JUMPI DUP1 PUSH4 0x8DA5CB5B EQ PUSH2 0x105D JUMPI DUP1 PUSH4 0x953874D2 EQ PUSH2 0x1016 JUMPI DUP1 PUSH4 0xAA995C2C EQ PUSH2 0xD3D JUMPI DUP1 PUSH4 0xE085F980 EQ PUSH2 0xE9C JUMPI DUP1 PUSH4 0xE9D2821D EQ PUSH2 0xE0C JUMPI DUP1 PUSH4 0xF2FDE38B EQ PUSH2 0xD86 JUMPI DUP1 PUSH4 0xF8BE7347 EQ PUSH2 0xD3D JUMPI PUSH4 0xFF8B17BE EQ PUSH2 0xD9 JUMPI PUSH0 DUP1 REVERT JUMPDEST CALLVALUE PUSH2 0xD3A JUMPI PUSH1 0xE0 CALLDATASIZE PUSH1 0x3 NOT ADD SLT PUSH2 0xD3A JUMPI PUSH1 0x4 CALLDATALOAD PUSH1 0x1 PUSH1 0x1 PUSH1 0x40 SHL SUB DUP2 GT PUSH2 0xD38 JUMPI PUSH2 0x109 SWAP1 CALLDATASIZE SWAP1 PUSH1 0x4 ADD PUSH2 0x2842 JUMP JUMPDEST SWAP1 PUSH1 0x24 CALLDATALOAD PUSH1 0x1 PUSH1 0x1 PUSH1 0x40 SHL SUB DUP2 GT PUSH2 0xD38 JUMPI PUSH2 0x129 SWAP1 CALLDATASIZE SWAP1 PUSH1 0x4 ADD PUSH2 0x2842 JUMP JUMPDEST SWAP2 PUSH1 0x64 CALLDATALOAD PUSH1 0x1 PUSH1 0x1 PUSH1 0x40 SHL SUB DUP2 GT PUSH2 0xD34 JUMPI PUSH2 0x149 SWAP1 CALLDATASIZE SWAP1 PUSH1 0x4 ADD PUSH2 0x2842 JUMP JUMPDEST SWAP1 PUSH1 0x84 CALLDATALOAD PUSH1 0x1 PUSH1 0x1 PUSH1 0x40 SHL SUB DUP2 GT PUSH2 0xD30 JUMPI PUSH2 0x169 SWAP1 CALLDATASIZE SWAP1 PUSH1 0x4 ADD PUSH2 0x2842 JUMP JUMPDEST SWAP2 PUSH1 0xA4 CALLDATALOAD PUSH1 0x1 PUSH1 0x1 PUSH1 0x40 SHL SUB DUP2 GT PUSH2 0xD2C JUMPI PUSH2 0x189 SWAP1 CALLDATASIZE SWAP1 PUSH1 0x4 ADD PUSH2 0x2842 JUMP JUMPDEST PUSH1 0xC4 CALLDATALOAD PUSH1 0x1 PUSH1 0x1 PUSH1 0x40 SHL SUB DUP2 GT PUSH2 0xD28 JUMPI PUSH2 0x1A8 SWAP1 CALLDATASIZE SWAP1 PUSH1 0x4 ADD PUSH2 0x2842 JUMP JUMPDEST SWAP1 PUSH2 0x1B1 PUSH2 0x2B3D JUMP JUMPDEST PUSH1 0x3 SLOAD SWAP5 PUSH2 0x1BE DUP7 PUSH2 0x298E JUMP JUMPDEST PUSH1 0x3 SSTORE PUSH1 0x40 MLOAD SWAP8 PUSH2 0x1CE DUP10 PUSH2 0x27D6 JUMP JUMPDEST DUP6 DUP10 MSTORE PUSH1 0x20 DUP10 ADD MSTORE PUSH1 0x44 CALLDATALOAD PUSH1 0x40 DUP10 ADD MSTORE DUP4 PUSH1 0x60 DUP10 ADD MSTORE PUSH1 0x80 DUP9 ADD MSTORE PUSH1 0xA0 DUP8 ADD MSTORE PUSH1 0xC0 DUP7 ADD MSTORE PUSH1 0x20 SWAP5 PUSH1 0x40 MLOAD PUSH2 0x203 DUP8 DUP3 PUSH2 0x2806 JUMP JUMPDEST DUP6 DUP2 MSTORE PUSH1 0xE0 DUP3 ADD MSTORE PUSH1 0x40 MLOAD PUSH2 0x218 DUP8 DUP3 PUSH2 0x2806 JUMP JUMPDEST DUP6 DUP2 MSTORE PUSH2 0x100 DUP3 ADD MSTORE DUP5 PUSH2 0x120 DUP3 ADD MSTORE PUSH1 0x40 MLOAD PUSH2 0x235 DUP8 DUP3 PUSH2 0x2806 JUMP JUMPDEST DUP6 DUP2 MSTORE PUSH2 0x140 DUP3 ADD MSTORE DUP5 PUSH2 0x160 DUP3 ADD MSTORE PUSH1 0x1 PUSH2 0x180 DUP3 ADD MSTORE DUP5 PUSH2 0x1A0 DUP3 ADD MSTORE DUP4 DUP6 MSTORE PUSH1 0x1 DUP7 MSTORE PUSH1 0x40 DUP6 KECCAK256 SWAP5 DUP2 MLOAD DUP1 MLOAD SWAP1 PUSH1 0x1 PUSH1 0x1 PUSH1 0x40 SHL SUB DUP3 GT PUSH2 0x7D1 JUMPI DUP2 SWAP1 PUSH2 0x27F DUP10 SLOAD PUSH2 0x289E JUMP JUMPDEST PUSH1 0x1F DUP2 GT PUSH2 0xCDD JUMPI JUMPDEST POP DUP10 SWAP1 PUSH1 0x1F DUP4 GT PUSH1 0x1 EQ PUSH2 0xC76 JUMPI DUP5 SWAP3 PUSH2 0xC6B JUMPI JUMPDEST POP POP DUP2 PUSH1 0x1 SHL SWAP2 PUSH0 NOT SWAP1 PUSH1 0x3 SHL SHR NOT AND OR DUP7 SSTORE JUMPDEST PUSH1 0x20 DUP3 ADD MLOAD DUP1 MLOAD SWAP1 PUSH1 0x1 PUSH1 0x1 PUSH1 0x40 SHL SUB DUP3 GT PUSH2 0x7D1 JUMPI DUP2 SWAP1 PUSH2 0x2D6 PUSH1 0x1 DUP11 ADD SLOAD PUSH2 0x289E JUMP JUMPDEST PUSH1 0x1F DUP2 GT PUSH2 0xC1D JUMPI JUMPDEST POP DUP10 SWAP1 PUSH1 0x1F DUP4 GT PUSH1 0x1 EQ PUSH2 0xBB5 JUMPI DUP5 SWAP3 PUSH2 0xBAA JUMPI JUMPDEST POP POP DUP2 PUSH1 0x1 SHL SWAP2 PUSH0 NOT SWAP1 PUSH1 0x3 SHL SHR NOT AND OR PUSH1 0x1 DUP8 ADD SSTORE JUMPDEST PUSH1 0x40 DUP3 ADD MLOAD PUSH1 0x2 DUP8 ADD SSTORE PUSH1 0x60 DUP3 ADD MLOAD DUP1 MLOAD SWAP1 PUSH1 0x1 PUSH1 0x1 PUSH1 0x40 SHL SUB DUP3 GT PUSH2 0x7D1 JUMPI DUP2 SWAP1 PUSH2 0x33A PUSH1 0x3 DUP11 ADD SLOAD PUSH2 0x289E JUMP JUMPDEST PUSH1 0x1F DUP2 GT PUSH2 0xB5C JUMPI JUMPDEST POP DUP10 SWAP1 PUSH1 0x1F DUP4 GT PUSH1 0x1 EQ PUSH2 0xAF4 JUMPI DUP5 SWAP3 PUSH2 0xAE9 JUMPI JUMPDEST POP POP DUP2 PUSH1 0x1 SHL SWAP2 PUSH0 NOT SWAP1 PUSH1 0x3 SHL SHR NOT AND OR PUSH1 0x3 DUP8 ADD SSTORE JUMPDEST PUSH1 0x80 DUP3 ADD MLOAD DUP1 MLOAD SWAP1 PUSH1 0x1 PUSH1 0x1 PUSH1 0x40 SHL SUB DUP3 GT PUSH2 0x7D1 JUMPI DUP2 SWAP1 PUSH2 0x394 PUSH1 0x4 DUP11 ADD SLOAD PUSH2 0x289E JUMP JUMPDEST PUSH1 0x1F DUP2 GT PUSH2 0xA9B JUMPI JUMPDEST POP DUP10 SWAP1 PUSH1 0x1F DUP4 GT PUSH1 0x1 EQ PUSH2 0xA33 JUMPI DUP5 SWAP3 PUSH2 0xA28 JUMPI JUMPDEST POP POP DUP2 PUSH1 0x1 SHL SWAP2 PUSH0 NOT SWAP1 PUSH1 0x3 SHL SHR NOT AND OR PUSH1 0x4 DUP8 ADD SSTORE JUMPDEST PUSH1 0xA0 DUP3 ADD MLOAD DUP1 MLOAD SWAP1 PUSH1 0x1 PUSH1 0x1 PUSH1 0x40 SHL SUB DUP3 GT PUSH2 0x7D1 JUMPI DUP2 SWAP1 PUSH2 0x3EE PUSH1 0x5 DUP11 ADD SLOAD PUSH2 0x289E JUMP JUMPDEST PUSH1 0x1F DUP2 GT PUSH2 0x9DA JUMPI JUMPDEST POP DUP10 SWAP1 PUSH1 0x1F DUP4 GT PUSH1 0x1 EQ PUSH2 0x972 JUMPI DUP5 SWAP3 PUSH2 0x967 JUMPI JUMPDEST POP POP DUP2 PUSH1 0x1 SHL SWAP2 PUSH0 NOT SWAP1 PUSH1 0x3 SHL SHR NOT AND OR PUSH1 0x5 DUP8 ADD SSTORE JUMPDEST PUSH1 0xC0 DUP3 ADD MLOAD DUP1 MLOAD SWAP1 PUSH1 0x1 PUSH1 0x1 PUSH1 0x40 SHL SUB DUP3 GT PUSH2 0x7D1 JUMPI DUP2 SWAP1 PUSH2 0x448 PUSH1 0x6 DUP11 ADD SLOAD PUSH2 0x289E JUMP JUMPDEST PUSH1 0x1F DUP2 GT PUSH2 0x919 JUMPI JUMPDEST POP DUP10 SWAP1 PUSH1 0x1F DUP4 GT PUSH1 0x1 EQ PUSH2 0x8B1 JUMPI DUP5 SWAP3 PUSH2 0x8A6 JUMPI JUMPDEST POP POP DUP2 PUSH1 0x1 SHL SWAP2 PUSH0 NOT SWAP1 PUSH1 0x3 SHL SHR NOT AND OR PUSH1 0x6 DUP8 ADD SSTORE JUMPDEST PUSH1 0xE0 DUP3 ADD MLOAD DUP1 MLOAD SWAP1 PUSH1 0x1 PUSH1 0x1 PUSH1 0x40 SHL SUB DUP3 GT PUSH2 0x7D1 JUMPI DUP2 SWAP1 PUSH2 0x4A2 PUSH1 0x7 DUP11 ADD SLOAD PUSH2 0x289E JUMP JUMPDEST PUSH1 0x1F DUP2 GT PUSH2 0x858 JUMPI JUMPDEST POP DUP10 SWAP1 PUSH1 0x1F DUP4 GT PUSH1 0x1 EQ PUSH2 0x7F0 JUMPI DUP5 SWAP3 PUSH2 0x7E5 JUMPI JUMPDEST POP POP DUP2 PUSH1 0x1 SHL SWAP2 PUSH0 NOT SWAP1 PUSH1 0x3 SHL SHR NOT AND OR PUSH1 0x7 DUP8 ADD SSTORE JUMPDEST PUSH2 0x100 DUP3 ADD MLOAD DUP1 MLOAD SWAP1 PUSH1 0x1 PUSH1 0x1 PUSH1 0x40 SHL SUB DUP3 GT PUSH2 0x7D1 JUMPI DUP2 SWAP1 PUSH2 0x4FD PUSH1 0x8 DUP11 ADD SLOAD PUSH2 0x289E JUMP JUMPDEST PUSH1 0x1F DUP2 GT PUSH2 0x780 JUMPI JUMPDEST POP DUP10 SWAP1 PUSH1 0x1F DUP4 GT PUSH1 0x1 EQ PUSH2 0x718 JUMPI DUP5 SWAP3 PUSH2 0x70D JUMPI JUMPDEST POP POP DUP2 PUSH1 0x1 SHL SWAP2 PUSH0 NOT SWAP1 PUSH1 0x3 SHL SHR NOT AND OR PUSH1 0x8 DUP8 ADD SSTORE JUMPDEST PUSH2 0x120 DUP3 ADD MLOAD PUSH1 0x9 DUP8 ADD SSTORE PUSH1 0xA DUP7 ADD SWAP1 PUSH2 0x140 DUP4 ADD MLOAD SWAP1 DUP2 MLOAD SWAP2 PUSH1 0x1 PUSH1 0x1 PUSH1 0x40 SHL SUB DUP4 GT PUSH2 0x6F9 JUMPI PUSH2 0x564 DUP5 SLOAD PUSH2 0x289E JUMP JUMPDEST PUSH1 0x1F DUP2 GT PUSH2 0x6B6 JUMPI JUMPDEST POP DUP10 SWAP2 PUSH1 0x1F DUP5 GT PUSH1 0x1 EQ PUSH2 0x635 JUMPI PUSH0 MLOAD PUSH1 0x20 PUSH2 0x2B64 PUSH0 CODECOPY PUSH0 MLOAD SWAP1 PUSH0 MSTORE SWAP8 SWAP6 PUSH2 0x61F SWAP6 DUP6 PUSH2 0x612 SWAP10 SWAP7 DUP13 SWAP14 SWAP7 PUSH1 0xC SWAP7 PUSH2 0x1A0 SWAP7 SWAP3 PUSH2 0x62A JUMPI JUMPDEST POP POP DUP2 PUSH1 0x1 SHL SWAP2 PUSH0 NOT SWAP1 PUSH1 0x3 SHL SHR NOT AND OR SWAP1 SSTORE JUMPDEST PUSH2 0x5F9 PUSH1 0xB DUP6 ADD PUSH2 0x5DD PUSH2 0x160 DUP5 ADD MLOAD ISZERO ISZERO DUP3 SWAP1 PUSH1 0xFF DUP1 NOT DUP4 SLOAD AND SWAP2 ISZERO ISZERO AND OR SWAP1 SSTORE JUMP JUMPDEST PUSH2 0x180 DUP4 ADD MLOAD DUP2 SLOAD PUSH2 0xFF00 NOT AND SWAP1 ISZERO ISZERO PUSH1 0x8 SHL PUSH2 0xFF00 AND OR SWAP1 SSTORE JUMP JUMPDEST ADD MLOAD SWAP2 ADD SSTORE PUSH1 0x40 MLOAD SWAP4 DUP5 SWAP4 PUSH1 0x40 DUP6 MSTORE PUSH1 0x40 DUP6 ADD SWAP1 PUSH2 0x27B2 JUMP JUMPDEST SWAP1 DUP4 DUP3 SUB DUP10 DUP6 ADD MSTORE PUSH2 0x27B2 JUMP JUMPDEST SUB SWAP1 LOG2 PUSH1 0x40 MLOAD SWAP1 DUP2 MSTORE RETURN JUMPDEST ADD MLOAD SWAP1 POP PUSH0 DUP1 PUSH2 0x5A5 JUMP JUMPDEST SWAP2 SWAP1 PUSH1 0x1F NOT DUP5 AND DUP6 DUP5 MSTORE DUP12 DUP5 KECCAK256 SWAP4 JUMPDEST DUP13 DUP3 DUP3 LT PUSH2 0x6A0 JUMPI POP POP SWAP6 PUSH2 0x61F SWAP6 PUSH1 0x1 DUP7 DUP13 SWAP14 SWAP7 PUSH1 0xC SWAP7 PUSH2 0x1A0 SWAP7 PUSH2 0x612 SWAP14 SWAP11 PUSH0 MLOAD PUSH1 0x20 PUSH2 0x2B64 PUSH0 CODECOPY PUSH0 MLOAD SWAP1 PUSH0 MSTORE SWAP16 SWAP14 LT PUSH2 0x688 JUMPI JUMPDEST POP POP POP DUP2 SHL ADD SWAP1 SSTORE PUSH2 0x5B9 JUMP JUMPDEST ADD MLOAD PUSH0 NOT PUSH1 0xF8 DUP5 PUSH1 0x3 SHL AND SHR NOT AND SWAP1 SSTORE PUSH0 DUP1 DUP1 PUSH2 0x67B JUMP JUMPDEST PUSH1 0x1 DUP6 SWAP7 DUP3 SWAP4 SWAP7 DUP7 ADD MLOAD DUP2 SSTORE ADD SWAP6 ADD SWAP4 ADD PUSH2 0x644 JUMP JUMPDEST DUP5 DUP4 MSTORE DUP11 DUP4 KECCAK256 PUSH1 0x1F DUP6 ADD PUSH1 0x5 SHR DUP2 ADD SWAP2 DUP13 DUP7 LT PUSH2 0x6EF JUMPI JUMPDEST PUSH1 0x1F ADD PUSH1 0x5 SHR ADD SWAP1 JUMPDEST DUP2 DUP2 LT PUSH2 0x6E4 JUMPI POP PUSH2 0x56D JUMP JUMPDEST DUP4 DUP2 SSTORE PUSH1 0x1 ADD PUSH2 0x6D7 JUMP JUMPDEST SWAP1 SWAP2 POP DUP2 SWAP1 PUSH2 0x6CE JUMP JUMPDEST PUSH4 0x4E487B71 PUSH1 0xE0 SHL DUP3 MSTORE PUSH1 0x41 PUSH1 0x4 MSTORE PUSH1 0x24 DUP3 REVERT JUMPDEST ADD MLOAD SWAP1 POP PUSH0 DUP1 PUSH2 0x51B JUMP JUMPDEST PUSH1 0x8 DUP11 ADD DUP6 MSTORE DUP11 DUP6 KECCAK256 SWAP3 POP PUSH1 0x1F NOT DUP5 AND DUP6 JUMPDEST DUP13 DUP3 DUP3 LT PUSH2 0x76A JUMPI POP POP SWAP1 DUP5 PUSH1 0x1 SWAP6 SWAP5 SWAP4 SWAP3 LT PUSH2 0x752 JUMPI JUMPDEST POP POP POP DUP2 SHL ADD PUSH1 0x8 DUP8 ADD SSTORE PUSH2 0x532 JUMP JUMPDEST ADD MLOAD PUSH0 NOT PUSH1 0xF8 DUP5 PUSH1 0x3 SHL AND SHR NOT AND SWAP1 SSTORE PUSH0 DUP1 DUP1 PUSH2 0x742 JUMP JUMPDEST PUSH1 0x1 DUP6 SWAP7 DUP3 SWAP4 SWAP7 DUP7 ADD MLOAD DUP2 SSTORE ADD SWAP6 ADD SWAP4 ADD PUSH2 0x72A JUMP JUMPDEST SWAP1 SWAP2 POP PUSH1 0x8 DUP10 ADD DUP5 MSTORE DUP10 DUP5 KECCAK256 PUSH1 0x1F DUP5 ADD PUSH1 0x5 SHR DUP2 ADD SWAP2 DUP12 DUP6 LT PUSH2 0x7C7 JUMPI JUMPDEST SWAP1 PUSH1 0x1F DUP6 SWAP5 SWAP4 SWAP3 ADD PUSH1 0x5 SHR ADD SWAP1 JUMPDEST DUP2 DUP2 LT PUSH2 0x7B9 JUMPI POP PUSH2 0x506 JUMP JUMPDEST DUP6 DUP2 SSTORE DUP5 SWAP4 POP PUSH1 0x1 ADD PUSH2 0x7AC JUMP JUMPDEST SWAP1 SWAP2 POP DUP2 SWAP1 PUSH2 0x79E JUMP JUMPDEST PUSH4 0x4E487B71 PUSH1 0xE0 SHL DUP4 MSTORE PUSH1 0x41 PUSH1 0x4 MSTORE PUSH1 0x24 DUP4 REVERT JUMPDEST ADD MLOAD SWAP1 POP PUSH0 DUP1 PUSH2 0x4C0 JUMP JUMPDEST PUSH1 0x7 DUP11 ADD DUP6 MSTORE DUP11 DUP6 KECCAK256 SWAP3 POP PUSH1 0x1F NOT DUP5 AND DUP6 JUMPDEST DUP13 DUP3 DUP3 LT PUSH2 0x842 JUMPI POP POP SWAP1 DUP5 PUSH1 0x1 SWAP6 SWAP5 SWAP4 SWAP3 LT PUSH2 0x82A JUMPI JUMPDEST POP POP POP DUP2 SHL ADD PUSH1 0x7 DUP8 ADD SSTORE PUSH2 0x4D7 JUMP JUMPDEST ADD MLOAD PUSH0 NOT PUSH1 0xF8 DUP5 PUSH1 0x3 SHL AND SHR NOT AND SWAP1 SSTORE PUSH0 DUP1 DUP1 PUSH2 0x81A JUMP JUMPDEST PUSH1 0x1 DUP6 SWAP7 DUP3 SWAP4 SWAP7 DUP7 ADD MLOAD DUP2 SSTORE ADD SWAP6 ADD SWAP4 ADD PUSH2 0x802 JUMP JUMPDEST SWAP1 SWAP2 POP PUSH1 0x7 DUP10 ADD DUP5 MSTORE DUP10 DUP5 KECCAK256 PUSH1 0x1F DUP5 ADD PUSH1 0x5 SHR DUP2 ADD DUP12 DUP6 LT PUSH2 0x89F JUMPI JUMPDEST SWAP1 DUP5 SWAP4 SWAP3 SWAP2 JUMPDEST PUSH1 0x1F DUP4 ADD PUSH1 0x5 SHR DUP3 ADD DUP2 LT PUSH2 0x891 JUMPI POP POP PUSH2 0x4AB JUMP JUMPDEST DUP7 DUP2 SSTORE DUP6 SWAP5 POP PUSH1 0x1 ADD PUSH2 0x87B JUMP JUMPDEST POP DUP1 PUSH2 0x875 JUMP JUMPDEST ADD MLOAD SWAP1 POP PUSH0 DUP1 PUSH2 0x466 JUMP JUMPDEST PUSH1 0x6 DUP11 ADD DUP6 MSTORE DUP11 DUP6 KECCAK256 SWAP3 POP PUSH1 0x1F NOT DUP5 AND DUP6 JUMPDEST DUP13 DUP3 DUP3 LT PUSH2 0x903 JUMPI POP POP SWAP1 DUP5 PUSH1 0x1 SWAP6 SWAP5 SWAP4 SWAP3 LT PUSH2 0x8EB JUMPI JUMPDEST POP POP POP DUP2 SHL ADD PUSH1 0x6 DUP8 ADD SSTORE PUSH2 0x47D JUMP JUMPDEST ADD MLOAD PUSH0 NOT PUSH1 0xF8 DUP5 PUSH1 0x3 SHL AND SHR NOT AND SWAP1 SSTORE PUSH0 DUP1 DUP1 PUSH2 0x8DB JUMP JUMPDEST PUSH1 0x1 DUP6 SWAP7 DUP3 SWAP4 SWAP7 DUP7 ADD MLOAD DUP2 SSTORE ADD SWAP6 ADD SWAP4 ADD PUSH2 0x8C3 JUMP JUMPDEST SWAP1 SWAP2 POP PUSH1 0x6 DUP10 ADD DUP5 MSTORE DUP10 DUP5 KECCAK256 PUSH1 0x1F DUP5 ADD PUSH1 0x5 SHR DUP2 ADD DUP12 DUP6 LT PUSH2 0x960 JUMPI JUMPDEST SWAP1 DUP5 SWAP4 SWAP3 SWAP2 JUMPDEST PUSH1 0x1F DUP4 ADD PUSH1 0x5 SHR DUP3 ADD DUP2 LT PUSH2 0x952 JUMPI POP POP PUSH2 0x451 JUMP JUMPDEST DUP7 DUP2 SSTORE DUP6 SWAP5 POP PUSH1 0x1 ADD PUSH2 0x93C JUMP JUMPDEST POP DUP1 PUSH2 0x936 JUMP JUMPDEST ADD MLOAD SWAP1 POP PUSH0 DUP1 PUSH2 0x40C JUMP JUMPDEST PUSH1 0x5 DUP11 ADD DUP6 MSTORE DUP11 DUP6 KECCAK256 SWAP3 POP PUSH1 0x1F NOT DUP5 AND DUP6 JUMPDEST DUP13 DUP3 DUP3 LT PUSH2 0x9C4 JUMPI POP POP SWAP1 DUP5 PUSH1 0x1 SWAP6 SWAP5 SWAP4 SWAP3 LT PUSH2 0x9AC JUMPI JUMPDEST POP POP POP DUP2 SHL ADD PUSH1 0x5 DUP8 ADD SSTORE PUSH2 0x423 JUMP JUMPDEST ADD MLOAD PUSH0 NOT PUSH1 0xF8 DUP5 PUSH1 0x3 SHL AND SHR NOT AND SWAP1 SSTORE PUSH0 DUP1 DUP1 PUSH2 0x99C JUMP JUMPDEST PUSH1 0x1 DUP6 SWAP7 DUP3 SWAP4 SWAP7 DUP7 ADD MLOAD DUP2 SSTORE ADD SWAP6 ADD SWAP4 ADD PUSH2 0x984 JUMP JUMPDEST SWAP1 SWAP2 POP PUSH1 0x5 DUP10 ADD DUP5 MSTORE DUP10 DUP5 KECCAK256 PUSH1 0x1F DUP5 ADD PUSH1 0x5 SHR DUP2 ADD DUP12 DUP6 LT PUSH2 0xA21 JUMPI JUMPDEST SWAP1 DUP5 SWAP4 SWAP3 SWAP2 JUMPDEST PUSH1 0x1F DUP4 ADD PUSH1 0x5 SHR DUP3 ADD DUP2 LT PUSH2 0xA13 JUMPI POP POP PUSH2 0x3F7 JUMP JUMPDEST DUP7 DUP2 SSTORE DUP6 SWAP5 POP PUSH1 0x1 ADD PUSH2 0x9FD JUMP JUMPDEST POP DUP1 PUSH2 0x9F7 JUMP JUMPDEST ADD MLOAD SWAP1 POP PUSH0 DUP1 PUSH2 0x3B2 JUMP JUMPDEST PUSH1 0x4 DUP11 ADD DUP6 MSTORE DUP11 DUP6 KECCAK256 SWAP3 POP PUSH1 0x1F NOT DUP5 AND DUP6 JUMPDEST DUP13 DUP3 DUP3 LT PUSH2 0xA85 JUMPI POP POP SWAP1 DUP5 PUSH1 0x1 SWAP6 SWAP5 SWAP4 SWAP3 LT PUSH2 0xA6D JUMPI JUMPDEST POP POP POP DUP2 SHL ADD PUSH1 0x4 DUP8 ADD SSTORE PUSH2 0x3C9 JUMP JUMPDEST ADD MLOAD PUSH0 NOT PUSH1 0xF8 DUP5 PUSH1 0x3 SHL AND SHR NOT AND SWAP1 SSTORE PUSH0 DUP1 DUP1 PUSH2 0xA5D JUMP JUMPDEST PUSH1 0x1 DUP6 SWAP7 DUP3 SWAP4 SWAP7 DUP7 ADD MLOAD DUP2 SSTORE ADD SWAP6 ADD SWAP4 ADD PUSH2 0xA45 JUMP JUMPDEST SWAP1 SWAP2 POP PUSH1 0x4 DUP10 ADD DUP5 MSTORE DUP10 DUP5 KECCAK256 PUSH1 0x1F DUP5 ADD PUSH1 0x5 SHR DUP2 ADD DUP12 DUP6 LT PUSH2 0xAE2 JUMPI JUMPDEST SWAP1 DUP5 SWAP4 SWAP3 SWAP2 JUMPDEST PUSH1 0x1F DUP4 ADD PUSH1 0x5 SHR DUP3 ADD DUP2 LT PUSH2 0xAD4 JUMPI POP POP PUSH2 0x39D JUMP JUMPDEST DUP7 DUP2 SSTORE DUP6 SWAP5 POP PUSH1 0x1 ADD PUSH2 0xABE JUMP JUMPDEST POP DUP1 PUSH2 0xAB8 JUMP JUMPDEST ADD MLOAD SWAP1 POP PUSH0 DUP1 PUSH2 0x358 JUMP JUMPDEST PUSH1 0x3 DUP11 ADD DUP6 MSTORE DUP11 DUP6 KECCAK256 SWAP3 POP PUSH1 0x1F NOT DUP5 AND DUP6 JUMPDEST DUP13 DUP3 DUP3 LT PUSH2 0xB46 JUMPI POP POP SWAP1 DUP5 PUSH1 0x1 SWAP6 SWAP5 SWAP4 SWAP3 LT PUSH2 0xB2E JUMPI JUMPDEST POP POP POP DUP2 SHL ADD PUSH1 0x3 DUP8 ADD SSTORE PUSH2 0x36F JUMP JUMPDEST ADD MLOAD PUSH0 NOT PUSH1 0xF8 DUP5 PUSH1 0x3 SHL AND SHR NOT AND SWAP1 SSTORE PUSH0 DUP1 DUP1 PUSH2 0xB1E JUMP JUMPDEST PUSH1 0x1 DUP6 SWAP7 DUP3 SWAP4 SWAP7 DUP7 ADD MLOAD DUP2 SSTORE ADD SWAP6 ADD SWAP4 ADD PUSH2 0xB06 JUMP JUMPDEST SWAP1 SWAP2 POP PUSH1 0x3 DUP10 ADD DUP5 MSTORE DUP10 DUP5 KECCAK256 PUSH1 0x1F DUP5 ADD PUSH1 0x5 SHR DUP2 ADD DUP12 DUP6 LT PUSH2 0xBA3 JUMPI JUMPDEST SWAP1 DUP5 SWAP4 SWAP3 SWAP2 JUMPDEST PUSH1 0x1F DUP4 ADD PUSH1 0x5 SHR DUP3 ADD DUP2 LT PUSH2 0xB95 JUMPI POP POP PUSH2 0x343 JUMP JUMPDEST DUP7 DUP2 SSTORE DUP6 SWAP5 POP PUSH1 0x1 ADD PUSH2 0xB7F JUMP JUMPDEST POP DUP1 PUSH2 0xB79 JUMP JUMPDEST ADD MLOAD SWAP1 POP PUSH0 DUP1 PUSH2 0x2F4 JUMP JUMPDEST PUSH1 0x1 DUP11 ADD DUP6 MSTORE DUP11 DUP6 KECCAK256 SWAP3 POP PUSH1 0x1F NOT DUP5 AND DUP6 JUMPDEST DUP13 DUP3 DUP3 LT PUSH2 0xC07 JUMPI POP POP SWAP1 DUP5 PUSH1 0x1 SWAP6 SWAP5 SWAP4 SWAP3 LT PUSH2 0xBEF JUMPI JUMPDEST POP POP POP DUP2 SHL ADD PUSH1 0x1 DUP8 ADD SSTORE PUSH2 0x30B JUMP JUMPDEST ADD MLOAD PUSH0 NOT PUSH1 0xF8 DUP5 PUSH1 0x3 SHL AND SHR NOT AND SWAP1 SSTORE PUSH0 DUP1 DUP1 PUSH2 0xBDF JUMP JUMPDEST PUSH1 0x1 DUP6 SWAP7 DUP3 SWAP4 SWAP7 DUP7 ADD MLOAD DUP2 SSTORE ADD SWAP6 ADD SWAP4 ADD PUSH2 0xBC7 JUMP JUMPDEST SWAP1 SWAP2 POP PUSH1 0x1 DUP10 ADD DUP5 MSTORE DUP10 DUP5 KECCAK256 PUSH1 0x1F DUP5 ADD PUSH1 0x5 SHR DUP2 ADD DUP12 DUP6 LT PUSH2 0xC64 JUMPI JUMPDEST SWAP1 DUP5 SWAP4 SWAP3 SWAP2 JUMPDEST PUSH1 0x1F DUP4 ADD PUSH1 0x5 SHR DUP3 ADD DUP2 LT PUSH2 0xC56 JUMPI POP POP PUSH2 0x2DF JUMP JUMPDEST DUP7 DUP2 SSTORE DUP6 SWAP5 POP PUSH1 0x1 ADD PUSH2 0xC40 JUMP JUMPDEST POP DUP1 PUSH2 0xC3A JUMP JUMPDEST ADD MLOAD SWAP1 POP PUSH0 DUP1 PUSH2 0x29D JUMP JUMPDEST SWAP3 POP DUP9 DUP5 MSTORE DUP10 DUP5 KECCAK256 SWAP1 DUP5 SWAP4 JUMPDEST DUP12 PUSH1 0x1F NOT DUP6 AND DUP7 LT PUSH2 0xCC4 JUMPI POP PUSH1 0x1 SWAP5 POP DUP4 PUSH1 0x1F NOT DUP2 AND LT PUSH2 0xCAC JUMPI JUMPDEST POP POP POP DUP2 SHL ADD DUP7 SSTORE PUSH2 0x2B1 JUMP JUMPDEST ADD MLOAD PUSH0 NOT PUSH1 0xF8 DUP5 PUSH1 0x3 SHL AND SHR NOT AND SWAP1 SSTORE PUSH0 DUP1 DUP1 PUSH2 0xC9F JUMP JUMPDEST DUP3 DUP3 ADD MLOAD DUP5 SSTORE SWAP5 DUP6 ADD SWAP5 PUSH1 0x1 SWAP1 SWAP4 ADD SWAP3 SWAP1 SWAP2 ADD SWAP1 PUSH2 0xC82 JUMP JUMPDEST SWAP1 SWAP2 POP DUP9 DUP5 MSTORE DUP10 DUP5 KECCAK256 PUSH1 0x1F DUP5 ADD PUSH1 0x5 SHR DUP2 ADD DUP12 DUP6 LT PUSH2 0xD21 JUMPI JUMPDEST SWAP1 DUP5 SWAP4 SWAP3 SWAP2 JUMPDEST PUSH1 0x1F DUP4 ADD PUSH1 0x5 SHR DUP3 ADD DUP2 LT PUSH2 0xD13 JUMPI POP POP PUSH2 0x288 JUMP JUMPDEST DUP7 DUP2 SSTORE DUP6 SWAP5 POP PUSH1 0x1 ADD PUSH2 0xCFD JUMP JUMPDEST POP DUP1 PUSH2 0xCF7 JUMP JUMPDEST DUP6 DUP1 REVERT JUMPDEST DUP5 DUP1 REVERT JUMPDEST DUP4 DUP1 REVERT JUMPDEST DUP3 DUP1 REVERT JUMPDEST POP JUMPDEST DUP1 REVERT JUMPDEST POP CALLVALUE PUSH2 0xD3A JUMPI PUSH1 0x40 CALLDATASIZE PUSH1 0x3 NOT ADD SLT PUSH2 0xD3A JUMPI PUSH1 0x20 SWAP1 PUSH1 0xFF SWAP1 PUSH1 0x40 SWAP1 PUSH1 0x1 PUSH1 0x1 PUSH1 0xA0 SHL SUB PUSH2 0xD68 PUSH2 0x2888 JUMP JUMPDEST AND DUP2 MSTORE PUSH1 0x2 DUP5 MSTORE DUP2 DUP2 KECCAK256 PUSH1 0x24 CALLDATALOAD DUP3 MSTORE DUP5 MSTORE KECCAK256 SLOAD AND PUSH1 0x40 MLOAD SWAP1 ISZERO ISZERO DUP2 MSTORE RETURN JUMPDEST POP CALLVALUE PUSH2 0xD3A JUMPI PUSH1 0x20 CALLDATASIZE PUSH1 0x3 NOT ADD SLT PUSH2 0xD3A JUMPI PUSH2 0xDA0 PUSH2 0x2888 JUMP JUMPDEST PUSH2 0xDA8 PUSH2 0x2B3D JUMP JUMPDEST PUSH1 0x1 PUSH1 0x1 PUSH1 0xA0 SHL SUB AND DUP1 ISZERO PUSH2 0xDF8 JUMPI DUP2 SLOAD PUSH1 0x1 PUSH1 0x1 PUSH1 0xA0 SHL SUB NOT DUP2 AND DUP3 OR DUP4 SSTORE PUSH1 0x1 PUSH1 0x1 PUSH1 0xA0 SHL SUB AND PUSH32 0x8BE0079C531659141344CD1FD0A4F28419497F9722A3DAAFE3B4186F6B6457E0 DUP4 DUP1 LOG3 DUP1 RETURN JUMPDEST PUSH4 0x1E4FBDF7 PUSH1 0xE0 SHL DUP3 MSTORE PUSH1 0x4 DUP3 SWAP1 MSTORE PUSH1 0x24 DUP3 REVERT JUMPDEST POP CALLVALUE PUSH2 0xD3A JUMPI PUSH1 0x20 CALLDATASIZE PUSH1 0x3 NOT ADD SLT PUSH2 0xD3A JUMPI PUSH1 0x4 CALLDATALOAD PUSH2 0xE29 PUSH2 0x2B3D JUMP JUMPDEST DUP1 DUP3 MSTORE PUSH1 0x1 PUSH1 0x20 MSTORE PUSH1 0xFF PUSH1 0xB PUSH1 0x40 DUP5 KECCAK256 ADD SLOAD PUSH1 0x8 SHR AND ISZERO PUSH2 0xE5E JUMPI DUP2 MSTORE PUSH1 0x1 PUSH1 0x20 MSTORE PUSH1 0x40 DUP2 KECCAK256 PUSH1 0xB ADD DUP1 SLOAD PUSH2 0xFF00 NOT AND SWAP1 SSTORE DUP1 RETURN JUMPDEST PUSH1 0x40 MLOAD PUSH3 0x461BCD PUSH1 0xE5 SHL DUP2 MSTORE PUSH1 0x20 PUSH1 0x4 DUP3 ADD MSTORE PUSH1 0x16 PUSH1 0x24 DUP3 ADD MSTORE PUSH22 0x517565737420616C726561647920696E616374697665 PUSH1 0x50 SHL PUSH1 0x44 DUP3 ADD MSTORE PUSH1 0x64 SWAP1 REVERT JUMPDEST POP CALLVALUE PUSH2 0xD3A JUMPI PUSH1 0x20 CALLDATASIZE PUSH1 0x3 NOT ADD SLT PUSH2 0xD3A JUMPI PUSH1 0x4 CALLDATALOAD DUP2 MSTORE PUSH1 0x1 PUSH1 0x20 MSTORE PUSH1 0x40 SWAP1 KECCAK256 PUSH2 0xEC5 DUP2 PUSH2 0x28D6 JUMP JUMPDEST PUSH2 0xED1 PUSH1 0x1 DUP4 ADD PUSH2 0x28D6 JUMP JUMPDEST SWAP2 PUSH1 0x2 DUP2 ADD SLOAD PUSH1 0x3 DUP3 ADD PUSH2 0xEE4 SWAP1 PUSH2 0x28D6 JUMP JUMPDEST PUSH2 0xEF0 PUSH1 0x4 DUP5 ADD PUSH2 0x28D6 JUMP JUMPDEST PUSH2 0xEFC PUSH1 0x5 DUP6 ADD PUSH2 0x28D6 JUMP JUMPDEST PUSH2 0xF08 PUSH1 0x6 DUP7 ADD PUSH2 0x28D6 JUMP JUMPDEST PUSH2 0xF14 PUSH1 0x7 DUP8 ADD PUSH2 0x28D6 JUMP JUMPDEST SWAP1 PUSH2 0xF21 PUSH1 0x8 DUP9 ADD PUSH2 0x28D6 JUMP JUMPDEST SWAP3 PUSH1 0x9 DUP9 ADD SLOAD SWAP5 PUSH1 0xA DUP10 ADD PUSH2 0xF35 SWAP1 PUSH2 0x28D6 JUMP JUMPDEST SWAP7 PUSH1 0xB DUP11 ADD SLOAD SWAP10 PUSH1 0xC ADD SLOAD SWAP9 PUSH1 0x40 MLOAD SWAP13 DUP14 SWAP13 DUP14 PUSH2 0x1C0 DUP2 MSTORE PUSH2 0x1C0 ADD PUSH2 0xF5A SWAP2 PUSH2 0x27B2 JUMP JUMPDEST DUP14 DUP2 SUB PUSH1 0x20 DUP16 ADD MSTORE PUSH2 0xF6B SWAP2 PUSH2 0x27B2 JUMP JUMPDEST SWAP1 PUSH1 0x40 DUP14 ADD MSTORE DUP12 DUP2 SUB PUSH1 0x60 DUP14 ADD MSTORE PUSH2 0xF82 SWAP2 PUSH2 0x27B2 JUMP JUMPDEST DUP11 DUP2 SUB PUSH1 0x80 DUP13 ADD MSTORE PUSH2 0xF93 SWAP2 PUSH2 0x27B2 JUMP JUMPDEST DUP10 DUP2 SUB PUSH1 0xA0 DUP12 ADD MSTORE PUSH2 0xFA4 SWAP2 PUSH2 0x27B2 JUMP JUMPDEST DUP9 DUP2 SUB PUSH1 0xC0 DUP11 ADD MSTORE PUSH2 0xFB5 SWAP2 PUSH2 0x27B2 JUMP JUMPDEST DUP8 DUP2 SUB PUSH1 0xE0 DUP10 ADD MSTORE PUSH2 0xFC6 SWAP2 PUSH2 0x27B2 JUMP JUMPDEST DUP7 DUP2 SUB PUSH2 0x100 DUP9 ADD MSTORE PUSH2 0xFD8 SWAP2 PUSH2 0x27B2 JUMP JUMPDEST SWAP1 PUSH2 0x120 DUP7 ADD MSTORE DUP5 DUP2 SUB PUSH2 0x140 DUP7 ADD MSTORE PUSH2 0xFF1 SWAP2 PUSH2 0x27B2 JUMP JUMPDEST SWAP2 PUSH1 0xFF DUP2 AND ISZERO ISZERO PUSH2 0x160 DUP6 ADD MSTORE PUSH1 0x8 SHR PUSH1 0xFF AND ISZERO ISZERO PUSH2 0x180 DUP5 ADD MSTORE PUSH2 0x1A0 DUP4 ADD MSTORE SUB SWAP1 RETURN JUMPDEST POP CALLVALUE PUSH2 0xD3A JUMPI DUP1 PUSH1 0x3 NOT CALLDATASIZE ADD SLT PUSH2 0xD3A JUMPI PUSH1 0x4 SLOAD PUSH1 0x5 SLOAD PUSH1 0x6 SLOAD PUSH1 0x40 DUP1 MLOAD PUSH1 0x1 PUSH1 0x1 PUSH1 0xA0 SHL SUB SWAP5 DUP6 AND DUP2 MSTORE SWAP3 DUP5 AND PUSH1 0x20 DUP5 ADD MSTORE SWAP3 AND SWAP2 DUP2 ADD SWAP2 SWAP1 SWAP2 MSTORE ADDRESS PUSH1 0x60 DUP3 ADD MSTORE PUSH1 0x80 SWAP1 RETURN JUMPDEST POP CALLVALUE PUSH2 0xD3A JUMPI DUP1 PUSH1 0x3 NOT CALLDATASIZE ADD SLT PUSH2 0xD3A JUMPI SLOAD PUSH1 0x40 MLOAD PUSH1 0x1 PUSH1 0x1 PUSH1 0xA0 SHL SUB SWAP1 SWAP2 AND DUP2 MSTORE PUSH1 0x20 SWAP1 RETURN JUMPDEST POP CALLVALUE PUSH2 0xD3A JUMPI DUP1 PUSH1 0x3 NOT CALLDATASIZE ADD SLT PUSH2 0xD3A JUMPI PUSH1 0x20 PUSH1 0x3 SLOAD PUSH1 0x40 MLOAD SWAP1 DUP2 MSTORE RETURN JUMPDEST POP CALLVALUE PUSH2 0xD3A JUMPI DUP1 PUSH1 0x3 NOT CALLDATASIZE ADD SLT PUSH2 0xD3A JUMPI PUSH2 0x10BB PUSH2 0x2B3D JUMP JUMPDEST DUP1 SLOAD PUSH1 0x1 PUSH1 0x1 PUSH1 0xA0 SHL SUB NOT DUP2 AND DUP3 SSTORE DUP2 SWAP1 PUSH1 0x1 PUSH1 0x1 PUSH1 0xA0 SHL SUB AND PUSH32 0x8BE0079C531659141344CD1FD0A4F28419497F9722A3DAAFE3B4186F6B6457E0 DUP3 DUP1 LOG3 DUP1 RETURN JUMPDEST POP CALLVALUE PUSH2 0xD3A JUMPI PUSH2 0x120 CALLDATASIZE PUSH1 0x3 NOT ADD SLT PUSH2 0xD3A JUMPI PUSH1 0x4 CALLDATALOAD PUSH1 0x1 PUSH1 0x1 PUSH1 0x40 SHL SUB DUP2 GT PUSH2 0xD38 JUMPI PUSH2 0x112E SWAP1 CALLDATASIZE SWAP1 PUSH1 0x4 ADD PUSH2 0x2842 JUMP JUMPDEST PUSH1 0x24 CALLDATALOAD PUSH1 0x1 PUSH1 0x1 PUSH1 0x40 SHL SUB DUP2 GT PUSH2 0xD34 JUMPI PUSH2 0x114D SWAP1 CALLDATASIZE SWAP1 PUSH1 0x4 ADD PUSH2 0x2842 JUMP JUMPDEST PUSH1 0x64 CALLDATALOAD PUSH1 0x1 PUSH1 0x1 PUSH1 0x40 SHL SUB DUP2 GT PUSH2 0xD30 JUMPI PUSH2 0x116C SWAP1 CALLDATASIZE SWAP1 PUSH1 0x4 ADD PUSH2 0x2842 JUMP JUMPDEST SWAP1 PUSH1 0x84 CALLDATALOAD PUSH1 0x1 PUSH1 0x1 PUSH1 0x40 SHL SUB DUP2 GT PUSH2 0xD2C JUMPI PUSH2 0x118C SWAP1 CALLDATASIZE SWAP1 PUSH1 0x4 ADD PUSH2 0x2842 JUMP JUMPDEST SWAP3 PUSH1 0xC4 CALLDATALOAD PUSH1 0x1 PUSH1 0x1 PUSH1 0x40 SHL SUB DUP2 GT PUSH2 0xD28 JUMPI PUSH2 0x11AC SWAP1 CALLDATASIZE SWAP1 PUSH1 0x4 ADD PUSH2 0x2842 JUMP JUMPDEST PUSH1 0xE4 CALLDATALOAD SWAP1 DUP2 ISZERO ISZERO DUP3 SUB PUSH2 0x1D55 JUMPI PUSH2 0x104 CALLDATALOAD PUSH1 0x1 PUSH1 0x1 PUSH1 0x40 SHL SUB DUP2 GT PUSH2 0x1D51 JUMPI PUSH2 0x11D9 SWAP1 CALLDATASIZE SWAP1 PUSH1 0x4 ADD PUSH2 0x2842 JUMP JUMPDEST SWAP6 PUSH2 0x11E2 PUSH2 0x2B3D JUMP JUMPDEST PUSH1 0x3 SLOAD SWAP6 PUSH2 0x11EF DUP8 PUSH2 0x298E JUMP JUMPDEST PUSH1 0x3 SSTORE PUSH1 0x40 MLOAD SWAP6 PUSH2 0x11FF DUP8 PUSH2 0x27D6 JUMP JUMPDEST DUP6 DUP8 MSTORE PUSH1 0x20 DUP8 ADD MSTORE PUSH1 0x44 CALLDATALOAD PUSH1 0x40 DUP8 ADD MSTORE PUSH2 0x1217 PUSH2 0x2A31 JUMP JUMPDEST PUSH1 0x60 DUP8 ADD MSTORE PUSH1 0x20 SWAP8 PUSH1 0x40 MLOAD PUSH2 0x122C DUP11 DUP3 PUSH2 0x2806 JUMP JUMPDEST DUP11 DUP2 MSTORE PUSH1 0x80 DUP9 ADD MSTORE PUSH1 0x40 MLOAD PUSH2 0x1241 DUP11 DUP3 PUSH2 0x2806 JUMP JUMPDEST DUP11 DUP2 MSTORE PUSH1 0xA0 DUP9 ADD MSTORE PUSH1 0xC0 DUP8 ADD MSTORE PUSH1 0xE0 DUP7 ADD MSTORE PUSH2 0x100 DUP6 ADD MSTORE PUSH1 0xA4 CALLDATALOAD PUSH2 0x120 DUP6 ADD MSTORE PUSH2 0x140 DUP5 ADD MSTORE ISZERO ISZERO PUSH2 0x160 DUP4 ADD MSTORE PUSH1 0x1 PUSH2 0x180 DUP4 ADD MSTORE DUP5 PUSH2 0x1A0 DUP4 ADD MSTORE DUP3 DUP6 MSTORE PUSH1 0x1 DUP5 MSTORE PUSH1 0x40 DUP6 KECCAK256 DUP3 MLOAD DUP1 MLOAD SWAP1 PUSH1 0x1 PUSH1 0x1 PUSH1 0x40 SHL SUB DUP3 GT PUSH2 0x18A2 JUMPI DUP2 SWAP1 PUSH2 0x12A9 DUP5 SLOAD PUSH2 0x289E JUMP JUMPDEST PUSH1 0x1F DUP2 GT PUSH2 0x1D06 JUMPI JUMPDEST POP DUP8 SWAP1 PUSH1 0x1F DUP4 GT PUSH1 0x1 EQ PUSH2 0x1C9F JUMPI DUP10 SWAP3 PUSH2 0x1C94 JUMPI JUMPDEST POP POP DUP2 PUSH1 0x1 SHL SWAP2 PUSH0 NOT SWAP1 PUSH1 0x3 SHL SHR NOT AND OR DUP2 SSTORE JUMPDEST PUSH1 0x20 DUP4 ADD MLOAD DUP1 MLOAD SWAP1 PUSH1 0x1 PUSH1 0x1 PUSH1 0x40 SHL SUB DUP3 GT PUSH2 0x18A2 JUMPI DUP2 SWAP1 PUSH2 0x1300 PUSH1 0x1 DUP6 ADD SLOAD PUSH2 0x289E JUMP JUMPDEST PUSH1 0x1F DUP2 GT PUSH2 0x1C46 JUMPI JUMPDEST POP DUP8 SWAP1 PUSH1 0x1F DUP4 GT PUSH1 0x1 EQ PUSH2 0x1BD9 JUMPI DUP10 SWAP3 PUSH2 0x1BCE JUMPI JUMPDEST POP POP DUP2 PUSH1 0x1 SHL SWAP2 PUSH0 NOT SWAP1 PUSH1 0x3 SHL SHR NOT AND OR PUSH1 0x1 DUP3 ADD SSTORE JUMPDEST PUSH1 0x40 DUP4 ADD MLOAD PUSH1 0x2 DUP3 ADD SSTORE PUSH1 0x60 DUP4 ADD MLOAD DUP1 MLOAD SWAP1 PUSH1 0x1 PUSH1 0x1 PUSH1 0x40 SHL SUB DUP3 GT PUSH2 0x18A2 JUMPI DUP2 SWAP1 PUSH2 0x1364 PUSH1 0x3 DUP6 ADD SLOAD PUSH2 0x289E JUMP JUMPDEST PUSH1 0x1F DUP2 GT PUSH2 0x1B80 JUMPI JUMPDEST POP DUP8 SWAP1 PUSH1 0x1F DUP4 GT PUSH1 0x1 EQ PUSH2 0x1B13 JUMPI DUP10 SWAP3 PUSH2 0x1B08 JUMPI JUMPDEST POP POP DUP2 PUSH1 0x1 SHL SWAP2 PUSH0 NOT SWAP1 PUSH1 0x3 SHL SHR NOT AND OR PUSH1 0x3 DUP3 ADD SSTORE JUMPDEST PUSH1 0x80 DUP4 ADD MLOAD DUP1 MLOAD SWAP1 PUSH1 0x1 PUSH1 0x1 PUSH1 0x40 SHL SUB DUP3 GT PUSH2 0x18A2 JUMPI DUP2 SWAP1 PUSH2 0x13BE PUSH1 0x4 DUP6 ADD SLOAD PUSH2 0x289E JUMP JUMPDEST PUSH1 0x1F DUP2 GT PUSH2 0x1ABA JUMPI JUMPDEST POP DUP8 SWAP1 PUSH1 0x1F DUP4 GT PUSH1 0x1 EQ PUSH2 0x1A4D JUMPI DUP10 SWAP3 PUSH2 0x1A42 JUMPI JUMPDEST POP POP DUP2 PUSH1 0x1 SHL SWAP2 PUSH0 NOT SWAP1 PUSH1 0x3 SHL SHR NOT AND OR PUSH1 0x4 DUP3 ADD SSTORE JUMPDEST PUSH1 0xA0 DUP4 ADD MLOAD DUP1 MLOAD SWAP1 PUSH1 0x1 PUSH1 0x1 PUSH1 0x40 SHL SUB DUP3 GT PUSH2 0x18A2 JUMPI DUP2 SWAP1 PUSH2 0x1418 PUSH1 0x5 DUP6 ADD SLOAD PUSH2 0x289E JUMP JUMPDEST PUSH1 0x1F DUP2 GT PUSH2 0x19F4 JUMPI JUMPDEST POP DUP8 SWAP1 PUSH1 0x1F DUP4 GT PUSH1 0x1 EQ PUSH2 0x1987 JUMPI DUP10 SWAP3 PUSH2 0x197C JUMPI JUMPDEST POP POP DUP2 PUSH1 0x1 SHL SWAP2 PUSH0 NOT SWAP1 PUSH1 0x3 SHL SHR NOT AND OR PUSH1 0x5 DUP3 ADD SSTORE JUMPDEST PUSH1 0xC0 DUP4 ADD MLOAD DUP1 MLOAD SWAP1 PUSH1 0x1 PUSH1 0x1 PUSH1 0x40 SHL SUB DUP3 GT PUSH2 0x18A2 JUMPI DUP2 SWAP1 PUSH2 0x1472 PUSH1 0x6 DUP6 ADD SLOAD PUSH2 0x289E JUMP JUMPDEST PUSH1 0x1F DUP2 GT PUSH2 0x192E JUMPI JUMPDEST POP DUP8 SWAP1 PUSH1 0x1F DUP4 GT PUSH1 0x1 EQ PUSH2 0x18C1 JUMPI DUP10 SWAP3 PUSH2 0x18B6 JUMPI JUMPDEST POP POP DUP2 PUSH1 0x1 SHL SWAP2 PUSH0 NOT SWAP1 PUSH1 0x3 SHL SHR NOT AND OR PUSH1 0x6 DUP3 ADD SSTORE JUMPDEST PUSH1 0xE0 DUP4 ADD MLOAD DUP1 MLOAD SWAP1 PUSH1 0x1 PUSH1 0x1 PUSH1 0x40 SHL SUB DUP3 GT PUSH2 0x18A2 JUMPI DUP2 SWAP1 PUSH2 0x14CC PUSH1 0x7 DUP6 ADD SLOAD PUSH2 0x289E JUMP JUMPDEST PUSH1 0x1F DUP2 GT PUSH2 0x1851 JUMPI JUMPDEST POP DUP8 SWAP1 PUSH1 0x1F DUP4 GT PUSH1 0x1 EQ PUSH2 0x17E4 JUMPI DUP10 SWAP3 PUSH2 0x17D9 JUMPI JUMPDEST POP POP DUP2 PUSH1 0x1 SHL SWAP2 PUSH0 NOT SWAP1 PUSH1 0x3 SHL SHR NOT AND OR PUSH1 0x7 DUP3 ADD SSTORE JUMPDEST PUSH1 0x8 DUP2 ADD PUSH2 0x100 DUP5 ADD MLOAD DUP1 MLOAD SWAP1 PUSH1 0x1 PUSH1 0x1 PUSH1 0x40 SHL SUB DUP3 GT PUSH2 0x170A JUMPI DUP2 SWAP1 PUSH2 0x1528 DUP5 SLOAD PUSH2 0x289E JUMP JUMPDEST PUSH1 0x1F DUP2 GT PUSH2 0x178B JUMPI JUMPDEST POP DUP9 SWAP1 PUSH1 0x1F DUP4 GT PUSH1 0x1 EQ PUSH2 0x1729 JUMPI DUP11 SWAP3 PUSH2 0x171E JUMPI JUMPDEST POP POP DUP2 PUSH1 0x1 SHL SWAP2 PUSH0 NOT SWAP1 PUSH1 0x3 SHL SHR NOT AND OR SWAP1 SSTORE JUMPDEST PUSH2 0x120 DUP4 ADD MLOAD PUSH1 0x9 DUP3 ADD SSTORE PUSH1 0xA DUP2 ADD SWAP3 PUSH2 0x140 DUP2 ADD MLOAD DUP1 MLOAD SWAP1 PUSH1 0x1 PUSH1 0x1 PUSH1 0x40 SHL SUB DUP3 GT PUSH2 0x170A JUMPI PUSH2 0x158B DUP7 SLOAD PUSH2 0x289E JUMP JUMPDEST PUSH1 0x1F DUP2 GT PUSH2 0x16C7 JUMPI JUMPDEST POP SWAP7 SWAP8 SWAP6 SWAP7 SWAP5 SWAP6 DUP8 SWAP6 DUP10 SWAP2 PUSH1 0x1 PUSH1 0x1F DUP6 GT EQ PUSH2 0x164C JUMPI SWAP3 DUP1 PUSH1 0xC SWAP6 SWAP4 PUSH0 MLOAD PUSH1 0x20 PUSH2 0x2B64 PUSH0 CODECOPY PUSH0 MLOAD SWAP1 PUSH0 MSTORE SWAP10 SWAP11 SWAP4 PUSH2 0x1A0 SWAP7 SWAP3 PUSH2 0x1641 JUMPI JUMPDEST POP POP DUP2 PUSH1 0x1 SHL SWAP2 PUSH0 NOT SWAP1 PUSH1 0x3 SHL SHR NOT AND OR SWAP1 SSTORE JUMPDEST PUSH2 0x1603 PUSH1 0xB DUP6 ADD PUSH2 0x5DD PUSH2 0x160 DUP5 ADD MLOAD ISZERO ISZERO DUP3 SWAP1 PUSH1 0xFF DUP1 NOT DUP4 SLOAD AND SWAP2 ISZERO ISZERO AND OR SWAP1 SSTORE JUMP JUMPDEST ADD MLOAD SWAP2 ADD SSTORE PUSH1 0x40 PUSH2 0x161C DUP2 MLOAD SWAP3 DUP3 DUP5 MSTORE DUP3 DUP5 ADD SWAP1 PUSH2 0x27B2 JUMP JUMPDEST PUSH6 0x383630BCB2B9 PUSH1 0xD1 SHL DUP8 DUP5 DUP4 SUB SWAP3 DUP4 DUP3 DUP8 ADD MSTORE PUSH1 0x6 DUP2 MSTORE ADD MSTORE ADD SWAP1 LOG2 PUSH1 0x40 MLOAD SWAP1 DUP2 MSTORE RETURN JUMPDEST ADD MLOAD SWAP1 POP PUSH0 DUP1 PUSH2 0x15CB JUMP JUMPDEST SWAP2 SWAP1 PUSH1 0x1F NOT DUP5 AND DUP10 DUP5 MSTORE DUP12 DUP5 KECCAK256 SWAP4 JUMPDEST DUP13 DUP3 DUP3 LT PUSH2 0x16AE JUMPI POP POP SWAP4 PUSH1 0xC SWAP6 SWAP4 PUSH0 MLOAD PUSH1 0x20 PUSH2 0x2B64 PUSH0 CODECOPY PUSH0 MLOAD SWAP1 PUSH0 MSTORE SWAP10 SWAP11 SWAP4 PUSH1 0x1 SWAP4 DUP4 PUSH2 0x1A0 SWAP9 LT PUSH2 0x1696 JUMPI JUMPDEST POP POP POP DUP2 SHL ADD SWAP1 SSTORE PUSH2 0x15DF JUMP JUMPDEST ADD MLOAD PUSH0 NOT PUSH1 0xF8 DUP5 PUSH1 0x3 SHL AND SHR NOT AND SWAP1 SSTORE PUSH0 DUP1 DUP1 PUSH2 0x1689 JUMP JUMPDEST DUP5 DUP5 ADD MLOAD DUP7 SSTORE DUP13 SWAP11 POP PUSH1 0x1 SWAP1 SWAP6 ADD SWAP5 SWAP4 DUP5 ADD SWAP4 ADD PUSH2 0x165B JUMP JUMPDEST DUP7 DUP11 MSTORE DUP9 DUP11 KECCAK256 PUSH1 0x1F DUP5 ADD PUSH1 0x5 SHR DUP2 ADD SWAP2 DUP11 DUP6 LT PUSH2 0x1700 JUMPI JUMPDEST PUSH1 0x1F ADD PUSH1 0x5 SHR ADD SWAP1 JUMPDEST DUP2 DUP2 LT PUSH2 0x16F5 JUMPI POP PUSH2 0x1594 JUMP JUMPDEST DUP11 DUP2 SSTORE PUSH1 0x1 ADD PUSH2 0x16E8 JUMP JUMPDEST SWAP1 SWAP2 POP DUP2 SWAP1 PUSH2 0x16DF JUMP JUMPDEST PUSH4 0x4E487B71 PUSH1 0xE0 SHL DUP10 MSTORE PUSH1 0x41 PUSH1 0x4 MSTORE PUSH1 0x24 DUP10 REVERT JUMPDEST ADD MLOAD SWAP1 POP PUSH0 DUP1 PUSH2 0x1546 JUMP JUMPDEST DUP5 DUP12 MSTORE DUP10 DUP12 KECCAK256 SWAP3 POP PUSH1 0x1F NOT DUP5 AND DUP12 JUMPDEST DUP12 DUP3 DUP3 LT PUSH2 0x1775 JUMPI POP POP SWAP1 DUP5 PUSH1 0x1 SWAP6 SWAP5 SWAP4 SWAP3 LT PUSH2 0x175D JUMPI JUMPDEST POP POP POP DUP2 SHL ADD SWAP1 SSTORE PUSH2 0x155A JUMP JUMPDEST ADD MLOAD PUSH0 NOT PUSH1 0xF8 DUP5 PUSH1 0x3 SHL AND SHR NOT AND SWAP1 SSTORE PUSH0 DUP1 DUP1 PUSH2 0x1750 JUMP JUMPDEST PUSH1 0x1 DUP6 SWAP7 DUP3 SWAP4 SWAP7 DUP7 ADD MLOAD DUP2 SSTORE ADD SWAP6 ADD SWAP4 ADD PUSH2 0x1738 JUMP JUMPDEST SWAP1 SWAP2 POP DUP4 DUP11 MSTORE DUP9 DUP11 KECCAK256 PUSH1 0x1F DUP5 ADD PUSH1 0x5 SHR DUP2 ADD SWAP2 DUP11 DUP6 LT PUSH2 0x17CF JUMPI JUMPDEST SWAP1 PUSH1 0x1F DUP6 SWAP5 SWAP4 SWAP3 ADD PUSH1 0x5 SHR ADD SWAP1 JUMPDEST DUP2 DUP2 LT PUSH2 0x17C1 JUMPI POP PUSH2 0x1531 JUMP JUMPDEST DUP12 DUP2 SSTORE DUP5 SWAP4 POP PUSH1 0x1 ADD PUSH2 0x17B4 JUMP JUMPDEST SWAP1 SWAP2 POP DUP2 SWAP1 PUSH2 0x17A6 JUMP JUMPDEST ADD MLOAD SWAP1 POP PUSH0 DUP1 PUSH2 0x14EA JUMP JUMPDEST SWAP3 POP PUSH1 0x7 DUP5 ADD DUP10 MSTORE DUP8 DUP10 KECCAK256 SWAP1 DUP10 SWAP4 JUMPDEST DUP10 PUSH1 0x1F NOT DUP6 AND DUP7 LT PUSH2 0x1838 JUMPI POP PUSH1 0x1 SWAP5 POP DUP4 PUSH1 0x1F NOT DUP2 AND LT PUSH2 0x1820 JUMPI JUMPDEST POP POP POP DUP2 SHL ADD PUSH1 0x7 DUP3 ADD SSTORE PUSH2 0x1501 JUMP JUMPDEST ADD MLOAD PUSH0 NOT PUSH1 0xF8 DUP5 PUSH1 0x3 SHL AND SHR NOT AND SWAP1 SSTORE PUSH0 DUP1 DUP1 PUSH2 0x1810 JUMP JUMPDEST DUP3 DUP3 ADD MLOAD DUP5 SSTORE SWAP5 DUP6 ADD SWAP5 PUSH1 0x1 SWAP1 SWAP4 ADD SWAP3 SWAP1 SWAP2 ADD SWAP1 PUSH2 0x17F3 JUMP JUMPDEST SWAP1 SWAP2 POP PUSH1 0x7 DUP5 ADD DUP10 MSTORE DUP8 DUP10 KECCAK256 PUSH1 0x1F DUP5 ADD PUSH1 0x5 SHR DUP2 ADD SWAP2 DUP10 DUP6 LT PUSH2 0x1898 JUMPI JUMPDEST SWAP1 PUSH1 0x1F DUP6 SWAP5 SWAP4 SWAP3 ADD PUSH1 0x5 SHR ADD SWAP1 JUMPDEST DUP2 DUP2 LT PUSH2 0x188A JUMPI POP PUSH2 0x14D5 JUMP JUMPDEST DUP11 DUP2 SSTORE DUP5 SWAP4 POP PUSH1 0x1 ADD PUSH2 0x187D JUMP JUMPDEST SWAP1 SWAP2 POP DUP2 SWAP1 PUSH2 0x186F JUMP JUMPDEST PUSH4 0x4E487B71 PUSH1 0xE0 SHL DUP9 MSTORE PUSH1 0x41 PUSH1 0x4 MSTORE PUSH1 0x24 DUP9 REVERT JUMPDEST ADD MLOAD SWAP1 POP PUSH0 DUP1 PUSH2 0x1490 JUMP JUMPDEST SWAP3 POP PUSH1 0x6 DUP5 ADD DUP10 MSTORE DUP8 DUP10 KECCAK256 SWAP1 DUP10 SWAP4 JUMPDEST DUP10 PUSH1 0x1F NOT DUP6 AND DUP7 LT PUSH2 0x1915 JUMPI POP PUSH1 0x1 SWAP5 POP DUP4 PUSH1 0x1F NOT DUP2 AND LT PUSH2 0x18FD JUMPI JUMPDEST POP POP POP DUP2 SHL ADD PUSH1 0x6 DUP3 ADD SSTORE PUSH2 0x14A7 JUMP JUMPDEST ADD MLOAD PUSH0 NOT PUSH1 0xF8 DUP5 PUSH1 0x3 SHL AND SHR NOT AND SWAP1 SSTORE PUSH0 DUP1 DUP1 PUSH2 0x18ED JUMP JUMPDEST DUP3 DUP3 ADD MLOAD DUP5 SSTORE SWAP5 DUP6 ADD SWAP5 PUSH1 0x1 SWAP1 SWAP4 ADD SWAP3 SWAP1 SWAP2 ADD SWAP1 PUSH2 0x18D0 JUMP JUMPDEST SWAP1 SWAP2 POP PUSH1 0x6 DUP5 ADD DUP10 MSTORE DUP8 DUP10 KECCAK256 PUSH1 0x1F DUP5 ADD PUSH1 0x5 SHR DUP2 ADD DUP10 DUP6 LT PUSH2 0x1975 JUMPI JUMPDEST SWAP1 DUP5 SWAP4 SWAP3 SWAP2 JUMPDEST PUSH1 0x1F DUP4 ADD PUSH1 0x5 SHR DUP3 ADD DUP2 LT PUSH2 0x1967 JUMPI POP POP PUSH2 0x147B JUMP JUMPDEST DUP12 DUP2 SSTORE DUP6 SWAP5 POP PUSH1 0x1 ADD PUSH2 0x1951 JUMP JUMPDEST POP DUP1 PUSH2 0x194B JUMP JUMPDEST ADD MLOAD SWAP1 POP PUSH0 DUP1 PUSH2 0x1436 JUMP JUMPDEST SWAP3 POP PUSH1 0x5 DUP5 ADD DUP10 MSTORE DUP8 DUP10 KECCAK256 SWAP1 DUP10 SWAP4 JUMPDEST DUP10 PUSH1 0x1F NOT DUP6 AND DUP7 LT PUSH2 0x19DB JUMPI POP PUSH1 0x1 SWAP5 POP DUP4 PUSH1 0x1F NOT DUP2 AND LT PUSH2 0x19C3 JUMPI JUMPDEST POP POP POP DUP2 SHL ADD PUSH1 0x5 DUP3 ADD SSTORE PUSH2 0x144D JUMP JUMPDEST ADD MLOAD PUSH0 NOT PUSH1 0xF8 DUP5 PUSH1 0x3 SHL AND SHR NOT AND SWAP1 SSTORE PUSH0 DUP1 DUP1 PUSH2 0x19B3 JUMP JUMPDEST DUP3 DUP3 ADD MLOAD DUP5 SSTORE SWAP5 DUP6 ADD SWAP5 PUSH1 0x1 SWAP1 SWAP4 ADD SWAP3 SWAP1 SWAP2 ADD SWAP1 PUSH2 0x1996 JUMP JUMPDEST SWAP1 SWAP2 POP PUSH1 0x5 DUP5 ADD DUP10 MSTORE DUP8 DUP10 KECCAK256 PUSH1 0x1F DUP5 ADD PUSH1 0x5 SHR DUP2 ADD DUP10 DUP6 LT PUSH2 0x1A3B JUMPI JUMPDEST SWAP1 DUP5 SWAP4 SWAP3 SWAP2 JUMPDEST PUSH1 0x1F DUP4 ADD PUSH1 0x5 SHR DUP3 ADD DUP2 LT PUSH2 0x1A2D JUMPI POP POP PUSH2 0x1421 JUMP JUMPDEST DUP12 DUP2 SSTORE DUP6 SWAP5 POP PUSH1 0x1 ADD PUSH2 0x1A17 JUMP JUMPDEST POP DUP1 PUSH2 0x1A11 JUMP JUMPDEST ADD MLOAD SWAP1 POP PUSH0 DUP1 PUSH2 0x13DC JUMP JUMPDEST SWAP3 POP PUSH1 0x4 DUP5 ADD DUP10 MSTORE DUP8 DUP10 KECCAK256 SWAP1 DUP10 SWAP4 JUMPDEST DUP10 PUSH1 0x1F NOT DUP6 AND DUP7 LT PUSH2 0x1AA1 JUMPI POP PUSH1 0x1 SWAP5 POP DUP4 PUSH1 0x1F NOT DUP2 AND LT PUSH2 0x1A89 JUMPI JUMPDEST POP POP POP DUP2 SHL ADD PUSH1 0x4 DUP3 ADD SSTORE PUSH2 0x13F3 JUMP JUMPDEST ADD MLOAD PUSH0 NOT PUSH1 0xF8 DUP5 PUSH1 0x3 SHL AND SHR NOT AND SWAP1 SSTORE PUSH0 DUP1 DUP1 PUSH2 0x1A79 JUMP JUMPDEST DUP3 DUP3 ADD MLOAD DUP5 SSTORE SWAP5 DUP6 ADD SWAP5 PUSH1 0x1 SWAP1 SWAP4 ADD SWAP3 SWAP1 SWAP2 ADD SWAP1 PUSH2 0x1A5C JUMP JUMPDEST SWAP1 SWAP2 POP PUSH1 0x4 DUP5 ADD DUP10 MSTORE DUP8 DUP10 KECCAK256 PUSH1 0x1F DUP5 ADD PUSH1 0x5 SHR DUP2 ADD DUP10 DUP6 LT PUSH2 0x1B01 JUMPI JUMPDEST SWAP1 DUP5 SWAP4 SWAP3 SWAP2 JUMPDEST PUSH1 0x1F DUP4 ADD PUSH1 0x5 SHR DUP3 ADD DUP2 LT PUSH2 0x1AF3 JUMPI POP POP PUSH2 0x13C7 JUMP JUMPDEST DUP12 DUP2 SSTORE DUP6 SWAP5 POP PUSH1 0x1 ADD PUSH2 0x1ADD JUMP JUMPDEST POP DUP1 PUSH2 0x1AD7 JUMP JUMPDEST ADD MLOAD SWAP1 POP PUSH0 DUP1 PUSH2 0x1382 JUMP JUMPDEST SWAP3 POP PUSH1 0x3 DUP5 ADD DUP10 MSTORE DUP8 DUP10 KECCAK256 SWAP1 DUP10 SWAP4 JUMPDEST DUP10 PUSH1 0x1F NOT DUP6 AND DUP7 LT PUSH2 0x1B67 JUMPI POP PUSH1 0x1 SWAP5 POP DUP4 PUSH1 0x1F NOT DUP2 AND LT PUSH2 0x1B4F JUMPI JUMPDEST POP POP POP DUP2 SHL ADD PUSH1 0x3 DUP3 ADD SSTORE PUSH2 0x1399 JUMP JUMPDEST ADD MLOAD PUSH0 NOT PUSH1 0xF8 DUP5 PUSH1 0x3 SHL AND SHR NOT AND SWAP1 SSTORE PUSH0 DUP1 DUP1 PUSH2 0x1B3F JUMP JUMPDEST DUP3 DUP3 ADD MLOAD DUP5 SSTORE SWAP5 DUP6 ADD SWAP5 PUSH1 0x1 SWAP1 SWAP4 ADD SWAP3 SWAP1 SWAP2 ADD SWAP1 PUSH2 0x1B22 JUMP JUMPDEST SWAP1 SWAP2 POP PUSH1 0x3 DUP5 ADD DUP10 MSTORE DUP8 DUP10 KECCAK256 PUSH1 0x1F DUP5 ADD PUSH1 0x5 SHR DUP2 ADD DUP10 DUP6 LT PUSH2 0x1BC7 JUMPI JUMPDEST SWAP1 DUP5 SWAP4 SWAP3 SWAP2 JUMPDEST PUSH1 0x1F DUP4 ADD PUSH1 0x5 SHR DUP3 ADD DUP2 LT PUSH2 0x1BB9 JUMPI POP POP PUSH2 0x136D JUMP JUMPDEST DUP12 DUP2 SSTORE DUP6 SWAP5 POP PUSH1 0x1 ADD PUSH2 0x1BA3 JUMP JUMPDEST POP DUP1 PUSH2 0x1B9D JUMP JUMPDEST ADD MLOAD SWAP1 POP PUSH0 DUP1 PUSH2 0x131E JUMP JUMPDEST SWAP3 POP PUSH1 0x1 DUP5 ADD DUP10 MSTORE DUP8 DUP10 KECCAK256 SWAP1 DUP10 SWAP4 JUMPDEST DUP10 PUSH1 0x1F NOT DUP6 AND DUP7 LT PUSH2 0x1C2D JUMPI POP PUSH1 0x1 SWAP5 POP DUP4 PUSH1 0x1F NOT DUP2 AND LT PUSH2 0x1C15 JUMPI JUMPDEST POP POP POP DUP2 SHL ADD PUSH1 0x1 DUP3 ADD SSTORE PUSH2 0x1335 JUMP JUMPDEST ADD MLOAD PUSH0 NOT PUSH1 0xF8 DUP5 PUSH1 0x3 SHL AND SHR NOT AND SWAP1 SSTORE PUSH0 DUP1 DUP1 PUSH2 0x1C05 JUMP JUMPDEST DUP3 DUP3 ADD MLOAD DUP5 SSTORE SWAP5 DUP6 ADD SWAP5 PUSH1 0x1 SWAP1 SWAP4 ADD SWAP3 SWAP1 SWAP2 ADD SWAP1 PUSH2 0x1BE8 JUMP JUMPDEST SWAP1 SWAP2 POP PUSH1 0x1 DUP5 ADD DUP10 MSTORE DUP8 DUP10 KECCAK256 PUSH1 0x1F DUP5 ADD PUSH1 0x5 SHR DUP2 ADD DUP10 DUP6 LT PUSH2 0x1C8D JUMPI JUMPDEST SWAP1 DUP5 SWAP4 SWAP3 SWAP2 JUMPDEST PUSH1 0x1F DUP4 ADD PUSH1 0x5 SHR DUP3 ADD DUP2 LT PUSH2 0x1C7F JUMPI POP POP PUSH2 0x1309 JUMP JUMPDEST DUP12 DUP2 SSTORE DUP6 SWAP5 POP PUSH1 0x1 ADD PUSH2 0x1C69 JUMP JUMPDEST POP DUP1 PUSH2 0x1C63 JUMP JUMPDEST ADD MLOAD SWAP1 POP PUSH0 DUP1 PUSH2 0x12C7 JUMP JUMPDEST SWAP3 POP DUP4 DUP10 MSTORE DUP8 DUP10 KECCAK256 SWAP1 DUP10 SWAP4 JUMPDEST DUP10 PUSH1 0x1F NOT DUP6 AND DUP7 LT PUSH2 0x1CED JUMPI POP PUSH1 0x1 SWAP5 POP DUP4 PUSH1 0x1F NOT DUP2 AND LT PUSH2 0x1CD5 JUMPI JUMPDEST POP POP POP DUP2 SHL ADD DUP2 SSTORE PUSH2 0x12DB JUMP JUMPDEST ADD MLOAD PUSH0 NOT PUSH1 0xF8 DUP5 PUSH1 0x3 SHL AND SHR NOT AND SWAP1 SSTORE PUSH0 DUP1 DUP1 PUSH2 0x1CC8 JUMP JUMPDEST DUP3 DUP3 ADD MLOAD DUP5 SSTORE SWAP5 DUP6 ADD SWAP5 PUSH1 0x1 SWAP1 SWAP4 ADD SWAP3 SWAP1 SWAP2 ADD SWAP1 PUSH2 0x1CAB JUMP JUMPDEST SWAP1 SWAP2 POP DUP4 DUP10 MSTORE DUP8 DUP10 KECCAK256 PUSH1 0x1F DUP5 ADD PUSH1 0x5 SHR DUP2 ADD DUP10 DUP6 LT PUSH2 0x1D4A JUMPI JUMPDEST SWAP1 DUP5 SWAP4 SWAP3 SWAP2 JUMPDEST PUSH1 0x1F DUP4 ADD PUSH1 0x5 SHR DUP3 ADD DUP2 LT PUSH2 0x1D3C JUMPI POP POP PUSH2 0x12B2 JUMP JUMPDEST DUP12 DUP2 SSTORE DUP6 SWAP5 POP PUSH1 0x1 ADD PUSH2 0x1D26 JUMP JUMPDEST POP DUP1 PUSH2 0x1D20 JUMP JUMPDEST DUP8 DUP1 REVERT JUMPDEST DUP7 DUP1 REVERT JUMPDEST POP CALLVALUE PUSH2 0xD3A JUMPI DUP1 PUSH1 0x3 NOT CALLDATASIZE ADD SLT PUSH2 0xD3A JUMPI PUSH1 0x4 SLOAD PUSH1 0x40 MLOAD PUSH1 0x1 PUSH1 0x1 PUSH1 0xA0 SHL SUB SWAP1 SWAP2 AND DUP2 MSTORE PUSH1 0x20 SWAP1 RETURN JUMPDEST POP CALLVALUE PUSH2 0x2271 JUMPI PUSH1 0x20 CALLDATASIZE PUSH1 0x3 NOT ADD SLT PUSH2 0x2271 JUMPI PUSH1 0x4 CALLDATALOAD DUP1 PUSH0 MSTORE PUSH1 0x1 PUSH1 0x20 MSTORE PUSH1 0xFF PUSH1 0xB PUSH1 0x40 PUSH0 KECCAK256 ADD SLOAD PUSH1 0x8 SHR AND ISZERO PUSH2 0x2328 JUMPI CALLER PUSH0 MSTORE PUSH1 0x2 PUSH1 0x20 MSTORE PUSH1 0x40 PUSH0 KECCAK256 DUP2 PUSH0 MSTORE PUSH1 0x20 MSTORE PUSH1 0xFF PUSH1 0x40 PUSH0 KECCAK256 SLOAD AND PUSH2 0x22EF JUMPI PUSH1 0x24 PUSH1 0x20 PUSH1 0x1 DUP1 PUSH1 0xA0 SHL SUB PUSH1 0x4 SLOAD AND PUSH1 0x40 MLOAD SWAP3 DUP4 DUP1 SWAP3 PUSH4 0x55138F0D PUSH1 0xE1 SHL DUP3 MSTORE ADDRESS PUSH1 0x4 DUP4 ADD MSTORE GAS STATICCALL SWAP1 DUP2 ISZERO PUSH2 0x2266 JUMPI PUSH0 SWAP2 PUSH2 0x22D0 JUMPI JUMPDEST POP ISZERO PUSH2 0x2275 JUMPI DUP1 PUSH0 MSTORE PUSH1 0x1 PUSH1 0x20 MSTORE PUSH1 0x40 PUSH0 KECCAK256 CALLER PUSH0 MSTORE PUSH1 0x2 PUSH1 0x20 MSTORE PUSH1 0x40 PUSH0 KECCAK256 DUP3 PUSH0 MSTORE PUSH1 0x20 MSTORE PUSH1 0x40 PUSH0 KECCAK256 PUSH1 0x1 PUSH1 0xFF NOT DUP3 SLOAD AND OR SWAP1 SSTORE PUSH1 0xC DUP2 ADD PUSH2 0x1E47 DUP2 SLOAD PUSH2 0x298E JUMP JUMPDEST SWAP1 SSTORE PUSH1 0x4 SLOAD PUSH1 0x2 DUP3 ADD DUP1 SLOAD SWAP1 SWAP3 SWAP2 PUSH1 0x1 PUSH1 0x1 PUSH1 0xA0 SHL SUB AND SWAP1 DUP2 EXTCODESIZE ISZERO PUSH2 0x2271 JUMPI PUSH0 SWAP2 PUSH1 0x44 DUP4 SWAP3 PUSH1 0x40 MLOAD SWAP5 DUP6 SWAP4 DUP5 SWAP3 PUSH4 0x40C10F19 PUSH1 0xE0 SHL DUP5 MSTORE CALLER PUSH1 0x4 DUP6 ADD MSTORE PUSH1 0x24 DUP5 ADD MSTORE GAS CALL DUP1 ISZERO PUSH2 0x2266 JUMPI PUSH2 0x2251 JUMPI JUMPDEST POP PUSH1 0x3 DUP2 ADD PUSH1 0x40 MLOAD PUSH2 0x1EB3 DUP2 PUSH2 0x1EAC DUP2 DUP6 PUSH2 0x29B0 JUMP JUMPDEST SUB DUP3 PUSH2 0x2806 JUMP JUMPDEST PUSH1 0x20 DUP2 MLOAD SWAP2 ADD KECCAK256 PUSH2 0x1EC2 PUSH2 0x2A31 JUMP JUMPDEST PUSH1 0x20 DUP2 MLOAD SWAP2 ADD KECCAK256 EQ PUSH0 EQ PUSH2 0x2031 JUMPI POP PUSH1 0x6 SLOAD PUSH1 0x1 PUSH1 0x1 PUSH1 0xA0 SHL SUB AND DUP1 ISZERO PUSH2 0x1FF6 JUMPI DUP2 PUSH1 0x20 SWAP2 PUSH2 0x1F61 DUP8 PUSH1 0x9 PUSH1 0x6 SWAP7 ADD SLOAD PUSH2 0x1F7B PUSH1 0xFF PUSH1 0xB DUP8 ADD SLOAD AND PUSH1 0x40 MLOAD SWAP9 DUP10 SWAP8 DUP9 SWAP7 DUP8 SWAP6 PUSH4 0xA905B129 PUSH1 0xE0 SHL DUP8 MSTORE CALLER PUSH1 0x4 DUP9 ADD MSTORE PUSH1 0xE0 PUSH1 0x24 DUP9 ADD MSTORE PUSH2 0x1F46 PUSH2 0x1F31 PUSH1 0xE4 DUP10 ADD PUSH1 0x7 DUP7 ADD PUSH2 0x29B0 JUMP JUMPDEST DUP9 DUP2 SUB PUSH1 0x3 NOT ADD PUSH1 0x44 DUP11 ADD MSTORE PUSH1 0x8 DUP6 ADD PUSH2 0x29B0 JUMP JUMPDEST SWAP1 PUSH1 0x64 DUP9 ADD MSTORE PUSH1 0x3 NOT DUP8 DUP3 SUB ADD PUSH1 0x84 DUP9 ADD MSTORE PUSH1 0xA DUP4 ADD PUSH2 0x29B0 JUMP JUMPDEST SWAP3 ISZERO ISZERO PUSH1 0xA4 DUP7 ADD MSTORE DUP5 DUP4 SUB PUSH1 0x3 NOT ADD PUSH1 0xC4 DUP7 ADD MSTORE ADD PUSH2 0x29B0 JUMP JUMPDEST SUB SWAP3 GAS CALL DUP1 ISZERO PUSH2 0x1FEB JUMPI PUSH2 0x1FBC JUMPI JUMPDEST POP JUMPDEST SLOAD PUSH1 0x40 MLOAD SWAP1 DUP2 MSTORE PUSH32 0xE0B5124B12E878158288D1002ED1FB960FAFF0EC1C7B3168F86D9D1AFD1B0D8B PUSH1 0x20 CALLER SWAP3 LOG3 DUP1 RETURN JUMPDEST PUSH2 0x1FDD SWAP1 PUSH1 0x20 RETURNDATASIZE PUSH1 0x20 GT PUSH2 0x1FE4 JUMPI JUMPDEST PUSH2 0x1FD5 DUP2 DUP4 PUSH2 0x2806 JUMP JUMPDEST DUP2 ADD SWAP1 PUSH2 0x2A55 JUMP JUMPDEST POP PUSH0 PUSH2 0x1F8A JUMP JUMPDEST POP RETURNDATASIZE PUSH2 0x1FCB JUMP JUMPDEST PUSH1 0x40 MLOAD RETURNDATASIZE DUP7 DUP3 RETURNDATACOPY RETURNDATASIZE SWAP1 REVERT JUMPDEST PUSH1 0x40 MLOAD PUSH3 0x461BCD PUSH1 0xE5 SHL DUP2 MSTORE PUSH1 0x20 PUSH1 0x4 DUP3 ADD MSTORE PUSH1 0x13 PUSH1 0x24 DUP3 ADD MSTORE PUSH19 0x119BDBDD18985B1B139195081B9BDD081CD95D PUSH1 0x6A SHL PUSH1 0x44 DUP3 ADD MSTORE PUSH1 0x64 SWAP1 REVERT JUMPDEST PUSH2 0x2044 PUSH2 0x1EAC SWAP2 PUSH1 0x40 MLOAD SWAP3 DUP4 DUP1 SWAP3 PUSH2 0x29B0 JUMP JUMPDEST PUSH1 0x20 DUP2 MLOAD SWAP2 ADD KECCAK256 SWAP1 PUSH1 0x40 SWAP2 PUSH1 0x5 PUSH1 0x20 DUP5 MLOAD PUSH2 0x205F DUP7 DUP3 PUSH2 0x2806 JUMP JUMPDEST DUP3 DUP2 MSTORE ADD PUSH5 0x6261646765 PUSH1 0xD8 SHL DUP2 MSTORE KECCAK256 EQ PUSH2 0x207C JUMPI JUMPDEST POP POP PUSH2 0x1F8C JUMP JUMPDEST PUSH1 0x5 SLOAD DUP3 MLOAD PUSH4 0xAA2FE91B PUSH1 0xE0 SHL DUP2 MSTORE ADDRESS PUSH1 0x4 DUP3 ADD MSTORE PUSH1 0x1 PUSH1 0x1 PUSH1 0xA0 SHL SUB SWAP1 SWAP2 AND SWAP1 PUSH1 0x20 DUP2 PUSH1 0x24 DUP2 DUP6 GAS STATICCALL SWAP1 DUP2 ISZERO PUSH2 0x2247 JUMPI DUP8 SWAP2 PUSH2 0x2218 JUMPI JUMPDEST POP ISZERO PUSH2 0x21BE JUMPI PUSH2 0x217F SWAP3 SWAP2 PUSH1 0x20 SWAP2 PUSH2 0x2164 DUP9 PUSH2 0x20CF DUP10 PUSH2 0x2A64 JUMP JUMPDEST SWAP4 DUP7 MLOAD SWAP8 DUP9 SWAP6 DUP7 SWAP5 DUP6 SWAP4 PUSH3 0xB71601 PUSH1 0xE6 SHL DUP6 MSTORE CALLER PUSH1 0x4 DUP7 ADD MSTORE PUSH2 0x140 PUSH1 0x24 DUP7 ADD MSTORE PUSH1 0x6 DUP12 PUSH2 0x211C PUSH2 0x2107 PUSH2 0x144 DUP10 ADD PUSH1 0x4 DUP7 ADD PUSH2 0x29B0 JUMP JUMPDEST DUP9 DUP2 SUB PUSH1 0x3 NOT ADD PUSH1 0x44 DUP11 ADD MSTORE PUSH1 0x5 DUP6 ADD PUSH2 0x29B0 JUMP JUMPDEST PUSH1 0x3C DUP9 DUP3 SUB PUSH1 0x3 NOT DUP2 ADD PUSH1 0x64 DUP12 ADD MSTORE PUSH1 0xB DUP4 MSTORE PUSH11 0x28BAB2B9BA102837BBB2B9 PUSH1 0xA9 SHL DUP16 DUP5 ADD MSTORE PUSH1 0x32 PUSH1 0x84 DUP12 ADD MSTORE DUP11 PUSH1 0xA4 DUP12 ADD MSTORE PUSH1 0x3 PUSH1 0xC4 DUP12 ADD MSTORE ADD PUSH1 0xE4 DUP10 ADD MSTORE ADD SWAP2 ADD PUSH2 0x29B0 JUMP JUMPDEST PUSH1 0x1 PUSH2 0x104 DUP6 ADD MSTORE DUP4 DUP2 SUB PUSH1 0x3 NOT ADD PUSH2 0x124 DUP6 ADD MSTORE SWAP1 PUSH2 0x27B2 JUMP JUMPDEST SUB SWAP3 GAS CALL SWAP1 DUP2 ISZERO PUSH2 0x21B5 JUMPI POP PUSH2 0x2196 JUMPI JUMPDEST DUP1 PUSH2 0x2075 JUMP JUMPDEST PUSH2 0x21AE SWAP1 PUSH1 0x20 RETURNDATASIZE PUSH1 0x20 GT PUSH2 0x1FE4 JUMPI PUSH2 0x1FD5 DUP2 DUP4 PUSH2 0x2806 JUMP JUMPDEST POP PUSH0 PUSH2 0x2190 JUMP JUMPDEST MLOAD RETURNDATASIZE DUP7 DUP3 RETURNDATACOPY RETURNDATASIZE SWAP1 REVERT JUMPDEST DUP3 MLOAD PUSH3 0x461BCD PUSH1 0xE5 SHL DUP2 MSTORE PUSH1 0x20 PUSH1 0x4 DUP3 ADD MSTORE PUSH1 0x2D PUSH1 0x24 DUP3 ADD MSTORE PUSH32 0x51756573744D616E61676572206E6F7420617574686F72697A656420746F206D PUSH1 0x44 DUP3 ADD MSTORE PUSH13 0x696E742042616467654E465473 PUSH1 0x98 SHL PUSH1 0x64 DUP3 ADD MSTORE PUSH1 0x84 SWAP1 REVERT JUMPDEST PUSH2 0x223A SWAP2 POP PUSH1 0x20 RETURNDATASIZE PUSH1 0x20 GT PUSH2 0x2240 JUMPI JUMPDEST PUSH2 0x2232 DUP2 DUP4 PUSH2 0x2806 JUMP JUMPDEST DUP2 ADD SWAP1 PUSH2 0x2976 JUMP JUMPDEST PUSH0 PUSH2 0x20B4 JUMP JUMPDEST POP RETURNDATASIZE PUSH2 0x2228 JUMP JUMPDEST DUP5 MLOAD RETURNDATASIZE DUP10 DUP3 RETURNDATACOPY RETURNDATASIZE SWAP1 REVERT JUMPDEST PUSH2 0x225E SWAP2 SWAP5 POP PUSH0 SWAP1 PUSH2 0x2806 JUMP JUMPDEST PUSH0 SWAP3 PUSH0 PUSH2 0x1E96 JUMP JUMPDEST PUSH1 0x40 MLOAD RETURNDATASIZE PUSH0 DUP3 RETURNDATACOPY RETURNDATASIZE SWAP1 REVERT JUMPDEST PUSH0 DUP1 REVERT JUMPDEST PUSH1 0x40 MLOAD PUSH3 0x461BCD PUSH1 0xE5 SHL DUP2 MSTORE PUSH1 0x20 PUSH1 0x4 DUP3 ADD MSTORE PUSH1 0x2D PUSH1 0x24 DUP3 ADD MSTORE PUSH32 0x51756573744D616E61676572206E6F7420617574686F72697A656420746F206D PUSH1 0x44 DUP3 ADD MSTORE PUSH13 0x696E74204D6565546F6B656E73 PUSH1 0x98 SHL PUSH1 0x64 DUP3 ADD MSTORE PUSH1 0x84 SWAP1 REVERT JUMPDEST PUSH2 0x22E9 SWAP2 POP PUSH1 0x20 RETURNDATASIZE PUSH1 0x20 GT PUSH2 0x2240 JUMPI PUSH2 0x2232 DUP2 DUP4 PUSH2 0x2806 JUMP JUMPDEST PUSH0 PUSH2 0x1E06 JUMP JUMPDEST PUSH1 0x40 MLOAD PUSH3 0x461BCD PUSH1 0xE5 SHL DUP2 MSTORE PUSH1 0x20 PUSH1 0x4 DUP3 ADD MSTORE PUSH1 0x11 PUSH1 0x24 DUP3 ADD MSTORE PUSH17 0x105B1C9958591E4818DBDB5C1B195D1959 PUSH1 0x7A SHL PUSH1 0x44 DUP3 ADD MSTORE PUSH1 0x64 SWAP1 REVERT JUMPDEST PUSH1 0x40 MLOAD PUSH3 0x461BCD PUSH1 0xE5 SHL DUP2 MSTORE PUSH1 0x20 PUSH1 0x4 DUP3 ADD MSTORE PUSH1 0xE PUSH1 0x24 DUP3 ADD MSTORE PUSH14 0x517565737420696E616374697665 PUSH1 0x90 SHL PUSH1 0x44 DUP3 ADD MSTORE PUSH1 0x64 SWAP1 REVERT JUMPDEST CALLVALUE PUSH2 0x2271 JUMPI PUSH1 0x20 CALLDATASIZE PUSH1 0x3 NOT ADD SLT PUSH2 0x2271 JUMPI PUSH1 0x40 MLOAD PUSH2 0x237B DUP2 PUSH2 0x27D6 JUMP JUMPDEST PUSH1 0x60 DUP2 MSTORE PUSH1 0x20 DUP2 ADD PUSH1 0x60 SWAP1 MSTORE PUSH1 0x40 DUP2 ADD PUSH0 SWAP1 MSTORE PUSH1 0x60 DUP2 ADD PUSH1 0x60 SWAP1 MSTORE PUSH1 0x80 DUP2 ADD PUSH1 0x60 SWAP1 MSTORE PUSH1 0xA0 DUP2 ADD PUSH1 0x60 SWAP1 MSTORE PUSH1 0xC0 DUP2 ADD PUSH1 0x60 SWAP1 MSTORE PUSH1 0xE0 DUP2 ADD PUSH1 0x60 SWAP1 MSTORE PUSH2 0x100 DUP2 ADD PUSH1 0x60 SWAP1 MSTORE PUSH2 0x120 DUP2 ADD PUSH0 SWAP1 MSTORE PUSH2 0x140 DUP2 ADD PUSH1 0x60 SWAP1 MSTORE PUSH2 0x160 DUP2 ADD PUSH0 SWAP1 MSTORE PUSH2 0x180 DUP2 ADD PUSH0 SWAP1 MSTORE PUSH2 0x1A0 ADD PUSH0 SWAP1 MSTORE PUSH1 0x4 CALLDATALOAD PUSH0 MSTORE PUSH1 0x1 PUSH1 0x20 MSTORE PUSH1 0x40 PUSH0 KECCAK256 PUSH1 0x40 MLOAD PUSH2 0x2401 DUP2 PUSH2 0x27D6 JUMP JUMPDEST PUSH2 0x240A DUP3 PUSH2 0x28D6 JUMP JUMPDEST DUP2 MSTORE PUSH2 0x2418 PUSH1 0x1 DUP4 ADD PUSH2 0x28D6 JUMP JUMPDEST SWAP2 PUSH1 0x20 DUP3 ADD SWAP3 DUP4 MSTORE PUSH1 0x2 DUP2 ADD SLOAD PUSH1 0x40 DUP4 ADD SWAP1 DUP2 MSTORE PUSH1 0x3 DUP3 ADD PUSH2 0x2439 SWAP1 PUSH2 0x28D6 JUMP JUMPDEST PUSH1 0x60 DUP5 ADD SWAP1 DUP2 MSTORE SWAP1 PUSH2 0x244D PUSH1 0x4 DUP5 ADD PUSH2 0x28D6 JUMP JUMPDEST PUSH1 0x80 DUP6 ADD SWAP1 DUP2 MSTORE PUSH2 0x2460 PUSH1 0x5 DUP6 ADD PUSH2 0x28D6 JUMP JUMPDEST PUSH1 0xA0 DUP7 ADD SWAP1 DUP2 MSTORE SWAP1 PUSH2 0x2474 PUSH1 0x6 DUP7 ADD PUSH2 0x28D6 JUMP JUMPDEST PUSH1 0xC0 DUP8 ADD SWAP1 DUP2 MSTORE PUSH2 0x2487 PUSH1 0x7 DUP8 ADD PUSH2 0x28D6 JUMP JUMPDEST PUSH1 0xE0 DUP9 ADD SWAP1 DUP2 MSTORE PUSH2 0x249A PUSH1 0x8 DUP9 ADD PUSH2 0x28D6 JUMP JUMPDEST SWAP2 PUSH2 0x100 DUP10 ADD SWAP3 DUP4 MSTORE PUSH1 0x9 DUP9 ADD SLOAD SWAP5 PUSH2 0x120 DUP11 ADD SWAP6 DUP7 MSTORE PUSH1 0xA DUP10 ADD PUSH2 0x24BE SWAP1 PUSH2 0x28D6 JUMP JUMPDEST SWAP5 PUSH2 0x140 DUP12 ADD SWAP6 DUP7 MSTORE PUSH1 0xB DUP11 ADD SLOAD SWAP8 PUSH2 0x160 DUP13 ADD SWAP11 PUSH1 0xFF DUP11 AND ISZERO ISZERO DUP13 MSTORE PUSH2 0x180 DUP14 ADD SWAP10 PUSH1 0x8 SHR PUSH1 0xFF AND ISZERO ISZERO DUP11 MSTORE PUSH1 0xC ADD SLOAD SWAP10 PUSH2 0x1A0 DUP14 ADD SWAP11 DUP12 MSTORE PUSH1 0x40 MLOAD DUP1 SWAP15 DUP2 SWAP15 PUSH1 0x20 DUP4 MSTORE MLOAD PUSH1 0x20 DUP4 ADD PUSH2 0x1C0 SWAP1 MSTORE PUSH2 0x1E0 DUP4 ADD PUSH2 0x251B SWAP2 PUSH2 0x27B2 JUMP JUMPDEST SWAP1 MLOAD DUP3 DUP3 SUB PUSH1 0x1F NOT ADD PUSH1 0x40 DUP5 ADD MSTORE PUSH2 0x2533 SWAP2 SWAP1 PUSH2 0x27B2 JUMP JUMPDEST SWAP3 MLOAD PUSH1 0x60 SWAP1 SWAP2 ADD MSTORE MLOAD DUP13 DUP3 SUB PUSH1 0x1F NOT ADD PUSH1 0x80 DUP15 ADD MSTORE PUSH2 0x2552 SWAP2 SWAP1 PUSH2 0x27B2 JUMP JUMPDEST SWAP1 MLOAD DUP12 DUP3 SUB PUSH1 0x1F NOT ADD PUSH1 0xA0 DUP14 ADD MSTORE PUSH2 0x256A SWAP2 SWAP1 PUSH2 0x27B2 JUMP JUMPDEST SWAP1 MLOAD DUP11 DUP3 SUB PUSH1 0x1F NOT ADD PUSH1 0xC0 DUP13 ADD MSTORE PUSH2 0x2582 SWAP2 SWAP1 PUSH2 0x27B2 JUMP JUMPDEST SWAP1 MLOAD DUP10 DUP3 SUB PUSH1 0x1F NOT ADD PUSH1 0xE0 DUP12 ADD MSTORE PUSH2 0x259A SWAP2 SWAP1 PUSH2 0x27B2 JUMP JUMPDEST SWAP1 MLOAD DUP9 DUP3 SUB PUSH1 0x1F NOT ADD PUSH2 0x100 DUP11 ADD MSTORE PUSH2 0x25B3 SWAP2 SWAP1 PUSH2 0x27B2 JUMP JUMPDEST SWAP1 MLOAD DUP8 DUP3 SUB PUSH1 0x1F NOT ADD PUSH2 0x120 DUP10 ADD MSTORE PUSH2 0x25CC SWAP2 SWAP1 PUSH2 0x27B2 JUMP JUMPDEST SWAP2 MLOAD PUSH2 0x140 DUP8 ADD MSTORE MLOAD DUP6 DUP3 SUB PUSH1 0x1F NOT ADD PUSH2 0x160 DUP8 ADD MSTORE PUSH2 0x25EC SWAP2 SWAP1 PUSH2 0x27B2 JUMP JUMPDEST SWAP3 MLOAD ISZERO ISZERO PUSH2 0x180 DUP6 ADD MSTORE MLOAD ISZERO ISZERO PUSH2 0x1A0 DUP5 ADD MSTORE MLOAD PUSH2 0x1C0 DUP4 ADD MSTORE SUB SWAP1 RETURN JUMPDEST CALLVALUE PUSH2 0x2271 JUMPI PUSH0 CALLDATASIZE PUSH1 0x3 NOT ADD SLT PUSH2 0x2271 JUMPI PUSH1 0x5 SLOAD PUSH1 0x40 MLOAD PUSH1 0x1 PUSH1 0x1 PUSH1 0xA0 SHL SUB SWAP1 SWAP2 AND DUP2 MSTORE PUSH1 0x20 SWAP1 RETURN JUMPDEST CALLVALUE PUSH2 0x2271 JUMPI PUSH0 CALLDATASIZE PUSH1 0x3 NOT ADD SLT PUSH2 0x2271 JUMPI PUSH1 0x24 PUSH1 0x20 PUSH1 0x1 DUP1 PUSH1 0xA0 SHL SUB PUSH1 0x4 SLOAD AND PUSH1 0x40 MLOAD SWAP3 DUP4 DUP1 SWAP3 PUSH4 0x55138F0D PUSH1 0xE1 SHL DUP3 MSTORE ADDRESS PUSH1 0x4 DUP4 ADD MSTORE GAS STATICCALL DUP1 ISZERO PUSH2 0x2266 JUMPI PUSH1 0x24 SWAP2 PUSH0 SWAP2 PUSH2 0x2770 JUMPI JUMPDEST POP PUSH1 0x5 SLOAD PUSH1 0x40 MLOAD PUSH4 0xAA2FE91B PUSH1 0xE0 SHL DUP2 MSTORE ADDRESS PUSH1 0x4 DUP3 ADD MSTORE SWAP3 PUSH1 0x20 SWAP2 DUP5 SWAP2 SWAP1 DUP3 SWAP1 PUSH1 0x1 PUSH1 0x1 PUSH1 0xA0 SHL SUB AND GAS STATICCALL DUP1 ISZERO PUSH2 0x2266 JUMPI PUSH1 0x24 SWAP3 PUSH0 SWAP2 PUSH2 0x2751 JUMPI JUMPDEST POP PUSH1 0x6 SLOAD PUSH1 0x40 MLOAD PUSH4 0x4211C961 PUSH1 0xE1 SHL DUP2 MSTORE ADDRESS PUSH1 0x4 DUP3 ADD MSTORE SWAP4 PUSH1 0x20 SWAP2 DUP6 SWAP2 SWAP1 DUP3 SWAP1 PUSH1 0x1 PUSH1 0x1 PUSH1 0xA0 SHL SUB AND GAS STATICCALL SWAP1 DUP2 ISZERO PUSH2 0x2266 JUMPI PUSH1 0x80 SWAP4 PUSH0 SWAP3 PUSH2 0x2730 JUMPI JUMPDEST POP DUP3 DUP1 PUSH2 0x2727 JUMPI JUMPDEST DUP4 PUSH2 0x271E JUMPI JUMPDEST PUSH1 0x40 MLOAD SWAP4 ISZERO ISZERO DUP5 MSTORE ISZERO ISZERO PUSH1 0x20 DUP5 ADD MSTORE ISZERO ISZERO PUSH1 0x40 DUP4 ADD MSTORE ISZERO ISZERO PUSH1 0x60 DUP3 ADD MSTORE RETURN JUMPDEST SWAP3 POP DUP2 SWAP3 PUSH2 0x26FF JUMP JUMPDEST SWAP3 POP DUP1 SWAP3 PUSH2 0x26F9 JUMP JUMPDEST PUSH2 0x274A SWAP2 SWAP3 POP PUSH1 0x20 RETURNDATASIZE PUSH1 0x20 GT PUSH2 0x2240 JUMPI PUSH2 0x2232 DUP2 DUP4 PUSH2 0x2806 JUMP JUMPDEST SWAP1 DUP5 PUSH2 0x26F1 JUMP JUMPDEST PUSH2 0x276A SWAP2 POP PUSH1 0x20 RETURNDATASIZE PUSH1 0x20 GT PUSH2 0x2240 JUMPI PUSH2 0x2232 DUP2 DUP4 PUSH2 0x2806 JUMP JUMPDEST DUP4 PUSH2 0x26B5 JUMP JUMPDEST PUSH2 0x2789 SWAP2 POP PUSH1 0x20 RETURNDATASIZE PUSH1 0x20 GT PUSH2 0x2240 JUMPI PUSH2 0x2232 DUP2 DUP4 PUSH2 0x2806 JUMP JUMPDEST DUP3 PUSH2 0x267A JUMP JUMPDEST CALLVALUE PUSH2 0x2271 JUMPI PUSH0 CALLDATASIZE PUSH1 0x3 NOT ADD SLT PUSH2 0x2271 JUMPI PUSH1 0x6 SLOAD PUSH1 0x1 PUSH1 0x1 PUSH1 0xA0 SHL SUB AND DUP2 MSTORE PUSH1 0x20 SWAP1 RETURN JUMPDEST DUP1 MLOAD DUP1 DUP4 MSTORE PUSH1 0x20 SWAP3 SWAP2 DUP2 SWAP1 DUP5 ADD DUP5 DUP5 ADD MCOPY PUSH0 DUP3 DUP3 ADD DUP5 ADD MSTORE PUSH1 0x1F ADD PUSH1 0x1F NOT AND ADD ADD SWAP1 JUMP JUMPDEST PUSH2 0x1C0 DUP2 ADD SWAP1 DUP2 LT PUSH1 0x1 PUSH1 0x1 PUSH1 0x40 SHL SUB DUP3 GT OR PUSH2 0x27F2 JUMPI PUSH1 0x40 MSTORE JUMP JUMPDEST PUSH4 0x4E487B71 PUSH1 0xE0 SHL PUSH0 MSTORE PUSH1 0x41 PUSH1 0x4 MSTORE PUSH1 0x24 PUSH0 REVERT JUMPDEST SWAP1 PUSH1 0x1F DUP1 NOT SWAP2 ADD AND DUP2 ADD SWAP1 DUP2 LT PUSH1 0x1 PUSH1 0x1 PUSH1 0x40 SHL SUB DUP3 GT OR PUSH2 0x27F2 JUMPI PUSH1 0x40 MSTORE JUMP JUMPDEST PUSH1 0x1 PUSH1 0x1 PUSH1 0x40 SHL SUB DUP2 GT PUSH2 0x27F2 JUMPI PUSH1 0x1F ADD PUSH1 0x1F NOT AND PUSH1 0x20 ADD SWAP1 JUMP JUMPDEST DUP2 PUSH1 0x1F DUP3 ADD SLT ISZERO PUSH2 0x2271 JUMPI DUP1 CALLDATALOAD SWAP1 PUSH2 0x2859 DUP3 PUSH2 0x2827 JUMP JUMPDEST SWAP3 PUSH2 0x2867 PUSH1 0x40 MLOAD SWAP5 DUP6 PUSH2 0x2806 JUMP JUMPDEST DUP3 DUP5 MSTORE PUSH1 0x20 DUP4 DUP4 ADD ADD GT PUSH2 0x2271 JUMPI DUP2 PUSH0 SWAP3 PUSH1 0x20 DUP1 SWAP4 ADD DUP4 DUP7 ADD CALLDATACOPY DUP4 ADD ADD MSTORE SWAP1 JUMP JUMPDEST PUSH1 0x4 CALLDATALOAD SWAP1 PUSH1 0x1 PUSH1 0x1 PUSH1 0xA0 SHL SUB DUP3 AND DUP3 SUB PUSH2 0x2271 JUMPI JUMP JUMPDEST SWAP1 PUSH1 0x1 DUP3 DUP2 SHR SWAP3 AND DUP1 ISZERO PUSH2 0x28CC JUMPI JUMPDEST PUSH1 0x20 DUP4 LT EQ PUSH2 0x28B8 JUMPI JUMP JUMPDEST PUSH4 0x4E487B71 PUSH1 0xE0 SHL PUSH0 MSTORE PUSH1 0x22 PUSH1 0x4 MSTORE PUSH1 0x24 PUSH0 REVERT JUMPDEST SWAP2 PUSH1 0x7F AND SWAP2 PUSH2 0x28AD JUMP JUMPDEST SWAP1 PUSH1 0x40 MLOAD SWAP2 DUP3 PUSH0 DUP3 SLOAD SWAP3 PUSH2 0x28E9 DUP5 PUSH2 0x289E JUMP JUMPDEST DUP1 DUP5 MSTORE SWAP4 PUSH1 0x1 DUP2 AND SWAP1 DUP2 ISZERO PUSH2 0x2954 JUMPI POP PUSH1 0x1 EQ PUSH2 0x2910 JUMPI JUMPDEST POP PUSH2 0x290E SWAP3 POP SUB DUP4 PUSH2 0x2806 JUMP JUMPDEST JUMP JUMPDEST SWAP1 POP PUSH0 SWAP3 SWAP2 SWAP3 MSTORE PUSH1 0x20 PUSH0 KECCAK256 SWAP1 PUSH0 SWAP2 JUMPDEST DUP2 DUP4 LT PUSH2 0x2938 JUMPI POP POP SWAP1 PUSH1 0x20 PUSH2 0x290E SWAP3 DUP3 ADD ADD PUSH0 PUSH2 0x2901 JUMP JUMPDEST PUSH1 0x20 SWAP2 SWAP4 POP DUP1 PUSH1 0x1 SWAP2 SLOAD DUP4 DUP6 DUP10 ADD ADD MSTORE ADD SWAP2 ADD SWAP1 SWAP2 DUP5 SWAP3 PUSH2 0x291F JUMP JUMPDEST SWAP1 POP PUSH1 0x20 SWAP3 POP PUSH2 0x290E SWAP5 SWAP2 POP PUSH1 0xFF NOT AND DUP3 DUP5 ADD MSTORE ISZERO ISZERO PUSH1 0x5 SHL DUP3 ADD ADD PUSH0 PUSH2 0x2901 JUMP JUMPDEST SWAP1 DUP2 PUSH1 0x20 SWAP2 SUB SLT PUSH2 0x2271 JUMPI MLOAD DUP1 ISZERO ISZERO DUP2 SUB PUSH2 0x2271 JUMPI SWAP1 JUMP JUMPDEST PUSH0 NOT DUP2 EQ PUSH2 0x299C JUMPI PUSH1 0x1 ADD SWAP1 JUMP JUMPDEST PUSH4 0x4E487B71 PUSH1 0xE0 SHL PUSH0 MSTORE PUSH1 0x11 PUSH1 0x4 MSTORE PUSH1 0x24 PUSH0 REVERT JUMPDEST PUSH0 SWAP3 SWAP2 DUP2 SLOAD SWAP2 PUSH2 0x29BF DUP4 PUSH2 0x289E JUMP JUMPDEST DUP1 DUP4 MSTORE SWAP3 PUSH1 0x1 DUP2 AND SWAP1 DUP2 ISZERO PUSH2 0x2A14 JUMPI POP PUSH1 0x1 EQ PUSH2 0x29DB JUMPI POP POP POP JUMP JUMPDEST PUSH0 SWAP1 DUP2 MSTORE PUSH1 0x20 DUP2 KECCAK256 SWAP4 SWAP5 POP SWAP2 SWAP3 JUMPDEST DUP4 DUP4 LT PUSH2 0x29FA JUMPI POP PUSH1 0x20 SWAP3 POP ADD ADD SWAP1 JUMP JUMPDEST PUSH1 0x1 DUP2 PUSH1 0x20 SWAP3 SWAP5 SWAP4 SWAP5 SLOAD DUP4 DUP6 DUP8 ADD ADD MSTORE ADD SWAP2 ADD SWAP2 SWAP1 PUSH2 0x29E9 JUMP JUMPDEST SWAP2 POP POP PUSH1 0x20 SWAP4 SWAP5 POP PUSH1 0xFF SWAP3 SWAP2 SWAP3 NOT AND DUP4 DUP4 ADD MSTORE ISZERO ISZERO PUSH1 0x5 SHL ADD ADD SWAP1 JUMP JUMPDEST PUSH1 0x40 MLOAD SWAP1 PUSH2 0x2A40 PUSH1 0x40 DUP4 PUSH2 0x2806 JUMP JUMPDEST PUSH1 0x6 DUP3 MSTORE PUSH6 0x383630BCB2B9 PUSH1 0xD1 SHL PUSH1 0x20 DUP4 ADD MSTORE JUMP JUMPDEST SWAP1 DUP2 PUSH1 0x20 SWAP2 SUB SLT PUSH2 0x2271 JUMPI MLOAD SWAP1 JUMP JUMPDEST DUP1 ISZERO PUSH2 0x2B1D JUMPI PUSH0 DUP2 DUP1 JUMPDEST PUSH2 0x2B09 JUMPI POP PUSH2 0x2A7C DUP2 PUSH2 0x2827 JUMP JUMPDEST SWAP1 PUSH2 0x2A8A PUSH1 0x40 MLOAD SWAP3 DUP4 PUSH2 0x2806 JUMP JUMPDEST DUP1 DUP3 MSTORE PUSH1 0x1F NOT PUSH2 0x2A99 DUP3 PUSH2 0x2827 JUMP JUMPDEST ADD CALLDATASIZE PUSH1 0x20 DUP5 ADD CALLDATACOPY JUMPDEST DUP1 SWAP3 DUP1 ISZERO PUSH2 0x2B02 JUMPI PUSH0 NOT DUP3 ADD SWAP2 DUP3 GT PUSH2 0x299C JUMPI DUP2 SWAP4 PUSH1 0xA DUP3 MOD PUSH1 0x30 ADD SWAP3 DUP4 PUSH1 0x30 GT PUSH2 0x299C JUMPI DUP5 MLOAD GT ISZERO PUSH2 0x2AEE JUMPI PUSH1 0xA SWAP3 PUSH1 0xF8 SHL PUSH1 0x1 PUSH1 0x1 PUSH1 0xF8 SHL SUB NOT AND PUSH0 BYTE SWAP1 DUP5 ADD PUSH1 0x1F ADD MSTORE8 DIV SWAP2 PUSH2 0x2AA1 JUMP JUMPDEST PUSH4 0x4E487B71 PUSH1 0xE0 SHL PUSH0 MSTORE PUSH1 0x32 PUSH1 0x4 MSTORE PUSH1 0x24 PUSH0 REVERT JUMPDEST POP POP SWAP1 POP SWAP1 JUMP JUMPDEST SWAP1 PUSH2 0x2B15 PUSH1 0xA SWAP2 PUSH2 0x298E JUMP JUMPDEST SWAP2 DIV DUP1 PUSH2 0x2A6E JUMP JUMPDEST POP PUSH1 0x40 MLOAD PUSH2 0x2B2C PUSH1 0x40 DUP3 PUSH2 0x2806 JUMP JUMPDEST PUSH1 0x1 DUP2 MSTORE PUSH1 0x3 PUSH1 0xFC SHL PUSH1 0x20 DUP3 ADD MSTORE SWAP1 JUMP JUMPDEST PUSH0 SLOAD PUSH1 0x1 PUSH1 0x1 PUSH1 0xA0 SHL SUB AND CALLER SUB PUSH2 0x2B50 JUMPI JUMP JUMPDEST PUSH4 0x118CDAA7 PUSH1 0xE0 SHL PUSH0 MSTORE CALLER PUSH1 0x4 MSTORE PUSH1 0x24 PUSH0 REVERT INVALID PC PUSH20 0xAF79AD2855095709E4952730B178B7C8C9290EBC 0xE0 0xD5 SIGNEXTEND 0xB1 STOP STOP PUSH23 0x33F7F6A2646970667358221220AB460355C312B7F0A69D DUP10 SLT DUP15 0x4E 0xB4 EXTCODECOPY STOP 0xB0 PUSH30 0xD997E36B2C2076F50C7A0665CD64736F6C634300081C0033000000000000 "},"methodIdentifiers":{"badgeNFT()":"4348e0e9","checkAuthorization()":"39527ea8","completeQuest(uint256)":"528be0a9","completed(address,uint256)":"aa995c2c","createQuest(string,string,uint256,string,string,string,string)":"ff8b17be","createQuestWithPlayerReward(string,string,uint256,string,string,uint256,string,bool,string)":"6b85a35d","deactivateQuest(uint256)":"e9d2821d","footballNFT()":"37829533","getContractAddresses()":"953874d2","getQuest(uint256)":"49f86f34","hasCompletedQuest(address,uint256)":"f8be7347","meeToken()":"656bbbfa","owner()":"8da5cb5b","questCounter()":"7d7591f0","quests(uint256)":"e085f980","renounceOwnership()":"715018a6","transferOwnership(address)":"f2fde38b"}}}}}