{"project/contracts/BadgeNFTUpgrade.sol":{"BadgeNFTUpgrade":{"abi":[{"inputs":[{"internalType":"address","name":"_meeToken","type":"address"},{"internalType":"address","name":"_badgeNFT","type":"address"}],"stateMutability":"nonpayable","type":"constructor"},{"inputs":[],"name":"EnforcedPause","type":"error"},{"inputs":[],"name":"ExpectedPause","type":"error"},{"inputs":[{"internalType":"address","name":"owner","type":"address"}],"name":"OwnableInvalidOwner","type":"error"},{"inputs":[{"internalType":"address","name":"account","type":"address"}],"name":"OwnableUnauthorizedAccount","type":"error"},{"inputs":[],"name":"ReentrancyGuardReentrantCall","type":"error"},{"anonymous":false,"inputs":[{"indexed":true,"internalType":"address","name":"user","type":"address"},{"indexed":true,"internalType":"uint256","name":"tokenId","type":"uint256"},{"indexed":false,"internalType":"uint8","name":"fromRarity","type":"uint8"},{"indexed":false,"internalType":"uint8","name":"toRarity","type":"uint8"},{"indexed":false,"internalType":"uint256","name":"cost","type":"uint256"}],"name":"BadgeUpgraded","type":"event"},{"anonymous":false,"inputs":[{"indexed":true,"internalType":"address","name":"previousOwner","type":"address"},{"indexed":true,"internalType":"address","name":"newOwner","type":"address"}],"name":"OwnershipTransferred","type":"event"},{"anonymous":false,"inputs":[{"indexed":false,"internalType":"address","name":"account","type":"address"}],"name":"Paused","type":"event"},{"anonymous":false,"inputs":[{"indexed":false,"internalType":"uint8","name":"fromRarity","type":"uint8"},{"indexed":false,"internalType":"uint8","name":"toRarity","type":"uint8"}],"name":"RarityProgressionUpdated","type":"event"},{"anonymous":false,"inputs":[{"indexed":false,"internalType":"address","name":"account","type":"address"}],"name":"Unpaused","type":"event"},{"anonymous":false,"inputs":[{"indexed":false,"internalType":"uint8","name":"rarity","type":"uint8"},{"indexed":false,"internalType":"uint256","name":"newCost","type":"uint256"}],"name":"UpgradeCostUpdated","type":"event"},{"inputs":[],"name":"badgeNFT","outputs":[{"internalType":"contract MeeBadgeNFT","name":"","type":"address"}],"stateMutability":"view","type":"function"},{"inputs":[{"internalType":"uint256","name":"tokenId","type":"uint256"},{"internalType":"address","name":"user","type":"address"}],"name":"canUpgradeBadge","outputs":[{"internalType":"bool","name":"","type":"bool"},{"internalType":"string","name":"","type":"string"}],"stateMutability":"view","type":"function"},{"inputs":[{"internalType":"uint256","name":"tokenId","type":"uint256"}],"name":"getNextRarity","outputs":[{"internalType":"uint8","name":"","type":"uint8"}],"stateMutability":"view","type":"function"},{"inputs":[{"internalType":"uint8","name":"rarity","type":"uint8"}],"name":"getRarityName","outputs":[{"internalType":"string","name":"","type":"string"}],"stateMutability":"pure","type":"function"},{"inputs":[{"internalType":"uint256","name":"tokenId","type":"uint256"}],"name":"getUpgradeCost","outputs":[{"internalType":"uint256","name":"","type":"uint256"}],"stateMutability":"view","type":"function"},{"inputs":[],"name":"meeToken","outputs":[{"internalType":"contract MeeToken","name":"","type":"address"}],"stateMutability":"view","type":"function"},{"inputs":[],"name":"owner","outputs":[{"internalType":"address","name":"","type":"address"}],"stateMutability":"view","type":"function"},{"inputs":[],"name":"pause","outputs":[],"stateMutability":"nonpayable","type":"function"},{"inputs":[],"name":"paused","outputs":[{"internalType":"bool","name":"","type":"bool"}],"stateMutability":"view","type":"function"},{"inputs":[{"internalType":"uint8","name":"","type":"uint8"}],"name":"rarityProgression","outputs":[{"internalType":"uint8","name":"","type":"uint8"}],"stateMutability":"view","type":"function"},{"inputs":[],"name":"renounceOwnership","outputs":[],"stateMutability":"nonpayable","type":"function"},{"inputs":[{"internalType":"uint8","name":"fromRarity","type":"uint8"},{"internalType":"uint8","name":"toRarity","type":"uint8"}],"name":"setRarityProgression","outputs":[],"stateMutability":"nonpayable","type":"function"},{"inputs":[{"internalType":"uint8","name":"rarity","type":"uint8"},{"internalType":"uint256","name":"cost","type":"uint256"}],"name":"setUpgradeCost","outputs":[],"stateMutability":"nonpayable","type":"function"},{"inputs":[{"internalType":"address","name":"newOwner","type":"address"}],"name":"transferOwnership","outputs":[],"stateMutability":"nonpayable","type":"function"},{"inputs":[],"name":"unpause","outputs":[],"stateMutability":"nonpayable","type":"function"},{"inputs":[{"internalType":"address","name":"_badgeNFT","type":"address"}],"name":"updateBadgeNFT","outputs":[],"stateMutability":"nonpayable","type":"function"},{"inputs":[{"internalType":"address","name":"_meeToken","type":"address"}],"name":"updateMeeToken","outputs":[],"stateMutability":"nonpayable","type":"function"},{"inputs":[{"internalType":"uint256","name":"tokenId","type":"uint256"}],"name":"upgradeBadge","outputs":[],"stateMutability":"nonpayable","type":"function"},{"inputs":[{"internalType":"uint8","name":"","type":"uint8"}],"name":"upgradeCosts","outputs":[{"internalType":"uint256","name":"","type":"uint256"}],"stateMutability":"view","type":"function"}],"evm":{"bytecode":{"linkReferences":{},"object":"60803461025757601f61151b38819003918201601f19168301916001600160401b0383118484101761025b57808492604094855283398101031261025757610052602061004b8361026f565b920161026f565b3315610244575f8054336001600160a01b0319821681178355604051949290916001600160a01b0316907f8be0079c531659141344cd1fd0a4f28419497f9722a3daafe3b4186f6b6457e09080a36001808055600280546001600160a01b03199081166001600160a01b03948516178255600380549091169490931693909317825568056bc75e2d631000007f17ef568e3e12ab5b9c7254a8d58478811de00f9e6eb34345acd53bf8fd09d3ec55680d8d726b7177a800007fabd6e7cb50984ff9c2f3e18a2660c3353dadf4e3291deeb275dae2cd1e44fe0555681b1ae4d6e2ef5000007f91da3fd0782e51c6b3986e9e672fd566868e71f3dbc2d6c2cd6fbb3e361af2a755683635c9adc5dea000007f2e174c10e159ea99b867ce3205125c24a42d128804e4070ed6fcc8cc98166aa05560056020527f05b8ccbb9d4d8fb16ea74ce3c29a41f1b461fbdaff4714a0d9a8eb05499746bc805460ff1990811690921790557f1471eb6eb2c5e789fc3de43f8ce62938c7d1836ec861730447e2ada8fd81017b805482169093179092557f89832631fb3c3307a103ba2c84ab569c64d6182a18893dcd163f0f1c2090733a80548316821790555f527fa9bc9a3a348c357ba16b37005d7e6b3236198c0e939f4af8c5f19b8deeb8ebc08054909116600417905561129790816102848239f35b631e4fbdf760e01b5f525f60045260245ffd5b5f80fd5b634e487b7160e01b5f52604160045260245ffd5b51906001600160a01b03821682036102575756fe60806040526004361015610011575f80fd5b5f5f3560e01c80631d157ca714610aaf57806325df233a14610a6c5780632c43882914610a12578063354a75c2146109e05780633f4ba83a146109745780634348e0e91461094c5780634d0d717f1461089f5780635c975abb1461087b578063656bbbfa14610853578063715018a6146107fc57806375057e1d146107c0578063778157331461078b5780638456cb591461072b5780638da5cb5b1461070457806396e747ed146106c1578063bd6515ec146105a1578063dc6d0a12146101ca578063f2fde38b146101445763ff329e7c146100eb575f80fd5b3461014157602036600319011261014157604060209160ff60c0610110600435610fd3565b015161011b81610baf565b61012481610baf565b1661013160048210610e20565b8152600483522054604051908152f35b80fd5b50346101415760203660031901126101415761015e610afe565b61016661121e565b6001600160a01b031680156101b65781546001600160a01b03198116821783556001600160a01b03167f8be0079c531659141344cd1fd0a4f28419497f9722a3daafe3b4186f6b6457e08380a380f35b631e4fbdf760e01b82526004829052602482fd5b50346103eb5760203660031901126103eb576004356002600154146105925760026001556101f6611244565b6003546040516331a9108f60e11b81526004810183905290602090829060249082906001600160a01b03165afa9081156103e0575f91610558575b50336001600160a01b03909116036105215761024c81610fd3565b6101a060c08201519161025e83610baf565b61026783610baf565b0151156104e45760ff1661027d60048210610e20565b805f52600560205260ff60405f2054168181111561049f57815f52600460205260405f2054908115610463576002546040516370a0823160e01b81523360048201526001600160a01b0390911690602081602481855afa80156103e05784915f9161042e575b50106103ef57803b156103eb575f8091604460405180948193632770a7eb60e21b83523360048401528860248401525af180156103e0576103cb575b5060035485906001600160a01b0316803b156103c757818091604460405180948193631e721b6360e31b83528b60048401528860248401525af180156103bc576103a3575b5050604051928352602083015260408201527fc245dd062f718231e452a9b49243bba64ab814484c290d8f935a5049344f5afe60603392a36001805580f35b816103ad91610b79565b6103b857845f610364565b8480fd5b6040513d84823e3d90fd5b5080fd5b6103d89195505f90610b79565b5f935f61031f565b6040513d5f823e3d90fd5b5f80fd5b60405162461bcd60e51b8152602060048201526017602482015276496e73756666696369656e74204d454520746f6b656e7360481b6044820152606490fd5b9150506020813d60201161045b575b8161044a60209383610b79565b810103126103eb578390515f6102e3565b3d915061043d565b60405162461bcd60e51b8152602060048201526014602482015273155c19dc9859194818dbdcdd081b9bdd081cd95d60621b6044820152606490fd5b60405162461bcd60e51b815260206004820152601a60248201527f496e76616c6964207261726974792070726f6772657373696f6e0000000000006044820152606490fd5b60405162461bcd60e51b81526020600482015260156024820152744261646765206e6f74207570677261646561626c6560581b6044820152606490fd5b60405162461bcd60e51b815260206004820152600f60248201526e2737ba103130b233b29037bbb732b960891b6044820152606490fd5b90506020813d60201161058a575b8161057360209383610b79565b810103126103eb5761058490610b9b565b5f610231565b3d9150610566565b633ee5aeb560e01b5f5260045ffd5b346103eb5760403660031901126103eb576105ba610b38565b6024359060ff82168092036103eb5760ff906105d461121e565b169060048210806106b6575b15610679578181111561063457816040917f9d2e4f8652d2fa3ee525f88bca281a39dd9d57300d684b20eed3d8e43258b50f935f526005602052825f208160ff1982541617905582519182526020820152a1005b60405162461bcd60e51b815260206004820152601c60248201527f54617267657420726172697479206d75737420626520686967686572000000006044820152606490fd5b60405162461bcd60e51b8152602060048201526015602482015274496e76616c696420726172697479206c6576656c7360581b6044820152606490fd5b5060048111156105e0565b346103eb5760203660031901126103eb576106da610afe565b6106e261121e565b600280546001600160a01b0319166001600160a01b0392909216919091179055005b346103eb575f3660031901126103eb575f546040516001600160a01b039091168152602090f35b346103eb575f3660031901126103eb5761074361121e565b61074b611244565b5f805460ff60a01b1916600160a01b1790556040513381527f62e78cea01bee320cd4e420270b5ea74000d11b0c9f74754ebdbfc544b05a25890602090a1005b346103eb5760203660031901126103eb5760ff6107a6610b38565b165f526005602052602060ff60405f205416604051908152f35b346103eb5760203660031901126103eb576107f86107e46107df610b38565b610e6c565b604051918291602083526020830190610b14565b0390f35b346103eb575f3660031901126103eb5761081461121e565b5f80546001600160a01b0319811682556001600160a01b03167f8be0079c531659141344cd1fd0a4f28419497f9722a3daafe3b4186f6b6457e08280a3005b346103eb575f3660031901126103eb576002546040516001600160a01b039091168152602090f35b346103eb575f3660031901126103eb57602060ff5f5460a01c166040519015158152f35b346103eb5760403660031901126103eb576108b8610b38565b60ff602435916108c661121e565b1690600482101561091057816040917fa0a3a99a60a4b9d68d0dcfc761cf79fd5d00bbfb4e76d129afbfbc37ace50783935f52600460205280835f205582519182526020820152a1005b60405162461bcd60e51b8152602060048201526014602482015273125b9d985b1a59081c985c9a5d1e481b195d995b60621b6044820152606490fd5b346103eb575f3660031901126103eb576003546040516001600160a01b039091168152602090f35b346103eb575f3660031901126103eb5761098c61121e565b5f5460ff8160a01c16156109d15760ff60a01b19165f556040513381527f5db9ee0a495bf2e6ff9c91a7834c1ba4fdd244a5e8aa4e537bd38aeae4b073aa90602090a1005b638dfc202b60e01b5f5260045ffd5b346103eb5760203660031901126103eb5760ff6109fb610b38565b165f526004602052602060405f2054604051908152f35b346103eb5760203660031901126103eb5760ff60c0610a32600435610fd3565b0151610a3d81610baf565b610a4681610baf565b16610a5360048210610e20565b5f526005602052602060ff60405f205416604051908152f35b346103eb5760203660031901126103eb57610a85610afe565b610a8d61121e565b600380546001600160a01b0319166001600160a01b0392909216919091179055005b346103eb5760403660031901126103eb576024356001600160a01b03811681036103eb57610adf90600435610bcd565b906107f860405192839215158352604060208401526040830190610b14565b600435906001600160a01b03821682036103eb57565b805180835260209291819084018484015e5f828201840152601f01601f1916010190565b6004359060ff821682036103eb57565b6101c0810190811067ffffffffffffffff821117610b6557604052565b634e487b7160e01b5f52604160045260245ffd5b90601f8019910116810190811067ffffffffffffffff821117610b6557604052565b51906001600160a01b03821682036103eb57565b60051115610bb957565b634e487b7160e01b5f52602160045260245ffd5b6003546040516331a9108f60e11b8152600481018390529290602090849060249082906001600160a01b03165afa9283156103e0575f93610de4575b506001600160a01b039081169216829003610db357610c2790610fd3565b6101a060c082015191610c3983610baf565b610c4283610baf565b015115610d7c5760ff166004811015610d3d575f52600460205260405f205490602060018060a01b0360025416916024604051809481936370a0823160e01b835260048301525afa9081156103e0575f91610d0b575b5010610cd457600190604051610caf604082610b79565b601581527410985919d94818d85b881899481d5c19dc98591959605a1b602082015290565b5f90604051610ce4604082610b79565b6017815276496e73756666696369656e74204d454520746f6b656e7360481b602082015290565b90506020813d602011610d35575b81610d2660209383610b79565b810103126103eb57515f610c98565b3d9150610d19565b50505f90604051610d4f604082610b79565b601f81527f426164676520616c7265616479206174206d6178696d756d2072617269747900602082015290565b50505f90604051610d8e604082610b79565b60158152744261646765206e6f74207570677261646561626c6560581b602082015290565b50505f90604051610dc5604082610b79565b600f81526e2737ba103130b233b29037bbb732b960891b602082015290565b9092506020813d602011610e18575b81610e0060209383610b79565b810103126103eb57610e1190610b9b565b915f610c09565b3d9150610df3565b15610e2757565b60405162461bcd60e51b815260206004820152601f60248201527f426164676520616c7265616479206174206d6178696d756d20726172697479006044820152606490fd5b60ff168015610f4b5760018114610f285760028114610f055760038114610edd57600414610eb957604051610ea2604082610b79565b60078152662aa725a727aba760c91b602082015290565b604051610ec7604082610b79565b60068152654d595448494360d01b602082015290565b50604051610eec604082610b79565b60098152684c4547454e4441525960b81b602082015290565b50604051610f14604082610b79565b60048152634550494360e01b602082015290565b50604051610f37604082610b79565b60048152635241524560e01b602082015290565b50604051610f5a604082610b79565b600681526521a7a6a6a7a760d11b602082015290565b81601f820112156103eb5780519067ffffffffffffffff8211610b655760405192610fa5601f8401601f191660200185610b79565b828452602083830101116103eb57815f9260208093018386015e8301015290565b519081151582036103eb57565b5f6101a0604051610fe381610b48565b82815260606020820152606060408201526060808201528260808201528260a08201528260c08201528260e082015282610100820152826101208201528261014082015260606101608201528261018082015201525f60018060a01b0360035416916024604051809481936398e36d8b60e01b835260048301525afa80156103e0575f915f5f5f5f5f5f5f915f935f955f975f995f9b5f9d6110fa575b5060206040519e8f9061109282610b48565b8152015260408d015260608c015260808b015260a08a01526110b381610baf565b60c08901526110c181610baf565b60e08801526101008701526001600160a01b0316610120860152151561014085015261016084015261018083015215156101a082015290565b9d50505050505050505050505050503d805f833e6111188183610b79565b81016101c0828203126103eb578151602083015167ffffffffffffffff81116103eb5782611147918501610f70565b92604081015167ffffffffffffffff81116103eb5783611168918301610f70565b92606082015167ffffffffffffffff81116103eb5781611189918401610f70565b90608083015160a084015160c085015160058110156103eb5760e08601519060058210156103eb57610100870151926111c56101208901610b9b565b946111d36101408a01610fc6565b966101608a01519067ffffffffffffffff82116103eb576111f5918b01610f70565b976112096101a06101808c01519b01610fc6565b9a9c9b909192939495969798999a9b5f611080565b5f546001600160a01b0316330361123157565b63118cdaa760e01b5f523360045260245ffd5b60ff5f5460a01c1661125257565b63d93c066560e01b5f5260045ffdfea26469706673582212205deef8ced9625d0c8b7f4034e7e2f3c64249182b96dea0102d6b8507074bdf7164736f6c634300081c0033","opcodes":"PUSH1 0x80 CALLVALUE PUSH2 0x257 JUMPI PUSH1 0x1F PUSH2 0x151B CODESIZE DUP2 SWAP1 SUB SWAP2 DUP3 ADD PUSH1 0x1F NOT AND DUP4 ADD SWAP2 PUSH1 0x1 PUSH1 0x1 PUSH1 0x40 SHL SUB DUP4 GT DUP5 DUP5 LT OR PUSH2 0x25B JUMPI DUP1 DUP5 SWAP3 PUSH1 0x40 SWAP5 DUP6 MSTORE DUP4 CODECOPY DUP2 ADD SUB SLT PUSH2 0x257 JUMPI PUSH2 0x52 PUSH1 0x20 PUSH2 0x4B DUP4 PUSH2 0x26F JUMP JUMPDEST SWAP3 ADD PUSH2 0x26F JUMP JUMPDEST CALLER ISZERO PUSH2 0x244 JUMPI PUSH0 DUP1 SLOAD CALLER PUSH1 0x1 PUSH1 0x1 PUSH1 0xA0 SHL SUB NOT DUP3 AND DUP2 OR DUP4 SSTORE PUSH1 0x40 MLOAD SWAP5 SWAP3 SWAP1 SWAP2 PUSH1 0x1 PUSH1 0x1 PUSH1 0xA0 SHL SUB AND SWAP1 PUSH32 0x8BE0079C531659141344CD1FD0A4F28419497F9722A3DAAFE3B4186F6B6457E0 SWAP1 DUP1 LOG3 PUSH1 0x1 DUP1 DUP1 SSTORE PUSH1 0x2 DUP1 SLOAD PUSH1 0x1 PUSH1 0x1 PUSH1 0xA0 SHL SUB NOT SWAP1 DUP2 AND PUSH1 0x1 PUSH1 0x1 PUSH1 0xA0 SHL SUB SWAP5 DUP6 AND OR DUP3 SSTORE PUSH1 0x3 DUP1 SLOAD SWAP1 SWAP2 AND SWAP5 SWAP1 SWAP4 AND SWAP4 SWAP1 SWAP4 OR DUP3 SSTORE PUSH9 0x56BC75E2D63100000 PUSH32 0x17EF568E3E12AB5B9C7254A8D58478811DE00F9E6EB34345ACD53BF8FD09D3EC SSTORE PUSH9 0xD8D726B7177A80000 PUSH32 0xABD6E7CB50984FF9C2F3E18A2660C3353DADF4E3291DEEB275DAE2CD1E44FE05 SSTORE PUSH9 0x1B1AE4D6E2EF500000 PUSH32 0x91DA3FD0782E51C6B3986E9E672FD566868E71F3DBC2D6C2CD6FBB3E361AF2A7 SSTORE PUSH9 0x3635C9ADC5DEA00000 PUSH32 0x2E174C10E159EA99B867CE3205125C24A42D128804E4070ED6FCC8CC98166AA0 SSTORE PUSH1 0x5 PUSH1 0x20 MSTORE PUSH32 0x5B8CCBB9D4D8FB16EA74CE3C29A41F1B461FBDAFF4714A0D9A8EB05499746BC DUP1 SLOAD PUSH1 0xFF NOT SWAP1 DUP2 AND SWAP1 SWAP3 OR SWAP1 SSTORE PUSH32 0x1471EB6EB2C5E789FC3DE43F8CE62938C7D1836EC861730447E2ADA8FD81017B DUP1 SLOAD DUP3 AND SWAP1 SWAP4 OR SWAP1 SWAP3 SSTORE PUSH32 0x89832631FB3C3307A103BA2C84AB569C64D6182A18893DCD163F0F1C2090733A DUP1 SLOAD DUP4 AND DUP3 OR SWAP1 SSTORE PUSH0 MSTORE PUSH32 0xA9BC9A3A348C357BA16B37005D7E6B3236198C0E939F4AF8C5F19B8DEEB8EBC0 DUP1 SLOAD SWAP1 SWAP2 AND PUSH1 0x4 OR SWAP1 SSTORE PUSH2 0x1297 SWAP1 DUP2 PUSH2 0x284 DUP3 CODECOPY RETURN JUMPDEST PUSH4 0x1E4FBDF7 PUSH1 0xE0 SHL PUSH0 MSTORE PUSH0 PUSH1 0x4 MSTORE PUSH1 0x24 PUSH0 REVERT JUMPDEST PUSH0 DUP1 REVERT JUMPDEST PUSH4 0x4E487B71 PUSH1 0xE0 SHL PUSH0 MSTORE PUSH1 0x41 PUSH1 0x4 MSTORE PUSH1 0x24 PUSH0 REVERT JUMPDEST MLOAD SWAP1 PUSH1 0x1 PUSH1 0x1 PUSH1 0xA0 SHL SUB DUP3 AND DUP3 SUB PUSH2 0x257 JUMPI JUMP INVALID PUSH1 0x80 PUSH1 0x40 MSTORE PUSH1 0x4 CALLDATASIZE LT ISZERO PUSH2 0x11 JUMPI PUSH0 DUP1 REVERT JUMPDEST PUSH0 PUSH0 CALLDATALOAD PUSH1 0xE0 SHR DUP1 PUSH4 0x1D157CA7 EQ PUSH2 0xAAF JUMPI DUP1 PUSH4 0x25DF233A EQ PUSH2 0xA6C JUMPI DUP1 PUSH4 0x2C438829 EQ PUSH2 0xA12 JUMPI DUP1 PUSH4 0x354A75C2 EQ PUSH2 0x9E0 JUMPI DUP1 PUSH4 0x3F4BA83A EQ PUSH2 0x974 JUMPI DUP1 PUSH4 0x4348E0E9 EQ PUSH2 0x94C JUMPI DUP1 PUSH4 0x4D0D717F EQ PUSH2 0x89F JUMPI DUP1 PUSH4 0x5C975ABB EQ PUSH2 0x87B JUMPI DUP1 PUSH4 0x656BBBFA EQ PUSH2 0x853 JUMPI DUP1 PUSH4 0x715018A6 EQ PUSH2 0x7FC JUMPI DUP1 PUSH4 0x75057E1D EQ PUSH2 0x7C0 JUMPI DUP1 PUSH4 0x77815733 EQ PUSH2 0x78B JUMPI DUP1 PUSH4 0x8456CB59 EQ PUSH2 0x72B JUMPI DUP1 PUSH4 0x8DA5CB5B EQ PUSH2 0x704 JUMPI DUP1 PUSH4 0x96E747ED EQ PUSH2 0x6C1 JUMPI DUP1 PUSH4 0xBD6515EC EQ PUSH2 0x5A1 JUMPI DUP1 PUSH4 0xDC6D0A12 EQ PUSH2 0x1CA JUMPI DUP1 PUSH4 0xF2FDE38B EQ PUSH2 0x144 JUMPI PUSH4 0xFF329E7C EQ PUSH2 0xEB JUMPI PUSH0 DUP1 REVERT JUMPDEST CALLVALUE PUSH2 0x141 JUMPI PUSH1 0x20 CALLDATASIZE PUSH1 0x3 NOT ADD SLT PUSH2 0x141 JUMPI PUSH1 0x40 PUSH1 0x20 SWAP2 PUSH1 0xFF PUSH1 0xC0 PUSH2 0x110 PUSH1 0x4 CALLDATALOAD PUSH2 0xFD3 JUMP JUMPDEST ADD MLOAD PUSH2 0x11B DUP2 PUSH2 0xBAF JUMP JUMPDEST PUSH2 0x124 DUP2 PUSH2 0xBAF JUMP JUMPDEST AND PUSH2 0x131 PUSH1 0x4 DUP3 LT PUSH2 0xE20 JUMP JUMPDEST DUP2 MSTORE PUSH1 0x4 DUP4 MSTORE KECCAK256 SLOAD PUSH1 0x40 MLOAD SWAP1 DUP2 MSTORE RETURN JUMPDEST DUP1 REVERT JUMPDEST POP CALLVALUE PUSH2 0x141 JUMPI PUSH1 0x20 CALLDATASIZE PUSH1 0x3 NOT ADD SLT PUSH2 0x141 JUMPI PUSH2 0x15E PUSH2 0xAFE JUMP JUMPDEST PUSH2 0x166 PUSH2 0x121E JUMP JUMPDEST PUSH1 0x1 PUSH1 0x1 PUSH1 0xA0 SHL SUB AND DUP1 ISZERO PUSH2 0x1B6 JUMPI DUP2 SLOAD PUSH1 0x1 PUSH1 0x1 PUSH1 0xA0 SHL SUB NOT DUP2 AND DUP3 OR DUP4 SSTORE PUSH1 0x1 PUSH1 0x1 PUSH1 0xA0 SHL SUB AND PUSH32 0x8BE0079C531659141344CD1FD0A4F28419497F9722A3DAAFE3B4186F6B6457E0 DUP4 DUP1 LOG3 DUP1 RETURN JUMPDEST PUSH4 0x1E4FBDF7 PUSH1 0xE0 SHL DUP3 MSTORE PUSH1 0x4 DUP3 SWAP1 MSTORE PUSH1 0x24 DUP3 REVERT JUMPDEST POP CALLVALUE PUSH2 0x3EB JUMPI PUSH1 0x20 CALLDATASIZE PUSH1 0x3 NOT ADD SLT PUSH2 0x3EB JUMPI PUSH1 0x4 CALLDATALOAD PUSH1 0x2 PUSH1 0x1 SLOAD EQ PUSH2 0x592 JUMPI PUSH1 0x2 PUSH1 0x1 SSTORE PUSH2 0x1F6 PUSH2 0x1244 JUMP JUMPDEST PUSH1 0x3 SLOAD PUSH1 0x40 MLOAD PUSH4 0x31A9108F PUSH1 0xE1 SHL DUP2 MSTORE PUSH1 0x4 DUP2 ADD DUP4 SWAP1 MSTORE SWAP1 PUSH1 0x20 SWAP1 DUP3 SWAP1 PUSH1 0x24 SWAP1 DUP3 SWAP1 PUSH1 0x1 PUSH1 0x1 PUSH1 0xA0 SHL SUB AND GAS STATICCALL SWAP1 DUP2 ISZERO PUSH2 0x3E0 JUMPI PUSH0 SWAP2 PUSH2 0x558 JUMPI JUMPDEST POP CALLER PUSH1 0x1 PUSH1 0x1 PUSH1 0xA0 SHL SUB SWAP1 SWAP2 AND SUB PUSH2 0x521 JUMPI PUSH2 0x24C DUP2 PUSH2 0xFD3 JUMP JUMPDEST PUSH2 0x1A0 PUSH1 0xC0 DUP3 ADD MLOAD SWAP2 PUSH2 0x25E DUP4 PUSH2 0xBAF JUMP JUMPDEST PUSH2 0x267 DUP4 PUSH2 0xBAF JUMP JUMPDEST ADD MLOAD ISZERO PUSH2 0x4E4 JUMPI PUSH1 0xFF AND PUSH2 0x27D PUSH1 0x4 DUP3 LT PUSH2 0xE20 JUMP JUMPDEST DUP1 PUSH0 MSTORE PUSH1 0x5 PUSH1 0x20 MSTORE PUSH1 0xFF PUSH1 0x40 PUSH0 KECCAK256 SLOAD AND DUP2 DUP2 GT ISZERO PUSH2 0x49F JUMPI DUP2 PUSH0 MSTORE PUSH1 0x4 PUSH1 0x20 MSTORE PUSH1 0x40 PUSH0 KECCAK256 SLOAD SWAP1 DUP2 ISZERO PUSH2 0x463 JUMPI PUSH1 0x2 SLOAD PUSH1 0x40 MLOAD PUSH4 0x70A08231 PUSH1 0xE0 SHL DUP2 MSTORE CALLER PUSH1 0x4 DUP3 ADD MSTORE PUSH1 0x1 PUSH1 0x1 PUSH1 0xA0 SHL SUB SWAP1 SWAP2 AND SWAP1 PUSH1 0x20 DUP2 PUSH1 0x24 DUP2 DUP6 GAS STATICCALL DUP1 ISZERO PUSH2 0x3E0 JUMPI DUP5 SWAP2 PUSH0 SWAP2 PUSH2 0x42E JUMPI JUMPDEST POP LT PUSH2 0x3EF JUMPI DUP1 EXTCODESIZE ISZERO PUSH2 0x3EB JUMPI PUSH0 DUP1 SWAP2 PUSH1 0x44 PUSH1 0x40 MLOAD DUP1 SWAP5 DUP2 SWAP4 PUSH4 0x2770A7EB PUSH1 0xE2 SHL DUP4 MSTORE CALLER PUSH1 0x4 DUP5 ADD MSTORE DUP9 PUSH1 0x24 DUP5 ADD MSTORE GAS CALL DUP1 ISZERO PUSH2 0x3E0 JUMPI PUSH2 0x3CB JUMPI JUMPDEST POP PUSH1 0x3 SLOAD DUP6 SWAP1 PUSH1 0x1 PUSH1 0x1 PUSH1 0xA0 SHL SUB AND DUP1 EXTCODESIZE ISZERO PUSH2 0x3C7 JUMPI DUP2 DUP1 SWAP2 PUSH1 0x44 PUSH1 0x40 MLOAD DUP1 SWAP5 DUP2 SWAP4 PUSH4 0x1E721B63 PUSH1 0xE3 SHL DUP4 MSTORE DUP12 PUSH1 0x4 DUP5 ADD MSTORE DUP9 PUSH1 0x24 DUP5 ADD MSTORE GAS CALL DUP1 ISZERO PUSH2 0x3BC JUMPI PUSH2 0x3A3 JUMPI JUMPDEST POP POP PUSH1 0x40 MLOAD SWAP3 DUP4 MSTORE PUSH1 0x20 DUP4 ADD MSTORE PUSH1 0x40 DUP3 ADD MSTORE PUSH32 0xC245DD062F718231E452A9B49243BBA64AB814484C290D8F935A5049344F5AFE PUSH1 0x60 CALLER SWAP3 LOG3 PUSH1 0x1 DUP1 SSTORE DUP1 RETURN JUMPDEST DUP2 PUSH2 0x3AD SWAP2 PUSH2 0xB79 JUMP JUMPDEST PUSH2 0x3B8 JUMPI DUP5 PUSH0 PUSH2 0x364 JUMP JUMPDEST DUP5 DUP1 REVERT JUMPDEST PUSH1 0x40 MLOAD RETURNDATASIZE DUP5 DUP3 RETURNDATACOPY RETURNDATASIZE SWAP1 REVERT JUMPDEST POP DUP1 REVERT JUMPDEST PUSH2 0x3D8 SWAP2 SWAP6 POP PUSH0 SWAP1 PUSH2 0xB79 JUMP JUMPDEST PUSH0 SWAP4 PUSH0 PUSH2 0x31F JUMP JUMPDEST PUSH1 0x40 MLOAD RETURNDATASIZE PUSH0 DUP3 RETURNDATACOPY RETURNDATASIZE SWAP1 REVERT JUMPDEST PUSH0 DUP1 REVERT JUMPDEST PUSH1 0x40 MLOAD PUSH3 0x461BCD PUSH1 0xE5 SHL DUP2 MSTORE PUSH1 0x20 PUSH1 0x4 DUP3 ADD MSTORE PUSH1 0x17 PUSH1 0x24 DUP3 ADD MSTORE PUSH23 0x496E73756666696369656E74204D454520746F6B656E73 PUSH1 0x48 SHL PUSH1 0x44 DUP3 ADD MSTORE PUSH1 0x64 SWAP1 REVERT JUMPDEST SWAP2 POP POP PUSH1 0x20 DUP2 RETURNDATASIZE PUSH1 0x20 GT PUSH2 0x45B JUMPI JUMPDEST DUP2 PUSH2 0x44A PUSH1 0x20 SWAP4 DUP4 PUSH2 0xB79 JUMP JUMPDEST DUP2 ADD SUB SLT PUSH2 0x3EB JUMPI DUP4 SWAP1 MLOAD PUSH0 PUSH2 0x2E3 JUMP JUMPDEST RETURNDATASIZE SWAP2 POP PUSH2 0x43D JUMP JUMPDEST PUSH1 0x40 MLOAD PUSH3 0x461BCD PUSH1 0xE5 SHL DUP2 MSTORE PUSH1 0x20 PUSH1 0x4 DUP3 ADD MSTORE PUSH1 0x14 PUSH1 0x24 DUP3 ADD MSTORE PUSH20 0x155C19DC9859194818DBDCDD081B9BDD081CD95D PUSH1 0x62 SHL PUSH1 0x44 DUP3 ADD MSTORE PUSH1 0x64 SWAP1 REVERT JUMPDEST PUSH1 0x40 MLOAD PUSH3 0x461BCD PUSH1 0xE5 SHL DUP2 MSTORE PUSH1 0x20 PUSH1 0x4 DUP3 ADD MSTORE PUSH1 0x1A PUSH1 0x24 DUP3 ADD MSTORE PUSH32 0x496E76616C6964207261726974792070726F6772657373696F6E000000000000 PUSH1 0x44 DUP3 ADD MSTORE PUSH1 0x64 SWAP1 REVERT JUMPDEST PUSH1 0x40 MLOAD PUSH3 0x461BCD PUSH1 0xE5 SHL DUP2 MSTORE PUSH1 0x20 PUSH1 0x4 DUP3 ADD MSTORE PUSH1 0x15 PUSH1 0x24 DUP3 ADD MSTORE PUSH21 0x4261646765206E6F74207570677261646561626C65 PUSH1 0x58 SHL PUSH1 0x44 DUP3 ADD MSTORE PUSH1 0x64 SWAP1 REVERT JUMPDEST PUSH1 0x40 MLOAD PUSH3 0x461BCD PUSH1 0xE5 SHL DUP2 MSTORE PUSH1 0x20 PUSH1 0x4 DUP3 ADD MSTORE PUSH1 0xF PUSH1 0x24 DUP3 ADD MSTORE PUSH15 0x2737BA103130B233B29037BBB732B9 PUSH1 0x89 SHL PUSH1 0x44 DUP3 ADD MSTORE PUSH1 0x64 SWAP1 REVERT JUMPDEST SWAP1 POP PUSH1 0x20 DUP2 RETURNDATASIZE PUSH1 0x20 GT PUSH2 0x58A JUMPI JUMPDEST DUP2 PUSH2 0x573 PUSH1 0x20 SWAP4 DUP4 PUSH2 0xB79 JUMP JUMPDEST DUP2 ADD SUB SLT PUSH2 0x3EB JUMPI PUSH2 0x584 SWAP1 PUSH2 0xB9B JUMP JUMPDEST PUSH0 PUSH2 0x231 JUMP JUMPDEST RETURNDATASIZE SWAP2 POP PUSH2 0x566 JUMP JUMPDEST PUSH4 0x3EE5AEB5 PUSH1 0xE0 SHL PUSH0 MSTORE PUSH1 0x4 PUSH0 REVERT JUMPDEST CALLVALUE PUSH2 0x3EB JUMPI PUSH1 0x40 CALLDATASIZE PUSH1 0x3 NOT ADD SLT PUSH2 0x3EB JUMPI PUSH2 0x5BA PUSH2 0xB38 JUMP JUMPDEST PUSH1 0x24 CALLDATALOAD SWAP1 PUSH1 0xFF DUP3 AND DUP1 SWAP3 SUB PUSH2 0x3EB JUMPI PUSH1 0xFF SWAP1 PUSH2 0x5D4 PUSH2 0x121E JUMP JUMPDEST AND SWAP1 PUSH1 0x4 DUP3 LT DUP1 PUSH2 0x6B6 JUMPI JUMPDEST ISZERO PUSH2 0x679 JUMPI DUP2 DUP2 GT ISZERO PUSH2 0x634 JUMPI DUP2 PUSH1 0x40 SWAP2 PUSH32 0x9D2E4F8652D2FA3EE525F88BCA281A39DD9D57300D684B20EED3D8E43258B50F SWAP4 PUSH0 MSTORE PUSH1 0x5 PUSH1 0x20 MSTORE DUP3 PUSH0 KECCAK256 DUP2 PUSH1 0xFF NOT DUP3 SLOAD AND OR SWAP1 SSTORE DUP3 MLOAD SWAP2 DUP3 MSTORE PUSH1 0x20 DUP3 ADD MSTORE LOG1 STOP JUMPDEST PUSH1 0x40 MLOAD PUSH3 0x461BCD PUSH1 0xE5 SHL DUP2 MSTORE PUSH1 0x20 PUSH1 0x4 DUP3 ADD MSTORE PUSH1 0x1C PUSH1 0x24 DUP3 ADD MSTORE PUSH32 0x54617267657420726172697479206D7573742062652068696768657200000000 PUSH1 0x44 DUP3 ADD MSTORE PUSH1 0x64 SWAP1 REVERT JUMPDEST PUSH1 0x40 MLOAD PUSH3 0x461BCD PUSH1 0xE5 SHL DUP2 MSTORE PUSH1 0x20 PUSH1 0x4 DUP3 ADD MSTORE PUSH1 0x15 PUSH1 0x24 DUP3 ADD MSTORE PUSH21 0x496E76616C696420726172697479206C6576656C73 PUSH1 0x58 SHL PUSH1 0x44 DUP3 ADD MSTORE PUSH1 0x64 SWAP1 REVERT JUMPDEST POP PUSH1 0x4 DUP2 GT ISZERO PUSH2 0x5E0 JUMP JUMPDEST CALLVALUE PUSH2 0x3EB JUMPI PUSH1 0x20 CALLDATASIZE PUSH1 0x3 NOT ADD SLT PUSH2 0x3EB JUMPI PUSH2 0x6DA PUSH2 0xAFE JUMP JUMPDEST PUSH2 0x6E2 PUSH2 0x121E JUMP JUMPDEST PUSH1 0x2 DUP1 SLOAD PUSH1 0x1 PUSH1 0x1 PUSH1 0xA0 SHL SUB NOT AND PUSH1 0x1 PUSH1 0x1 PUSH1 0xA0 SHL SUB SWAP3 SWAP1 SWAP3 AND SWAP2 SWAP1 SWAP2 OR SWAP1 SSTORE STOP JUMPDEST CALLVALUE PUSH2 0x3EB JUMPI PUSH0 CALLDATASIZE PUSH1 0x3 NOT ADD SLT PUSH2 0x3EB JUMPI PUSH0 SLOAD PUSH1 0x40 MLOAD PUSH1 0x1 PUSH1 0x1 PUSH1 0xA0 SHL SUB SWAP1 SWAP2 AND DUP2 MSTORE PUSH1 0x20 SWAP1 RETURN JUMPDEST CALLVALUE PUSH2 0x3EB JUMPI PUSH0 CALLDATASIZE PUSH1 0x3 NOT ADD SLT PUSH2 0x3EB JUMPI PUSH2 0x743 PUSH2 0x121E JUMP JUMPDEST PUSH2 0x74B PUSH2 0x1244 JUMP JUMPDEST PUSH0 DUP1 SLOAD PUSH1 0xFF PUSH1 0xA0 SHL NOT AND PUSH1 0x1 PUSH1 0xA0 SHL OR SWAP1 SSTORE PUSH1 0x40 MLOAD CALLER DUP2 MSTORE PUSH32 0x62E78CEA01BEE320CD4E420270B5EA74000D11B0C9F74754EBDBFC544B05A258 SWAP1 PUSH1 0x20 SWAP1 LOG1 STOP JUMPDEST CALLVALUE PUSH2 0x3EB JUMPI PUSH1 0x20 CALLDATASIZE PUSH1 0x3 NOT ADD SLT PUSH2 0x3EB JUMPI PUSH1 0xFF PUSH2 0x7A6 PUSH2 0xB38 JUMP JUMPDEST AND PUSH0 MSTORE PUSH1 0x5 PUSH1 0x20 MSTORE PUSH1 0x20 PUSH1 0xFF PUSH1 0x40 PUSH0 KECCAK256 SLOAD AND PUSH1 0x40 MLOAD SWAP1 DUP2 MSTORE RETURN JUMPDEST CALLVALUE PUSH2 0x3EB JUMPI PUSH1 0x20 CALLDATASIZE PUSH1 0x3 NOT ADD SLT PUSH2 0x3EB JUMPI PUSH2 0x7F8 PUSH2 0x7E4 PUSH2 0x7DF PUSH2 0xB38 JUMP JUMPDEST PUSH2 0xE6C JUMP JUMPDEST PUSH1 0x40 MLOAD SWAP2 DUP3 SWAP2 PUSH1 0x20 DUP4 MSTORE PUSH1 0x20 DUP4 ADD SWAP1 PUSH2 0xB14 JUMP JUMPDEST SUB SWAP1 RETURN JUMPDEST CALLVALUE PUSH2 0x3EB JUMPI PUSH0 CALLDATASIZE PUSH1 0x3 NOT ADD SLT PUSH2 0x3EB JUMPI PUSH2 0x814 PUSH2 0x121E JUMP JUMPDEST PUSH0 DUP1 SLOAD PUSH1 0x1 PUSH1 0x1 PUSH1 0xA0 SHL SUB NOT DUP2 AND DUP3 SSTORE PUSH1 0x1 PUSH1 0x1 PUSH1 0xA0 SHL SUB AND PUSH32 0x8BE0079C531659141344CD1FD0A4F28419497F9722A3DAAFE3B4186F6B6457E0 DUP3 DUP1 LOG3 STOP JUMPDEST CALLVALUE PUSH2 0x3EB JUMPI PUSH0 CALLDATASIZE PUSH1 0x3 NOT ADD SLT PUSH2 0x3EB JUMPI PUSH1 0x2 SLOAD PUSH1 0x40 MLOAD PUSH1 0x1 PUSH1 0x1 PUSH1 0xA0 SHL SUB SWAP1 SWAP2 AND DUP2 MSTORE PUSH1 0x20 SWAP1 RETURN JUMPDEST CALLVALUE PUSH2 0x3EB JUMPI PUSH0 CALLDATASIZE PUSH1 0x3 NOT ADD SLT PUSH2 0x3EB JUMPI PUSH1 0x20 PUSH1 0xFF PUSH0 SLOAD PUSH1 0xA0 SHR AND PUSH1 0x40 MLOAD SWAP1 ISZERO ISZERO DUP2 MSTORE RETURN JUMPDEST CALLVALUE PUSH2 0x3EB JUMPI PUSH1 0x40 CALLDATASIZE PUSH1 0x3 NOT ADD SLT PUSH2 0x3EB JUMPI PUSH2 0x8B8 PUSH2 0xB38 JUMP JUMPDEST PUSH1 0xFF PUSH1 0x24 CALLDATALOAD SWAP2 PUSH2 0x8C6 PUSH2 0x121E JUMP JUMPDEST AND SWAP1 PUSH1 0x4 DUP3 LT ISZERO PUSH2 0x910 JUMPI DUP2 PUSH1 0x40 SWAP2 PUSH32 0xA0A3A99A60A4B9D68D0DCFC761CF79FD5D00BBFB4E76D129AFBFBC37ACE50783 SWAP4 PUSH0 MSTORE PUSH1 0x4 PUSH1 0x20 MSTORE DUP1 DUP4 PUSH0 KECCAK256 SSTORE DUP3 MLOAD SWAP2 DUP3 MSTORE PUSH1 0x20 DUP3 ADD MSTORE LOG1 STOP JUMPDEST PUSH1 0x40 MLOAD PUSH3 0x461BCD PUSH1 0xE5 SHL DUP2 MSTORE PUSH1 0x20 PUSH1 0x4 DUP3 ADD MSTORE PUSH1 0x14 PUSH1 0x24 DUP3 ADD MSTORE PUSH20 0x125B9D985B1A59081C985C9A5D1E481B195D995B PUSH1 0x62 SHL PUSH1 0x44 DUP3 ADD MSTORE PUSH1 0x64 SWAP1 REVERT JUMPDEST CALLVALUE PUSH2 0x3EB JUMPI PUSH0 CALLDATASIZE PUSH1 0x3 NOT ADD SLT PUSH2 0x3EB JUMPI PUSH1 0x3 SLOAD PUSH1 0x40 MLOAD PUSH1 0x1 PUSH1 0x1 PUSH1 0xA0 SHL SUB SWAP1 SWAP2 AND DUP2 MSTORE PUSH1 0x20 SWAP1 RETURN JUMPDEST CALLVALUE PUSH2 0x3EB JUMPI PUSH0 CALLDATASIZE PUSH1 0x3 NOT ADD SLT PUSH2 0x3EB JUMPI PUSH2 0x98C PUSH2 0x121E JUMP JUMPDEST PUSH0 SLOAD PUSH1 0xFF DUP2 PUSH1 0xA0 SHR AND ISZERO PUSH2 0x9D1 JUMPI PUSH1 0xFF PUSH1 0xA0 SHL NOT AND PUSH0 SSTORE PUSH1 0x40 MLOAD CALLER DUP2 MSTORE PUSH32 0x5DB9EE0A495BF2E6FF9C91A7834C1BA4FDD244A5E8AA4E537BD38AEAE4B073AA SWAP1 PUSH1 0x20 SWAP1 LOG1 STOP JUMPDEST PUSH4 0x8DFC202B PUSH1 0xE0 SHL PUSH0 MSTORE PUSH1 0x4 PUSH0 REVERT JUMPDEST CALLVALUE PUSH2 0x3EB JUMPI PUSH1 0x20 CALLDATASIZE PUSH1 0x3 NOT ADD SLT PUSH2 0x3EB JUMPI PUSH1 0xFF PUSH2 0x9FB PUSH2 0xB38 JUMP JUMPDEST AND PUSH0 MSTORE PUSH1 0x4 PUSH1 0x20 MSTORE PUSH1 0x20 PUSH1 0x40 PUSH0 KECCAK256 SLOAD PUSH1 0x40 MLOAD SWAP1 DUP2 MSTORE RETURN JUMPDEST CALLVALUE PUSH2 0x3EB JUMPI PUSH1 0x20 CALLDATASIZE PUSH1 0x3 NOT ADD SLT PUSH2 0x3EB JUMPI PUSH1 0xFF PUSH1 0xC0 PUSH2 0xA32 PUSH1 0x4 CALLDATALOAD PUSH2 0xFD3 JUMP JUMPDEST ADD MLOAD PUSH2 0xA3D DUP2 PUSH2 0xBAF JUMP JUMPDEST PUSH2 0xA46 DUP2 PUSH2 0xBAF JUMP JUMPDEST AND PUSH2 0xA53 PUSH1 0x4 DUP3 LT PUSH2 0xE20 JUMP JUMPDEST PUSH0 MSTORE PUSH1 0x5 PUSH1 0x20 MSTORE PUSH1 0x20 PUSH1 0xFF PUSH1 0x40 PUSH0 KECCAK256 SLOAD AND PUSH1 0x40 MLOAD SWAP1 DUP2 MSTORE RETURN JUMPDEST CALLVALUE PUSH2 0x3EB JUMPI PUSH1 0x20 CALLDATASIZE PUSH1 0x3 NOT ADD SLT PUSH2 0x3EB JUMPI PUSH2 0xA85 PUSH2 0xAFE JUMP JUMPDEST PUSH2 0xA8D PUSH2 0x121E JUMP JUMPDEST PUSH1 0x3 DUP1 SLOAD PUSH1 0x1 PUSH1 0x1 PUSH1 0xA0 SHL SUB NOT AND PUSH1 0x1 PUSH1 0x1 PUSH1 0xA0 SHL SUB SWAP3 SWAP1 SWAP3 AND SWAP2 SWAP1 SWAP2 OR SWAP1 SSTORE STOP JUMPDEST CALLVALUE PUSH2 0x3EB JUMPI PUSH1 0x40 CALLDATASIZE PUSH1 0x3 NOT ADD SLT PUSH2 0x3EB JUMPI PUSH1 0x24 CALLDATALOAD PUSH1 0x1 PUSH1 0x1 PUSH1 0xA0 SHL SUB DUP2 AND DUP2 SUB PUSH2 0x3EB JUMPI PUSH2 0xADF SWAP1 PUSH1 0x4 CALLDATALOAD PUSH2 0xBCD JUMP JUMPDEST SWAP1 PUSH2 0x7F8 PUSH1 0x40 MLOAD SWAP3 DUP4 SWAP3 ISZERO ISZERO DUP4 MSTORE PUSH1 0x40 PUSH1 0x20 DUP5 ADD MSTORE PUSH1 0x40 DUP4 ADD SWAP1 PUSH2 0xB14 JUMP JUMPDEST PUSH1 0x4 CALLDATALOAD SWAP1 PUSH1 0x1 PUSH1 0x1 PUSH1 0xA0 SHL SUB DUP3 AND DUP3 SUB PUSH2 0x3EB JUMPI JUMP JUMPDEST DUP1 MLOAD DUP1 DUP4 MSTORE PUSH1 0x20 SWAP3 SWAP2 DUP2 SWAP1 DUP5 ADD DUP5 DUP5 ADD MCOPY PUSH0 DUP3 DUP3 ADD DUP5 ADD MSTORE PUSH1 0x1F ADD PUSH1 0x1F NOT AND ADD ADD SWAP1 JUMP JUMPDEST PUSH1 0x4 CALLDATALOAD SWAP1 PUSH1 0xFF DUP3 AND DUP3 SUB PUSH2 0x3EB JUMPI JUMP JUMPDEST PUSH2 0x1C0 DUP2 ADD SWAP1 DUP2 LT PUSH8 0xFFFFFFFFFFFFFFFF DUP3 GT OR PUSH2 0xB65 JUMPI PUSH1 0x40 MSTORE JUMP JUMPDEST PUSH4 0x4E487B71 PUSH1 0xE0 SHL PUSH0 MSTORE PUSH1 0x41 PUSH1 0x4 MSTORE PUSH1 0x24 PUSH0 REVERT JUMPDEST SWAP1 PUSH1 0x1F DUP1 NOT SWAP2 ADD AND DUP2 ADD SWAP1 DUP2 LT PUSH8 0xFFFFFFFFFFFFFFFF DUP3 GT OR PUSH2 0xB65 JUMPI PUSH1 0x40 MSTORE JUMP JUMPDEST MLOAD SWAP1 PUSH1 0x1 PUSH1 0x1 PUSH1 0xA0 SHL SUB DUP3 AND DUP3 SUB PUSH2 0x3EB JUMPI JUMP JUMPDEST PUSH1 0x5 GT ISZERO PUSH2 0xBB9 JUMPI JUMP JUMPDEST PUSH4 0x4E487B71 PUSH1 0xE0 SHL PUSH0 MSTORE PUSH1 0x21 PUSH1 0x4 MSTORE PUSH1 0x24 PUSH0 REVERT JUMPDEST PUSH1 0x3 SLOAD PUSH1 0x40 MLOAD PUSH4 0x31A9108F PUSH1 0xE1 SHL DUP2 MSTORE PUSH1 0x4 DUP2 ADD DUP4 SWAP1 MSTORE SWAP3 SWAP1 PUSH1 0x20 SWAP1 DUP5 SWAP1 PUSH1 0x24 SWAP1 DUP3 SWAP1 PUSH1 0x1 PUSH1 0x1 PUSH1 0xA0 SHL SUB AND GAS STATICCALL SWAP3 DUP4 ISZERO PUSH2 0x3E0 JUMPI PUSH0 SWAP4 PUSH2 0xDE4 JUMPI JUMPDEST POP PUSH1 0x1 PUSH1 0x1 PUSH1 0xA0 SHL SUB SWAP1 DUP2 AND SWAP3 AND DUP3 SWAP1 SUB PUSH2 0xDB3 JUMPI PUSH2 0xC27 SWAP1 PUSH2 0xFD3 JUMP JUMPDEST PUSH2 0x1A0 PUSH1 0xC0 DUP3 ADD MLOAD SWAP2 PUSH2 0xC39 DUP4 PUSH2 0xBAF JUMP JUMPDEST PUSH2 0xC42 DUP4 PUSH2 0xBAF JUMP JUMPDEST ADD MLOAD ISZERO PUSH2 0xD7C JUMPI PUSH1 0xFF AND PUSH1 0x4 DUP2 LT ISZERO PUSH2 0xD3D JUMPI PUSH0 MSTORE PUSH1 0x4 PUSH1 0x20 MSTORE PUSH1 0x40 PUSH0 KECCAK256 SLOAD SWAP1 PUSH1 0x20 PUSH1 0x1 DUP1 PUSH1 0xA0 SHL SUB PUSH1 0x2 SLOAD AND SWAP2 PUSH1 0x24 PUSH1 0x40 MLOAD DUP1 SWAP5 DUP2 SWAP4 PUSH4 0x70A08231 PUSH1 0xE0 SHL DUP4 MSTORE PUSH1 0x4 DUP4 ADD MSTORE GAS STATICCALL SWAP1 DUP2 ISZERO PUSH2 0x3E0 JUMPI PUSH0 SWAP2 PUSH2 0xD0B JUMPI JUMPDEST POP LT PUSH2 0xCD4 JUMPI PUSH1 0x1 SWAP1 PUSH1 0x40 MLOAD PUSH2 0xCAF PUSH1 0x40 DUP3 PUSH2 0xB79 JUMP JUMPDEST PUSH1 0x15 DUP2 MSTORE PUSH21 0x10985919D94818D85B881899481D5C19DC98591959 PUSH1 0x5A SHL PUSH1 0x20 DUP3 ADD MSTORE SWAP1 JUMP JUMPDEST PUSH0 SWAP1 PUSH1 0x40 MLOAD PUSH2 0xCE4 PUSH1 0x40 DUP3 PUSH2 0xB79 JUMP JUMPDEST PUSH1 0x17 DUP2 MSTORE PUSH23 0x496E73756666696369656E74204D454520746F6B656E73 PUSH1 0x48 SHL PUSH1 0x20 DUP3 ADD MSTORE SWAP1 JUMP JUMPDEST SWAP1 POP PUSH1 0x20 DUP2 RETURNDATASIZE PUSH1 0x20 GT PUSH2 0xD35 JUMPI JUMPDEST DUP2 PUSH2 0xD26 PUSH1 0x20 SWAP4 DUP4 PUSH2 0xB79 JUMP JUMPDEST DUP2 ADD SUB SLT PUSH2 0x3EB JUMPI MLOAD PUSH0 PUSH2 0xC98 JUMP JUMPDEST RETURNDATASIZE SWAP2 POP PUSH2 0xD19 JUMP JUMPDEST POP POP PUSH0 SWAP1 PUSH1 0x40 MLOAD PUSH2 0xD4F PUSH1 0x40 DUP3 PUSH2 0xB79 JUMP JUMPDEST PUSH1 0x1F DUP2 MSTORE PUSH32 0x426164676520616C7265616479206174206D6178696D756D2072617269747900 PUSH1 0x20 DUP3 ADD MSTORE SWAP1 JUMP JUMPDEST POP POP PUSH0 SWAP1 PUSH1 0x40 MLOAD PUSH2 0xD8E PUSH1 0x40 DUP3 PUSH2 0xB79 JUMP JUMPDEST PUSH1 0x15 DUP2 MSTORE PUSH21 0x4261646765206E6F74207570677261646561626C65 PUSH1 0x58 SHL PUSH1 0x20 DUP3 ADD MSTORE SWAP1 JUMP JUMPDEST POP POP PUSH0 SWAP1 PUSH1 0x40 MLOAD PUSH2 0xDC5 PUSH1 0x40 DUP3 PUSH2 0xB79 JUMP JUMPDEST PUSH1 0xF DUP2 MSTORE PUSH15 0x2737BA103130B233B29037BBB732B9 PUSH1 0x89 SHL PUSH1 0x20 DUP3 ADD MSTORE SWAP1 JUMP JUMPDEST SWAP1 SWAP3 POP PUSH1 0x20 DUP2 RETURNDATASIZE PUSH1 0x20 GT PUSH2 0xE18 JUMPI JUMPDEST DUP2 PUSH2 0xE00 PUSH1 0x20 SWAP4 DUP4 PUSH2 0xB79 JUMP JUMPDEST DUP2 ADD SUB SLT PUSH2 0x3EB JUMPI PUSH2 0xE11 SWAP1 PUSH2 0xB9B JUMP JUMPDEST SWAP2 PUSH0 PUSH2 0xC09 JUMP JUMPDEST RETURNDATASIZE SWAP2 POP PUSH2 0xDF3 JUMP JUMPDEST ISZERO PUSH2 0xE27 JUMPI JUMP JUMPDEST PUSH1 0x40 MLOAD PUSH3 0x461BCD PUSH1 0xE5 SHL DUP2 MSTORE PUSH1 0x20 PUSH1 0x4 DUP3 ADD MSTORE PUSH1 0x1F PUSH1 0x24 DUP3 ADD MSTORE PUSH32 0x426164676520616C7265616479206174206D6178696D756D2072617269747900 PUSH1 0x44 DUP3 ADD MSTORE PUSH1 0x64 SWAP1 REVERT JUMPDEST PUSH1 0xFF AND DUP1 ISZERO PUSH2 0xF4B JUMPI PUSH1 0x1 DUP2 EQ PUSH2 0xF28 JUMPI PUSH1 0x2 DUP2 EQ PUSH2 0xF05 JUMPI PUSH1 0x3 DUP2 EQ PUSH2 0xEDD JUMPI PUSH1 0x4 EQ PUSH2 0xEB9 JUMPI PUSH1 0x40 MLOAD PUSH2 0xEA2 PUSH1 0x40 DUP3 PUSH2 0xB79 JUMP JUMPDEST PUSH1 0x7 DUP2 MSTORE PUSH7 0x2AA725A727ABA7 PUSH1 0xC9 SHL PUSH1 0x20 DUP3 ADD MSTORE SWAP1 JUMP JUMPDEST PUSH1 0x40 MLOAD PUSH2 0xEC7 PUSH1 0x40 DUP3 PUSH2 0xB79 JUMP JUMPDEST PUSH1 0x6 DUP2 MSTORE PUSH6 0x4D5954484943 PUSH1 0xD0 SHL PUSH1 0x20 DUP3 ADD MSTORE SWAP1 JUMP JUMPDEST POP PUSH1 0x40 MLOAD PUSH2 0xEEC PUSH1 0x40 DUP3 PUSH2 0xB79 JUMP JUMPDEST PUSH1 0x9 DUP2 MSTORE PUSH9 0x4C4547454E44415259 PUSH1 0xB8 SHL PUSH1 0x20 DUP3 ADD MSTORE SWAP1 JUMP JUMPDEST POP PUSH1 0x40 MLOAD PUSH2 0xF14 PUSH1 0x40 DUP3 PUSH2 0xB79 JUMP JUMPDEST PUSH1 0x4 DUP2 MSTORE PUSH4 0x45504943 PUSH1 0xE0 SHL PUSH1 0x20 DUP3 ADD MSTORE SWAP1 JUMP JUMPDEST POP PUSH1 0x40 MLOAD PUSH2 0xF37 PUSH1 0x40 DUP3 PUSH2 0xB79 JUMP JUMPDEST PUSH1 0x4 DUP2 MSTORE PUSH4 0x52415245 PUSH1 0xE0 SHL PUSH1 0x20 DUP3 ADD MSTORE SWAP1 JUMP JUMPDEST POP PUSH1 0x40 MLOAD PUSH2 0xF5A PUSH1 0x40 DUP3 PUSH2 0xB79 JUMP JUMPDEST PUSH1 0x6 DUP2 MSTORE PUSH6 0x21A7A6A6A7A7 PUSH1 0xD1 SHL PUSH1 0x20 DUP3 ADD MSTORE SWAP1 JUMP JUMPDEST DUP2 PUSH1 0x1F DUP3 ADD SLT ISZERO PUSH2 0x3EB JUMPI DUP1 MLOAD SWAP1 PUSH8 0xFFFFFFFFFFFFFFFF DUP3 GT PUSH2 0xB65 JUMPI PUSH1 0x40 MLOAD SWAP3 PUSH2 0xFA5 PUSH1 0x1F DUP5 ADD PUSH1 0x1F NOT AND PUSH1 0x20 ADD DUP6 PUSH2 0xB79 JUMP JUMPDEST DUP3 DUP5 MSTORE PUSH1 0x20 DUP4 DUP4 ADD ADD GT PUSH2 0x3EB JUMPI DUP2 PUSH0 SWAP3 PUSH1 0x20 DUP1 SWAP4 ADD DUP4 DUP7 ADD MCOPY DUP4 ADD ADD MSTORE SWAP1 JUMP JUMPDEST MLOAD SWAP1 DUP2 ISZERO ISZERO DUP3 SUB PUSH2 0x3EB JUMPI JUMP JUMPDEST PUSH0 PUSH2 0x1A0 PUSH1 0x40 MLOAD PUSH2 0xFE3 DUP2 PUSH2 0xB48 JUMP JUMPDEST DUP3 DUP2 MSTORE PUSH1 0x60 PUSH1 0x20 DUP3 ADD MSTORE PUSH1 0x60 PUSH1 0x40 DUP3 ADD MSTORE PUSH1 0x60 DUP1 DUP3 ADD MSTORE DUP3 PUSH1 0x80 DUP3 ADD MSTORE DUP3 PUSH1 0xA0 DUP3 ADD MSTORE DUP3 PUSH1 0xC0 DUP3 ADD MSTORE DUP3 PUSH1 0xE0 DUP3 ADD MSTORE DUP3 PUSH2 0x100 DUP3 ADD MSTORE DUP3 PUSH2 0x120 DUP3 ADD MSTORE DUP3 PUSH2 0x140 DUP3 ADD MSTORE PUSH1 0x60 PUSH2 0x160 DUP3 ADD MSTORE DUP3 PUSH2 0x180 DUP3 ADD MSTORE ADD MSTORE PUSH0 PUSH1 0x1 DUP1 PUSH1 0xA0 SHL SUB PUSH1 0x3 SLOAD AND SWAP2 PUSH1 0x24 PUSH1 0x40 MLOAD DUP1 SWAP5 DUP2 SWAP4 PUSH4 0x98E36D8B PUSH1 0xE0 SHL DUP4 MSTORE PUSH1 0x4 DUP4 ADD MSTORE GAS STATICCALL DUP1 ISZERO PUSH2 0x3E0 JUMPI PUSH0 SWAP2 PUSH0 PUSH0 PUSH0 PUSH0 PUSH0 PUSH0 PUSH0 SWAP2 PUSH0 SWAP4 PUSH0 SWAP6 PUSH0 SWAP8 PUSH0 SWAP10 PUSH0 SWAP12 PUSH0 SWAP14 PUSH2 0x10FA JUMPI JUMPDEST POP PUSH1 0x20 PUSH1 0x40 MLOAD SWAP15 DUP16 SWAP1 PUSH2 0x1092 DUP3 PUSH2 0xB48 JUMP JUMPDEST DUP2 MSTORE ADD MSTORE PUSH1 0x40 DUP14 ADD MSTORE PUSH1 0x60 DUP13 ADD MSTORE PUSH1 0x80 DUP12 ADD MSTORE PUSH1 0xA0 DUP11 ADD MSTORE PUSH2 0x10B3 DUP2 PUSH2 0xBAF JUMP JUMPDEST PUSH1 0xC0 DUP10 ADD MSTORE PUSH2 0x10C1 DUP2 PUSH2 0xBAF JUMP JUMPDEST PUSH1 0xE0 DUP9 ADD MSTORE PUSH2 0x100 DUP8 ADD MSTORE PUSH1 0x1 PUSH1 0x1 PUSH1 0xA0 SHL SUB AND PUSH2 0x120 DUP7 ADD MSTORE ISZERO ISZERO PUSH2 0x140 DUP6 ADD MSTORE PUSH2 0x160 DUP5 ADD MSTORE PUSH2 0x180 DUP4 ADD MSTORE ISZERO ISZERO PUSH2 0x1A0 DUP3 ADD MSTORE SWAP1 JUMP JUMPDEST SWAP14 POP POP POP POP POP POP POP POP POP POP POP POP POP POP RETURNDATASIZE DUP1 PUSH0 DUP4 RETURNDATACOPY PUSH2 0x1118 DUP2 DUP4 PUSH2 0xB79 JUMP JUMPDEST DUP2 ADD PUSH2 0x1C0 DUP3 DUP3 SUB SLT PUSH2 0x3EB JUMPI DUP2 MLOAD PUSH1 0x20 DUP4 ADD MLOAD PUSH8 0xFFFFFFFFFFFFFFFF DUP2 GT PUSH2 0x3EB JUMPI DUP3 PUSH2 0x1147 SWAP2 DUP6 ADD PUSH2 0xF70 JUMP JUMPDEST SWAP3 PUSH1 0x40 DUP2 ADD MLOAD PUSH8 0xFFFFFFFFFFFFFFFF DUP2 GT PUSH2 0x3EB JUMPI DUP4 PUSH2 0x1168 SWAP2 DUP4 ADD PUSH2 0xF70 JUMP JUMPDEST SWAP3 PUSH1 0x60 DUP3 ADD MLOAD PUSH8 0xFFFFFFFFFFFFFFFF DUP2 GT PUSH2 0x3EB JUMPI DUP2 PUSH2 0x1189 SWAP2 DUP5 ADD PUSH2 0xF70 JUMP JUMPDEST SWAP1 PUSH1 0x80 DUP4 ADD MLOAD PUSH1 0xA0 DUP5 ADD MLOAD PUSH1 0xC0 DUP6 ADD MLOAD PUSH1 0x5 DUP2 LT ISZERO PUSH2 0x3EB JUMPI PUSH1 0xE0 DUP7 ADD MLOAD SWAP1 PUSH1 0x5 DUP3 LT ISZERO PUSH2 0x3EB JUMPI PUSH2 0x100 DUP8 ADD MLOAD SWAP3 PUSH2 0x11C5 PUSH2 0x120 DUP10 ADD PUSH2 0xB9B JUMP JUMPDEST SWAP5 PUSH2 0x11D3 PUSH2 0x140 DUP11 ADD PUSH2 0xFC6 JUMP JUMPDEST SWAP7 PUSH2 0x160 DUP11 ADD MLOAD SWAP1 PUSH8 0xFFFFFFFFFFFFFFFF DUP3 GT PUSH2 0x3EB JUMPI PUSH2 0x11F5 SWAP2 DUP12 ADD PUSH2 0xF70 JUMP JUMPDEST SWAP8 PUSH2 0x1209 PUSH2 0x1A0 PUSH2 0x180 DUP13 ADD MLOAD SWAP12 ADD PUSH2 0xFC6 JUMP JUMPDEST SWAP11 SWAP13 SWAP12 SWAP1 SWAP2 SWAP3 SWAP4 SWAP5 SWAP6 SWAP7 SWAP8 SWAP9 SWAP10 SWAP11 SWAP12 PUSH0 PUSH2 0x1080 JUMP JUMPDEST PUSH0 SLOAD PUSH1 0x1 PUSH1 0x1 PUSH1 0xA0 SHL SUB AND CALLER SUB PUSH2 0x1231 JUMPI JUMP JUMPDEST PUSH4 0x118CDAA7 PUSH1 0xE0 SHL PUSH0 MSTORE CALLER PUSH1 0x4 MSTORE PUSH1 0x24 PUSH0 REVERT JUMPDEST PUSH1 0xFF PUSH0 SLOAD PUSH1 0xA0 SHR AND PUSH2 0x1252 JUMPI JUMP JUMPDEST PUSH4 0xD93C0665 PUSH1 0xE0 SHL PUSH0 MSTORE PUSH1 0x4 PUSH0 REVERT INVALID LOG2 PUSH5 0x6970667358 0x22 SLT KECCAK256 TSTORE 0xEE 0xF8 0xCE 0xD9 PUSH3 0x5D0C8B PUSH32 0x4034E7E2F3C64249182B96DEA0102D6B8507074BDF7164736F6C634300081C00 CALLER "},"methodIdentifiers":{"badgeNFT()":"4348e0e9","canUpgradeBadge(uint256,address)":"1d157ca7","getNextRarity(uint256)":"2c438829","getRarityName(uint8)":"75057e1d","getUpgradeCost(uint256)":"ff329e7c","meeToken()":"656bbbfa","owner()":"8da5cb5b","pause()":"8456cb59","paused()":"5c975abb","rarityProgression(uint8)":"77815733","renounceOwnership()":"715018a6","setRarityProgression(uint8,uint8)":"bd6515ec","setUpgradeCost(uint8,uint256)":"4d0d717f","transferOwnership(address)":"f2fde38b","unpause()":"3f4ba83a","updateBadgeNFT(address)":"25df233a","updateMeeToken(address)":"96e747ed","upgradeBadge(uint256)":"dc6d0a12","upgradeCosts(uint8)":"354a75c2"}}}}}