{"project/contracts/FootballNFT.sol":{"FootballNFT":{"abi":[{"inputs":[{"internalType":"string","name":"name","type":"string"},{"internalType":"string","name":"symbol","type":"string"}],"stateMutability":"nonpayable","type":"constructor"},{"inputs":[{"internalType":"address","name":"sender","type":"address"},{"internalType":"uint256","name":"tokenId","type":"uint256"},{"internalType":"address","name":"owner","type":"address"}],"name":"ERC721IncorrectOwner","type":"error"},{"inputs":[{"internalType":"address","name":"operator","type":"address"},{"internalType":"uint256","name":"tokenId","type":"uint256"}],"name":"ERC721InsufficientApproval","type":"error"},{"inputs":[{"internalType":"address","name":"approver","type":"address"}],"name":"ERC721InvalidApprover","type":"error"},{"inputs":[{"internalType":"address","name":"operator","type":"address"}],"name":"ERC721InvalidOperator","type":"error"},{"inputs":[{"internalType":"address","name":"owner","type":"address"}],"name":"ERC721InvalidOwner","type":"error"},{"inputs":[{"internalType":"address","name":"receiver","type":"address"}],"name":"ERC721InvalidReceiver","type":"error"},{"inputs":[{"internalType":"address","name":"sender","type":"address"}],"name":"ERC721InvalidSender","type":"error"},{"inputs":[{"internalType":"uint256","name":"tokenId","type":"uint256"}],"name":"ERC721NonexistentToken","type":"error"},{"inputs":[{"internalType":"address","name":"owner","type":"address"}],"name":"OwnableInvalidOwner","type":"error"},{"inputs":[{"internalType":"address","name":"account","type":"address"}],"name":"OwnableUnauthorizedAccount","type":"error"},{"anonymous":false,"inputs":[{"indexed":true,"internalType":"address","name":"owner","type":"address"},{"indexed":true,"internalType":"address","name":"approved","type":"address"},{"indexed":true,"internalType":"uint256","name":"tokenId","type":"uint256"}],"name":"Approval","type":"event"},{"anonymous":false,"inputs":[{"indexed":true,"internalType":"address","name":"owner","type":"address"},{"indexed":true,"internalType":"address","name":"operator","type":"address"},{"indexed":false,"internalType":"bool","name":"approved","type":"bool"}],"name":"ApprovalForAll","type":"event"},{"anonymous":false,"inputs":[{"indexed":true,"internalType":"address","name":"minter","type":"address"}],"name":"MinterAuthorized","type":"event"},{"anonymous":false,"inputs":[{"indexed":true,"internalType":"address","name":"minter","type":"address"}],"name":"MinterRevoked","type":"event"},{"anonymous":false,"inputs":[{"indexed":true,"internalType":"address","name":"previousOwner","type":"address"},{"indexed":true,"internalType":"address","name":"newOwner","type":"address"}],"name":"OwnershipTransferred","type":"event"},{"anonymous":false,"inputs":[{"indexed":true,"internalType":"address","name":"to","type":"address"},{"indexed":true,"internalType":"uint256","name":"tokenId","type":"uint256"},{"indexed":false,"internalType":"string","name":"name","type":"string"},{"indexed":false,"internalType":"uint256","name":"rating","type":"uint256"}],"name":"PlayerMinted","type":"event"},{"anonymous":false,"inputs":[{"indexed":true,"internalType":"address","name":"from","type":"address"},{"indexed":true,"internalType":"address","name":"to","type":"address"},{"indexed":true,"internalType":"uint256","name":"tokenId","type":"uint256"}],"name":"Transfer","type":"event"},{"inputs":[{"internalType":"address","name":"to","type":"address"},{"internalType":"uint256","name":"tokenId","type":"uint256"}],"name":"approve","outputs":[],"stateMutability":"nonpayable","type":"function"},{"inputs":[{"internalType":"address","name":"minter","type":"address"}],"name":"authorizeMinter","outputs":[],"stateMutability":"nonpayable","type":"function"},{"inputs":[{"internalType":"address","name":"","type":"address"}],"name":"authorizedMinters","outputs":[{"internalType":"bool","name":"","type":"bool"}],"stateMutability":"view","type":"function"},{"inputs":[{"internalType":"address","name":"owner","type":"address"}],"name":"balanceOf","outputs":[{"internalType":"uint256","name":"","type":"uint256"}],"stateMutability":"view","type":"function"},{"inputs":[{"internalType":"uint256","name":"tokenId","type":"uint256"}],"name":"getApproved","outputs":[{"internalType":"address","name":"","type":"address"}],"stateMutability":"view","type":"function"},{"inputs":[{"internalType":"uint256","name":"tokenId","type":"uint256"}],"name":"getPlayer","outputs":[{"components":[{"internalType":"string","name":"name","type":"string"},{"internalType":"string","name":"position","type":"string"},{"internalType":"uint256","name":"rating","type":"uint256"},{"internalType":"string","name":"nationality","type":"string"},{"internalType":"uint256","name":"mintedAt","type":"uint256"},{"internalType":"bool","name":"isLegendary","type":"bool"}],"internalType":"struct FootballNFT.Player","name":"","type":"tuple"}],"stateMutability":"view","type":"function"},{"inputs":[{"internalType":"address","name":"user","type":"address"}],"name":"getUserPlayers","outputs":[{"internalType":"uint256[]","name":"","type":"uint256[]"}],"stateMutability":"view","type":"function"},{"inputs":[{"internalType":"address","name":"owner","type":"address"},{"internalType":"address","name":"operator","type":"address"}],"name":"isApprovedForAll","outputs":[{"internalType":"bool","name":"","type":"bool"}],"stateMutability":"view","type":"function"},{"inputs":[{"internalType":"address","name":"minter","type":"address"}],"name":"isAuthorizedMinter","outputs":[{"internalType":"bool","name":"","type":"bool"}],"stateMutability":"view","type":"function"},{"inputs":[{"internalType":"address","name":"to","type":"address"},{"internalType":"string","name":"name","type":"string"},{"internalType":"string","name":"position","type":"string"},{"internalType":"uint256","name":"rating","type":"uint256"},{"internalType":"string","name":"nationality","type":"string"},{"internalType":"bool","name":"isLegendary","type":"bool"},{"internalType":"string","name":"tokenURI","type":"string"}],"name":"mintPlayer","outputs":[{"internalType":"uint256","name":"","type":"uint256"}],"stateMutability":"nonpayable","type":"function"},{"inputs":[],"name":"name","outputs":[{"internalType":"string","name":"","type":"string"}],"stateMutability":"view","type":"function"},{"inputs":[],"name":"nextTokenId","outputs":[{"internalType":"uint256","name":"","type":"uint256"}],"stateMutability":"view","type":"function"},{"inputs":[],"name":"owner","outputs":[{"internalType":"address","name":"","type":"address"}],"stateMutability":"view","type":"function"},{"inputs":[{"internalType":"uint256","name":"tokenId","type":"uint256"}],"name":"ownerOf","outputs":[{"internalType":"address","name":"","type":"address"}],"stateMutability":"view","type":"function"},{"inputs":[{"internalType":"string","name":"","type":"string"}],"name":"playerExists","outputs":[{"internalType":"bool","name":"","type":"bool"}],"stateMutability":"view","type":"function"},{"inputs":[{"internalType":"uint256","name":"","type":"uint256"}],"name":"players","outputs":[{"internalType":"string","name":"name","type":"string"},{"internalType":"string","name":"position","type":"string"},{"internalType":"uint256","name":"rating","type":"uint256"},{"internalType":"string","name":"nationality","type":"string"},{"internalType":"uint256","name":"mintedAt","type":"uint256"},{"internalType":"bool","name":"isLegendary","type":"bool"}],"stateMutability":"view","type":"function"},{"inputs":[],"name":"renounceOwnership","outputs":[],"stateMutability":"nonpayable","type":"function"},{"inputs":[{"internalType":"address","name":"minter","type":"address"}],"name":"revokeMinter","outputs":[],"stateMutability":"nonpayable","type":"function"},{"inputs":[{"internalType":"address","name":"from","type":"address"},{"internalType":"address","name":"to","type":"address"},{"internalType":"uint256","name":"tokenId","type":"uint256"}],"name":"safeTransferFrom","outputs":[],"stateMutability":"nonpayable","type":"function"},{"inputs":[{"internalType":"address","name":"from","type":"address"},{"internalType":"address","name":"to","type":"address"},{"internalType":"uint256","name":"tokenId","type":"uint256"},{"internalType":"bytes","name":"data","type":"bytes"}],"name":"safeTransferFrom","outputs":[],"stateMutability":"nonpayable","type":"function"},{"inputs":[{"internalType":"address","name":"operator","type":"address"},{"internalType":"bool","name":"approved","type":"bool"}],"name":"setApprovalForAll","outputs":[],"stateMutability":"nonpayable","type":"function"},{"inputs":[{"internalType":"string","name":"baseURI","type":"string"}],"name":"setBaseURI","outputs":[],"stateMutability":"nonpayable","type":"function"},{"inputs":[{"internalType":"bytes4","name":"interfaceId","type":"bytes4"}],"name":"supportsInterface","outputs":[{"internalType":"bool","name":"","type":"bool"}],"stateMutability":"view","type":"function"},{"inputs":[],"name":"symbol","outputs":[{"internalType":"string","name":"","type":"string"}],"stateMutability":"view","type":"function"},{"inputs":[{"internalType":"uint256","name":"tokenId","type":"uint256"}],"name":"tokenURI","outputs":[{"internalType":"string","name":"","type":"string"}],"stateMutability":"view","type":"function"},{"inputs":[{"internalType":"address","name":"from","type":"address"},{"internalType":"address","name":"to","type":"address"},{"internalType":"uint256","name":"tokenId","type":"uint256"}],"name":"transferFrom","outputs":[],"stateMutability":"nonpayable","type":"function"},{"inputs":[{"internalType":"address","name":"newOwner","type":"address"}],"name":"transferOwnership","outputs":[],"stateMutability":"nonpayable","type":"function"}],"evm":{"bytecode":{"linkReferences":{},"object":"60806040523461036d576121a58038038061001981610371565b92833981019060408183031261036d5780516001600160401b03811161036d5782610045918301610396565b60208201519092906001600160401b03811161036d576100659201610396565b81516001600160401b038111610283575f54600181811c91168015610363575b602082101461026557601f8111610301575b50602092601f82116001146102a257928192935f92610297575b50508160011b915f199060031b1c1916175f555b80516001600160401b03811161028357600154600181811c91168015610279575b602082101461026557601f8111610202575b50602091601f82116001146101a2579181925f92610197575b50508160011b915f199060031b1c1916176001555b33156101845760068054336001600160a01b03198216811790925560405191906001600160a01b03167f8be0079c531659141344cd1fd0a4f28419497f9722a3daafe3b4186f6b6457e05f80a36001600a55611dbd90816103e88239f35b631e4fbdf760e01b5f525f60045260245ffd5b015190505f80610111565b601f1982169260015f52805f20915f5b8581106101ea575083600195106101d2575b505050811b01600155610126565b01515f1960f88460031b161c191690555f80806101c4565b919260206001819286850151815501940192016101b2565b60015f527fb10e2d527612073b26eecdfd717e6a320cf44b4afac2b0732d9fcbe2b7fa0cf6601f830160051c8101916020841061025b575b601f0160051c01905b81811061025057506100f8565b5f8155600101610243565b909150819061023a565b634e487b7160e01b5f52602260045260245ffd5b90607f16906100e6565b634e487b7160e01b5f52604160045260245ffd5b015190505f806100b1565b601f198216935f8052805f20915f5b8681106102e957508360019596106102d1575b505050811b015f556100c5565b01515f1960f88460031b161c191690555f80806102c4565b919260206001819286850151815501940192016102b1565b5f80527f290decd9548b62a8d60345a988386fc84ba6bc95484008f6362f93160ef3e563601f830160051c81019160208410610359575b601f0160051c01905b81811061034e5750610097565b5f8155600101610341565b9091508190610338565b90607f1690610085565b5f80fd5b6040519190601f01601f191682016001600160401b0381118382101761028357604052565b81601f8201121561036d578051906001600160401b038211610283576103c5601f8301601f1916602001610371565b928284526020838301011161036d57815f9260208093018386015e830101529056fe6080806040526004361015610012575f80fd5b5f3560e01c90816301ffc9a7146117205750806306fdde031461167e578063081812fc14611642578063095ea7b3146115585780630c984832146114f057806323b872dd146114d957806342842e0e146114b057806355f804b3146113485780636352211e1461131857806370a08231146112ed578063715018a61461129257806375794a3c14611275578063842392c21461121a5780638da5cb5b146111f257806395d89b4114611128578063a22cb46514611084578063a905b1291461099d578063aa2fe91b14610960578063ad31ff8914610906578063b88d4fde146108a5578063c87b56dd146105ac578063cfbd488514610547578063df2db9e41461042d578063e55ae4e8146102c9578063e985e9c514610272578063f2fde38b146101ec5763f71d96cb14610145575f80fd5b346101e85760203660031901126101e8576004355f5260076020526101b660405f20610170816118f8565b9061017d600182016118f8565b6101d76002830154610191600385016118f8565b6101c460ff60056004880154970154169460405198899860c08a5260c08a019061178b565b9088820360208a015261178b565b916040870152858203606087015261178b565b916080840152151560a08301520390f35b5f80fd5b346101e85760203660031901126101e8576102056117af565b61020d611d03565b6001600160a01b0316801561025f57600680546001600160a01b0319811683179091556001600160a01b03167f8be0079c531659141344cd1fd0a4f28419497f9722a3daafe3b4186f6b6457e05f80a3005b631e4fbdf760e01b5f525f60045260245ffd5b346101e85760403660031901126101e85761028b6117af565b6102936117c5565b9060018060a01b03165f52600560205260405f209060018060a01b03165f52602052602060ff60405f2054166040519015158152f35b346101e85760203660031901126101e8576004355f60a06040516102ec81611815565b6060815260606020820152826040820152606080820152826080820152015261031481611d2a565b156103f0575f5260076020526103b160405f206040519061033482611815565b61033d816118f8565b825261034b600182016118f8565b602083019081526103dd60028301546040850190815261036d600385016118f8565b606086019081526103c460ff600560048801549760808a019889520154169460a08801951515865260405198899860208a525160c060208b015260e08a019061178b565b9051888203601f190160408a015261178b565b9151606087015251858203601f1901608087015261178b565b915160a084015251151560c08301520390f35b60405162461bcd60e51b8152602060048201526015602482015274141b185e595c88191bd95cc81b9bdd08195e1a5cdd605a1b6044820152606490fd5b346101e85760203660031901126101e8576104466117af565b61044f81611b25565b9061047261045c83611cb8565b9261046a6040519485611830565b808452611cb8565b602083019190601f1901368337600a545f9160015b8281106104d2578486604051918291602083019060208452518091526040830191905f5b8181106104b9575050500390f35b82518452859450602093840193909201916001016104ab565b6104db81611d2a565b8061052a575b6104ee575b600101610487565b9285518110156105165761050e8185602060019460051b8a010152611b56565b9390506104e6565b634e487b7160e01b5f52603260045260245ffd5b5061053481611ccf565b6001600160a01b038381169116146104e1565b346101e85760203660031901126101e8576105606117af565b610568611d03565b6001600160a01b03165f818152600860205260408120805460ff191690557f44f4322f8daa225d5f4877ad0f7d3dfba248a774396f3ca99405ed40a044fe819080a2005b346101e85760203660031901126101e8576004356105c981611d2a565b1561086057604051600b5490915f836105e1846118c0565b9182825260208201946001811690815f1461084457506001146107f8575b61060b92500384611830565b8251156107dc575f818072184f03e93ff9f4daa797ed6e38ed64bf6a1f0160401b8110156107b6575b50806d04ee2d6d415b85acef8100000000600a92101561079b575b662386f26fc10000811015610787575b6305f5e100811015610776575b612710811015610767575b6064811015610759575b1015610751575b6001810191600a60216106b361069d86611851565b956106ab6040519788611830565b808752611851565b602086019490601f19013686378501015b5f1901916f181899199a1a9b1b9c1cb0b131b232b360811b8282061a8353049081156106f257600a906106c4565b505061074d936020600592610739946040519687945180918587015e840190838201905f8252519283915e010164173539b7b760d91b815203601a19810184520182611830565b60405191829160208352602083019061178b565b0390f35b600101610688565b606460029104920191610681565b61271060049104920191610677565b6305f5e1006008910492019161066c565b662386f26fc100006010910492019161065f565b6d04ee2d6d415b85acef81000000006020910492019161064f565b6040925072184f03e93ff9f4daa797ed6e38ed64bf6a1f0160401b90049050600a610634565b50505061074d6040516107f0602082611830565b5f8152610739565b50600b5f90815290915f516020611d685f395f51905f525b81831061082857505090602061060b928201016105ff565b6020919350806001915483858a01015201910190918592610810565b60ff191686525061060b92151560051b820160200190506105ff565b60405162461bcd60e51b815260206004820152601f60248201527f55524920717565727920666f72206e6f6e6578697374656e7420746f6b656e006044820152606490fd5b346101e85760803660031901126101e8576108be6117af565b6108c66117c5565b606435916001600160401b0383116101e857366023840112156101e8576108fa61090493369060248160040135910161186c565b9160443591611b78565b005b346101e85760203660031901126101e8576004356001600160401b0381116101e85760ff60208061093c819436906004016118a2565b604051928184925191829101835e8101600981520301902054166040519015158152f35b346101e85760203660031901126101e8576001600160a01b036109816117af565b165f526008602052602060ff60405f2054166040519015158152f35b346101e85760e03660031901126101e8576109b66117af565b6024356001600160401b0381116101e8576109d59036906004016118a2565b906044356001600160401b0381116101e8576109f59036906004016118a2565b90606435906084356001600160401b0381116101e857610a199036906004016118a2565b60a435908115158092036101e85760c4356001600160401b0381116101e857610a469036906004016118a2565b50335f52600860205260ff60405f2054168015611070575b15611032576040519160ff875193602081818b01968088835e810160098152030190205416610ff55760648511610fb057600a5495610a9c87611b56565b600a5560405192610aac84611815565b888452602084019182526040840187815260608501918252608085019242845260a08601948552895f52600760205260405f2095518051906001600160401b038211610e20578190610afe89546118c0565b601f8111610f60575b50602090601f8311600114610efd575f92610ef2575b50508160011b915f199060031b1c19161786555b51805160018701916001600160401b038211610e20578190610b5384546118c0565b601f8111610ea2575b50602090601f8311600114610e3f575f92610e34575b50508160011b915f199060031b1c19161790555b51600285015551805160038501916001600160401b038211610e2057610bac83546118c0565b601f8111610ddb575b50602090601f8311600114610d6f579180610c0897969492600596945f92610d64575b50508160011b915f199060031b1c19161790555b51600484015551151591019060ff801983541691151516179055565b6020604051809287518091835e600990820190815203019020805460ff191660011790556001600160a01b03168015610d51575f838152600260205260409020546001600160a01b03168015159081610d1e575b825f52600360205260405f2060018154019055845f52600260205260405f20836bffffffffffffffffffffffff60a01b8254161790558483827fddf252ad1be2c89b69c2b068fc378daa952ba7f163c4a11628f55a4df523b3ef5f80a450610d0b577f65be208f5bd0d462080a13198eaa9d2c0bd154e8cd4914c028ae095d4078079c610cfb602095859460405192839260408452604084019061178b565b90888301520390a3604051908152f35b6339e3563760e11b5f525f60045260245ffd5b5f85815260046020526040902080546001600160a01b0319169055805f52600360205260405f205f198154019055610c5c565b633250574960e11b5f525f60045260245ffd5b015190508d80610bd8565b90601f19831691845f52815f20925f5b818110610dc3575092600192859260059896610c089b9a989610610dab575b505050811b019055610bec565b01515f1960f88460031b161c191690558d8080610d9e565b92936020600181928786015181550195019301610d7f565b835f5260205f20601f840160051c81019160208510610e16575b601f0160051c01905b818110610e0b5750610bb5565b5f8155600101610dfe565b9091508190610df5565b634e487b7160e01b5f52604160045260245ffd5b015190508d80610b72565b5f8581528281209350601f198516905b818110610e8a5750908460019594939210610e72575b505050811b019055610b86565b01515f1960f88460031b161c191690558d8080610e65565b92936020600181928786015181550195019301610e4f565b909150835f5260205f20601f840160051c81019160208510610ee8575b90601f859493920160051c01905b818110610eda5750610b5c565b5f8155849350600101610ecd565b9091508190610ebf565b015190508d80610b1d565b5f8a81528281209350601f198516905b818110610f485750908460019594939210610f30575b505050811b018655610b31565b01515f1960f88460031b161c191690558d8080610f23565b92936020600181928786015181550195019301610f0d565b909150885f5260205f20601f840160051c81019160208510610fa6575b90601f859493920160051c01905b818110610f985750610b07565b5f8155849350600101610f8b565b9091508190610f7d565b60405162461bcd60e51b815260206004820152601860248201527f526174696e672063616e6e6f74206578636565642031303000000000000000006044820152606490fd5b60405162461bcd60e51b8152602060048201526015602482015274506c6179657220616c72656164792065786973747360581b6044820152606490fd5b60405162461bcd60e51b8152602060048201526016602482015275139bdd08185d5d1a1bdc9a5e9959081d1bc81b5a5b9d60521b6044820152606490fd5b506006546001600160a01b03163314610a5e565b346101e85760403660031901126101e85761109d6117af565b60243590811515908183036101e8576001600160a01b0316918215611115576110e790335f52600560205260405f20845f5260205260405f209060ff801983541691151516179055565b6040519081527f17307eab39ab6107e8899845ad3d59bd9653f200f220920489ca2b5937696c3160203392a3005b82630b61174360e31b5f5260045260245ffd5b346101e8575f3660031901126101e8576040515f600154611148816118c0565b80845290600181169081156111ce5750600114611170575b61074d8361073981850382611830565b60015f9081527fb10e2d527612073b26eecdfd717e6a320cf44b4afac2b0732d9fcbe2b7fa0cf6939250905b8082106111b457509091508101602001610739611160565b91926001816020925483858801015201910190929161119c565b60ff191660208086019190915291151560051b840190910191506107399050611160565b346101e8575f3660031901126101e8576006546040516001600160a01b039091168152602090f35b346101e85760203660031901126101e85760206001600160a01b0361123d6117af565b16805f526008825260ff60405f205416908115611260575b506040519015158152f35b6006546001600160a01b031614905082611255565b346101e8575f3660031901126101e8576020600a54604051908152f35b346101e8575f3660031901126101e8576112aa611d03565b600680546001600160a01b031981169091555f906001600160a01b03167f8be0079c531659141344cd1fd0a4f28419497f9722a3daafe3b4186f6b6457e08280a3005b346101e85760203660031901126101e857602061131061130b6117af565b611b25565b604051908152f35b346101e85760203660031901126101e8576020611336600435611ccf565b6040516001600160a01b039091168152f35b346101e85760203660031901126101e8576004356001600160401b0381116101e8576113789036906004016118a2565b611380611d03565b80516001600160401b038111610e205761139b600b546118c0565b601f8111611448575b50602091601f82116001146113e0579181925f926113d5575b50505f19600383901b1c191660019190911b17600b55005b0151905082806113bd565b601f19821692600b5f525f516020611d685f395f51905f52915f5b85811061143057508360019510611418575b505050811b01600b55005b01515f1960f88460031b161c1916905582808061140d565b919260206001819286850151815501940192016113fb565b600b5f52601f820160051c5f516020611d685f395f51905f5201906020831061149b575b601f0160051c5f516020611d685f395f51905f5201905b81811061149057506113a4565b5f8155600101611483565b5f516020611d685f395f51905f52915061146c565b346101e8576109046114c1366117db565b90604051926114d1602085611830565b5f8452611b78565b346101e8576109046114ea366117db565b91611998565b346101e85760203660031901126101e8576115096117af565b611511611d03565b6001600160a01b03165f818152600860205260408120805460ff191660011790557f83b05b6735acd4b85e3bded8e72c851d1a87718f81e3c8e6f0c9d9a2baa88e469080a2005b346101e85760403660031901126101e8576115716117af565b60243561157d81611ccf565b3315158061162f575b80611602575b6115ef5781906001600160a01b0384811691167f8c5be1e5ebec7d5bd14f71427d1e84f3dd0314c0f7b2291e5b200ac8c7c3b9255f80a45f90815260046020526040902080546001600160a01b0319166001600160a01b03909216919091179055005b63a9fbf51f60e01b5f523360045260245ffd5b506001600160a01b0381165f90815260056020908152604080832033845290915290205460ff161561158c565b506001600160a01b038116331415611586565b346101e85760203660031901126101e85760043561165f81611ccf565b505f526004602052602060018060a01b0360405f205416604051908152f35b346101e8575f3660031901126101e8576040515f5f5461169d816118c0565b80845290600181169081156111ce57506001146116c45761074d8361073981850382611830565b5f8080527f290decd9548b62a8d60345a988386fc84ba6bc95484008f6362f93160ef3e563939250905b80821061170657509091508101602001610739611160565b9192600181602092548385880101520191019092916116ee565b346101e85760203660031901126101e8576004359063ffffffff60e01b82168092036101e8576020916380ac58cd60e01b811490811561177a575b8115611769575b5015158152f35b6301ffc9a760e01b14905083611762565b635b5e139f60e01b8114915061175b565b805180835260209291819084018484015e5f828201840152601f01601f1916010190565b600435906001600160a01b03821682036101e857565b602435906001600160a01b03821682036101e857565b60609060031901126101e8576004356001600160a01b03811681036101e857906024356001600160a01b03811681036101e8579060443590565b60c081019081106001600160401b03821117610e2057604052565b90601f801991011681019081106001600160401b03821117610e2057604052565b6001600160401b038111610e2057601f01601f191660200190565b92919261187882611851565b916118866040519384611830565b8294818452818301116101e8578281602093845f960137010152565b9080601f830112156101e8578160206118bd9335910161186c565b90565b90600182811c921680156118ee575b60208310146118da57565b634e487b7160e01b5f52602260045260245ffd5b91607f16916118cf565b9060405191825f82549261190b846118c0565b80845293600181169081156119765750600114611932575b5061193092500383611830565b565b90505f9291925260205f20905f915b81831061195a575050906020611930928201015f611923565b6020919350806001915483858901015201910190918492611941565b90506020925061193094915060ff191682840152151560051b8201015f611923565b6001600160a01b0390911691908215610d51575f828152600260205260409020546001600160a01b031692829033151580611a90575b5084611a5d575b805f52600360205260405f2060018154019055815f52600260205260405f20816bffffffffffffffffffffffff60a01b825416179055847fddf252ad1be2c89b69c2b068fc378daa952ba7f163c4a11628f55a4df523b3ef5f80a46001600160a01b0316808303611a4557505050565b6364283d7b60e01b5f5260045260245260445260645ffd5b5f82815260046020526040902080546001600160a01b0319169055845f52600360205260405f205f1981540190556119d5565b90915080611ad4575b15611aa65782905f6119ce565b8284611abe57637e27328960e01b5f5260045260245ffd5b63177e802f60e01b5f523360045260245260445ffd5b503384148015611b03575b80611a9957505f838152600460205260409020546001600160a01b03163314611a99565b505f84815260056020908152604080832033845290915290205460ff16611adf565b6001600160a01b03168015611b43575f52600360205260405f205490565b6322718ad960e21b5f525f60045260245ffd5b5f198114611b645760010190565b634e487b7160e01b5f52601160045260245ffd5b9291611b85818386611998565b813b611b92575b50505050565b604051630a85bd0160e11b81523360048201526001600160a01b0394851660248201526044810191909152608060648201529216919060209082908190611bdd90608483019061178b565b03815f865af15f9181611c73575b50611c4057503d15611c39573d611c0181611851565b90611c0f6040519283611830565b81523d5f602083013e5b80519081611c345782633250574960e11b5f5260045260245ffd5b602001fd5b6060611c19565b6001600160e01b03191663757a42ff60e11b01611c6157505f808080611b8c565b633250574960e11b5f5260045260245ffd5b9091506020813d602011611cb0575b81611c8f60209383611830565b810103126101e857516001600160e01b0319811681036101e857905f611beb565b3d9150611c82565b6001600160401b038111610e205760051b60200190565b5f818152600260205260409020546001600160a01b0316908115611cf1575090565b637e27328960e01b5f5260045260245ffd5b6006546001600160a01b03163303611d1757565b63118cdaa760e01b5f523360045260245ffd5b8015159081611d5b575b81611d3d575090565b5f908152600260205260409020546001600160a01b03161515919050565b600a5481109150611d3456fe0175b7a638427703f0dbe7bb9bbf987a2551717b34e79f33b5b1008d1fa01db9a2646970667358221220d4f86b5e196fa8c2595a9013601a4a578dc0eabc5781c97f65cc6bc9c3c6d2e464736f6c634300081c0033","opcodes":"PUSH1 0x80 PUSH1 0x40 MSTORE CALLVALUE PUSH2 0x36D JUMPI PUSH2 0x21A5 DUP1 CODESIZE SUB DUP1 PUSH2 0x19 DUP2 PUSH2 0x371 JUMP JUMPDEST SWAP3 DUP4 CODECOPY DUP2 ADD SWAP1 PUSH1 0x40 DUP2 DUP4 SUB SLT PUSH2 0x36D JUMPI DUP1 MLOAD PUSH1 0x1 PUSH1 0x1 PUSH1 0x40 SHL SUB DUP2 GT PUSH2 0x36D JUMPI DUP3 PUSH2 0x45 SWAP2 DUP4 ADD PUSH2 0x396 JUMP JUMPDEST PUSH1 0x20 DUP3 ADD MLOAD SWAP1 SWAP3 SWAP1 PUSH1 0x1 PUSH1 0x1 PUSH1 0x40 SHL SUB DUP2 GT PUSH2 0x36D JUMPI PUSH2 0x65 SWAP3 ADD PUSH2 0x396 JUMP JUMPDEST DUP2 MLOAD PUSH1 0x1 PUSH1 0x1 PUSH1 0x40 SHL SUB DUP2 GT PUSH2 0x283 JUMPI PUSH0 SLOAD PUSH1 0x1 DUP2 DUP2 SHR SWAP2 AND DUP1 ISZERO PUSH2 0x363 JUMPI JUMPDEST PUSH1 0x20 DUP3 LT EQ PUSH2 0x265 JUMPI PUSH1 0x1F DUP2 GT PUSH2 0x301 JUMPI JUMPDEST POP PUSH1 0x20 SWAP3 PUSH1 0x1F DUP3 GT PUSH1 0x1 EQ PUSH2 0x2A2 JUMPI SWAP3 DUP2 SWAP3 SWAP4 PUSH0 SWAP3 PUSH2 0x297 JUMPI JUMPDEST POP POP DUP2 PUSH1 0x1 SHL SWAP2 PUSH0 NOT SWAP1 PUSH1 0x3 SHL SHR NOT AND OR PUSH0 SSTORE JUMPDEST DUP1 MLOAD PUSH1 0x1 PUSH1 0x1 PUSH1 0x40 SHL SUB DUP2 GT PUSH2 0x283 JUMPI PUSH1 0x1 SLOAD PUSH1 0x1 DUP2 DUP2 SHR SWAP2 AND DUP1 ISZERO PUSH2 0x279 JUMPI JUMPDEST PUSH1 0x20 DUP3 LT EQ PUSH2 0x265 JUMPI PUSH1 0x1F DUP2 GT PUSH2 0x202 JUMPI JUMPDEST POP PUSH1 0x20 SWAP2 PUSH1 0x1F DUP3 GT PUSH1 0x1 EQ PUSH2 0x1A2 JUMPI SWAP2 DUP2 SWAP3 PUSH0 SWAP3 PUSH2 0x197 JUMPI JUMPDEST POP POP DUP2 PUSH1 0x1 SHL SWAP2 PUSH0 NOT SWAP1 PUSH1 0x3 SHL SHR NOT AND OR PUSH1 0x1 SSTORE JUMPDEST CALLER ISZERO PUSH2 0x184 JUMPI PUSH1 0x6 DUP1 SLOAD CALLER PUSH1 0x1 PUSH1 0x1 PUSH1 0xA0 SHL SUB NOT DUP3 AND DUP2 OR SWAP1 SWAP3 SSTORE PUSH1 0x40 MLOAD SWAP2 SWAP1 PUSH1 0x1 PUSH1 0x1 PUSH1 0xA0 SHL SUB AND PUSH32 0x8BE0079C531659141344CD1FD0A4F28419497F9722A3DAAFE3B4186F6B6457E0 PUSH0 DUP1 LOG3 PUSH1 0x1 PUSH1 0xA SSTORE PUSH2 0x1DBD SWAP1 DUP2 PUSH2 0x3E8 DUP3 CODECOPY RETURN JUMPDEST PUSH4 0x1E4FBDF7 PUSH1 0xE0 SHL PUSH0 MSTORE PUSH0 PUSH1 0x4 MSTORE PUSH1 0x24 PUSH0 REVERT JUMPDEST ADD MLOAD SWAP1 POP PUSH0 DUP1 PUSH2 0x111 JUMP JUMPDEST PUSH1 0x1F NOT DUP3 AND SWAP3 PUSH1 0x1 PUSH0 MSTORE DUP1 PUSH0 KECCAK256 SWAP2 PUSH0 JUMPDEST DUP6 DUP2 LT PUSH2 0x1EA JUMPI POP DUP4 PUSH1 0x1 SWAP6 LT PUSH2 0x1D2 JUMPI JUMPDEST POP POP POP DUP2 SHL ADD PUSH1 0x1 SSTORE PUSH2 0x126 JUMP JUMPDEST ADD MLOAD PUSH0 NOT PUSH1 0xF8 DUP5 PUSH1 0x3 SHL AND SHR NOT AND SWAP1 SSTORE PUSH0 DUP1 DUP1 PUSH2 0x1C4 JUMP JUMPDEST SWAP2 SWAP3 PUSH1 0x20 PUSH1 0x1 DUP2 SWAP3 DUP7 DUP6 ADD MLOAD DUP2 SSTORE ADD SWAP5 ADD SWAP3 ADD PUSH2 0x1B2 JUMP JUMPDEST PUSH1 0x1 PUSH0 MSTORE PUSH32 0xB10E2D527612073B26EECDFD717E6A320CF44B4AFAC2B0732D9FCBE2B7FA0CF6 PUSH1 0x1F DUP4 ADD PUSH1 0x5 SHR DUP2 ADD SWAP2 PUSH1 0x20 DUP5 LT PUSH2 0x25B JUMPI JUMPDEST PUSH1 0x1F ADD PUSH1 0x5 SHR ADD SWAP1 JUMPDEST DUP2 DUP2 LT PUSH2 0x250 JUMPI POP PUSH2 0xF8 JUMP JUMPDEST PUSH0 DUP2 SSTORE PUSH1 0x1 ADD PUSH2 0x243 JUMP JUMPDEST SWAP1 SWAP2 POP DUP2 SWAP1 PUSH2 0x23A JUMP JUMPDEST PUSH4 0x4E487B71 PUSH1 0xE0 SHL PUSH0 MSTORE PUSH1 0x22 PUSH1 0x4 MSTORE PUSH1 0x24 PUSH0 REVERT JUMPDEST SWAP1 PUSH1 0x7F AND SWAP1 PUSH2 0xE6 JUMP JUMPDEST PUSH4 0x4E487B71 PUSH1 0xE0 SHL PUSH0 MSTORE PUSH1 0x41 PUSH1 0x4 MSTORE PUSH1 0x24 PUSH0 REVERT JUMPDEST ADD MLOAD SWAP1 POP PUSH0 DUP1 PUSH2 0xB1 JUMP JUMPDEST PUSH1 0x1F NOT DUP3 AND SWAP4 PUSH0 DUP1 MSTORE DUP1 PUSH0 KECCAK256 SWAP2 PUSH0 JUMPDEST DUP7 DUP2 LT PUSH2 0x2E9 JUMPI POP DUP4 PUSH1 0x1 SWAP6 SWAP7 LT PUSH2 0x2D1 JUMPI JUMPDEST POP POP POP DUP2 SHL ADD PUSH0 SSTORE PUSH2 0xC5 JUMP JUMPDEST ADD MLOAD PUSH0 NOT PUSH1 0xF8 DUP5 PUSH1 0x3 SHL AND SHR NOT AND SWAP1 SSTORE PUSH0 DUP1 DUP1 PUSH2 0x2C4 JUMP JUMPDEST SWAP2 SWAP3 PUSH1 0x20 PUSH1 0x1 DUP2 SWAP3 DUP7 DUP6 ADD MLOAD DUP2 SSTORE ADD SWAP5 ADD SWAP3 ADD PUSH2 0x2B1 JUMP JUMPDEST PUSH0 DUP1 MSTORE PUSH32 0x290DECD9548B62A8D60345A988386FC84BA6BC95484008F6362F93160EF3E563 PUSH1 0x1F DUP4 ADD PUSH1 0x5 SHR DUP2 ADD SWAP2 PUSH1 0x20 DUP5 LT PUSH2 0x359 JUMPI JUMPDEST PUSH1 0x1F ADD PUSH1 0x5 SHR ADD SWAP1 JUMPDEST DUP2 DUP2 LT PUSH2 0x34E JUMPI POP PUSH2 0x97 JUMP JUMPDEST PUSH0 DUP2 SSTORE PUSH1 0x1 ADD PUSH2 0x341 JUMP JUMPDEST SWAP1 SWAP2 POP DUP2 SWAP1 PUSH2 0x338 JUMP JUMPDEST SWAP1 PUSH1 0x7F AND SWAP1 PUSH2 0x85 JUMP JUMPDEST PUSH0 DUP1 REVERT JUMPDEST PUSH1 0x40 MLOAD SWAP2 SWAP1 PUSH1 0x1F ADD PUSH1 0x1F NOT AND DUP3 ADD PUSH1 0x1 PUSH1 0x1 PUSH1 0x40 SHL SUB DUP2 GT DUP4 DUP3 LT OR PUSH2 0x283 JUMPI PUSH1 0x40 MSTORE JUMP JUMPDEST DUP2 PUSH1 0x1F DUP3 ADD SLT ISZERO PUSH2 0x36D JUMPI DUP1 MLOAD SWAP1 PUSH1 0x1 PUSH1 0x1 PUSH1 0x40 SHL SUB DUP3 GT PUSH2 0x283 JUMPI PUSH2 0x3C5 PUSH1 0x1F DUP4 ADD PUSH1 0x1F NOT AND PUSH1 0x20 ADD PUSH2 0x371 JUMP JUMPDEST SWAP3 DUP3 DUP5 MSTORE PUSH1 0x20 DUP4 DUP4 ADD ADD GT PUSH2 0x36D JUMPI DUP2 PUSH0 SWAP3 PUSH1 0x20 DUP1 SWAP4 ADD DUP4 DUP7 ADD MCOPY DUP4 ADD ADD MSTORE SWAP1 JUMP INVALID PUSH1 0x80 DUP1 PUSH1 0x40 MSTORE PUSH1 0x4 CALLDATASIZE LT ISZERO PUSH2 0x12 JUMPI PUSH0 DUP1 REVERT JUMPDEST PUSH0 CALLDATALOAD PUSH1 0xE0 SHR SWAP1 DUP2 PUSH4 0x1FFC9A7 EQ PUSH2 0x1720 JUMPI POP DUP1 PUSH4 0x6FDDE03 EQ PUSH2 0x167E JUMPI DUP1 PUSH4 0x81812FC EQ PUSH2 0x1642 JUMPI DUP1 PUSH4 0x95EA7B3 EQ PUSH2 0x1558 JUMPI DUP1 PUSH4 0xC984832 EQ PUSH2 0x14F0 JUMPI DUP1 PUSH4 0x23B872DD EQ PUSH2 0x14D9 JUMPI DUP1 PUSH4 0x42842E0E EQ PUSH2 0x14B0 JUMPI DUP1 PUSH4 0x55F804B3 EQ PUSH2 0x1348 JUMPI DUP1 PUSH4 0x6352211E EQ PUSH2 0x1318 JUMPI DUP1 PUSH4 0x70A08231 EQ PUSH2 0x12ED JUMPI DUP1 PUSH4 0x715018A6 EQ PUSH2 0x1292 JUMPI DUP1 PUSH4 0x75794A3C EQ PUSH2 0x1275 JUMPI DUP1 PUSH4 0x842392C2 EQ PUSH2 0x121A JUMPI DUP1 PUSH4 0x8DA5CB5B EQ PUSH2 0x11F2 JUMPI DUP1 PUSH4 0x95D89B41 EQ PUSH2 0x1128 JUMPI DUP1 PUSH4 0xA22CB465 EQ PUSH2 0x1084 JUMPI DUP1 PUSH4 0xA905B129 EQ PUSH2 0x99D JUMPI DUP1 PUSH4 0xAA2FE91B EQ PUSH2 0x960 JUMPI DUP1 PUSH4 0xAD31FF89 EQ PUSH2 0x906 JUMPI DUP1 PUSH4 0xB88D4FDE EQ PUSH2 0x8A5 JUMPI DUP1 PUSH4 0xC87B56DD EQ PUSH2 0x5AC JUMPI DUP1 PUSH4 0xCFBD4885 EQ PUSH2 0x547 JUMPI DUP1 PUSH4 0xDF2DB9E4 EQ PUSH2 0x42D JUMPI DUP1 PUSH4 0xE55AE4E8 EQ PUSH2 0x2C9 JUMPI DUP1 PUSH4 0xE985E9C5 EQ PUSH2 0x272 JUMPI DUP1 PUSH4 0xF2FDE38B EQ PUSH2 0x1EC JUMPI PUSH4 0xF71D96CB EQ PUSH2 0x145 JUMPI PUSH0 DUP1 REVERT JUMPDEST CALLVALUE PUSH2 0x1E8 JUMPI PUSH1 0x20 CALLDATASIZE PUSH1 0x3 NOT ADD SLT PUSH2 0x1E8 JUMPI PUSH1 0x4 CALLDATALOAD PUSH0 MSTORE PUSH1 0x7 PUSH1 0x20 MSTORE PUSH2 0x1B6 PUSH1 0x40 PUSH0 KECCAK256 PUSH2 0x170 DUP2 PUSH2 0x18F8 JUMP JUMPDEST SWAP1 PUSH2 0x17D PUSH1 0x1 DUP3 ADD PUSH2 0x18F8 JUMP JUMPDEST PUSH2 0x1D7 PUSH1 0x2 DUP4 ADD SLOAD PUSH2 0x191 PUSH1 0x3 DUP6 ADD PUSH2 0x18F8 JUMP JUMPDEST PUSH2 0x1C4 PUSH1 0xFF PUSH1 0x5 PUSH1 0x4 DUP9 ADD SLOAD SWAP8 ADD SLOAD AND SWAP5 PUSH1 0x40 MLOAD SWAP9 DUP10 SWAP9 PUSH1 0xC0 DUP11 MSTORE PUSH1 0xC0 DUP11 ADD SWAP1 PUSH2 0x178B JUMP JUMPDEST SWAP1 DUP9 DUP3 SUB PUSH1 0x20 DUP11 ADD MSTORE PUSH2 0x178B JUMP JUMPDEST SWAP2 PUSH1 0x40 DUP8 ADD MSTORE DUP6 DUP3 SUB PUSH1 0x60 DUP8 ADD MSTORE PUSH2 0x178B JUMP JUMPDEST SWAP2 PUSH1 0x80 DUP5 ADD MSTORE ISZERO ISZERO PUSH1 0xA0 DUP4 ADD MSTORE SUB SWAP1 RETURN JUMPDEST PUSH0 DUP1 REVERT JUMPDEST CALLVALUE PUSH2 0x1E8 JUMPI PUSH1 0x20 CALLDATASIZE PUSH1 0x3 NOT ADD SLT PUSH2 0x1E8 JUMPI PUSH2 0x205 PUSH2 0x17AF JUMP JUMPDEST PUSH2 0x20D PUSH2 0x1D03 JUMP JUMPDEST PUSH1 0x1 PUSH1 0x1 PUSH1 0xA0 SHL SUB AND DUP1 ISZERO PUSH2 0x25F JUMPI PUSH1 0x6 DUP1 SLOAD PUSH1 0x1 PUSH1 0x1 PUSH1 0xA0 SHL SUB NOT DUP2 AND DUP4 OR SWAP1 SWAP2 SSTORE PUSH1 0x1 PUSH1 0x1 PUSH1 0xA0 SHL SUB AND PUSH32 0x8BE0079C531659141344CD1FD0A4F28419497F9722A3DAAFE3B4186F6B6457E0 PUSH0 DUP1 LOG3 STOP JUMPDEST PUSH4 0x1E4FBDF7 PUSH1 0xE0 SHL PUSH0 MSTORE PUSH0 PUSH1 0x4 MSTORE PUSH1 0x24 PUSH0 REVERT JUMPDEST CALLVALUE PUSH2 0x1E8 JUMPI PUSH1 0x40 CALLDATASIZE PUSH1 0x3 NOT ADD SLT PUSH2 0x1E8 JUMPI PUSH2 0x28B PUSH2 0x17AF JUMP JUMPDEST PUSH2 0x293 PUSH2 0x17C5 JUMP JUMPDEST SWAP1 PUSH1 0x1 DUP1 PUSH1 0xA0 SHL SUB AND PUSH0 MSTORE PUSH1 0x5 PUSH1 0x20 MSTORE PUSH1 0x40 PUSH0 KECCAK256 SWAP1 PUSH1 0x1 DUP1 PUSH1 0xA0 SHL SUB AND PUSH0 MSTORE PUSH1 0x20 MSTORE PUSH1 0x20 PUSH1 0xFF PUSH1 0x40 PUSH0 KECCAK256 SLOAD AND PUSH1 0x40 MLOAD SWAP1 ISZERO ISZERO DUP2 MSTORE RETURN JUMPDEST CALLVALUE PUSH2 0x1E8 JUMPI PUSH1 0x20 CALLDATASIZE PUSH1 0x3 NOT ADD SLT PUSH2 0x1E8 JUMPI PUSH1 0x4 CALLDATALOAD PUSH0 PUSH1 0xA0 PUSH1 0x40 MLOAD PUSH2 0x2EC DUP2 PUSH2 0x1815 JUMP JUMPDEST PUSH1 0x60 DUP2 MSTORE PUSH1 0x60 PUSH1 0x20 DUP3 ADD MSTORE DUP3 PUSH1 0x40 DUP3 ADD MSTORE PUSH1 0x60 DUP1 DUP3 ADD MSTORE DUP3 PUSH1 0x80 DUP3 ADD MSTORE ADD MSTORE PUSH2 0x314 DUP2 PUSH2 0x1D2A JUMP JUMPDEST ISZERO PUSH2 0x3F0 JUMPI PUSH0 MSTORE PUSH1 0x7 PUSH1 0x20 MSTORE PUSH2 0x3B1 PUSH1 0x40 PUSH0 KECCAK256 PUSH1 0x40 MLOAD SWAP1 PUSH2 0x334 DUP3 PUSH2 0x1815 JUMP JUMPDEST PUSH2 0x33D DUP2 PUSH2 0x18F8 JUMP JUMPDEST DUP3 MSTORE PUSH2 0x34B PUSH1 0x1 DUP3 ADD PUSH2 0x18F8 JUMP JUMPDEST PUSH1 0x20 DUP4 ADD SWAP1 DUP2 MSTORE PUSH2 0x3DD PUSH1 0x2 DUP4 ADD SLOAD PUSH1 0x40 DUP6 ADD SWAP1 DUP2 MSTORE PUSH2 0x36D PUSH1 0x3 DUP6 ADD PUSH2 0x18F8 JUMP JUMPDEST PUSH1 0x60 DUP7 ADD SWAP1 DUP2 MSTORE PUSH2 0x3C4 PUSH1 0xFF PUSH1 0x5 PUSH1 0x4 DUP9 ADD SLOAD SWAP8 PUSH1 0x80 DUP11 ADD SWAP9 DUP10 MSTORE ADD SLOAD AND SWAP5 PUSH1 0xA0 DUP9 ADD SWAP6 ISZERO ISZERO DUP7 MSTORE PUSH1 0x40 MLOAD SWAP9 DUP10 SWAP9 PUSH1 0x20 DUP11 MSTORE MLOAD PUSH1 0xC0 PUSH1 0x20 DUP12 ADD MSTORE PUSH1 0xE0 DUP11 ADD SWAP1 PUSH2 0x178B JUMP JUMPDEST SWAP1 MLOAD DUP9 DUP3 SUB PUSH1 0x1F NOT ADD PUSH1 0x40 DUP11 ADD MSTORE PUSH2 0x178B JUMP JUMPDEST SWAP2 MLOAD PUSH1 0x60 DUP8 ADD MSTORE MLOAD DUP6 DUP3 SUB PUSH1 0x1F NOT ADD PUSH1 0x80 DUP8 ADD MSTORE PUSH2 0x178B JUMP JUMPDEST SWAP2 MLOAD PUSH1 0xA0 DUP5 ADD MSTORE MLOAD ISZERO ISZERO PUSH1 0xC0 DUP4 ADD MSTORE SUB SWAP1 RETURN JUMPDEST PUSH1 0x40 MLOAD PUSH3 0x461BCD PUSH1 0xE5 SHL DUP2 MSTORE PUSH1 0x20 PUSH1 0x4 DUP3 ADD MSTORE PUSH1 0x15 PUSH1 0x24 DUP3 ADD MSTORE PUSH21 0x141B185E595C88191BD95CC81B9BDD08195E1A5CDD PUSH1 0x5A SHL PUSH1 0x44 DUP3 ADD MSTORE PUSH1 0x64 SWAP1 REVERT JUMPDEST CALLVALUE PUSH2 0x1E8 JUMPI PUSH1 0x20 CALLDATASIZE PUSH1 0x3 NOT ADD SLT PUSH2 0x1E8 JUMPI PUSH2 0x446 PUSH2 0x17AF JUMP JUMPDEST PUSH2 0x44F DUP2 PUSH2 0x1B25 JUMP JUMPDEST SWAP1 PUSH2 0x472 PUSH2 0x45C DUP4 PUSH2 0x1CB8 JUMP JUMPDEST SWAP3 PUSH2 0x46A PUSH1 0x40 MLOAD SWAP5 DUP6 PUSH2 0x1830 JUMP JUMPDEST DUP1 DUP5 MSTORE PUSH2 0x1CB8 JUMP JUMPDEST PUSH1 0x20 DUP4 ADD SWAP2 SWAP1 PUSH1 0x1F NOT ADD CALLDATASIZE DUP4 CALLDATACOPY PUSH1 0xA SLOAD PUSH0 SWAP2 PUSH1 0x1 JUMPDEST DUP3 DUP2 LT PUSH2 0x4D2 JUMPI DUP5 DUP7 PUSH1 0x40 MLOAD SWAP2 DUP3 SWAP2 PUSH1 0x20 DUP4 ADD SWAP1 PUSH1 0x20 DUP5 MSTORE MLOAD DUP1 SWAP2 MSTORE PUSH1 0x40 DUP4 ADD SWAP2 SWAP1 PUSH0 JUMPDEST DUP2 DUP2 LT PUSH2 0x4B9 JUMPI POP POP POP SUB SWAP1 RETURN JUMPDEST DUP3 MLOAD DUP5 MSTORE DUP6 SWAP5 POP PUSH1 0x20 SWAP4 DUP5 ADD SWAP4 SWAP1 SWAP3 ADD SWAP2 PUSH1 0x1 ADD PUSH2 0x4AB JUMP JUMPDEST PUSH2 0x4DB DUP2 PUSH2 0x1D2A JUMP JUMPDEST DUP1 PUSH2 0x52A JUMPI JUMPDEST PUSH2 0x4EE JUMPI JUMPDEST PUSH1 0x1 ADD PUSH2 0x487 JUMP JUMPDEST SWAP3 DUP6 MLOAD DUP2 LT ISZERO PUSH2 0x516 JUMPI PUSH2 0x50E DUP2 DUP6 PUSH1 0x20 PUSH1 0x1 SWAP5 PUSH1 0x5 SHL DUP11 ADD ADD MSTORE PUSH2 0x1B56 JUMP JUMPDEST SWAP4 SWAP1 POP PUSH2 0x4E6 JUMP JUMPDEST PUSH4 0x4E487B71 PUSH1 0xE0 SHL PUSH0 MSTORE PUSH1 0x32 PUSH1 0x4 MSTORE PUSH1 0x24 PUSH0 REVERT JUMPDEST POP PUSH2 0x534 DUP2 PUSH2 0x1CCF JUMP JUMPDEST PUSH1 0x1 PUSH1 0x1 PUSH1 0xA0 SHL SUB DUP4 DUP2 AND SWAP2 AND EQ PUSH2 0x4E1 JUMP JUMPDEST CALLVALUE PUSH2 0x1E8 JUMPI PUSH1 0x20 CALLDATASIZE PUSH1 0x3 NOT ADD SLT PUSH2 0x1E8 JUMPI PUSH2 0x560 PUSH2 0x17AF JUMP JUMPDEST PUSH2 0x568 PUSH2 0x1D03 JUMP JUMPDEST PUSH1 0x1 PUSH1 0x1 PUSH1 0xA0 SHL SUB AND PUSH0 DUP2 DUP2 MSTORE PUSH1 0x8 PUSH1 0x20 MSTORE PUSH1 0x40 DUP2 KECCAK256 DUP1 SLOAD PUSH1 0xFF NOT AND SWAP1 SSTORE PUSH32 0x44F4322F8DAA225D5F4877AD0F7D3DFBA248A774396F3CA99405ED40A044FE81 SWAP1 DUP1 LOG2 STOP JUMPDEST CALLVALUE PUSH2 0x1E8 JUMPI PUSH1 0x20 CALLDATASIZE PUSH1 0x3 NOT ADD SLT PUSH2 0x1E8 JUMPI PUSH1 0x4 CALLDATALOAD PUSH2 0x5C9 DUP2 PUSH2 0x1D2A JUMP JUMPDEST ISZERO PUSH2 0x860 JUMPI PUSH1 0x40 MLOAD PUSH1 0xB SLOAD SWAP1 SWAP2 PUSH0 DUP4 PUSH2 0x5E1 DUP5 PUSH2 0x18C0 JUMP JUMPDEST SWAP2 DUP3 DUP3 MSTORE PUSH1 0x20 DUP3 ADD SWAP5 PUSH1 0x1 DUP2 AND SWAP1 DUP2 PUSH0 EQ PUSH2 0x844 JUMPI POP PUSH1 0x1 EQ PUSH2 0x7F8 JUMPI JUMPDEST PUSH2 0x60B SWAP3 POP SUB DUP5 PUSH2 0x1830 JUMP JUMPDEST DUP3 MLOAD ISZERO PUSH2 0x7DC JUMPI PUSH0 DUP2 DUP1 PUSH19 0x184F03E93FF9F4DAA797ED6E38ED64BF6A1F01 PUSH1 0x40 SHL DUP2 LT ISZERO PUSH2 0x7B6 JUMPI JUMPDEST POP DUP1 PUSH14 0x4EE2D6D415B85ACEF8100000000 PUSH1 0xA SWAP3 LT ISZERO PUSH2 0x79B JUMPI JUMPDEST PUSH7 0x2386F26FC10000 DUP2 LT ISZERO PUSH2 0x787 JUMPI JUMPDEST PUSH4 0x5F5E100 DUP2 LT ISZERO PUSH2 0x776 JUMPI JUMPDEST PUSH2 0x2710 DUP2 LT ISZERO PUSH2 0x767 JUMPI JUMPDEST PUSH1 0x64 DUP2 LT ISZERO PUSH2 0x759 JUMPI JUMPDEST LT ISZERO PUSH2 0x751 JUMPI JUMPDEST PUSH1 0x1 DUP2 ADD SWAP2 PUSH1 0xA PUSH1 0x21 PUSH2 0x6B3 PUSH2 0x69D DUP7 PUSH2 0x1851 JUMP JUMPDEST SWAP6 PUSH2 0x6AB PUSH1 0x40 MLOAD SWAP8 DUP9 PUSH2 0x1830 JUMP JUMPDEST DUP1 DUP8 MSTORE PUSH2 0x1851 JUMP JUMPDEST PUSH1 0x20 DUP7 ADD SWAP5 SWAP1 PUSH1 0x1F NOT ADD CALLDATASIZE DUP7 CALLDATACOPY DUP6 ADD ADD JUMPDEST PUSH0 NOT ADD SWAP2 PUSH16 0x181899199A1A9B1B9C1CB0B131B232B3 PUSH1 0x81 SHL DUP3 DUP3 MOD BYTE DUP4 MSTORE8 DIV SWAP1 DUP2 ISZERO PUSH2 0x6F2 JUMPI PUSH1 0xA SWAP1 PUSH2 0x6C4 JUMP JUMPDEST POP POP PUSH2 0x74D SWAP4 PUSH1 0x20 PUSH1 0x5 SWAP3 PUSH2 0x739 SWAP5 PUSH1 0x40 MLOAD SWAP7 DUP8 SWAP5 MLOAD DUP1 SWAP2 DUP6 DUP8 ADD MCOPY DUP5 ADD SWAP1 DUP4 DUP3 ADD SWAP1 PUSH0 DUP3 MSTORE MLOAD SWAP3 DUP4 SWAP2 MCOPY ADD ADD PUSH5 0x173539B7B7 PUSH1 0xD9 SHL DUP2 MSTORE SUB PUSH1 0x1A NOT DUP2 ADD DUP5 MSTORE ADD DUP3 PUSH2 0x1830 JUMP JUMPDEST PUSH1 0x40 MLOAD SWAP2 DUP3 SWAP2 PUSH1 0x20 DUP4 MSTORE PUSH1 0x20 DUP4 ADD SWAP1 PUSH2 0x178B JUMP JUMPDEST SUB SWAP1 RETURN JUMPDEST PUSH1 0x1 ADD PUSH2 0x688 JUMP JUMPDEST PUSH1 0x64 PUSH1 0x2 SWAP2 DIV SWAP3 ADD SWAP2 PUSH2 0x681 JUMP JUMPDEST PUSH2 0x2710 PUSH1 0x4 SWAP2 DIV SWAP3 ADD SWAP2 PUSH2 0x677 JUMP JUMPDEST PUSH4 0x5F5E100 PUSH1 0x8 SWAP2 DIV SWAP3 ADD SWAP2 PUSH2 0x66C JUMP JUMPDEST PUSH7 0x2386F26FC10000 PUSH1 0x10 SWAP2 DIV SWAP3 ADD SWAP2 PUSH2 0x65F JUMP JUMPDEST PUSH14 0x4EE2D6D415B85ACEF8100000000 PUSH1 0x20 SWAP2 DIV SWAP3 ADD SWAP2 PUSH2 0x64F JUMP JUMPDEST PUSH1 0x40 SWAP3 POP PUSH19 0x184F03E93FF9F4DAA797ED6E38ED64BF6A1F01 PUSH1 0x40 SHL SWAP1 DIV SWAP1 POP PUSH1 0xA PUSH2 0x634 JUMP JUMPDEST POP POP POP PUSH2 0x74D PUSH1 0x40 MLOAD PUSH2 0x7F0 PUSH1 0x20 DUP3 PUSH2 0x1830 JUMP JUMPDEST PUSH0 DUP2 MSTORE PUSH2 0x739 JUMP JUMPDEST POP PUSH1 0xB PUSH0 SWAP1 DUP2 MSTORE SWAP1 SWAP2 PUSH0 MLOAD PUSH1 0x20 PUSH2 0x1D68 PUSH0 CODECOPY PUSH0 MLOAD SWAP1 PUSH0 MSTORE JUMPDEST DUP2 DUP4 LT PUSH2 0x828 JUMPI POP POP SWAP1 PUSH1 0x20 PUSH2 0x60B SWAP3 DUP3 ADD ADD PUSH2 0x5FF JUMP JUMPDEST PUSH1 0x20 SWAP2 SWAP4 POP DUP1 PUSH1 0x1 SWAP2 SLOAD DUP4 DUP6 DUP11 ADD ADD MSTORE ADD SWAP2 ADD SWAP1 SWAP2 DUP6 SWAP3 PUSH2 0x810 JUMP JUMPDEST PUSH1 0xFF NOT AND DUP7 MSTORE POP PUSH2 0x60B SWAP3 ISZERO ISZERO PUSH1 0x5 SHL DUP3 ADD PUSH1 0x20 ADD SWAP1 POP PUSH2 0x5FF JUMP JUMPDEST PUSH1 0x40 MLOAD PUSH3 0x461BCD PUSH1 0xE5 SHL DUP2 MSTORE PUSH1 0x20 PUSH1 0x4 DUP3 ADD MSTORE PUSH1 0x1F PUSH1 0x24 DUP3 ADD MSTORE PUSH32 0x55524920717565727920666F72206E6F6E6578697374656E7420746F6B656E00 PUSH1 0x44 DUP3 ADD MSTORE PUSH1 0x64 SWAP1 REVERT JUMPDEST CALLVALUE PUSH2 0x1E8 JUMPI PUSH1 0x80 CALLDATASIZE PUSH1 0x3 NOT ADD SLT PUSH2 0x1E8 JUMPI PUSH2 0x8BE PUSH2 0x17AF JUMP JUMPDEST PUSH2 0x8C6 PUSH2 0x17C5 JUMP JUMPDEST PUSH1 0x64 CALLDATALOAD SWAP2 PUSH1 0x1 PUSH1 0x1 PUSH1 0x40 SHL SUB DUP4 GT PUSH2 0x1E8 JUMPI CALLDATASIZE PUSH1 0x23 DUP5 ADD SLT ISZERO PUSH2 0x1E8 JUMPI PUSH2 0x8FA PUSH2 0x904 SWAP4 CALLDATASIZE SWAP1 PUSH1 0x24 DUP2 PUSH1 0x4 ADD CALLDATALOAD SWAP2 ADD PUSH2 0x186C JUMP JUMPDEST SWAP2 PUSH1 0x44 CALLDATALOAD SWAP2 PUSH2 0x1B78 JUMP JUMPDEST STOP JUMPDEST CALLVALUE PUSH2 0x1E8 JUMPI PUSH1 0x20 CALLDATASIZE PUSH1 0x3 NOT ADD SLT PUSH2 0x1E8 JUMPI PUSH1 0x4 CALLDATALOAD PUSH1 0x1 PUSH1 0x1 PUSH1 0x40 SHL SUB DUP2 GT PUSH2 0x1E8 JUMPI PUSH1 0xFF PUSH1 0x20 DUP1 PUSH2 0x93C DUP2 SWAP5 CALLDATASIZE SWAP1 PUSH1 0x4 ADD PUSH2 0x18A2 JUMP JUMPDEST PUSH1 0x40 MLOAD SWAP3 DUP2 DUP5 SWAP3 MLOAD SWAP2 DUP3 SWAP2 ADD DUP4 MCOPY DUP2 ADD PUSH1 0x9 DUP2 MSTORE SUB ADD SWAP1 KECCAK256 SLOAD AND PUSH1 0x40 MLOAD SWAP1 ISZERO ISZERO DUP2 MSTORE RETURN JUMPDEST CALLVALUE PUSH2 0x1E8 JUMPI PUSH1 0x20 CALLDATASIZE PUSH1 0x3 NOT ADD SLT PUSH2 0x1E8 JUMPI PUSH1 0x1 PUSH1 0x1 PUSH1 0xA0 SHL SUB PUSH2 0x981 PUSH2 0x17AF JUMP JUMPDEST AND PUSH0 MSTORE PUSH1 0x8 PUSH1 0x20 MSTORE PUSH1 0x20 PUSH1 0xFF PUSH1 0x40 PUSH0 KECCAK256 SLOAD AND PUSH1 0x40 MLOAD SWAP1 ISZERO ISZERO DUP2 MSTORE RETURN JUMPDEST CALLVALUE PUSH2 0x1E8 JUMPI PUSH1 0xE0 CALLDATASIZE PUSH1 0x3 NOT ADD SLT PUSH2 0x1E8 JUMPI PUSH2 0x9B6 PUSH2 0x17AF JUMP JUMPDEST PUSH1 0x24 CALLDATALOAD PUSH1 0x1 PUSH1 0x1 PUSH1 0x40 SHL SUB DUP2 GT PUSH2 0x1E8 JUMPI PUSH2 0x9D5 SWAP1 CALLDATASIZE SWAP1 PUSH1 0x4 ADD PUSH2 0x18A2 JUMP JUMPDEST SWAP1 PUSH1 0x44 CALLDATALOAD PUSH1 0x1 PUSH1 0x1 PUSH1 0x40 SHL SUB DUP2 GT PUSH2 0x1E8 JUMPI PUSH2 0x9F5 SWAP1 CALLDATASIZE SWAP1 PUSH1 0x4 ADD PUSH2 0x18A2 JUMP JUMPDEST SWAP1 PUSH1 0x64 CALLDATALOAD SWAP1 PUSH1 0x84 CALLDATALOAD PUSH1 0x1 PUSH1 0x1 PUSH1 0x40 SHL SUB DUP2 GT PUSH2 0x1E8 JUMPI PUSH2 0xA19 SWAP1 CALLDATASIZE SWAP1 PUSH1 0x4 ADD PUSH2 0x18A2 JUMP JUMPDEST PUSH1 0xA4 CALLDATALOAD SWAP1 DUP2 ISZERO ISZERO DUP1 SWAP3 SUB PUSH2 0x1E8 JUMPI PUSH1 0xC4 CALLDATALOAD PUSH1 0x1 PUSH1 0x1 PUSH1 0x40 SHL SUB DUP2 GT PUSH2 0x1E8 JUMPI PUSH2 0xA46 SWAP1 CALLDATASIZE SWAP1 PUSH1 0x4 ADD PUSH2 0x18A2 JUMP JUMPDEST POP CALLER PUSH0 MSTORE PUSH1 0x8 PUSH1 0x20 MSTORE PUSH1 0xFF PUSH1 0x40 PUSH0 KECCAK256 SLOAD AND DUP1 ISZERO PUSH2 0x1070 JUMPI JUMPDEST ISZERO PUSH2 0x1032 JUMPI PUSH1 0x40 MLOAD SWAP2 PUSH1 0xFF DUP8 MLOAD SWAP4 PUSH1 0x20 DUP2 DUP2 DUP12 ADD SWAP7 DUP1 DUP9 DUP4 MCOPY DUP2 ADD PUSH1 0x9 DUP2 MSTORE SUB ADD SWAP1 KECCAK256 SLOAD AND PUSH2 0xFF5 JUMPI PUSH1 0x64 DUP6 GT PUSH2 0xFB0 JUMPI PUSH1 0xA SLOAD SWAP6 PUSH2 0xA9C DUP8 PUSH2 0x1B56 JUMP JUMPDEST PUSH1 0xA SSTORE PUSH1 0x40 MLOAD SWAP3 PUSH2 0xAAC DUP5 PUSH2 0x1815 JUMP JUMPDEST DUP9 DUP5 MSTORE PUSH1 0x20 DUP5 ADD SWAP2 DUP3 MSTORE PUSH1 0x40 DUP5 ADD DUP8 DUP2 MSTORE PUSH1 0x60 DUP6 ADD SWAP2 DUP3 MSTORE PUSH1 0x80 DUP6 ADD SWAP3 TIMESTAMP DUP5 MSTORE PUSH1 0xA0 DUP7 ADD SWAP5 DUP6 MSTORE DUP10 PUSH0 MSTORE PUSH1 0x7 PUSH1 0x20 MSTORE PUSH1 0x40 PUSH0 KECCAK256 SWAP6 MLOAD DUP1 MLOAD SWAP1 PUSH1 0x1 PUSH1 0x1 PUSH1 0x40 SHL SUB DUP3 GT PUSH2 0xE20 JUMPI DUP2 SWAP1 PUSH2 0xAFE DUP10 SLOAD PUSH2 0x18C0 JUMP JUMPDEST PUSH1 0x1F DUP2 GT PUSH2 0xF60 JUMPI JUMPDEST POP PUSH1 0x20 SWAP1 PUSH1 0x1F DUP4 GT PUSH1 0x1 EQ PUSH2 0xEFD JUMPI PUSH0 SWAP3 PUSH2 0xEF2 JUMPI JUMPDEST POP POP DUP2 PUSH1 0x1 SHL SWAP2 PUSH0 NOT SWAP1 PUSH1 0x3 SHL SHR NOT AND OR DUP7 SSTORE JUMPDEST MLOAD DUP1 MLOAD PUSH1 0x1 DUP8 ADD SWAP2 PUSH1 0x1 PUSH1 0x1 PUSH1 0x40 SHL SUB DUP3 GT PUSH2 0xE20 JUMPI DUP2 SWAP1 PUSH2 0xB53 DUP5 SLOAD PUSH2 0x18C0 JUMP JUMPDEST PUSH1 0x1F DUP2 GT PUSH2 0xEA2 JUMPI JUMPDEST POP PUSH1 0x20 SWAP1 PUSH1 0x1F DUP4 GT PUSH1 0x1 EQ PUSH2 0xE3F JUMPI PUSH0 SWAP3 PUSH2 0xE34 JUMPI JUMPDEST POP POP DUP2 PUSH1 0x1 SHL SWAP2 PUSH0 NOT SWAP1 PUSH1 0x3 SHL SHR NOT AND OR SWAP1 SSTORE JUMPDEST MLOAD PUSH1 0x2 DUP6 ADD SSTORE MLOAD DUP1 MLOAD PUSH1 0x3 DUP6 ADD SWAP2 PUSH1 0x1 PUSH1 0x1 PUSH1 0x40 SHL SUB DUP3 GT PUSH2 0xE20 JUMPI PUSH2 0xBAC DUP4 SLOAD PUSH2 0x18C0 JUMP JUMPDEST PUSH1 0x1F DUP2 GT PUSH2 0xDDB JUMPI JUMPDEST POP PUSH1 0x20 SWAP1 PUSH1 0x1F DUP4 GT PUSH1 0x1 EQ PUSH2 0xD6F JUMPI SWAP2 DUP1 PUSH2 0xC08 SWAP8 SWAP7 SWAP5 SWAP3 PUSH1 0x5 SWAP7 SWAP5 PUSH0 SWAP3 PUSH2 0xD64 JUMPI JUMPDEST POP POP DUP2 PUSH1 0x1 SHL SWAP2 PUSH0 NOT SWAP1 PUSH1 0x3 SHL SHR NOT AND OR SWAP1 SSTORE JUMPDEST MLOAD PUSH1 0x4 DUP5 ADD SSTORE MLOAD ISZERO ISZERO SWAP2 ADD SWAP1 PUSH1 0xFF DUP1 NOT DUP4 SLOAD AND SWAP2 ISZERO ISZERO AND OR SWAP1 SSTORE JUMP JUMPDEST PUSH1 0x20 PUSH1 0x40 MLOAD DUP1 SWAP3 DUP8 MLOAD DUP1 SWAP2 DUP4 MCOPY PUSH1 0x9 SWAP1 DUP3 ADD SWAP1 DUP2 MSTORE SUB ADD SWAP1 KECCAK256 DUP1 SLOAD PUSH1 0xFF NOT AND PUSH1 0x1 OR SWAP1 SSTORE PUSH1 0x1 PUSH1 0x1 PUSH1 0xA0 SHL SUB AND DUP1 ISZERO PUSH2 0xD51 JUMPI PUSH0 DUP4 DUP2 MSTORE PUSH1 0x2 PUSH1 0x20 MSTORE PUSH1 0x40 SWAP1 KECCAK256 SLOAD PUSH1 0x1 PUSH1 0x1 PUSH1 0xA0 SHL SUB AND DUP1 ISZERO ISZERO SWAP1 DUP2 PUSH2 0xD1E JUMPI JUMPDEST DUP3 PUSH0 MSTORE PUSH1 0x3 PUSH1 0x20 MSTORE PUSH1 0x40 PUSH0 KECCAK256 PUSH1 0x1 DUP2 SLOAD ADD SWAP1 SSTORE DUP5 PUSH0 MSTORE PUSH1 0x2 PUSH1 0x20 MSTORE PUSH1 0x40 PUSH0 KECCAK256 DUP4 PUSH12 0xFFFFFFFFFFFFFFFFFFFFFFFF PUSH1 0xA0 SHL DUP3 SLOAD AND OR SWAP1 SSTORE DUP5 DUP4 DUP3 PUSH32 0xDDF252AD1BE2C89B69C2B068FC378DAA952BA7F163C4A11628F55A4DF523B3EF PUSH0 DUP1 LOG4 POP PUSH2 0xD0B JUMPI PUSH32 0x65BE208F5BD0D462080A13198EAA9D2C0BD154E8CD4914C028AE095D4078079C PUSH2 0xCFB PUSH1 0x20 SWAP6 DUP6 SWAP5 PUSH1 0x40 MLOAD SWAP3 DUP4 SWAP3 PUSH1 0x40 DUP5 MSTORE PUSH1 0x40 DUP5 ADD SWAP1 PUSH2 0x178B JUMP JUMPDEST SWAP1 DUP9 DUP4 ADD MSTORE SUB SWAP1 LOG3 PUSH1 0x40 MLOAD SWAP1 DUP2 MSTORE RETURN JUMPDEST PUSH4 0x39E35637 PUSH1 0xE1 SHL PUSH0 MSTORE PUSH0 PUSH1 0x4 MSTORE PUSH1 0x24 PUSH0 REVERT JUMPDEST PUSH0 DUP6 DUP2 MSTORE PUSH1 0x4 PUSH1 0x20 MSTORE PUSH1 0x40 SWAP1 KECCAK256 DUP1 SLOAD PUSH1 0x1 PUSH1 0x1 PUSH1 0xA0 SHL SUB NOT AND SWAP1 SSTORE DUP1 PUSH0 MSTORE PUSH1 0x3 PUSH1 0x20 MSTORE PUSH1 0x40 PUSH0 KECCAK256 PUSH0 NOT DUP2 SLOAD ADD SWAP1 SSTORE PUSH2 0xC5C JUMP JUMPDEST PUSH4 0x32505749 PUSH1 0xE1 SHL PUSH0 MSTORE PUSH0 PUSH1 0x4 MSTORE PUSH1 0x24 PUSH0 REVERT JUMPDEST ADD MLOAD SWAP1 POP DUP14 DUP1 PUSH2 0xBD8 JUMP JUMPDEST SWAP1 PUSH1 0x1F NOT DUP4 AND SWAP2 DUP5 PUSH0 MSTORE DUP2 PUSH0 KECCAK256 SWAP3 PUSH0 JUMPDEST DUP2 DUP2 LT PUSH2 0xDC3 JUMPI POP SWAP3 PUSH1 0x1 SWAP3 DUP6 SWAP3 PUSH1 0x5 SWAP9 SWAP7 PUSH2 0xC08 SWAP12 SWAP11 SWAP9 SWAP7 LT PUSH2 0xDAB JUMPI JUMPDEST POP POP POP DUP2 SHL ADD SWAP1 SSTORE PUSH2 0xBEC JUMP JUMPDEST ADD MLOAD PUSH0 NOT PUSH1 0xF8 DUP5 PUSH1 0x3 SHL AND SHR NOT AND SWAP1 SSTORE DUP14 DUP1 DUP1 PUSH2 0xD9E JUMP JUMPDEST SWAP3 SWAP4 PUSH1 0x20 PUSH1 0x1 DUP2 SWAP3 DUP8 DUP7 ADD MLOAD DUP2 SSTORE ADD SWAP6 ADD SWAP4 ADD PUSH2 0xD7F JUMP JUMPDEST DUP4 PUSH0 MSTORE PUSH1 0x20 PUSH0 KECCAK256 PUSH1 0x1F DUP5 ADD PUSH1 0x5 SHR DUP2 ADD SWAP2 PUSH1 0x20 DUP6 LT PUSH2 0xE16 JUMPI JUMPDEST PUSH1 0x1F ADD PUSH1 0x5 SHR ADD SWAP1 JUMPDEST DUP2 DUP2 LT PUSH2 0xE0B JUMPI POP PUSH2 0xBB5 JUMP JUMPDEST PUSH0 DUP2 SSTORE PUSH1 0x1 ADD PUSH2 0xDFE JUMP JUMPDEST SWAP1 SWAP2 POP DUP2 SWAP1 PUSH2 0xDF5 JUMP JUMPDEST PUSH4 0x4E487B71 PUSH1 0xE0 SHL PUSH0 MSTORE PUSH1 0x41 PUSH1 0x4 MSTORE PUSH1 0x24 PUSH0 REVERT JUMPDEST ADD MLOAD SWAP1 POP DUP14 DUP1 PUSH2 0xB72 JUMP JUMPDEST PUSH0 DUP6 DUP2 MSTORE DUP3 DUP2 KECCAK256 SWAP4 POP PUSH1 0x1F NOT DUP6 AND SWAP1 JUMPDEST DUP2 DUP2 LT PUSH2 0xE8A JUMPI POP SWAP1 DUP5 PUSH1 0x1 SWAP6 SWAP5 SWAP4 SWAP3 LT PUSH2 0xE72 JUMPI JUMPDEST POP POP POP DUP2 SHL ADD SWAP1 SSTORE PUSH2 0xB86 JUMP JUMPDEST ADD MLOAD PUSH0 NOT PUSH1 0xF8 DUP5 PUSH1 0x3 SHL AND SHR NOT AND SWAP1 SSTORE DUP14 DUP1 DUP1 PUSH2 0xE65 JUMP JUMPDEST SWAP3 SWAP4 PUSH1 0x20 PUSH1 0x1 DUP2 SWAP3 DUP8 DUP7 ADD MLOAD DUP2 SSTORE ADD SWAP6 ADD SWAP4 ADD PUSH2 0xE4F JUMP JUMPDEST SWAP1 SWAP2 POP DUP4 PUSH0 MSTORE PUSH1 0x20 PUSH0 KECCAK256 PUSH1 0x1F DUP5 ADD PUSH1 0x5 SHR DUP2 ADD SWAP2 PUSH1 0x20 DUP6 LT PUSH2 0xEE8 JUMPI JUMPDEST SWAP1 PUSH1 0x1F DUP6 SWAP5 SWAP4 SWAP3 ADD PUSH1 0x5 SHR ADD SWAP1 JUMPDEST DUP2 DUP2 LT PUSH2 0xEDA JUMPI POP PUSH2 0xB5C JUMP JUMPDEST PUSH0 DUP2 SSTORE DUP5 SWAP4 POP PUSH1 0x1 ADD PUSH2 0xECD JUMP JUMPDEST SWAP1 SWAP2 POP DUP2 SWAP1 PUSH2 0xEBF JUMP JUMPDEST ADD MLOAD SWAP1 POP DUP14 DUP1 PUSH2 0xB1D JUMP JUMPDEST PUSH0 DUP11 DUP2 MSTORE DUP3 DUP2 KECCAK256 SWAP4 POP PUSH1 0x1F NOT DUP6 AND SWAP1 JUMPDEST DUP2 DUP2 LT PUSH2 0xF48 JUMPI POP SWAP1 DUP5 PUSH1 0x1 SWAP6 SWAP5 SWAP4 SWAP3 LT PUSH2 0xF30 JUMPI JUMPDEST POP POP POP DUP2 SHL ADD DUP7 SSTORE PUSH2 0xB31 JUMP JUMPDEST ADD MLOAD PUSH0 NOT PUSH1 0xF8 DUP5 PUSH1 0x3 SHL AND SHR NOT AND SWAP1 SSTORE DUP14 DUP1 DUP1 PUSH2 0xF23 JUMP JUMPDEST SWAP3 SWAP4 PUSH1 0x20 PUSH1 0x1 DUP2 SWAP3 DUP8 DUP7 ADD MLOAD DUP2 SSTORE ADD SWAP6 ADD SWAP4 ADD PUSH2 0xF0D JUMP JUMPDEST SWAP1 SWAP2 POP DUP9 PUSH0 MSTORE PUSH1 0x20 PUSH0 KECCAK256 PUSH1 0x1F DUP5 ADD PUSH1 0x5 SHR DUP2 ADD SWAP2 PUSH1 0x20 DUP6 LT PUSH2 0xFA6 JUMPI JUMPDEST SWAP1 PUSH1 0x1F DUP6 SWAP5 SWAP4 SWAP3 ADD PUSH1 0x5 SHR ADD SWAP1 JUMPDEST DUP2 DUP2 LT PUSH2 0xF98 JUMPI POP PUSH2 0xB07 JUMP JUMPDEST PUSH0 DUP2 SSTORE DUP5 SWAP4 POP PUSH1 0x1 ADD PUSH2 0xF8B JUMP JUMPDEST SWAP1 SWAP2 POP DUP2 SWAP1 PUSH2 0xF7D JUMP JUMPDEST PUSH1 0x40 MLOAD PUSH3 0x461BCD PUSH1 0xE5 SHL DUP2 MSTORE PUSH1 0x20 PUSH1 0x4 DUP3 ADD MSTORE PUSH1 0x18 PUSH1 0x24 DUP3 ADD MSTORE PUSH32 0x526174696E672063616E6E6F7420657863656564203130300000000000000000 PUSH1 0x44 DUP3 ADD MSTORE PUSH1 0x64 SWAP1 REVERT JUMPDEST PUSH1 0x40 MLOAD PUSH3 0x461BCD PUSH1 0xE5 SHL DUP2 MSTORE PUSH1 0x20 PUSH1 0x4 DUP3 ADD MSTORE PUSH1 0x15 PUSH1 0x24 DUP3 ADD MSTORE PUSH21 0x506C6179657220616C726561647920657869737473 PUSH1 0x58 SHL PUSH1 0x44 DUP3 ADD MSTORE PUSH1 0x64 SWAP1 REVERT JUMPDEST PUSH1 0x40 MLOAD PUSH3 0x461BCD PUSH1 0xE5 SHL DUP2 MSTORE PUSH1 0x20 PUSH1 0x4 DUP3 ADD MSTORE PUSH1 0x16 PUSH1 0x24 DUP3 ADD MSTORE PUSH22 0x139BDD08185D5D1A1BDC9A5E9959081D1BC81B5A5B9D PUSH1 0x52 SHL PUSH1 0x44 DUP3 ADD MSTORE PUSH1 0x64 SWAP1 REVERT JUMPDEST POP PUSH1 0x6 SLOAD PUSH1 0x1 PUSH1 0x1 PUSH1 0xA0 SHL SUB AND CALLER EQ PUSH2 0xA5E JUMP JUMPDEST CALLVALUE PUSH2 0x1E8 JUMPI PUSH1 0x40 CALLDATASIZE PUSH1 0x3 NOT ADD SLT PUSH2 0x1E8 JUMPI PUSH2 0x109D PUSH2 0x17AF JUMP JUMPDEST PUSH1 0x24 CALLDATALOAD SWAP1 DUP2 ISZERO ISZERO SWAP1 DUP2 DUP4 SUB PUSH2 0x1E8 JUMPI PUSH1 0x1 PUSH1 0x1 PUSH1 0xA0 SHL SUB AND SWAP2 DUP3 ISZERO PUSH2 0x1115 JUMPI PUSH2 0x10E7 SWAP1 CALLER PUSH0 MSTORE PUSH1 0x5 PUSH1 0x20 MSTORE PUSH1 0x40 PUSH0 KECCAK256 DUP5 PUSH0 MSTORE PUSH1 0x20 MSTORE PUSH1 0x40 PUSH0 KECCAK256 SWAP1 PUSH1 0xFF DUP1 NOT DUP4 SLOAD AND SWAP2 ISZERO ISZERO AND OR SWAP1 SSTORE JUMP JUMPDEST PUSH1 0x40 MLOAD SWAP1 DUP2 MSTORE PUSH32 0x17307EAB39AB6107E8899845AD3D59BD9653F200F220920489CA2B5937696C31 PUSH1 0x20 CALLER SWAP3 LOG3 STOP JUMPDEST DUP3 PUSH4 0xB611743 PUSH1 0xE3 SHL PUSH0 MSTORE PUSH1 0x4 MSTORE PUSH1 0x24 PUSH0 REVERT JUMPDEST CALLVALUE PUSH2 0x1E8 JUMPI PUSH0 CALLDATASIZE PUSH1 0x3 NOT ADD SLT PUSH2 0x1E8 JUMPI PUSH1 0x40 MLOAD PUSH0 PUSH1 0x1 SLOAD PUSH2 0x1148 DUP2 PUSH2 0x18C0 JUMP JUMPDEST DUP1 DUP5 MSTORE SWAP1 PUSH1 0x1 DUP2 AND SWAP1 DUP2 ISZERO PUSH2 0x11CE JUMPI POP PUSH1 0x1 EQ PUSH2 0x1170 JUMPI JUMPDEST PUSH2 0x74D DUP4 PUSH2 0x739 DUP2 DUP6 SUB DUP3 PUSH2 0x1830 JUMP JUMPDEST PUSH1 0x1 PUSH0 SWAP1 DUP2 MSTORE PUSH32 0xB10E2D527612073B26EECDFD717E6A320CF44B4AFAC2B0732D9FCBE2B7FA0CF6 SWAP4 SWAP3 POP SWAP1 JUMPDEST DUP1 DUP3 LT PUSH2 0x11B4 JUMPI POP SWAP1 SWAP2 POP DUP2 ADD PUSH1 0x20 ADD PUSH2 0x739 PUSH2 0x1160 JUMP JUMPDEST SWAP2 SWAP3 PUSH1 0x1 DUP2 PUSH1 0x20 SWAP3 SLOAD DUP4 DUP6 DUP9 ADD ADD MSTORE ADD SWAP2 ADD SWAP1 SWAP3 SWAP2 PUSH2 0x119C JUMP JUMPDEST PUSH1 0xFF NOT AND PUSH1 0x20 DUP1 DUP7 ADD SWAP2 SWAP1 SWAP2 MSTORE SWAP2 ISZERO ISZERO PUSH1 0x5 SHL DUP5 ADD SWAP1 SWAP2 ADD SWAP2 POP PUSH2 0x739 SWAP1 POP PUSH2 0x1160 JUMP JUMPDEST CALLVALUE PUSH2 0x1E8 JUMPI PUSH0 CALLDATASIZE PUSH1 0x3 NOT ADD SLT PUSH2 0x1E8 JUMPI PUSH1 0x6 SLOAD PUSH1 0x40 MLOAD PUSH1 0x1 PUSH1 0x1 PUSH1 0xA0 SHL SUB SWAP1 SWAP2 AND DUP2 MSTORE PUSH1 0x20 SWAP1 RETURN JUMPDEST CALLVALUE PUSH2 0x1E8 JUMPI PUSH1 0x20 CALLDATASIZE PUSH1 0x3 NOT ADD SLT PUSH2 0x1E8 JUMPI PUSH1 0x20 PUSH1 0x1 PUSH1 0x1 PUSH1 0xA0 SHL SUB PUSH2 0x123D PUSH2 0x17AF JUMP JUMPDEST AND DUP1 PUSH0 MSTORE PUSH1 0x8 DUP3 MSTORE PUSH1 0xFF PUSH1 0x40 PUSH0 KECCAK256 SLOAD AND SWAP1 DUP2 ISZERO PUSH2 0x1260 JUMPI JUMPDEST POP PUSH1 0x40 MLOAD SWAP1 ISZERO ISZERO DUP2 MSTORE RETURN JUMPDEST PUSH1 0x6 SLOAD PUSH1 0x1 PUSH1 0x1 PUSH1 0xA0 SHL SUB AND EQ SWAP1 POP DUP3 PUSH2 0x1255 JUMP JUMPDEST CALLVALUE PUSH2 0x1E8 JUMPI PUSH0 CALLDATASIZE PUSH1 0x3 NOT ADD SLT PUSH2 0x1E8 JUMPI PUSH1 0x20 PUSH1 0xA SLOAD PUSH1 0x40 MLOAD SWAP1 DUP2 MSTORE RETURN JUMPDEST CALLVALUE PUSH2 0x1E8 JUMPI PUSH0 CALLDATASIZE PUSH1 0x3 NOT ADD SLT PUSH2 0x1E8 JUMPI PUSH2 0x12AA PUSH2 0x1D03 JUMP JUMPDEST PUSH1 0x6 DUP1 SLOAD PUSH1 0x1 PUSH1 0x1 PUSH1 0xA0 SHL SUB NOT DUP2 AND SWAP1 SWAP2 SSTORE PUSH0 SWAP1 PUSH1 0x1 PUSH1 0x1 PUSH1 0xA0 SHL SUB AND PUSH32 0x8BE0079C531659141344CD1FD0A4F28419497F9722A3DAAFE3B4186F6B6457E0 DUP3 DUP1 LOG3 STOP JUMPDEST CALLVALUE PUSH2 0x1E8 JUMPI PUSH1 0x20 CALLDATASIZE PUSH1 0x3 NOT ADD SLT PUSH2 0x1E8 JUMPI PUSH1 0x20 PUSH2 0x1310 PUSH2 0x130B PUSH2 0x17AF JUMP JUMPDEST PUSH2 0x1B25 JUMP JUMPDEST PUSH1 0x40 MLOAD SWAP1 DUP2 MSTORE RETURN JUMPDEST CALLVALUE PUSH2 0x1E8 JUMPI PUSH1 0x20 CALLDATASIZE PUSH1 0x3 NOT ADD SLT PUSH2 0x1E8 JUMPI PUSH1 0x20 PUSH2 0x1336 PUSH1 0x4 CALLDATALOAD PUSH2 0x1CCF JUMP JUMPDEST PUSH1 0x40 MLOAD PUSH1 0x1 PUSH1 0x1 PUSH1 0xA0 SHL SUB SWAP1 SWAP2 AND DUP2 MSTORE RETURN JUMPDEST CALLVALUE PUSH2 0x1E8 JUMPI PUSH1 0x20 CALLDATASIZE PUSH1 0x3 NOT ADD SLT PUSH2 0x1E8 JUMPI PUSH1 0x4 CALLDATALOAD PUSH1 0x1 PUSH1 0x1 PUSH1 0x40 SHL SUB DUP2 GT PUSH2 0x1E8 JUMPI PUSH2 0x1378 SWAP1 CALLDATASIZE SWAP1 PUSH1 0x4 ADD PUSH2 0x18A2 JUMP JUMPDEST PUSH2 0x1380 PUSH2 0x1D03 JUMP JUMPDEST DUP1 MLOAD PUSH1 0x1 PUSH1 0x1 PUSH1 0x40 SHL SUB DUP2 GT PUSH2 0xE20 JUMPI PUSH2 0x139B PUSH1 0xB SLOAD PUSH2 0x18C0 JUMP JUMPDEST PUSH1 0x1F DUP2 GT PUSH2 0x1448 JUMPI JUMPDEST POP PUSH1 0x20 SWAP2 PUSH1 0x1F DUP3 GT PUSH1 0x1 EQ PUSH2 0x13E0 JUMPI SWAP2 DUP2 SWAP3 PUSH0 SWAP3 PUSH2 0x13D5 JUMPI JUMPDEST POP POP PUSH0 NOT PUSH1 0x3 DUP4 SWAP1 SHL SHR NOT AND PUSH1 0x1 SWAP2 SWAP1 SWAP2 SHL OR PUSH1 0xB SSTORE STOP JUMPDEST ADD MLOAD SWAP1 POP DUP3 DUP1 PUSH2 0x13BD JUMP JUMPDEST PUSH1 0x1F NOT DUP3 AND SWAP3 PUSH1 0xB PUSH0 MSTORE PUSH0 MLOAD PUSH1 0x20 PUSH2 0x1D68 PUSH0 CODECOPY PUSH0 MLOAD SWAP1 PUSH0 MSTORE SWAP2 PUSH0 JUMPDEST DUP6 DUP2 LT PUSH2 0x1430 JUMPI POP DUP4 PUSH1 0x1 SWAP6 LT PUSH2 0x1418 JUMPI JUMPDEST POP POP POP DUP2 SHL ADD PUSH1 0xB SSTORE STOP JUMPDEST ADD MLOAD PUSH0 NOT PUSH1 0xF8 DUP5 PUSH1 0x3 SHL AND SHR NOT AND SWAP1 SSTORE DUP3 DUP1 DUP1 PUSH2 0x140D JUMP JUMPDEST SWAP2 SWAP3 PUSH1 0x20 PUSH1 0x1 DUP2 SWAP3 DUP7 DUP6 ADD MLOAD DUP2 SSTORE ADD SWAP5 ADD SWAP3 ADD PUSH2 0x13FB JUMP JUMPDEST PUSH1 0xB PUSH0 MSTORE PUSH1 0x1F DUP3 ADD PUSH1 0x5 SHR PUSH0 MLOAD PUSH1 0x20 PUSH2 0x1D68 PUSH0 CODECOPY PUSH0 MLOAD SWAP1 PUSH0 MSTORE ADD SWAP1 PUSH1 0x20 DUP4 LT PUSH2 0x149B JUMPI JUMPDEST PUSH1 0x1F ADD PUSH1 0x5 SHR PUSH0 MLOAD PUSH1 0x20 PUSH2 0x1D68 PUSH0 CODECOPY PUSH0 MLOAD SWAP1 PUSH0 MSTORE ADD SWAP1 JUMPDEST DUP2 DUP2 LT PUSH2 0x1490 JUMPI POP PUSH2 0x13A4 JUMP JUMPDEST PUSH0 DUP2 SSTORE PUSH1 0x1 ADD PUSH2 0x1483 JUMP JUMPDEST PUSH0 MLOAD PUSH1 0x20 PUSH2 0x1D68 PUSH0 CODECOPY PUSH0 MLOAD SWAP1 PUSH0 MSTORE SWAP2 POP PUSH2 0x146C JUMP JUMPDEST CALLVALUE PUSH2 0x1E8 JUMPI PUSH2 0x904 PUSH2 0x14C1 CALLDATASIZE PUSH2 0x17DB JUMP JUMPDEST SWAP1 PUSH1 0x40 MLOAD SWAP3 PUSH2 0x14D1 PUSH1 0x20 DUP6 PUSH2 0x1830 JUMP JUMPDEST PUSH0 DUP5 MSTORE PUSH2 0x1B78 JUMP JUMPDEST CALLVALUE PUSH2 0x1E8 JUMPI PUSH2 0x904 PUSH2 0x14EA CALLDATASIZE PUSH2 0x17DB JUMP JUMPDEST SWAP2 PUSH2 0x1998 JUMP JUMPDEST CALLVALUE PUSH2 0x1E8 JUMPI PUSH1 0x20 CALLDATASIZE PUSH1 0x3 NOT ADD SLT PUSH2 0x1E8 JUMPI PUSH2 0x1509 PUSH2 0x17AF JUMP JUMPDEST PUSH2 0x1511 PUSH2 0x1D03 JUMP JUMPDEST PUSH1 0x1 PUSH1 0x1 PUSH1 0xA0 SHL SUB AND PUSH0 DUP2 DUP2 MSTORE PUSH1 0x8 PUSH1 0x20 MSTORE PUSH1 0x40 DUP2 KECCAK256 DUP1 SLOAD PUSH1 0xFF NOT AND PUSH1 0x1 OR SWAP1 SSTORE PUSH32 0x83B05B6735ACD4B85E3BDED8E72C851D1A87718F81E3C8E6F0C9D9A2BAA88E46 SWAP1 DUP1 LOG2 STOP JUMPDEST CALLVALUE PUSH2 0x1E8 JUMPI PUSH1 0x40 CALLDATASIZE PUSH1 0x3 NOT ADD SLT PUSH2 0x1E8 JUMPI PUSH2 0x1571 PUSH2 0x17AF JUMP JUMPDEST PUSH1 0x24 CALLDATALOAD PUSH2 0x157D DUP2 PUSH2 0x1CCF JUMP JUMPDEST CALLER ISZERO ISZERO DUP1 PUSH2 0x162F JUMPI JUMPDEST DUP1 PUSH2 0x1602 JUMPI JUMPDEST PUSH2 0x15EF JUMPI DUP2 SWAP1 PUSH1 0x1 PUSH1 0x1 PUSH1 0xA0 SHL SUB DUP5 DUP2 AND SWAP2 AND PUSH32 0x8C5BE1E5EBEC7D5BD14F71427D1E84F3DD0314C0F7B2291E5B200AC8C7C3B925 PUSH0 DUP1 LOG4 PUSH0 SWAP1 DUP2 MSTORE PUSH1 0x4 PUSH1 0x20 MSTORE PUSH1 0x40 SWAP1 KECCAK256 DUP1 SLOAD PUSH1 0x1 PUSH1 0x1 PUSH1 0xA0 SHL SUB NOT AND PUSH1 0x1 PUSH1 0x1 PUSH1 0xA0 SHL SUB SWAP1 SWAP3 AND SWAP2 SWAP1 SWAP2 OR SWAP1 SSTORE STOP JUMPDEST PUSH4 0xA9FBF51F PUSH1 0xE0 SHL PUSH0 MSTORE CALLER PUSH1 0x4 MSTORE PUSH1 0x24 PUSH0 REVERT JUMPDEST POP PUSH1 0x1 PUSH1 0x1 PUSH1 0xA0 SHL SUB DUP2 AND PUSH0 SWAP1 DUP2 MSTORE PUSH1 0x5 PUSH1 0x20 SWAP1 DUP2 MSTORE PUSH1 0x40 DUP1 DUP4 KECCAK256 CALLER DUP5 MSTORE SWAP1 SWAP2 MSTORE SWAP1 KECCAK256 SLOAD PUSH1 0xFF AND ISZERO PUSH2 0x158C JUMP JUMPDEST POP PUSH1 0x1 PUSH1 0x1 PUSH1 0xA0 SHL SUB DUP2 AND CALLER EQ ISZERO PUSH2 0x1586 JUMP JUMPDEST CALLVALUE PUSH2 0x1E8 JUMPI PUSH1 0x20 CALLDATASIZE PUSH1 0x3 NOT ADD SLT PUSH2 0x1E8 JUMPI PUSH1 0x4 CALLDATALOAD PUSH2 0x165F DUP2 PUSH2 0x1CCF JUMP JUMPDEST POP PUSH0 MSTORE PUSH1 0x4 PUSH1 0x20 MSTORE PUSH1 0x20 PUSH1 0x1 DUP1 PUSH1 0xA0 SHL SUB PUSH1 0x40 PUSH0 KECCAK256 SLOAD AND PUSH1 0x40 MLOAD SWAP1 DUP2 MSTORE RETURN JUMPDEST CALLVALUE PUSH2 0x1E8 JUMPI PUSH0 CALLDATASIZE PUSH1 0x3 NOT ADD SLT PUSH2 0x1E8 JUMPI PUSH1 0x40 MLOAD PUSH0 PUSH0 SLOAD PUSH2 0x169D DUP2 PUSH2 0x18C0 JUMP JUMPDEST DUP1 DUP5 MSTORE SWAP1 PUSH1 0x1 DUP2 AND SWAP1 DUP2 ISZERO PUSH2 0x11CE JUMPI POP PUSH1 0x1 EQ PUSH2 0x16C4 JUMPI PUSH2 0x74D DUP4 PUSH2 0x739 DUP2 DUP6 SUB DUP3 PUSH2 0x1830 JUMP JUMPDEST PUSH0 DUP1 DUP1 MSTORE PUSH32 0x290DECD9548B62A8D60345A988386FC84BA6BC95484008F6362F93160EF3E563 SWAP4 SWAP3 POP SWAP1 JUMPDEST DUP1 DUP3 LT PUSH2 0x1706 JUMPI POP SWAP1 SWAP2 POP DUP2 ADD PUSH1 0x20 ADD PUSH2 0x739 PUSH2 0x1160 JUMP JUMPDEST SWAP2 SWAP3 PUSH1 0x1 DUP2 PUSH1 0x20 SWAP3 SLOAD DUP4 DUP6 DUP9 ADD ADD MSTORE ADD SWAP2 ADD SWAP1 SWAP3 SWAP2 PUSH2 0x16EE JUMP JUMPDEST CALLVALUE PUSH2 0x1E8 JUMPI PUSH1 0x20 CALLDATASIZE PUSH1 0x3 NOT ADD SLT PUSH2 0x1E8 JUMPI PUSH1 0x4 CALLDATALOAD SWAP1 PUSH4 0xFFFFFFFF PUSH1 0xE0 SHL DUP3 AND DUP1 SWAP3 SUB PUSH2 0x1E8 JUMPI PUSH1 0x20 SWAP2 PUSH4 0x80AC58CD PUSH1 0xE0 SHL DUP2 EQ SWAP1 DUP2 ISZERO PUSH2 0x177A JUMPI JUMPDEST DUP2 ISZERO PUSH2 0x1769 JUMPI JUMPDEST POP ISZERO ISZERO DUP2 MSTORE RETURN JUMPDEST PUSH4 0x1FFC9A7 PUSH1 0xE0 SHL EQ SWAP1 POP DUP4 PUSH2 0x1762 JUMP JUMPDEST PUSH4 0x5B5E139F PUSH1 0xE0 SHL DUP2 EQ SWAP2 POP PUSH2 0x175B JUMP JUMPDEST DUP1 MLOAD DUP1 DUP4 MSTORE PUSH1 0x20 SWAP3 SWAP2 DUP2 SWAP1 DUP5 ADD DUP5 DUP5 ADD MCOPY PUSH0 DUP3 DUP3 ADD DUP5 ADD MSTORE PUSH1 0x1F ADD PUSH1 0x1F NOT AND ADD ADD SWAP1 JUMP JUMPDEST PUSH1 0x4 CALLDATALOAD SWAP1 PUSH1 0x1 PUSH1 0x1 PUSH1 0xA0 SHL SUB DUP3 AND DUP3 SUB PUSH2 0x1E8 JUMPI JUMP JUMPDEST PUSH1 0x24 CALLDATALOAD SWAP1 PUSH1 0x1 PUSH1 0x1 PUSH1 0xA0 SHL SUB DUP3 AND DUP3 SUB PUSH2 0x1E8 JUMPI JUMP JUMPDEST PUSH1 0x60 SWAP1 PUSH1 0x3 NOT ADD SLT PUSH2 0x1E8 JUMPI PUSH1 0x4 CALLDATALOAD PUSH1 0x1 PUSH1 0x1 PUSH1 0xA0 SHL SUB DUP2 AND DUP2 SUB PUSH2 0x1E8 JUMPI SWAP1 PUSH1 0x24 CALLDATALOAD PUSH1 0x1 PUSH1 0x1 PUSH1 0xA0 SHL SUB DUP2 AND DUP2 SUB PUSH2 0x1E8 JUMPI SWAP1 PUSH1 0x44 CALLDATALOAD SWAP1 JUMP JUMPDEST PUSH1 0xC0 DUP2 ADD SWAP1 DUP2 LT PUSH1 0x1 PUSH1 0x1 PUSH1 0x40 SHL SUB DUP3 GT OR PUSH2 0xE20 JUMPI PUSH1 0x40 MSTORE JUMP JUMPDEST SWAP1 PUSH1 0x1F DUP1 NOT SWAP2 ADD AND DUP2 ADD SWAP1 DUP2 LT PUSH1 0x1 PUSH1 0x1 PUSH1 0x40 SHL SUB DUP3 GT OR PUSH2 0xE20 JUMPI PUSH1 0x40 MSTORE JUMP JUMPDEST PUSH1 0x1 PUSH1 0x1 PUSH1 0x40 SHL SUB DUP2 GT PUSH2 0xE20 JUMPI PUSH1 0x1F ADD PUSH1 0x1F NOT AND PUSH1 0x20 ADD SWAP1 JUMP JUMPDEST SWAP3 SWAP2 SWAP3 PUSH2 0x1878 DUP3 PUSH2 0x1851 JUMP JUMPDEST SWAP2 PUSH2 0x1886 PUSH1 0x40 MLOAD SWAP4 DUP5 PUSH2 0x1830 JUMP JUMPDEST DUP3 SWAP5 DUP2 DUP5 MSTORE DUP2 DUP4 ADD GT PUSH2 0x1E8 JUMPI DUP3 DUP2 PUSH1 0x20 SWAP4 DUP5 PUSH0 SWAP7 ADD CALLDATACOPY ADD ADD MSTORE JUMP JUMPDEST SWAP1 DUP1 PUSH1 0x1F DUP4 ADD SLT ISZERO PUSH2 0x1E8 JUMPI DUP2 PUSH1 0x20 PUSH2 0x18BD SWAP4 CALLDATALOAD SWAP2 ADD PUSH2 0x186C JUMP JUMPDEST SWAP1 JUMP JUMPDEST SWAP1 PUSH1 0x1 DUP3 DUP2 SHR SWAP3 AND DUP1 ISZERO PUSH2 0x18EE JUMPI JUMPDEST PUSH1 0x20 DUP4 LT EQ PUSH2 0x18DA JUMPI JUMP JUMPDEST PUSH4 0x4E487B71 PUSH1 0xE0 SHL PUSH0 MSTORE PUSH1 0x22 PUSH1 0x4 MSTORE PUSH1 0x24 PUSH0 REVERT JUMPDEST SWAP2 PUSH1 0x7F AND SWAP2 PUSH2 0x18CF JUMP JUMPDEST SWAP1 PUSH1 0x40 MLOAD SWAP2 DUP3 PUSH0 DUP3 SLOAD SWAP3 PUSH2 0x190B DUP5 PUSH2 0x18C0 JUMP JUMPDEST DUP1 DUP5 MSTORE SWAP4 PUSH1 0x1 DUP2 AND SWAP1 DUP2 ISZERO PUSH2 0x1976 JUMPI POP PUSH1 0x1 EQ PUSH2 0x1932 JUMPI JUMPDEST POP PUSH2 0x1930 SWAP3 POP SUB DUP4 PUSH2 0x1830 JUMP JUMPDEST JUMP JUMPDEST SWAP1 POP PUSH0 SWAP3 SWAP2 SWAP3 MSTORE PUSH1 0x20 PUSH0 KECCAK256 SWAP1 PUSH0 SWAP2 JUMPDEST DUP2 DUP4 LT PUSH2 0x195A JUMPI POP POP SWAP1 PUSH1 0x20 PUSH2 0x1930 SWAP3 DUP3 ADD ADD PUSH0 PUSH2 0x1923 JUMP JUMPDEST PUSH1 0x20 SWAP2 SWAP4 POP DUP1 PUSH1 0x1 SWAP2 SLOAD DUP4 DUP6 DUP10 ADD ADD MSTORE ADD SWAP2 ADD SWAP1 SWAP2 DUP5 SWAP3 PUSH2 0x1941 JUMP JUMPDEST SWAP1 POP PUSH1 0x20 SWAP3 POP PUSH2 0x1930 SWAP5 SWAP2 POP PUSH1 0xFF NOT AND DUP3 DUP5 ADD MSTORE ISZERO ISZERO PUSH1 0x5 SHL DUP3 ADD ADD PUSH0 PUSH2 0x1923 JUMP JUMPDEST PUSH1 0x1 PUSH1 0x1 PUSH1 0xA0 SHL SUB SWAP1 SWAP2 AND SWAP2 SWAP1 DUP3 ISZERO PUSH2 0xD51 JUMPI PUSH0 DUP3 DUP2 MSTORE PUSH1 0x2 PUSH1 0x20 MSTORE PUSH1 0x40 SWAP1 KECCAK256 SLOAD PUSH1 0x1 PUSH1 0x1 PUSH1 0xA0 SHL SUB AND SWAP3 DUP3 SWAP1 CALLER ISZERO ISZERO DUP1 PUSH2 0x1A90 JUMPI JUMPDEST POP DUP5 PUSH2 0x1A5D JUMPI JUMPDEST DUP1 PUSH0 MSTORE PUSH1 0x3 PUSH1 0x20 MSTORE PUSH1 0x40 PUSH0 KECCAK256 PUSH1 0x1 DUP2 SLOAD ADD SWAP1 SSTORE DUP2 PUSH0 MSTORE PUSH1 0x2 PUSH1 0x20 MSTORE PUSH1 0x40 PUSH0 KECCAK256 DUP2 PUSH12 0xFFFFFFFFFFFFFFFFFFFFFFFF PUSH1 0xA0 SHL DUP3 SLOAD AND OR SWAP1 SSTORE DUP5 PUSH32 0xDDF252AD1BE2C89B69C2B068FC378DAA952BA7F163C4A11628F55A4DF523B3EF PUSH0 DUP1 LOG4 PUSH1 0x1 PUSH1 0x1 PUSH1 0xA0 SHL SUB AND DUP1 DUP4 SUB PUSH2 0x1A45 JUMPI POP POP POP JUMP JUMPDEST PUSH4 0x64283D7B PUSH1 0xE0 SHL PUSH0 MSTORE PUSH1 0x4 MSTORE PUSH1 0x24 MSTORE PUSH1 0x44 MSTORE PUSH1 0x64 PUSH0 REVERT JUMPDEST PUSH0 DUP3 DUP2 MSTORE PUSH1 0x4 PUSH1 0x20 MSTORE PUSH1 0x40 SWAP1 KECCAK256 DUP1 SLOAD PUSH1 0x1 PUSH1 0x1 PUSH1 0xA0 SHL SUB NOT AND SWAP1 SSTORE DUP5 PUSH0 MSTORE PUSH1 0x3 PUSH1 0x20 MSTORE PUSH1 0x40 PUSH0 KECCAK256 PUSH0 NOT DUP2 SLOAD ADD SWAP1 SSTORE PUSH2 0x19D5 JUMP JUMPDEST SWAP1 SWAP2 POP DUP1 PUSH2 0x1AD4 JUMPI JUMPDEST ISZERO PUSH2 0x1AA6 JUMPI DUP3 SWAP1 PUSH0 PUSH2 0x19CE JUMP JUMPDEST DUP3 DUP5 PUSH2 0x1ABE JUMPI PUSH4 0x7E273289 PUSH1 0xE0 SHL PUSH0 MSTORE PUSH1 0x4 MSTORE PUSH1 0x24 PUSH0 REVERT JUMPDEST PUSH4 0x177E802F PUSH1 0xE0 SHL PUSH0 MSTORE CALLER PUSH1 0x4 MSTORE PUSH1 0x24 MSTORE PUSH1 0x44 PUSH0 REVERT JUMPDEST POP CALLER DUP5 EQ DUP1 ISZERO PUSH2 0x1B03 JUMPI JUMPDEST DUP1 PUSH2 0x1A99 JUMPI POP PUSH0 DUP4 DUP2 MSTORE PUSH1 0x4 PUSH1 0x20 MSTORE PUSH1 0x40 SWAP1 KECCAK256 SLOAD PUSH1 0x1 PUSH1 0x1 PUSH1 0xA0 SHL SUB AND CALLER EQ PUSH2 0x1A99 JUMP JUMPDEST POP PUSH0 DUP5 DUP2 MSTORE PUSH1 0x5 PUSH1 0x20 SWAP1 DUP2 MSTORE PUSH1 0x40 DUP1 DUP4 KECCAK256 CALLER DUP5 MSTORE SWAP1 SWAP2 MSTORE SWAP1 KECCAK256 SLOAD PUSH1 0xFF AND PUSH2 0x1ADF JUMP JUMPDEST PUSH1 0x1 PUSH1 0x1 PUSH1 0xA0 SHL SUB AND DUP1 ISZERO PUSH2 0x1B43 JUMPI PUSH0 MSTORE PUSH1 0x3 PUSH1 0x20 MSTORE PUSH1 0x40 PUSH0 KECCAK256 SLOAD SWAP1 JUMP JUMPDEST PUSH4 0x22718AD9 PUSH1 0xE2 SHL PUSH0 MSTORE PUSH0 PUSH1 0x4 MSTORE PUSH1 0x24 PUSH0 REVERT JUMPDEST PUSH0 NOT DUP2 EQ PUSH2 0x1B64 JUMPI PUSH1 0x1 ADD SWAP1 JUMP JUMPDEST PUSH4 0x4E487B71 PUSH1 0xE0 SHL PUSH0 MSTORE PUSH1 0x11 PUSH1 0x4 MSTORE PUSH1 0x24 PUSH0 REVERT JUMPDEST SWAP3 SWAP2 PUSH2 0x1B85 DUP2 DUP4 DUP7 PUSH2 0x1998 JUMP JUMPDEST DUP2 EXTCODESIZE PUSH2 0x1B92 JUMPI JUMPDEST POP POP POP POP JUMP JUMPDEST PUSH1 0x40 MLOAD PUSH4 0xA85BD01 PUSH1 0xE1 SHL DUP2 MSTORE CALLER PUSH1 0x4 DUP3 ADD MSTORE PUSH1 0x1 PUSH1 0x1 PUSH1 0xA0 SHL SUB SWAP5 DUP6 AND PUSH1 0x24 DUP3 ADD MSTORE PUSH1 0x44 DUP2 ADD SWAP2 SWAP1 SWAP2 MSTORE PUSH1 0x80 PUSH1 0x64 DUP3 ADD MSTORE SWAP3 AND SWAP2 SWAP1 PUSH1 0x20 SWAP1 DUP3 SWAP1 DUP2 SWAP1 PUSH2 0x1BDD SWAP1 PUSH1 0x84 DUP4 ADD SWAP1 PUSH2 0x178B JUMP JUMPDEST SUB DUP2 PUSH0 DUP7 GAS CALL PUSH0 SWAP2 DUP2 PUSH2 0x1C73 JUMPI JUMPDEST POP PUSH2 0x1C40 JUMPI POP RETURNDATASIZE ISZERO PUSH2 0x1C39 JUMPI RETURNDATASIZE PUSH2 0x1C01 DUP2 PUSH2 0x1851 JUMP JUMPDEST SWAP1 PUSH2 0x1C0F PUSH1 0x40 MLOAD SWAP3 DUP4 PUSH2 0x1830 JUMP JUMPDEST DUP2 MSTORE RETURNDATASIZE PUSH0 PUSH1 0x20 DUP4 ADD RETURNDATACOPY JUMPDEST DUP1 MLOAD SWAP1 DUP2 PUSH2 0x1C34 JUMPI DUP3 PUSH4 0x32505749 PUSH1 0xE1 SHL PUSH0 MSTORE PUSH1 0x4 MSTORE PUSH1 0x24 PUSH0 REVERT JUMPDEST PUSH1 0x20 ADD REVERT JUMPDEST PUSH1 0x60 PUSH2 0x1C19 JUMP JUMPDEST PUSH1 0x1 PUSH1 0x1 PUSH1 0xE0 SHL SUB NOT AND PUSH4 0x757A42FF PUSH1 0xE1 SHL ADD PUSH2 0x1C61 JUMPI POP PUSH0 DUP1 DUP1 DUP1 PUSH2 0x1B8C JUMP JUMPDEST PUSH4 0x32505749 PUSH1 0xE1 SHL PUSH0 MSTORE PUSH1 0x4 MSTORE PUSH1 0x24 PUSH0 REVERT JUMPDEST SWAP1 SWAP2 POP PUSH1 0x20 DUP2 RETURNDATASIZE PUSH1 0x20 GT PUSH2 0x1CB0 JUMPI JUMPDEST DUP2 PUSH2 0x1C8F PUSH1 0x20 SWAP4 DUP4 PUSH2 0x1830 JUMP JUMPDEST DUP2 ADD SUB SLT PUSH2 0x1E8 JUMPI MLOAD PUSH1 0x1 PUSH1 0x1 PUSH1 0xE0 SHL SUB NOT DUP2 AND DUP2 SUB PUSH2 0x1E8 JUMPI SWAP1 PUSH0 PUSH2 0x1BEB JUMP JUMPDEST RETURNDATASIZE SWAP2 POP PUSH2 0x1C82 JUMP JUMPDEST PUSH1 0x1 PUSH1 0x1 PUSH1 0x40 SHL SUB DUP2 GT PUSH2 0xE20 JUMPI PUSH1 0x5 SHL PUSH1 0x20 ADD SWAP1 JUMP JUMPDEST PUSH0 DUP2 DUP2 MSTORE PUSH1 0x2 PUSH1 0x20 MSTORE PUSH1 0x40 SWAP1 KECCAK256 SLOAD PUSH1 0x1 PUSH1 0x1 PUSH1 0xA0 SHL SUB AND SWAP1 DUP2 ISZERO PUSH2 0x1CF1 JUMPI POP SWAP1 JUMP JUMPDEST PUSH4 0x7E273289 PUSH1 0xE0 SHL PUSH0 MSTORE PUSH1 0x4 MSTORE PUSH1 0x24 PUSH0 REVERT JUMPDEST PUSH1 0x6 SLOAD PUSH1 0x1 PUSH1 0x1 PUSH1 0xA0 SHL SUB AND CALLER SUB PUSH2 0x1D17 JUMPI JUMP JUMPDEST PUSH4 0x118CDAA7 PUSH1 0xE0 SHL PUSH0 MSTORE CALLER PUSH1 0x4 MSTORE PUSH1 0x24 PUSH0 REVERT JUMPDEST DUP1 ISZERO ISZERO SWAP1 DUP2 PUSH2 0x1D5B JUMPI JUMPDEST DUP2 PUSH2 0x1D3D JUMPI POP SWAP1 JUMP JUMPDEST PUSH0 SWAP1 DUP2 MSTORE PUSH1 0x2 PUSH1 0x20 MSTORE PUSH1 0x40 SWAP1 KECCAK256 SLOAD PUSH1 0x1 PUSH1 0x1 PUSH1 0xA0 SHL SUB AND ISZERO ISZERO SWAP2 SWAP1 POP JUMP JUMPDEST PUSH1 0xA SLOAD DUP2 LT SWAP2 POP PUSH2 0x1D34 JUMP INVALID ADD PUSH22 0xB7A638427703F0DBE7BB9BBF987A2551717B34E79F33 0xB5 0xB1 STOP DUP14 0x1F LOG0 SAR 0xB9 LOG2 PUSH5 0x6970667358 0x22 SLT KECCAK256 0xD4 0xF8 PUSH12 0x5E196FA8C2595A9013601A4A JUMPI DUP14 0xC0 0xEA 0xBC JUMPI DUP2 0xC9 PUSH32 0x65CC6BC9C3C6D2E464736F6C634300081C003300000000000000000000000000 "},"methodIdentifiers":{"approve(address,uint256)":"095ea7b3","authorizeMinter(address)":"0c984832","authorizedMinters(address)":"aa2fe91b","balanceOf(address)":"70a08231","getApproved(uint256)":"081812fc","getPlayer(uint256)":"e55ae4e8","getUserPlayers(address)":"df2db9e4","isApprovedForAll(address,address)":"e985e9c5","isAuthorizedMinter(address)":"842392c2","mintPlayer(address,string,string,uint256,string,bool,string)":"a905b129","name()":"06fdde03","nextTokenId()":"75794a3c","owner()":"8da5cb5b","ownerOf(uint256)":"6352211e","playerExists(string)":"ad31ff89","players(uint256)":"f71d96cb","renounceOwnership()":"715018a6","revokeMinter(address)":"cfbd4885","safeTransferFrom(address,address,uint256)":"42842e0e","safeTransferFrom(address,address,uint256,bytes)":"b88d4fde","setApprovalForAll(address,bool)":"a22cb465","setBaseURI(string)":"55f804b3","supportsInterface(bytes4)":"01ffc9a7","symbol()":"95d89b41","tokenURI(uint256)":"c87b56dd","transferFrom(address,address,uint256)":"23b872dd","transferOwnership(address)":"f2fde38b"}}}}}