{"project/contracts/MembershipNFT.sol":{"MembershipNFT":{"abi":[{"inputs":[],"stateMutability":"nonpayable","type":"constructor"},{"inputs":[{"internalType":"address","name":"sender","type":"address"},{"internalType":"uint256","name":"tokenId","type":"uint256"},{"internalType":"address","name":"owner","type":"address"}],"name":"ERC721IncorrectOwner","type":"error"},{"inputs":[{"internalType":"address","name":"operator","type":"address"},{"internalType":"uint256","name":"tokenId","type":"uint256"}],"name":"ERC721InsufficientApproval","type":"error"},{"inputs":[{"internalType":"address","name":"approver","type":"address"}],"name":"ERC721InvalidApprover","type":"error"},{"inputs":[{"internalType":"address","name":"operator","type":"address"}],"name":"ERC721InvalidOperator","type":"error"},{"inputs":[{"internalType":"address","name":"owner","type":"address"}],"name":"ERC721InvalidOwner","type":"error"},{"inputs":[{"internalType":"address","name":"receiver","type":"address"}],"name":"ERC721InvalidReceiver","type":"error"},{"inputs":[{"internalType":"address","name":"sender","type":"address"}],"name":"ERC721InvalidSender","type":"error"},{"inputs":[{"internalType":"uint256","name":"tokenId","type":"uint256"}],"name":"ERC721NonexistentToken","type":"error"},{"inputs":[],"name":"EnforcedPause","type":"error"},{"inputs":[],"name":"ExpectedPause","type":"error"},{"inputs":[{"internalType":"address","name":"owner","type":"address"}],"name":"OwnableInvalidOwner","type":"error"},{"inputs":[{"internalType":"address","name":"account","type":"address"}],"name":"OwnableUnauthorizedAccount","type":"error"},{"anonymous":false,"inputs":[{"indexed":true,"internalType":"address","name":"owner","type":"address"},{"indexed":true,"internalType":"address","name":"approved","type":"address"},{"indexed":true,"internalType":"uint256","name":"tokenId","type":"uint256"}],"name":"Approval","type":"event"},{"anonymous":false,"inputs":[{"indexed":true,"internalType":"address","name":"owner","type":"address"},{"indexed":true,"internalType":"address","name":"operator","type":"address"},{"indexed":false,"internalType":"bool","name":"approved","type":"bool"}],"name":"ApprovalForAll","type":"event"},{"anonymous":false,"inputs":[{"indexed":false,"internalType":"uint256","name":"_fromTokenId","type":"uint256"},{"indexed":false,"internalType":"uint256","name":"_toTokenId","type":"uint256"}],"name":"BatchMetadataUpdate","type":"event"},{"anonymous":false,"inputs":[{"indexed":false,"internalType":"uint256","name":"_tokenId","type":"uint256"}],"name":"MetadataUpdate","type":"event"},{"anonymous":false,"inputs":[{"indexed":true,"internalType":"address","name":"minter","type":"address"}],"name":"MinterAuthorized","type":"event"},{"anonymous":false,"inputs":[{"indexed":true,"internalType":"address","name":"minter","type":"address"}],"name":"MinterRevoked","type":"event"},{"anonymous":false,"inputs":[{"indexed":true,"internalType":"address","name":"previousOwner","type":"address"},{"indexed":true,"internalType":"address","name":"newOwner","type":"address"}],"name":"OwnershipTransferred","type":"event"},{"anonymous":false,"inputs":[{"indexed":false,"internalType":"address","name":"account","type":"address"}],"name":"Paused","type":"event"},{"anonymous":false,"inputs":[{"indexed":false,"internalType":"uint8","name":"tier","type":"uint8"},{"indexed":false,"internalType":"string","name":"name","type":"string"},{"indexed":false,"internalType":"string","name":"uri","type":"string"}],"name":"TierMetadataUpdated","type":"event"},{"anonymous":false,"inputs":[{"indexed":true,"internalType":"address","name":"to","type":"address"},{"indexed":true,"internalType":"uint256","name":"tokenId","type":"uint256"},{"indexed":false,"internalType":"uint8","name":"tier","type":"uint8"}],"name":"TierNFTMinted","type":"event"},{"anonymous":false,"inputs":[{"indexed":true,"internalType":"address","name":"from","type":"address"},{"indexed":true,"internalType":"address","name":"to","type":"address"},{"indexed":true,"internalType":"uint256","name":"tokenId","type":"uint256"}],"name":"Transfer","type":"event"},{"anonymous":false,"inputs":[{"indexed":false,"internalType":"address","name":"account","type":"address"}],"name":"Unpaused","type":"event"},{"inputs":[{"internalType":"address","name":"to","type":"address"},{"internalType":"uint256","name":"tokenId","type":"uint256"}],"name":"approve","outputs":[],"stateMutability":"nonpayable","type":"function"},{"inputs":[{"internalType":"address","name":"minter","type":"address"}],"name":"authorizeMinter","outputs":[],"stateMutability":"nonpayable","type":"function"},{"inputs":[{"internalType":"address","name":"","type":"address"}],"name":"authorizedMinters","outputs":[{"internalType":"bool","name":"","type":"bool"}],"stateMutability":"view","type":"function"},{"inputs":[{"internalType":"address","name":"owner","type":"address"}],"name":"balanceOf","outputs":[{"internalType":"uint256","name":"","type":"uint256"}],"stateMutability":"view","type":"function"},{"inputs":[{"internalType":"uint256","name":"tokenId","type":"uint256"}],"name":"getApproved","outputs":[{"internalType":"address","name":"","type":"address"}],"stateMutability":"view","type":"function"},{"inputs":[{"internalType":"uint8","name":"tier","type":"uint8"}],"name":"getTierName","outputs":[{"internalType":"string","name":"","type":"string"}],"stateMutability":"view","type":"function"},{"inputs":[{"internalType":"address","name":"user","type":"address"}],"name":"getUserHighestTier","outputs":[{"internalType":"uint8","name":"","type":"uint8"}],"stateMutability":"view","type":"function"},{"inputs":[{"internalType":"address","name":"user","type":"address"}],"name":"getUserTiers","outputs":[{"internalType":"uint8[]","name":"","type":"uint8[]"}],"stateMutability":"view","type":"function"},{"inputs":[{"internalType":"address","name":"user","type":"address"},{"internalType":"uint8","name":"tier","type":"uint8"}],"name":"hasTierNFT","outputs":[{"internalType":"bool","name":"","type":"bool"}],"stateMutability":"view","type":"function"},{"inputs":[{"internalType":"address","name":"owner","type":"address"},{"internalType":"address","name":"operator","type":"address"}],"name":"isApprovedForAll","outputs":[{"internalType":"bool","name":"","type":"bool"}],"stateMutability":"view","type":"function"},{"inputs":[{"internalType":"address","name":"to","type":"address"},{"internalType":"uint256","name":"tokenId","type":"uint256"},{"internalType":"uint8","name":"tier","type":"uint8"}],"name":"mintReward","outputs":[],"stateMutability":"nonpayable","type":"function"},{"inputs":[],"name":"name","outputs":[{"internalType":"string","name":"","type":"string"}],"stateMutability":"view","type":"function"},{"inputs":[],"name":"owner","outputs":[{"internalType":"address","name":"","type":"address"}],"stateMutability":"view","type":"function"},{"inputs":[{"internalType":"uint256","name":"tokenId","type":"uint256"}],"name":"ownerOf","outputs":[{"internalType":"address","name":"","type":"address"}],"stateMutability":"view","type":"function"},{"inputs":[],"name":"pause","outputs":[],"stateMutability":"nonpayable","type":"function"},{"inputs":[],"name":"paused","outputs":[{"internalType":"bool","name":"","type":"bool"}],"stateMutability":"view","type":"function"},{"inputs":[],"name":"renounceOwnership","outputs":[],"stateMutability":"nonpayable","type":"function"},{"inputs":[{"internalType":"address","name":"minter","type":"address"}],"name":"revokeMinter","outputs":[],"stateMutability":"nonpayable","type":"function"},{"inputs":[{"internalType":"address","name":"from","type":"address"},{"internalType":"address","name":"to","type":"address"},{"internalType":"uint256","name":"tokenId","type":"uint256"}],"name":"safeTransferFrom","outputs":[],"stateMutability":"nonpayable","type":"function"},{"inputs":[{"internalType":"address","name":"from","type":"address"},{"internalType":"address","name":"to","type":"address"},{"internalType":"uint256","name":"tokenId","type":"uint256"},{"internalType":"bytes","name":"data","type":"bytes"}],"name":"safeTransferFrom","outputs":[],"stateMutability":"nonpayable","type":"function"},{"inputs":[{"internalType":"address","name":"operator","type":"address"},{"internalType":"bool","name":"approved","type":"bool"}],"name":"setApprovalForAll","outputs":[],"stateMutability":"nonpayable","type":"function"},{"inputs":[{"internalType":"bytes4","name":"interfaceId","type":"bytes4"}],"name":"supportsInterface","outputs":[{"internalType":"bool","name":"","type":"bool"}],"stateMutability":"view","type":"function"},{"inputs":[],"name":"symbol","outputs":[{"internalType":"string","name":"","type":"string"}],"stateMutability":"view","type":"function"},{"inputs":[{"internalType":"uint8","name":"","type":"uint8"}],"name":"tierNames","outputs":[{"internalType":"string","name":"","type":"string"}],"stateMutability":"view","type":"function"},{"inputs":[{"internalType":"uint8","name":"","type":"uint8"}],"name":"tierURIs","outputs":[{"internalType":"string","name":"","type":"string"}],"stateMutability":"view","type":"function"},{"inputs":[{"internalType":"uint256","name":"","type":"uint256"}],"name":"tokenTier","outputs":[{"internalType":"uint8","name":"","type":"uint8"}],"stateMutability":"view","type":"function"},{"inputs":[{"internalType":"uint256","name":"tokenId","type":"uint256"}],"name":"tokenURI","outputs":[{"internalType":"string","name":"","type":"string"}],"stateMutability":"view","type":"function"},{"inputs":[{"internalType":"address","name":"from","type":"address"},{"internalType":"address","name":"to","type":"address"},{"internalType":"uint256","name":"tokenId","type":"uint256"}],"name":"transferFrom","outputs":[],"stateMutability":"nonpayable","type":"function"},{"inputs":[{"internalType":"address","name":"newOwner","type":"address"}],"name":"transferOwnership","outputs":[],"stateMutability":"nonpayable","type":"function"},{"inputs":[],"name":"unpause","outputs":[],"stateMutability":"nonpayable","type":"function"},{"inputs":[{"internalType":"uint8","name":"tier","type":"uint8"},{"internalType":"string","name":"name","type":"string"},{"internalType":"string","name":"uri","type":"string"}],"name":"updateTierMetadata","outputs":[],"stateMutability":"nonpayable","type":"function"},{"inputs":[{"internalType":"address","name":"","type":"address"},{"internalType":"uint8","name":"","type":"uint8"}],"name":"userHasTier","outputs":[{"internalType":"bool","name":"","type":"bool"}],"stateMutability":"view","type":"function"},{"inputs":[{"internalType":"address","name":"","type":"address"}],"name":"userHighestTier","outputs":[{"internalType":"uint8","name":"","type":"uint8"}],"stateMutability":"view","type":"function"}],"evm":{"bytecode":{"linkReferences":{},"object":"60806040523461069057604080519081016001600160401b038111828210176105c5576040908152601382527f4d6565436861696e204d656d6265727368697000000000000000000000000000602083015280519081016001600160401b038111828210176105c55760405260048152634d45454d60e01b602082015281516001600160401b0381116105c5576100965f54610694565b601f8111610643575b50602092601f82116001146105e457928192935f926105d9575b50508160011b915f199060031b1c1916175f555b80516001600160401b0381116105c5576100e8600154610694565b601f811161056c575b50602091601f821160011461050c579181925f92610501575b50508160011b915f199060031b1c1916176001555b33156104ee5760078054336001600160a01b0319821681179092556001600160a01b03167f8be0079c531659141344cd1fd0a4f28419497f9722a3daafe3b4186f6b6457e05f80a360015f52600960205260405f206101876101818254610694565b826106e2565b7f42726f6e7a65204d656d6265720000000000000000000000000000000000001a905560025f5260096020527f6cde3cea4b3a3fb2488b2808bae7556f4a405e50f65e1794383bc026131b13c380546101e39061018190610694565b7f53696c766572204d656d6265720000000000000000000000000000000000001a905560035f5260096020527fc575c31fea594a6eb97c8e9d3f9caee4c16218c6ef37e923234c0fe9014a61e7805461023b90610694565b601f81116104ce575b507f476f6c64204d656d626572000000000000000000000000000000000000000016905560045f5260096020527f8dc18c4ccfd75f5c815b63770fa542fd953e8fef7e0e44bbdd4913470ce7e9cb805461029d90610694565b601f81116104ae575b507f506c6174696e756d204d656d626572000000000000000000000000000000001e905560015f52600a6020527fbbc70db1b6c7afd11e79c0fb0051300458f1a3acb8ee9789d9b6b26c61ad9bc780546103099061030390610694565b8261070a565b605181555f5267373d32973539b7b760c11b600160205f207f68747470733a2f2f6170692e6d6565636861696e2e636f6d2f6e66742f62726f8155015560025f52600a60205260405f206103606103038254610694565b605181555f52673b32b9173539b7b760c11b600160205f207f68747470733a2f2f6170692e6d6565636861696e2e636f6d2f6e66742f73696c8155015560035f52600a60205260405f206103b48154610694565b601f811161048b575b50604d81555f526532173539b7b760d11b600160205f207f68747470733a2f2f6170692e6d6565636861696e2e636f6d2f6e66742f676f6c8155015560045f52600a60205260405f206104108154610694565b601f8111610468575b50605581555f52693a34b73ab6973539b7b760b11b600160205f207f68747470733a2f2f6170692e6d6565636861696e2e636f6d2f6e66742f706c6181550155604051611c0990816107348239f35b61048590825f526002601f60205f20920160051c820191016106cc565b5f610419565b6104a890825f526002601f60205f20920160051c820191016106cc565b5f6103bd565b6104c890825f52601f60205f20910160051c8101906106cc565b5f6102a6565b6104e890825f52601f60205f20910160051c8101906106cc565b5f610244565b631e4fbdf760e01b5f525f60045260245ffd5b015190505f8061010a565b601f1982169260015f52805f20915f5b8581106105545750836001951061053c575b505050811b0160015561011f565b01515f1960f88460031b161c191690555f808061052e565b9192602060018192868501518155019401920161051c565b60015f526105b5907fb10e2d527612073b26eecdfd717e6a320cf44b4afac2b0732d9fcbe2b7fa0cf6601f840160051c810191602085106105bb575b601f0160051c01906106cc565b5f6100f1565b90915081906105a8565b634e487b7160e01b5f52604160045260245ffd5b015190505f806100b9565b601f198216935f8052805f20915f5b86811061062b5750836001959610610613575b505050811b015f556100cd565b01515f1960f88460031b161c191690555f8080610606565b919260206001819286850151815501940192016105f3565b5f805261068a907f290decd9548b62a8d60345a988386fc84ba6bc95484008f6362f93160ef3e563601f840160051c810191602085106105bb57601f0160051c01906106cc565b5f61009f565b5f80fd5b90600182811c921680156106c2575b60208310146106ae57565b634e487b7160e01b5f52602260045260245ffd5b91607f16916106a3565b8181106106d7575050565b5f81556001016106cc565b90601f81116106ef575050565b610708915f52601f60205f20910160051c8101906106cc565b565b90601f8111610717575050565b610708915f526002601f60205f20920160051c820191016106cc56fe6080806040526004361015610012575f80fd5b5f3560e01c90816301ffc9a7146114aa5750806306fdde0314611408578063081812fc146113cc578063095ea7b3146112e25780630c9848321461127a578063169ad1d514610f6657806323b872dd14610f4f5780633f4ba83a14610ee157806342842e0e14610eb25780635c975abb14610e8d5780636352211e14610e5d578063649e705f14610e305780636a88e3fc14610d4957806370a0823114610ddf578063715018a614610d8457806375036bc014610a545780637a65cdca14610d495780638202393114610bf95780638456cb5914610b985780638da5cb5b14610b7057806395d89b4114610aa6578063970a8dbb14610a54578063a22cb465146109b9578063aa2fe91b1461097c578063b88d4fde1461090e578063c0f52dcd146108dc578063c87b56dd146108bd578063cfbd488514610858578063de5f880d1461080e578063e64bd5931461080e578063e985e9c5146107b7578063f2fde38b146107315763ffe6c73714610187575f80fd5b346105e85760603660031901126105e8576101a0611553565b602435906044359060ff82168092036105e857335f52600e60205260ff60405f205416156106f3576001821015806106e8575b6101dc90611743565b60018060a01b03811691825f52600b60205260405f20815f5260205260ff60405f2054166106a357604051602092610214848361159f565b5f8252841561069057610225611bb5565b5f8681526002855260409020546001600160a01b0316151580610688575b610637575f8681526002855260409020546001600160a01b03168015159081610606575b865f526003865260405f2060018154019055875f526002865260405f20876bffffffffffffffffffffffff60a01b8254161790558787827fddf252ad1be2c89b69c2b068fc378daa952ba7f163c4a11628f55a4df523b3ef5f80a4506105f35783903b6104e3575b5050805f52600a82526102e460405f206116a3565b845f526006835260405f209080519067ffffffffffffffff82116104cf5761030c835461166b565b601f811161048c575b508490601f8311600114610406577f1750081358a3ea0f0f60d5398d4269d33dfb944a31ad24609626c9f62284245b95949392915f91836103fb575b50508160011b915f199060031b1c19161790555b7ff8e1a15aba9398e019f0b49df1a4fde98ee17ae345cb5f6b5e2c27f5033e8ce782604051878152a1835f52600b825260405f20815f52825260405f20600160ff19825416179055845f52600d825260405f208160ff19825416179055835f52600c825260ff60405f20541681116103e1575b604051908152a3005b835f52600c825260405f208160ff198254161790556103d8565b015190505f80610351565b90601f19831691845f52865f20925f5b81811061047557509160019391857f1750081358a3ea0f0f60d5398d4269d33dfb944a31ad24609626c9f62284245b99989796941061045d575b505050811b019055610365565b01515f1960f88460031b161c191690555f8080610450565b929388600181928786015181550195019301610416565b835f52855f20601f840160051c8101918785106104c5575b601f0160051c01905b8181106104ba5750610315565b5f81556001016104ad565b90915081906104a4565b634e487b7160e01b5f52604160045260245ffd5b61051b9160405180938192630a85bd0160e11b83523360048401525f602484015289604484015260806064840152608483019061152f565b03815f885af15f91816105af575b5061057e5750503d15610576573d90610541826115c1565b9161054f604051938461159f565b82523d5f8284013e5b815191826105735783633250574960e11b5f5260045260245ffd5b01fd5b606090610558565b6001600160e01b03191663757a42ff60e11b0161059c575f826102cf565b82633250574960e11b5f5260045260245ffd5b9091508381813d83116105ec575b6105c7818361159f565b810103126105e857516001600160e01b0319811681036105e857905f610529565b5f80fd5b503d6105bd565b6339e3563760e11b5f525f60045260245ffd5b5f8881526004602052604080822080546001600160a01b031916905582825260038852902080545f19019055610267565b60405162461bcd60e51b8152600481018590526024808201527f4d656d62657273686970204e46547320617265206e6f6e2d7472616e7366657260448201526361626c6560e01b6064820152608490fd5b506001610243565b633250574960e11b5f525f60045260245ffd5b60405162461bcd60e51b815260206004820152601e60248201527f5573657220616c72656164792068617320746869732074696572204e465400006044820152606490fd5b5060048211156101d3565b60405162461bcd60e51b8152602060048201526016602482015275139bdd08185d5d1a1bdc9a5e9959081d1bc81b5a5b9d60521b6044820152606490fd5b346105e85760203660031901126105e85761074a611553565b610752611a28565b6001600160a01b031680156107a457600780546001600160a01b0319811683179091556001600160a01b03167f8be0079c531659141344cd1fd0a4f28419497f9722a3daafe3b4186f6b6457e05f80a3005b631e4fbdf760e01b5f525f60045260245ffd5b346105e85760403660031901126105e8576107d0611553565b6107d8611569565b9060018060a01b03165f52600560205260405f209060018060a01b03165f52602052602060ff60405f2054166040519015158152f35b346105e85760203660031901126105e85760ff61082961157f565b165f52600960205261085461084060405f206116a3565b60405191829160208352602083019061152f565b0390f35b346105e85760203660031901126105e857610871611553565b610879611a28565b6001600160a01b03165f818152600e60205260408120805460ff191690557f44f4322f8daa225d5f4877ad0f7d3dfba248a774396f3ca99405ed40a044fe819080a2005b346105e85760203660031901126105e857610854610840600435611b85565b346105e85760203660031901126105e85760ff6108f761157f565b165f52600a60205261085461084060405f206116a3565b346105e85760803660031901126105e857610927611553565b61092f611569565b906044356064359267ffffffffffffffff84116105e857366023850112156105e85761096861097a9436906024816004013591016115dd565b9261097483838361177e565b33611a4f565b005b346105e85760203660031901126105e8576001600160a01b0361099d611553565b165f52600e602052602060ff60405f2054166040519015158152f35b346105e85760403660031901126105e8576109d2611553565b602435908115158092036105e8576001600160a01b0316908115610a4157335f52600560205260405f20825f5260205260405f2060ff1981541660ff83161790556040519081527f17307eab39ab6107e8899845ad3d59bd9653f200f220920489ca2b5937696c3160203392a3005b50630b61174360e31b5f5260045260245ffd5b346105e85760403660031901126105e857610a6d611553565b610a7561158f565b9060018060a01b03165f52600b60205260ff60405f2091165f52602052602060ff60405f2054166040519015158152f35b346105e8575f3660031901126105e8576040515f600154610ac68161166b565b8084529060018116908115610b4c5750600114610aee575b610854836108408185038261159f565b60015f9081527fb10e2d527612073b26eecdfd717e6a320cf44b4afac2b0732d9fcbe2b7fa0cf6939250905b808210610b3257509091508101602001610840610ade565b919260018160209254838588010152019101909291610b1a565b60ff191660208086019190915291151560051b840190910191506108409050610ade565b346105e8575f3660031901126105e8576007546040516001600160a01b039091168152602090f35b346105e8575f3660031901126105e857610bb0611a28565b610bb8611bb5565b6007805460ff60a01b1916600160a01b1790556040513381527f62e78cea01bee320cd4e420270b5ea74000d11b0c9f74754ebdbfc544b05a25890602090a1005b346105e85760203660031901126105e857610c12611553565b604051610c2060a08261159f565b6004815260803660208301376001600160a01b03909116905f9060015b60ff811660048111610c9a57845f52600b60205260405f20815f5260205260ff60405f205416610c77575b50610c72906119a7565b610c3d565b83610c9391610c8d60ff610c72959716866119cc565b526119a7565b9290610c68565b60ff841683610ca88261198f565b91610cb6604051938461159f565b808352610cc28161198f565b602084019290601f19013684375f5b60ff811683811015610d025760ff9181610cfa84610cf1600195886119cc565b511691896119cc565b520116610cd1565b8486604051918291602083019060208452518091526040830191905f5b818110610d2d575050500390f35b825160ff16845285945060209384019390920191600101610d1f565b346105e85760203660031901126105e8576001600160a01b03610d6a611553565b165f52600c602052602060ff60405f205416604051908152f35b346105e8575f3660031901126105e857610d9c611a28565b600780546001600160a01b031981169091555f906001600160a01b03167f8be0079c531659141344cd1fd0a4f28419497f9722a3daafe3b4186f6b6457e08280a3005b346105e85760203660031901126105e8576001600160a01b03610e00611553565b168015610e1d575f526003602052602060405f2054604051908152f35b6322718ad960e21b5f525f60045260245ffd5b346105e85760203660031901126105e8576004355f52600d602052602060ff60405f205416604051908152f35b346105e85760203660031901126105e8576020610e7b6004356119f4565b6040516001600160a01b039091168152f35b346105e8575f3660031901126105e857602060ff60075460a01c166040519015158152f35b346105e85761097a610ec336611631565b9060405192610ed360208561159f565b5f845261097483838361177e565b346105e8575f3660031901126105e857610ef9611a28565b60075460ff8160a01c1615610f405760ff60a01b19166007556040513381527f5db9ee0a495bf2e6ff9c91a7834c1ba4fdd244a5e8aa4e537bd38aeae4b073aa90602090a1005b638dfc202b60e01b5f5260045ffd5b346105e85761097a610f6036611631565b9161177e565b346105e85760603660031901126105e857610f7f61157f565b60243567ffffffffffffffff81116105e857610f9f903690600401611613565b60443567ffffffffffffffff81116105e857610fc160ff913690600401611613565b92610fca611a28565b1660018110158061126f575b610fdf90611743565b805f52600960205260405f20825167ffffffffffffffff81116104cf57611006825461166b565b601f811161122a575b50806020601f82116001146111c9575f916111be575b508160011b915f199060031b1c19161790555b805f52600a60205260405f20835167ffffffffffffffff81116104cf5761105f825461166b565b601f8111611179575b506020601f82116001146110f35791817f12264c3ea559e7dca409e348a98001e75c02493374ae40713d11b6419e79dfe496926110e3945f916110e8575b508160011b915f199060031b1c19161790555b6110d5604051948594855260606020860152606085019061152f565b90838203604085015261152f565b0390a1005b9050830151886110a6565b601f19821690835f52805f20915f5b8181106111615750926110e39492600192827f12264c3ea559e7dca409e348a98001e75c02493374ae40713d11b6419e79dfe49a9610611149575b5050811b0190556110b9565b8501515f1960f88460031b161c19169055888061113d565b9192602060018192868c015181550194019201611102565b825f5260205f20601f830160051c810191602084106111b4575b601f0160051c01905b8181106111a95750611068565b5f815560010161119c565b9091508190611193565b905084015186611025565b5f8481528181209250601f198416905b818110611212575090836001949392106111fa575b5050811b019055611038565b8601515f1960f88460031b161c1916905586806111ee565b9192602060018192868b0151815501940192016111d9565b825f5260205f20601f830160051c81019160208410611265575b601f0160051c01905b81811061125a575061100f565b5f815560010161124d565b9091508190611244565b506004811115610fd6565b346105e85760203660031901126105e857611293611553565b61129b611a28565b6001600160a01b03165f818152600e60205260408120805460ff191660011790557f83b05b6735acd4b85e3bded8e72c851d1a87718f81e3c8e6f0c9d9a2baa88e469080a2005b346105e85760403660031901126105e8576112fb611553565b602435611307816119f4565b331515806113b9575b8061138c575b6113795781906001600160a01b0384811691167f8c5be1e5ebec7d5bd14f71427d1e84f3dd0314c0f7b2291e5b200ac8c7c3b9255f80a45f90815260046020526040902080546001600160a01b0319166001600160a01b03909216919091179055005b63a9fbf51f60e01b5f523360045260245ffd5b506001600160a01b0381165f90815260056020908152604080832033845290915290205460ff1615611316565b506001600160a01b038116331415611310565b346105e85760203660031901126105e8576004356113e9816119f4565b505f526004602052602060018060a01b0360405f205416604051908152f35b346105e8575f3660031901126105e8576040515f5f546114278161166b565b8084529060018116908115610b4c575060011461144e57610854836108408185038261159f565b5f8080527f290decd9548b62a8d60345a988386fc84ba6bc95484008f6362f93160ef3e563939250905b80821061149057509091508101602001610840610ade565b919260018160209254838588010152019101909291611478565b346105e85760203660031901126105e8576004359063ffffffff60e01b82168092036105e857602091632483248360e11b81149081156114ec575b5015158152f35b6380ac58cd60e01b81149150811561151e575b811561150d575b50836114e5565b6301ffc9a760e01b14905083611506565b635b5e139f60e01b811491506114ff565b805180835260209291819084018484015e5f828201840152601f01601f1916010190565b600435906001600160a01b03821682036105e857565b602435906001600160a01b03821682036105e857565b6004359060ff821682036105e857565b6024359060ff821682036105e857565b90601f8019910116810190811067ffffffffffffffff8211176104cf57604052565b67ffffffffffffffff81116104cf57601f01601f191660200190565b9291926115e9826115c1565b916115f7604051938461159f565b8294818452818301116105e8578281602093845f960137010152565b9080601f830112156105e85781602061162e933591016115dd565b90565b60609060031901126105e8576004356001600160a01b03811681036105e857906024356001600160a01b03811681036105e8579060443590565b90600182811c92168015611699575b602083101461168557565b634e487b7160e01b5f52602260045260245ffd5b91607f169161167a565b9060405191825f8254926116b68461166b565b808452936001811690811561172157506001146116dd575b506116db9250038361159f565b565b90505f9291925260205f20905f915b8183106117055750509060206116db928201015f6116ce565b60209193508060019154838589010152019101909184926116ec565b9050602092506116db94915060ff191682840152151560051b8201015f6116ce565b1561174a57565b60405162461bcd60e51b815260206004820152600c60248201526b24b73b30b634b2103a34b2b960a11b6044820152606490fd5b6001600160a01b039091169190821561069057611799611bb5565b5f828152600260205260409020546001600160a01b0316151580611987575b611936575f828152600260205260409020546001600160a01b0316928290331515806118a1575b508461186e575b805f52600360205260405f2060018154019055815f52600260205260405f20816bffffffffffffffffffffffff60a01b825416179055847fddf252ad1be2c89b69c2b068fc378daa952ba7f163c4a11628f55a4df523b3ef5f80a46001600160a01b031680830361185657505050565b6364283d7b60e01b5f5260045260245260445260645ffd5b5f82815260046020526040902080546001600160a01b0319169055845f52600360205260405f205f1981540190556117e6565b909150806118e5575b156118b75782905f6117df565b82846118cf57637e27328960e01b5f5260045260245ffd5b63177e802f60e01b5f523360045260245260445ffd5b503384148015611914575b806118aa57505f838152600460205260409020546001600160a01b031633146118aa565b505f84815260056020908152604080832033845290915290205460ff166118f0565b60405162461bcd60e51b8152602060048201526024808201527f4d656d62657273686970204e46547320617265206e6f6e2d7472616e7366657260448201526361626c6560e01b6064820152608490fd5b5060016117b8565b67ffffffffffffffff81116104cf5760051b60200190565b60ff1660ff81146119b85760010190565b634e487b7160e01b5f52601160045260245ffd5b80518210156119e05760209160051b010190565b634e487b7160e01b5f52603260045260245ffd5b5f818152600260205260409020546001600160a01b0316908115611a16575090565b637e27328960e01b5f5260045260245ffd5b6007546001600160a01b03163303611a3c57565b63118cdaa760e01b5f523360045260245ffd5b823b611a5d575b5050505050565b604051630a85bd0160e11b81526001600160a01b039182166004820152918116602483015260448201939093526080606482015291169160209082908190611aa990608483019061152f565b03815f865af15f9181611b40575b50611b0c57503d15611b05573d611acd816115c1565b90611adb604051928361159f565b81523d5f602083013e5b80519081611b005782633250574960e11b5f5260045260245ffd5b602001fd5b6060611ae5565b6001600160e01b03191663757a42ff60e11b01611b2e57505f80808080611a56565b633250574960e11b5f5260045260245ffd5b9091506020813d602011611b7d575b81611b5c6020938361159f565b810103126105e857516001600160e01b0319811681036105e857905f611ab7565b3d9150611b4f565b611b8e816119f4565b505f526006602052611ba260405f206116a3565b5f604051611bb160208261159f565b5290565b60ff60075460a01c16611bc457565b63d93c066560e01b5f5260045ffdfea26469706673582212202badd76b32fab5c025abcc327b2c64a523e1ece93982a18b120a1af6ef21708264736f6c634300081c0033","opcodes":"PUSH1 0x80 PUSH1 0x40 MSTORE CALLVALUE PUSH2 0x690 JUMPI PUSH1 0x40 DUP1 MLOAD SWAP1 DUP2 ADD PUSH1 0x1 PUSH1 0x1 PUSH1 0x40 SHL SUB DUP2 GT DUP3 DUP3 LT OR PUSH2 0x5C5 JUMPI PUSH1 0x40 SWAP1 DUP2 MSTORE PUSH1 0x13 DUP3 MSTORE PUSH32 0x4D6565436861696E204D656D6265727368697000000000000000000000000000 PUSH1 0x20 DUP4 ADD MSTORE DUP1 MLOAD SWAP1 DUP2 ADD PUSH1 0x1 PUSH1 0x1 PUSH1 0x40 SHL SUB DUP2 GT DUP3 DUP3 LT OR PUSH2 0x5C5 JUMPI PUSH1 0x40 MSTORE PUSH1 0x4 DUP2 MSTORE PUSH4 0x4D45454D PUSH1 0xE0 SHL PUSH1 0x20 DUP3 ADD MSTORE DUP2 MLOAD PUSH1 0x1 PUSH1 0x1 PUSH1 0x40 SHL SUB DUP2 GT PUSH2 0x5C5 JUMPI PUSH2 0x96 PUSH0 SLOAD PUSH2 0x694 JUMP JUMPDEST PUSH1 0x1F DUP2 GT PUSH2 0x643 JUMPI JUMPDEST POP PUSH1 0x20 SWAP3 PUSH1 0x1F DUP3 GT PUSH1 0x1 EQ PUSH2 0x5E4 JUMPI SWAP3 DUP2 SWAP3 SWAP4 PUSH0 SWAP3 PUSH2 0x5D9 JUMPI JUMPDEST POP POP DUP2 PUSH1 0x1 SHL SWAP2 PUSH0 NOT SWAP1 PUSH1 0x3 SHL SHR NOT AND OR PUSH0 SSTORE JUMPDEST DUP1 MLOAD PUSH1 0x1 PUSH1 0x1 PUSH1 0x40 SHL SUB DUP2 GT PUSH2 0x5C5 JUMPI PUSH2 0xE8 PUSH1 0x1 SLOAD PUSH2 0x694 JUMP JUMPDEST PUSH1 0x1F DUP2 GT PUSH2 0x56C JUMPI JUMPDEST POP PUSH1 0x20 SWAP2 PUSH1 0x1F DUP3 GT PUSH1 0x1 EQ PUSH2 0x50C JUMPI SWAP2 DUP2 SWAP3 PUSH0 SWAP3 PUSH2 0x501 JUMPI JUMPDEST POP POP DUP2 PUSH1 0x1 SHL SWAP2 PUSH0 NOT SWAP1 PUSH1 0x3 SHL SHR NOT AND OR PUSH1 0x1 SSTORE JUMPDEST CALLER ISZERO PUSH2 0x4EE JUMPI PUSH1 0x7 DUP1 SLOAD CALLER PUSH1 0x1 PUSH1 0x1 PUSH1 0xA0 SHL SUB NOT DUP3 AND DUP2 OR SWAP1 SWAP3 SSTORE PUSH1 0x1 PUSH1 0x1 PUSH1 0xA0 SHL SUB AND PUSH32 0x8BE0079C531659141344CD1FD0A4F28419497F9722A3DAAFE3B4186F6B6457E0 PUSH0 DUP1 LOG3 PUSH1 0x1 PUSH0 MSTORE PUSH1 0x9 PUSH1 0x20 MSTORE PUSH1 0x40 PUSH0 KECCAK256 PUSH2 0x187 PUSH2 0x181 DUP3 SLOAD PUSH2 0x694 JUMP JUMPDEST DUP3 PUSH2 0x6E2 JUMP JUMPDEST PUSH32 0x42726F6E7A65204D656D6265720000000000000000000000000000000000001A SWAP1 SSTORE PUSH1 0x2 PUSH0 MSTORE PUSH1 0x9 PUSH1 0x20 MSTORE PUSH32 0x6CDE3CEA4B3A3FB2488B2808BAE7556F4A405E50F65E1794383BC026131B13C3 DUP1 SLOAD PUSH2 0x1E3 SWAP1 PUSH2 0x181 SWAP1 PUSH2 0x694 JUMP JUMPDEST PUSH32 0x53696C766572204D656D6265720000000000000000000000000000000000001A SWAP1 SSTORE PUSH1 0x3 PUSH0 MSTORE PUSH1 0x9 PUSH1 0x20 MSTORE PUSH32 0xC575C31FEA594A6EB97C8E9D3F9CAEE4C16218C6EF37E923234C0FE9014A61E7 DUP1 SLOAD PUSH2 0x23B SWAP1 PUSH2 0x694 JUMP JUMPDEST PUSH1 0x1F DUP2 GT PUSH2 0x4CE JUMPI JUMPDEST POP PUSH32 0x476F6C64204D656D626572000000000000000000000000000000000000000016 SWAP1 SSTORE PUSH1 0x4 PUSH0 MSTORE PUSH1 0x9 PUSH1 0x20 MSTORE PUSH32 0x8DC18C4CCFD75F5C815B63770FA542FD953E8FEF7E0E44BBDD4913470CE7E9CB DUP1 SLOAD PUSH2 0x29D SWAP1 PUSH2 0x694 JUMP JUMPDEST PUSH1 0x1F DUP2 GT PUSH2 0x4AE JUMPI JUMPDEST POP PUSH32 0x506C6174696E756D204D656D626572000000000000000000000000000000001E SWAP1 SSTORE PUSH1 0x1 PUSH0 MSTORE PUSH1 0xA PUSH1 0x20 MSTORE PUSH32 0xBBC70DB1B6C7AFD11E79C0FB0051300458F1A3ACB8EE9789D9B6B26C61AD9BC7 DUP1 SLOAD PUSH2 0x309 SWAP1 PUSH2 0x303 SWAP1 PUSH2 0x694 JUMP JUMPDEST DUP3 PUSH2 0x70A JUMP JUMPDEST PUSH1 0x51 DUP2 SSTORE PUSH0 MSTORE PUSH8 0x373D32973539B7B7 PUSH1 0xC1 SHL PUSH1 0x1 PUSH1 0x20 PUSH0 KECCAK256 PUSH32 0x68747470733A2F2F6170692E6D6565636861696E2E636F6D2F6E66742F62726F DUP2 SSTORE ADD SSTORE PUSH1 0x2 PUSH0 MSTORE PUSH1 0xA PUSH1 0x20 MSTORE PUSH1 0x40 PUSH0 KECCAK256 PUSH2 0x360 PUSH2 0x303 DUP3 SLOAD PUSH2 0x694 JUMP JUMPDEST PUSH1 0x51 DUP2 SSTORE PUSH0 MSTORE PUSH8 0x3B32B9173539B7B7 PUSH1 0xC1 SHL PUSH1 0x1 PUSH1 0x20 PUSH0 KECCAK256 PUSH32 0x68747470733A2F2F6170692E6D6565636861696E2E636F6D2F6E66742F73696C DUP2 SSTORE ADD SSTORE PUSH1 0x3 PUSH0 MSTORE PUSH1 0xA PUSH1 0x20 MSTORE PUSH1 0x40 PUSH0 KECCAK256 PUSH2 0x3B4 DUP2 SLOAD PUSH2 0x694 JUMP JUMPDEST PUSH1 0x1F DUP2 GT PUSH2 0x48B JUMPI JUMPDEST POP PUSH1 0x4D DUP2 SSTORE PUSH0 MSTORE PUSH6 0x32173539B7B7 PUSH1 0xD1 SHL PUSH1 0x1 PUSH1 0x20 PUSH0 KECCAK256 PUSH32 0x68747470733A2F2F6170692E6D6565636861696E2E636F6D2F6E66742F676F6C DUP2 SSTORE ADD SSTORE PUSH1 0x4 PUSH0 MSTORE PUSH1 0xA PUSH1 0x20 MSTORE PUSH1 0x40 PUSH0 KECCAK256 PUSH2 0x410 DUP2 SLOAD PUSH2 0x694 JUMP JUMPDEST PUSH1 0x1F DUP2 GT PUSH2 0x468 JUMPI JUMPDEST POP PUSH1 0x55 DUP2 SSTORE PUSH0 MSTORE PUSH10 0x3A34B73AB6973539B7B7 PUSH1 0xB1 SHL PUSH1 0x1 PUSH1 0x20 PUSH0 KECCAK256 PUSH32 0x68747470733A2F2F6170692E6D6565636861696E2E636F6D2F6E66742F706C61 DUP2 SSTORE ADD SSTORE PUSH1 0x40 MLOAD PUSH2 0x1C09 SWAP1 DUP2 PUSH2 0x734 DUP3 CODECOPY RETURN JUMPDEST PUSH2 0x485 SWAP1 DUP3 PUSH0 MSTORE PUSH1 0x2 PUSH1 0x1F PUSH1 0x20 PUSH0 KECCAK256 SWAP3 ADD PUSH1 0x5 SHR DUP3 ADD SWAP2 ADD PUSH2 0x6CC JUMP JUMPDEST PUSH0 PUSH2 0x419 JUMP JUMPDEST PUSH2 0x4A8 SWAP1 DUP3 PUSH0 MSTORE PUSH1 0x2 PUSH1 0x1F PUSH1 0x20 PUSH0 KECCAK256 SWAP3 ADD PUSH1 0x5 SHR DUP3 ADD SWAP2 ADD PUSH2 0x6CC JUMP JUMPDEST PUSH0 PUSH2 0x3BD JUMP JUMPDEST PUSH2 0x4C8 SWAP1 DUP3 PUSH0 MSTORE PUSH1 0x1F PUSH1 0x20 PUSH0 KECCAK256 SWAP2 ADD PUSH1 0x5 SHR DUP2 ADD SWAP1 PUSH2 0x6CC JUMP JUMPDEST PUSH0 PUSH2 0x2A6 JUMP JUMPDEST PUSH2 0x4E8 SWAP1 DUP3 PUSH0 MSTORE PUSH1 0x1F PUSH1 0x20 PUSH0 KECCAK256 SWAP2 ADD PUSH1 0x5 SHR DUP2 ADD SWAP1 PUSH2 0x6CC JUMP JUMPDEST PUSH0 PUSH2 0x244 JUMP JUMPDEST PUSH4 0x1E4FBDF7 PUSH1 0xE0 SHL PUSH0 MSTORE PUSH0 PUSH1 0x4 MSTORE PUSH1 0x24 PUSH0 REVERT JUMPDEST ADD MLOAD SWAP1 POP PUSH0 DUP1 PUSH2 0x10A JUMP JUMPDEST PUSH1 0x1F NOT DUP3 AND SWAP3 PUSH1 0x1 PUSH0 MSTORE DUP1 PUSH0 KECCAK256 SWAP2 PUSH0 JUMPDEST DUP6 DUP2 LT PUSH2 0x554 JUMPI POP DUP4 PUSH1 0x1 SWAP6 LT PUSH2 0x53C JUMPI JUMPDEST POP POP POP DUP2 SHL ADD PUSH1 0x1 SSTORE PUSH2 0x11F JUMP JUMPDEST ADD MLOAD PUSH0 NOT PUSH1 0xF8 DUP5 PUSH1 0x3 SHL AND SHR NOT AND SWAP1 SSTORE PUSH0 DUP1 DUP1 PUSH2 0x52E JUMP JUMPDEST SWAP2 SWAP3 PUSH1 0x20 PUSH1 0x1 DUP2 SWAP3 DUP7 DUP6 ADD MLOAD DUP2 SSTORE ADD SWAP5 ADD SWAP3 ADD PUSH2 0x51C JUMP JUMPDEST PUSH1 0x1 PUSH0 MSTORE PUSH2 0x5B5 SWAP1 PUSH32 0xB10E2D527612073B26EECDFD717E6A320CF44B4AFAC2B0732D9FCBE2B7FA0CF6 PUSH1 0x1F DUP5 ADD PUSH1 0x5 SHR DUP2 ADD SWAP2 PUSH1 0x20 DUP6 LT PUSH2 0x5BB JUMPI JUMPDEST PUSH1 0x1F ADD PUSH1 0x5 SHR ADD SWAP1 PUSH2 0x6CC JUMP JUMPDEST PUSH0 PUSH2 0xF1 JUMP JUMPDEST SWAP1 SWAP2 POP DUP2 SWAP1 PUSH2 0x5A8 JUMP JUMPDEST PUSH4 0x4E487B71 PUSH1 0xE0 SHL PUSH0 MSTORE PUSH1 0x41 PUSH1 0x4 MSTORE PUSH1 0x24 PUSH0 REVERT JUMPDEST ADD MLOAD SWAP1 POP PUSH0 DUP1 PUSH2 0xB9 JUMP JUMPDEST PUSH1 0x1F NOT DUP3 AND SWAP4 PUSH0 DUP1 MSTORE DUP1 PUSH0 KECCAK256 SWAP2 PUSH0 JUMPDEST DUP7 DUP2 LT PUSH2 0x62B JUMPI POP DUP4 PUSH1 0x1 SWAP6 SWAP7 LT PUSH2 0x613 JUMPI JUMPDEST POP POP POP DUP2 SHL ADD PUSH0 SSTORE PUSH2 0xCD JUMP JUMPDEST ADD MLOAD PUSH0 NOT PUSH1 0xF8 DUP5 PUSH1 0x3 SHL AND SHR NOT AND SWAP1 SSTORE PUSH0 DUP1 DUP1 PUSH2 0x606 JUMP JUMPDEST SWAP2 SWAP3 PUSH1 0x20 PUSH1 0x1 DUP2 SWAP3 DUP7 DUP6 ADD MLOAD DUP2 SSTORE ADD SWAP5 ADD SWAP3 ADD PUSH2 0x5F3 JUMP JUMPDEST PUSH0 DUP1 MSTORE PUSH2 0x68A SWAP1 PUSH32 0x290DECD9548B62A8D60345A988386FC84BA6BC95484008F6362F93160EF3E563 PUSH1 0x1F DUP5 ADD PUSH1 0x5 SHR DUP2 ADD SWAP2 PUSH1 0x20 DUP6 LT PUSH2 0x5BB JUMPI PUSH1 0x1F ADD PUSH1 0x5 SHR ADD SWAP1 PUSH2 0x6CC JUMP JUMPDEST PUSH0 PUSH2 0x9F JUMP JUMPDEST PUSH0 DUP1 REVERT JUMPDEST SWAP1 PUSH1 0x1 DUP3 DUP2 SHR SWAP3 AND DUP1 ISZERO PUSH2 0x6C2 JUMPI JUMPDEST PUSH1 0x20 DUP4 LT EQ PUSH2 0x6AE JUMPI JUMP JUMPDEST PUSH4 0x4E487B71 PUSH1 0xE0 SHL PUSH0 MSTORE PUSH1 0x22 PUSH1 0x4 MSTORE PUSH1 0x24 PUSH0 REVERT JUMPDEST SWAP2 PUSH1 0x7F AND SWAP2 PUSH2 0x6A3 JUMP JUMPDEST DUP2 DUP2 LT PUSH2 0x6D7 JUMPI POP POP JUMP JUMPDEST PUSH0 DUP2 SSTORE PUSH1 0x1 ADD PUSH2 0x6CC JUMP JUMPDEST SWAP1 PUSH1 0x1F DUP2 GT PUSH2 0x6EF JUMPI POP POP JUMP JUMPDEST PUSH2 0x708 SWAP2 PUSH0 MSTORE PUSH1 0x1F PUSH1 0x20 PUSH0 KECCAK256 SWAP2 ADD PUSH1 0x5 SHR DUP2 ADD SWAP1 PUSH2 0x6CC JUMP JUMPDEST JUMP JUMPDEST SWAP1 PUSH1 0x1F DUP2 GT PUSH2 0x717 JUMPI POP POP JUMP JUMPDEST PUSH2 0x708 SWAP2 PUSH0 MSTORE PUSH1 0x2 PUSH1 0x1F PUSH1 0x20 PUSH0 KECCAK256 SWAP3 ADD PUSH1 0x5 SHR DUP3 ADD SWAP2 ADD PUSH2 0x6CC JUMP INVALID PUSH1 0x80 DUP1 PUSH1 0x40 MSTORE PUSH1 0x4 CALLDATASIZE LT ISZERO PUSH2 0x12 JUMPI PUSH0 DUP1 REVERT JUMPDEST PUSH0 CALLDATALOAD PUSH1 0xE0 SHR SWAP1 DUP2 PUSH4 0x1FFC9A7 EQ PUSH2 0x14AA JUMPI POP DUP1 PUSH4 0x6FDDE03 EQ PUSH2 0x1408 JUMPI DUP1 PUSH4 0x81812FC EQ PUSH2 0x13CC JUMPI DUP1 PUSH4 0x95EA7B3 EQ PUSH2 0x12E2 JUMPI DUP1 PUSH4 0xC984832 EQ PUSH2 0x127A JUMPI DUP1 PUSH4 0x169AD1D5 EQ PUSH2 0xF66 JUMPI DUP1 PUSH4 0x23B872DD EQ PUSH2 0xF4F JUMPI DUP1 PUSH4 0x3F4BA83A EQ PUSH2 0xEE1 JUMPI DUP1 PUSH4 0x42842E0E EQ PUSH2 0xEB2 JUMPI DUP1 PUSH4 0x5C975ABB EQ PUSH2 0xE8D JUMPI DUP1 PUSH4 0x6352211E EQ PUSH2 0xE5D JUMPI DUP1 PUSH4 0x649E705F EQ PUSH2 0xE30 JUMPI DUP1 PUSH4 0x6A88E3FC EQ PUSH2 0xD49 JUMPI DUP1 PUSH4 0x70A08231 EQ PUSH2 0xDDF JUMPI DUP1 PUSH4 0x715018A6 EQ PUSH2 0xD84 JUMPI DUP1 PUSH4 0x75036BC0 EQ PUSH2 0xA54 JUMPI DUP1 PUSH4 0x7A65CDCA EQ PUSH2 0xD49 JUMPI DUP1 PUSH4 0x82023931 EQ PUSH2 0xBF9 JUMPI DUP1 PUSH4 0x8456CB59 EQ PUSH2 0xB98 JUMPI DUP1 PUSH4 0x8DA5CB5B EQ PUSH2 0xB70 JUMPI DUP1 PUSH4 0x95D89B41 EQ PUSH2 0xAA6 JUMPI DUP1 PUSH4 0x970A8DBB EQ PUSH2 0xA54 JUMPI DUP1 PUSH4 0xA22CB465 EQ PUSH2 0x9B9 JUMPI DUP1 PUSH4 0xAA2FE91B EQ PUSH2 0x97C JUMPI DUP1 PUSH4 0xB88D4FDE EQ PUSH2 0x90E JUMPI DUP1 PUSH4 0xC0F52DCD EQ PUSH2 0x8DC JUMPI DUP1 PUSH4 0xC87B56DD EQ PUSH2 0x8BD JUMPI DUP1 PUSH4 0xCFBD4885 EQ PUSH2 0x858 JUMPI DUP1 PUSH4 0xDE5F880D EQ PUSH2 0x80E JUMPI DUP1 PUSH4 0xE64BD593 EQ PUSH2 0x80E JUMPI DUP1 PUSH4 0xE985E9C5 EQ PUSH2 0x7B7 JUMPI DUP1 PUSH4 0xF2FDE38B EQ PUSH2 0x731 JUMPI PUSH4 0xFFE6C737 EQ PUSH2 0x187 JUMPI PUSH0 DUP1 REVERT JUMPDEST CALLVALUE PUSH2 0x5E8 JUMPI PUSH1 0x60 CALLDATASIZE PUSH1 0x3 NOT ADD SLT PUSH2 0x5E8 JUMPI PUSH2 0x1A0 PUSH2 0x1553 JUMP JUMPDEST PUSH1 0x24 CALLDATALOAD SWAP1 PUSH1 0x44 CALLDATALOAD SWAP1 PUSH1 0xFF DUP3 AND DUP1 SWAP3 SUB PUSH2 0x5E8 JUMPI CALLER PUSH0 MSTORE PUSH1 0xE PUSH1 0x20 MSTORE PUSH1 0xFF PUSH1 0x40 PUSH0 KECCAK256 SLOAD AND ISZERO PUSH2 0x6F3 JUMPI PUSH1 0x1 DUP3 LT ISZERO DUP1 PUSH2 0x6E8 JUMPI JUMPDEST PUSH2 0x1DC SWAP1 PUSH2 0x1743 JUMP JUMPDEST PUSH1 0x1 DUP1 PUSH1 0xA0 SHL SUB DUP2 AND SWAP2 DUP3 PUSH0 MSTORE PUSH1 0xB PUSH1 0x20 MSTORE PUSH1 0x40 PUSH0 KECCAK256 DUP2 PUSH0 MSTORE PUSH1 0x20 MSTORE PUSH1 0xFF PUSH1 0x40 PUSH0 KECCAK256 SLOAD AND PUSH2 0x6A3 JUMPI PUSH1 0x40 MLOAD PUSH1 0x20 SWAP3 PUSH2 0x214 DUP5 DUP4 PUSH2 0x159F JUMP JUMPDEST PUSH0 DUP3 MSTORE DUP5 ISZERO PUSH2 0x690 JUMPI PUSH2 0x225 PUSH2 0x1BB5 JUMP JUMPDEST PUSH0 DUP7 DUP2 MSTORE PUSH1 0x2 DUP6 MSTORE PUSH1 0x40 SWAP1 KECCAK256 SLOAD PUSH1 0x1 PUSH1 0x1 PUSH1 0xA0 SHL SUB AND ISZERO ISZERO DUP1 PUSH2 0x688 JUMPI JUMPDEST PUSH2 0x637 JUMPI PUSH0 DUP7 DUP2 MSTORE PUSH1 0x2 DUP6 MSTORE PUSH1 0x40 SWAP1 KECCAK256 SLOAD PUSH1 0x1 PUSH1 0x1 PUSH1 0xA0 SHL SUB AND DUP1 ISZERO ISZERO SWAP1 DUP2 PUSH2 0x606 JUMPI JUMPDEST DUP7 PUSH0 MSTORE PUSH1 0x3 DUP7 MSTORE PUSH1 0x40 PUSH0 KECCAK256 PUSH1 0x1 DUP2 SLOAD ADD SWAP1 SSTORE DUP8 PUSH0 MSTORE PUSH1 0x2 DUP7 MSTORE PUSH1 0x40 PUSH0 KECCAK256 DUP8 PUSH12 0xFFFFFFFFFFFFFFFFFFFFFFFF PUSH1 0xA0 SHL DUP3 SLOAD AND OR SWAP1 SSTORE DUP8 DUP8 DUP3 PUSH32 0xDDF252AD1BE2C89B69C2B068FC378DAA952BA7F163C4A11628F55A4DF523B3EF PUSH0 DUP1 LOG4 POP PUSH2 0x5F3 JUMPI DUP4 SWAP1 EXTCODESIZE PUSH2 0x4E3 JUMPI JUMPDEST POP POP DUP1 PUSH0 MSTORE PUSH1 0xA DUP3 MSTORE PUSH2 0x2E4 PUSH1 0x40 PUSH0 KECCAK256 PUSH2 0x16A3 JUMP JUMPDEST DUP5 PUSH0 MSTORE PUSH1 0x6 DUP4 MSTORE PUSH1 0x40 PUSH0 KECCAK256 SWAP1 DUP1 MLOAD SWAP1 PUSH8 0xFFFFFFFFFFFFFFFF DUP3 GT PUSH2 0x4CF JUMPI PUSH2 0x30C DUP4 SLOAD PUSH2 0x166B JUMP JUMPDEST PUSH1 0x1F DUP2 GT PUSH2 0x48C JUMPI JUMPDEST POP DUP5 SWAP1 PUSH1 0x1F DUP4 GT PUSH1 0x1 EQ PUSH2 0x406 JUMPI PUSH32 0x1750081358A3EA0F0F60D5398D4269D33DFB944A31AD24609626C9F62284245B SWAP6 SWAP5 SWAP4 SWAP3 SWAP2 PUSH0 SWAP2 DUP4 PUSH2 0x3FB JUMPI JUMPDEST POP POP DUP2 PUSH1 0x1 SHL SWAP2 PUSH0 NOT SWAP1 PUSH1 0x3 SHL SHR NOT AND OR SWAP1 SSTORE JUMPDEST PUSH32 0xF8E1A15ABA9398E019F0B49DF1A4FDE98EE17AE345CB5F6B5E2C27F5033E8CE7 DUP3 PUSH1 0x40 MLOAD DUP8 DUP2 MSTORE LOG1 DUP4 PUSH0 MSTORE PUSH1 0xB DUP3 MSTORE PUSH1 0x40 PUSH0 KECCAK256 DUP2 PUSH0 MSTORE DUP3 MSTORE PUSH1 0x40 PUSH0 KECCAK256 PUSH1 0x1 PUSH1 0xFF NOT DUP3 SLOAD AND OR SWAP1 SSTORE DUP5 PUSH0 MSTORE PUSH1 0xD DUP3 MSTORE PUSH1 0x40 PUSH0 KECCAK256 DUP2 PUSH1 0xFF NOT DUP3 SLOAD AND OR SWAP1 SSTORE DUP4 PUSH0 MSTORE PUSH1 0xC DUP3 MSTORE PUSH1 0xFF PUSH1 0x40 PUSH0 KECCAK256 SLOAD AND DUP2 GT PUSH2 0x3E1 JUMPI JUMPDEST PUSH1 0x40 MLOAD SWAP1 DUP2 MSTORE LOG3 STOP JUMPDEST DUP4 PUSH0 MSTORE PUSH1 0xC DUP3 MSTORE PUSH1 0x40 PUSH0 KECCAK256 DUP2 PUSH1 0xFF NOT DUP3 SLOAD AND OR SWAP1 SSTORE PUSH2 0x3D8 JUMP JUMPDEST ADD MLOAD SWAP1 POP PUSH0 DUP1 PUSH2 0x351 JUMP JUMPDEST SWAP1 PUSH1 0x1F NOT DUP4 AND SWAP2 DUP5 PUSH0 MSTORE DUP7 PUSH0 KECCAK256 SWAP3 PUSH0 JUMPDEST DUP2 DUP2 LT PUSH2 0x475 JUMPI POP SWAP2 PUSH1 0x1 SWAP4 SWAP2 DUP6 PUSH32 0x1750081358A3EA0F0F60D5398D4269D33DFB944A31AD24609626C9F62284245B SWAP10 SWAP9 SWAP8 SWAP7 SWAP5 LT PUSH2 0x45D JUMPI JUMPDEST POP POP POP DUP2 SHL ADD SWAP1 SSTORE PUSH2 0x365 JUMP JUMPDEST ADD MLOAD PUSH0 NOT PUSH1 0xF8 DUP5 PUSH1 0x3 SHL AND SHR NOT AND SWAP1 SSTORE PUSH0 DUP1 DUP1 PUSH2 0x450 JUMP JUMPDEST SWAP3 SWAP4 DUP9 PUSH1 0x1 DUP2 SWAP3 DUP8 DUP7 ADD MLOAD DUP2 SSTORE ADD SWAP6 ADD SWAP4 ADD PUSH2 0x416 JUMP JUMPDEST DUP4 PUSH0 MSTORE DUP6 PUSH0 KECCAK256 PUSH1 0x1F DUP5 ADD PUSH1 0x5 SHR DUP2 ADD SWAP2 DUP8 DUP6 LT PUSH2 0x4C5 JUMPI JUMPDEST PUSH1 0x1F ADD PUSH1 0x5 SHR ADD SWAP1 JUMPDEST DUP2 DUP2 LT PUSH2 0x4BA JUMPI POP PUSH2 0x315 JUMP JUMPDEST PUSH0 DUP2 SSTORE PUSH1 0x1 ADD PUSH2 0x4AD JUMP JUMPDEST SWAP1 SWAP2 POP DUP2 SWAP1 PUSH2 0x4A4 JUMP JUMPDEST PUSH4 0x4E487B71 PUSH1 0xE0 SHL PUSH0 MSTORE PUSH1 0x41 PUSH1 0x4 MSTORE PUSH1 0x24 PUSH0 REVERT JUMPDEST PUSH2 0x51B SWAP2 PUSH1 0x40 MLOAD DUP1 SWAP4 DUP2 SWAP3 PUSH4 0xA85BD01 PUSH1 0xE1 SHL DUP4 MSTORE CALLER PUSH1 0x4 DUP5 ADD MSTORE PUSH0 PUSH1 0x24 DUP5 ADD MSTORE DUP10 PUSH1 0x44 DUP5 ADD MSTORE PUSH1 0x80 PUSH1 0x64 DUP5 ADD MSTORE PUSH1 0x84 DUP4 ADD SWAP1 PUSH2 0x152F JUMP JUMPDEST SUB DUP2 PUSH0 DUP9 GAS CALL PUSH0 SWAP2 DUP2 PUSH2 0x5AF JUMPI JUMPDEST POP PUSH2 0x57E JUMPI POP POP RETURNDATASIZE ISZERO PUSH2 0x576 JUMPI RETURNDATASIZE SWAP1 PUSH2 0x541 DUP3 PUSH2 0x15C1 JUMP JUMPDEST SWAP2 PUSH2 0x54F PUSH1 0x40 MLOAD SWAP4 DUP5 PUSH2 0x159F JUMP JUMPDEST DUP3 MSTORE RETURNDATASIZE PUSH0 DUP3 DUP5 ADD RETURNDATACOPY JUMPDEST DUP2 MLOAD SWAP2 DUP3 PUSH2 0x573 JUMPI DUP4 PUSH4 0x32505749 PUSH1 0xE1 SHL PUSH0 MSTORE PUSH1 0x4 MSTORE PUSH1 0x24 PUSH0 REVERT JUMPDEST ADD REVERT JUMPDEST PUSH1 0x60 SWAP1 PUSH2 0x558 JUMP JUMPDEST PUSH1 0x1 PUSH1 0x1 PUSH1 0xE0 SHL SUB NOT AND PUSH4 0x757A42FF PUSH1 0xE1 SHL ADD PUSH2 0x59C JUMPI PUSH0 DUP3 PUSH2 0x2CF JUMP JUMPDEST DUP3 PUSH4 0x32505749 PUSH1 0xE1 SHL PUSH0 MSTORE PUSH1 0x4 MSTORE PUSH1 0x24 PUSH0 REVERT JUMPDEST SWAP1 SWAP2 POP DUP4 DUP2 DUP2 RETURNDATASIZE DUP4 GT PUSH2 0x5EC JUMPI JUMPDEST PUSH2 0x5C7 DUP2 DUP4 PUSH2 0x159F JUMP JUMPDEST DUP2 ADD SUB SLT PUSH2 0x5E8 JUMPI MLOAD PUSH1 0x1 PUSH1 0x1 PUSH1 0xE0 SHL SUB NOT DUP2 AND DUP2 SUB PUSH2 0x5E8 JUMPI SWAP1 PUSH0 PUSH2 0x529 JUMP JUMPDEST PUSH0 DUP1 REVERT JUMPDEST POP RETURNDATASIZE PUSH2 0x5BD JUMP JUMPDEST PUSH4 0x39E35637 PUSH1 0xE1 SHL PUSH0 MSTORE PUSH0 PUSH1 0x4 MSTORE PUSH1 0x24 PUSH0 REVERT JUMPDEST PUSH0 DUP9 DUP2 MSTORE PUSH1 0x4 PUSH1 0x20 MSTORE PUSH1 0x40 DUP1 DUP3 KECCAK256 DUP1 SLOAD PUSH1 0x1 PUSH1 0x1 PUSH1 0xA0 SHL SUB NOT AND SWAP1 SSTORE DUP3 DUP3 MSTORE PUSH1 0x3 DUP9 MSTORE SWAP1 KECCAK256 DUP1 SLOAD PUSH0 NOT ADD SWAP1 SSTORE PUSH2 0x267 JUMP JUMPDEST PUSH1 0x40 MLOAD PUSH3 0x461BCD PUSH1 0xE5 SHL DUP2 MSTORE PUSH1 0x4 DUP2 ADD DUP6 SWAP1 MSTORE PUSH1 0x24 DUP1 DUP3 ADD MSTORE PUSH32 0x4D656D62657273686970204E46547320617265206E6F6E2D7472616E73666572 PUSH1 0x44 DUP3 ADD MSTORE PUSH4 0x61626C65 PUSH1 0xE0 SHL PUSH1 0x64 DUP3 ADD MSTORE PUSH1 0x84 SWAP1 REVERT JUMPDEST POP PUSH1 0x1 PUSH2 0x243 JUMP JUMPDEST PUSH4 0x32505749 PUSH1 0xE1 SHL PUSH0 MSTORE PUSH0 PUSH1 0x4 MSTORE PUSH1 0x24 PUSH0 REVERT JUMPDEST PUSH1 0x40 MLOAD PUSH3 0x461BCD PUSH1 0xE5 SHL DUP2 MSTORE PUSH1 0x20 PUSH1 0x4 DUP3 ADD MSTORE PUSH1 0x1E PUSH1 0x24 DUP3 ADD MSTORE PUSH32 0x5573657220616C72656164792068617320746869732074696572204E46540000 PUSH1 0x44 DUP3 ADD MSTORE PUSH1 0x64 SWAP1 REVERT JUMPDEST POP PUSH1 0x4 DUP3 GT ISZERO PUSH2 0x1D3 JUMP JUMPDEST PUSH1 0x40 MLOAD PUSH3 0x461BCD PUSH1 0xE5 SHL DUP2 MSTORE PUSH1 0x20 PUSH1 0x4 DUP3 ADD MSTORE PUSH1 0x16 PUSH1 0x24 DUP3 ADD MSTORE PUSH22 0x139BDD08185D5D1A1BDC9A5E9959081D1BC81B5A5B9D PUSH1 0x52 SHL PUSH1 0x44 DUP3 ADD MSTORE PUSH1 0x64 SWAP1 REVERT JUMPDEST CALLVALUE PUSH2 0x5E8 JUMPI PUSH1 0x20 CALLDATASIZE PUSH1 0x3 NOT ADD SLT PUSH2 0x5E8 JUMPI PUSH2 0x74A PUSH2 0x1553 JUMP JUMPDEST PUSH2 0x752 PUSH2 0x1A28 JUMP JUMPDEST PUSH1 0x1 PUSH1 0x1 PUSH1 0xA0 SHL SUB AND DUP1 ISZERO PUSH2 0x7A4 JUMPI PUSH1 0x7 DUP1 SLOAD PUSH1 0x1 PUSH1 0x1 PUSH1 0xA0 SHL SUB NOT DUP2 AND DUP4 OR SWAP1 SWAP2 SSTORE PUSH1 0x1 PUSH1 0x1 PUSH1 0xA0 SHL SUB AND PUSH32 0x8BE0079C531659141344CD1FD0A4F28419497F9722A3DAAFE3B4186F6B6457E0 PUSH0 DUP1 LOG3 STOP JUMPDEST PUSH4 0x1E4FBDF7 PUSH1 0xE0 SHL PUSH0 MSTORE PUSH0 PUSH1 0x4 MSTORE PUSH1 0x24 PUSH0 REVERT JUMPDEST CALLVALUE PUSH2 0x5E8 JUMPI PUSH1 0x40 CALLDATASIZE PUSH1 0x3 NOT ADD SLT PUSH2 0x5E8 JUMPI PUSH2 0x7D0 PUSH2 0x1553 JUMP JUMPDEST PUSH2 0x7D8 PUSH2 0x1569 JUMP JUMPDEST SWAP1 PUSH1 0x1 DUP1 PUSH1 0xA0 SHL SUB AND PUSH0 MSTORE PUSH1 0x5 PUSH1 0x20 MSTORE PUSH1 0x40 PUSH0 KECCAK256 SWAP1 PUSH1 0x1 DUP1 PUSH1 0xA0 SHL SUB AND PUSH0 MSTORE PUSH1 0x20 MSTORE PUSH1 0x20 PUSH1 0xFF PUSH1 0x40 PUSH0 KECCAK256 SLOAD AND PUSH1 0x40 MLOAD SWAP1 ISZERO ISZERO DUP2 MSTORE RETURN JUMPDEST CALLVALUE PUSH2 0x5E8 JUMPI PUSH1 0x20 CALLDATASIZE PUSH1 0x3 NOT ADD SLT PUSH2 0x5E8 JUMPI PUSH1 0xFF PUSH2 0x829 PUSH2 0x157F JUMP JUMPDEST AND PUSH0 MSTORE PUSH1 0x9 PUSH1 0x20 MSTORE PUSH2 0x854 PUSH2 0x840 PUSH1 0x40 PUSH0 KECCAK256 PUSH2 0x16A3 JUMP JUMPDEST PUSH1 0x40 MLOAD SWAP2 DUP3 SWAP2 PUSH1 0x20 DUP4 MSTORE PUSH1 0x20 DUP4 ADD SWAP1 PUSH2 0x152F JUMP JUMPDEST SUB SWAP1 RETURN JUMPDEST CALLVALUE PUSH2 0x5E8 JUMPI PUSH1 0x20 CALLDATASIZE PUSH1 0x3 NOT ADD SLT PUSH2 0x5E8 JUMPI PUSH2 0x871 PUSH2 0x1553 JUMP JUMPDEST PUSH2 0x879 PUSH2 0x1A28 JUMP JUMPDEST PUSH1 0x1 PUSH1 0x1 PUSH1 0xA0 SHL SUB AND PUSH0 DUP2 DUP2 MSTORE PUSH1 0xE PUSH1 0x20 MSTORE PUSH1 0x40 DUP2 KECCAK256 DUP1 SLOAD PUSH1 0xFF NOT AND SWAP1 SSTORE PUSH32 0x44F4322F8DAA225D5F4877AD0F7D3DFBA248A774396F3CA99405ED40A044FE81 SWAP1 DUP1 LOG2 STOP JUMPDEST CALLVALUE PUSH2 0x5E8 JUMPI PUSH1 0x20 CALLDATASIZE PUSH1 0x3 NOT ADD SLT PUSH2 0x5E8 JUMPI PUSH2 0x854 PUSH2 0x840 PUSH1 0x4 CALLDATALOAD PUSH2 0x1B85 JUMP JUMPDEST CALLVALUE PUSH2 0x5E8 JUMPI PUSH1 0x20 CALLDATASIZE PUSH1 0x3 NOT ADD SLT PUSH2 0x5E8 JUMPI PUSH1 0xFF PUSH2 0x8F7 PUSH2 0x157F JUMP JUMPDEST AND PUSH0 MSTORE PUSH1 0xA PUSH1 0x20 MSTORE PUSH2 0x854 PUSH2 0x840 PUSH1 0x40 PUSH0 KECCAK256 PUSH2 0x16A3 JUMP JUMPDEST CALLVALUE PUSH2 0x5E8 JUMPI PUSH1 0x80 CALLDATASIZE PUSH1 0x3 NOT ADD SLT PUSH2 0x5E8 JUMPI PUSH2 0x927 PUSH2 0x1553 JUMP JUMPDEST PUSH2 0x92F PUSH2 0x1569 JUMP JUMPDEST SWAP1 PUSH1 0x44 CALLDATALOAD PUSH1 0x64 CALLDATALOAD SWAP3 PUSH8 0xFFFFFFFFFFFFFFFF DUP5 GT PUSH2 0x5E8 JUMPI CALLDATASIZE PUSH1 0x23 DUP6 ADD SLT ISZERO PUSH2 0x5E8 JUMPI PUSH2 0x968 PUSH2 0x97A SWAP5 CALLDATASIZE SWAP1 PUSH1 0x24 DUP2 PUSH1 0x4 ADD CALLDATALOAD SWAP2 ADD PUSH2 0x15DD JUMP JUMPDEST SWAP3 PUSH2 0x974 DUP4 DUP4 DUP4 PUSH2 0x177E JUMP JUMPDEST CALLER PUSH2 0x1A4F JUMP JUMPDEST STOP JUMPDEST CALLVALUE PUSH2 0x5E8 JUMPI PUSH1 0x20 CALLDATASIZE PUSH1 0x3 NOT ADD SLT PUSH2 0x5E8 JUMPI PUSH1 0x1 PUSH1 0x1 PUSH1 0xA0 SHL SUB PUSH2 0x99D PUSH2 0x1553 JUMP JUMPDEST AND PUSH0 MSTORE PUSH1 0xE PUSH1 0x20 MSTORE PUSH1 0x20 PUSH1 0xFF PUSH1 0x40 PUSH0 KECCAK256 SLOAD AND PUSH1 0x40 MLOAD SWAP1 ISZERO ISZERO DUP2 MSTORE RETURN JUMPDEST CALLVALUE PUSH2 0x5E8 JUMPI PUSH1 0x40 CALLDATASIZE PUSH1 0x3 NOT ADD SLT PUSH2 0x5E8 JUMPI PUSH2 0x9D2 PUSH2 0x1553 JUMP JUMPDEST PUSH1 0x24 CALLDATALOAD SWAP1 DUP2 ISZERO ISZERO DUP1 SWAP3 SUB PUSH2 0x5E8 JUMPI PUSH1 0x1 PUSH1 0x1 PUSH1 0xA0 SHL SUB AND SWAP1 DUP2 ISZERO PUSH2 0xA41 JUMPI CALLER PUSH0 MSTORE PUSH1 0x5 PUSH1 0x20 MSTORE PUSH1 0x40 PUSH0 KECCAK256 DUP3 PUSH0 MSTORE PUSH1 0x20 MSTORE PUSH1 0x40 PUSH0 KECCAK256 PUSH1 0xFF NOT DUP2 SLOAD AND PUSH1 0xFF DUP4 AND OR SWAP1 SSTORE PUSH1 0x40 MLOAD SWAP1 DUP2 MSTORE PUSH32 0x17307EAB39AB6107E8899845AD3D59BD9653F200F220920489CA2B5937696C31 PUSH1 0x20 CALLER SWAP3 LOG3 STOP JUMPDEST POP PUSH4 0xB611743 PUSH1 0xE3 SHL PUSH0 MSTORE PUSH1 0x4 MSTORE PUSH1 0x24 PUSH0 REVERT JUMPDEST CALLVALUE PUSH2 0x5E8 JUMPI PUSH1 0x40 CALLDATASIZE PUSH1 0x3 NOT ADD SLT PUSH2 0x5E8 JUMPI PUSH2 0xA6D PUSH2 0x1553 JUMP JUMPDEST PUSH2 0xA75 PUSH2 0x158F JUMP JUMPDEST SWAP1 PUSH1 0x1 DUP1 PUSH1 0xA0 SHL SUB AND PUSH0 MSTORE PUSH1 0xB PUSH1 0x20 MSTORE PUSH1 0xFF PUSH1 0x40 PUSH0 KECCAK256 SWAP2 AND PUSH0 MSTORE PUSH1 0x20 MSTORE PUSH1 0x20 PUSH1 0xFF PUSH1 0x40 PUSH0 KECCAK256 SLOAD AND PUSH1 0x40 MLOAD SWAP1 ISZERO ISZERO DUP2 MSTORE RETURN JUMPDEST CALLVALUE PUSH2 0x5E8 JUMPI PUSH0 CALLDATASIZE PUSH1 0x3 NOT ADD SLT PUSH2 0x5E8 JUMPI PUSH1 0x40 MLOAD PUSH0 PUSH1 0x1 SLOAD PUSH2 0xAC6 DUP2 PUSH2 0x166B JUMP JUMPDEST DUP1 DUP5 MSTORE SWAP1 PUSH1 0x1 DUP2 AND SWAP1 DUP2 ISZERO PUSH2 0xB4C JUMPI POP PUSH1 0x1 EQ PUSH2 0xAEE JUMPI JUMPDEST PUSH2 0x854 DUP4 PUSH2 0x840 DUP2 DUP6 SUB DUP3 PUSH2 0x159F JUMP JUMPDEST PUSH1 0x1 PUSH0 SWAP1 DUP2 MSTORE PUSH32 0xB10E2D527612073B26EECDFD717E6A320CF44B4AFAC2B0732D9FCBE2B7FA0CF6 SWAP4 SWAP3 POP SWAP1 JUMPDEST DUP1 DUP3 LT PUSH2 0xB32 JUMPI POP SWAP1 SWAP2 POP DUP2 ADD PUSH1 0x20 ADD PUSH2 0x840 PUSH2 0xADE JUMP JUMPDEST SWAP2 SWAP3 PUSH1 0x1 DUP2 PUSH1 0x20 SWAP3 SLOAD DUP4 DUP6 DUP9 ADD ADD MSTORE ADD SWAP2 ADD SWAP1 SWAP3 SWAP2 PUSH2 0xB1A JUMP JUMPDEST PUSH1 0xFF NOT AND PUSH1 0x20 DUP1 DUP7 ADD SWAP2 SWAP1 SWAP2 MSTORE SWAP2 ISZERO ISZERO PUSH1 0x5 SHL DUP5 ADD SWAP1 SWAP2 ADD SWAP2 POP PUSH2 0x840 SWAP1 POP PUSH2 0xADE JUMP JUMPDEST CALLVALUE PUSH2 0x5E8 JUMPI PUSH0 CALLDATASIZE PUSH1 0x3 NOT ADD SLT PUSH2 0x5E8 JUMPI PUSH1 0x7 SLOAD PUSH1 0x40 MLOAD PUSH1 0x1 PUSH1 0x1 PUSH1 0xA0 SHL SUB SWAP1 SWAP2 AND DUP2 MSTORE PUSH1 0x20 SWAP1 RETURN JUMPDEST CALLVALUE PUSH2 0x5E8 JUMPI PUSH0 CALLDATASIZE PUSH1 0x3 NOT ADD SLT PUSH2 0x5E8 JUMPI PUSH2 0xBB0 PUSH2 0x1A28 JUMP JUMPDEST PUSH2 0xBB8 PUSH2 0x1BB5 JUMP JUMPDEST PUSH1 0x7 DUP1 SLOAD PUSH1 0xFF PUSH1 0xA0 SHL NOT AND PUSH1 0x1 PUSH1 0xA0 SHL OR SWAP1 SSTORE PUSH1 0x40 MLOAD CALLER DUP2 MSTORE PUSH32 0x62E78CEA01BEE320CD4E420270B5EA74000D11B0C9F74754EBDBFC544B05A258 SWAP1 PUSH1 0x20 SWAP1 LOG1 STOP JUMPDEST CALLVALUE PUSH2 0x5E8 JUMPI PUSH1 0x20 CALLDATASIZE PUSH1 0x3 NOT ADD SLT PUSH2 0x5E8 JUMPI PUSH2 0xC12 PUSH2 0x1553 JUMP JUMPDEST PUSH1 0x40 MLOAD PUSH2 0xC20 PUSH1 0xA0 DUP3 PUSH2 0x159F JUMP JUMPDEST PUSH1 0x4 DUP2 MSTORE PUSH1 0x80 CALLDATASIZE PUSH1 0x20 DUP4 ADD CALLDATACOPY PUSH1 0x1 PUSH1 0x1 PUSH1 0xA0 SHL SUB SWAP1 SWAP2 AND SWAP1 PUSH0 SWAP1 PUSH1 0x1 JUMPDEST PUSH1 0xFF DUP2 AND PUSH1 0x4 DUP2 GT PUSH2 0xC9A JUMPI DUP5 PUSH0 MSTORE PUSH1 0xB PUSH1 0x20 MSTORE PUSH1 0x40 PUSH0 KECCAK256 DUP2 PUSH0 MSTORE PUSH1 0x20 MSTORE PUSH1 0xFF PUSH1 0x40 PUSH0 KECCAK256 SLOAD AND PUSH2 0xC77 JUMPI JUMPDEST POP PUSH2 0xC72 SWAP1 PUSH2 0x19A7 JUMP JUMPDEST PUSH2 0xC3D JUMP JUMPDEST DUP4 PUSH2 0xC93 SWAP2 PUSH2 0xC8D PUSH1 0xFF PUSH2 0xC72 SWAP6 SWAP8 AND DUP7 PUSH2 0x19CC JUMP JUMPDEST MSTORE PUSH2 0x19A7 JUMP JUMPDEST SWAP3 SWAP1 PUSH2 0xC68 JUMP JUMPDEST PUSH1 0xFF DUP5 AND DUP4 PUSH2 0xCA8 DUP3 PUSH2 0x198F JUMP JUMPDEST SWAP2 PUSH2 0xCB6 PUSH1 0x40 MLOAD SWAP4 DUP5 PUSH2 0x159F JUMP JUMPDEST DUP1 DUP4 MSTORE PUSH2 0xCC2 DUP2 PUSH2 0x198F JUMP JUMPDEST PUSH1 0x20 DUP5 ADD SWAP3 SWAP1 PUSH1 0x1F NOT ADD CALLDATASIZE DUP5 CALLDATACOPY PUSH0 JUMPDEST PUSH1 0xFF DUP2 AND DUP4 DUP2 LT ISZERO PUSH2 0xD02 JUMPI PUSH1 0xFF SWAP2 DUP2 PUSH2 0xCFA DUP5 PUSH2 0xCF1 PUSH1 0x1 SWAP6 DUP9 PUSH2 0x19CC JUMP JUMPDEST MLOAD AND SWAP2 DUP10 PUSH2 0x19CC JUMP JUMPDEST MSTORE ADD AND PUSH2 0xCD1 JUMP JUMPDEST DUP5 DUP7 PUSH1 0x40 MLOAD SWAP2 DUP3 SWAP2 PUSH1 0x20 DUP4 ADD SWAP1 PUSH1 0x20 DUP5 MSTORE MLOAD DUP1 SWAP2 MSTORE PUSH1 0x40 DUP4 ADD SWAP2 SWAP1 PUSH0 JUMPDEST DUP2 DUP2 LT PUSH2 0xD2D JUMPI POP POP POP SUB SWAP1 RETURN JUMPDEST DUP3 MLOAD PUSH1 0xFF AND DUP5 MSTORE DUP6 SWAP5 POP PUSH1 0x20 SWAP4 DUP5 ADD SWAP4 SWAP1 SWAP3 ADD SWAP2 PUSH1 0x1 ADD PUSH2 0xD1F JUMP JUMPDEST CALLVALUE PUSH2 0x5E8 JUMPI PUSH1 0x20 CALLDATASIZE PUSH1 0x3 NOT ADD SLT PUSH2 0x5E8 JUMPI PUSH1 0x1 PUSH1 0x1 PUSH1 0xA0 SHL SUB PUSH2 0xD6A PUSH2 0x1553 JUMP JUMPDEST AND PUSH0 MSTORE PUSH1 0xC PUSH1 0x20 MSTORE PUSH1 0x20 PUSH1 0xFF PUSH1 0x40 PUSH0 KECCAK256 SLOAD AND PUSH1 0x40 MLOAD SWAP1 DUP2 MSTORE RETURN JUMPDEST CALLVALUE PUSH2 0x5E8 JUMPI PUSH0 CALLDATASIZE PUSH1 0x3 NOT ADD SLT PUSH2 0x5E8 JUMPI PUSH2 0xD9C PUSH2 0x1A28 JUMP JUMPDEST PUSH1 0x7 DUP1 SLOAD PUSH1 0x1 PUSH1 0x1 PUSH1 0xA0 SHL SUB NOT DUP2 AND SWAP1 SWAP2 SSTORE PUSH0 SWAP1 PUSH1 0x1 PUSH1 0x1 PUSH1 0xA0 SHL SUB AND PUSH32 0x8BE0079C531659141344CD1FD0A4F28419497F9722A3DAAFE3B4186F6B6457E0 DUP3 DUP1 LOG3 STOP JUMPDEST CALLVALUE PUSH2 0x5E8 JUMPI PUSH1 0x20 CALLDATASIZE PUSH1 0x3 NOT ADD SLT PUSH2 0x5E8 JUMPI PUSH1 0x1 PUSH1 0x1 PUSH1 0xA0 SHL SUB PUSH2 0xE00 PUSH2 0x1553 JUMP JUMPDEST AND DUP1 ISZERO PUSH2 0xE1D JUMPI PUSH0 MSTORE PUSH1 0x3 PUSH1 0x20 MSTORE PUSH1 0x20 PUSH1 0x40 PUSH0 KECCAK256 SLOAD PUSH1 0x40 MLOAD SWAP1 DUP2 MSTORE RETURN JUMPDEST PUSH4 0x22718AD9 PUSH1 0xE2 SHL PUSH0 MSTORE PUSH0 PUSH1 0x4 MSTORE PUSH1 0x24 PUSH0 REVERT JUMPDEST CALLVALUE PUSH2 0x5E8 JUMPI PUSH1 0x20 CALLDATASIZE PUSH1 0x3 NOT ADD SLT PUSH2 0x5E8 JUMPI PUSH1 0x4 CALLDATALOAD PUSH0 MSTORE PUSH1 0xD PUSH1 0x20 MSTORE PUSH1 0x20 PUSH1 0xFF PUSH1 0x40 PUSH0 KECCAK256 SLOAD AND PUSH1 0x40 MLOAD SWAP1 DUP2 MSTORE RETURN JUMPDEST CALLVALUE PUSH2 0x5E8 JUMPI PUSH1 0x20 CALLDATASIZE PUSH1 0x3 NOT ADD SLT PUSH2 0x5E8 JUMPI PUSH1 0x20 PUSH2 0xE7B PUSH1 0x4 CALLDATALOAD PUSH2 0x19F4 JUMP JUMPDEST PUSH1 0x40 MLOAD PUSH1 0x1 PUSH1 0x1 PUSH1 0xA0 SHL SUB SWAP1 SWAP2 AND DUP2 MSTORE RETURN JUMPDEST CALLVALUE PUSH2 0x5E8 JUMPI PUSH0 CALLDATASIZE PUSH1 0x3 NOT ADD SLT PUSH2 0x5E8 JUMPI PUSH1 0x20 PUSH1 0xFF PUSH1 0x7 SLOAD PUSH1 0xA0 SHR AND PUSH1 0x40 MLOAD SWAP1 ISZERO ISZERO DUP2 MSTORE RETURN JUMPDEST CALLVALUE PUSH2 0x5E8 JUMPI PUSH2 0x97A PUSH2 0xEC3 CALLDATASIZE PUSH2 0x1631 JUMP JUMPDEST SWAP1 PUSH1 0x40 MLOAD SWAP3 PUSH2 0xED3 PUSH1 0x20 DUP6 PUSH2 0x159F JUMP JUMPDEST PUSH0 DUP5 MSTORE PUSH2 0x974 DUP4 DUP4 DUP4 PUSH2 0x177E JUMP JUMPDEST CALLVALUE PUSH2 0x5E8 JUMPI PUSH0 CALLDATASIZE PUSH1 0x3 NOT ADD SLT PUSH2 0x5E8 JUMPI PUSH2 0xEF9 PUSH2 0x1A28 JUMP JUMPDEST PUSH1 0x7 SLOAD PUSH1 0xFF DUP2 PUSH1 0xA0 SHR AND ISZERO PUSH2 0xF40 JUMPI PUSH1 0xFF PUSH1 0xA0 SHL NOT AND PUSH1 0x7 SSTORE PUSH1 0x40 MLOAD CALLER DUP2 MSTORE PUSH32 0x5DB9EE0A495BF2E6FF9C91A7834C1BA4FDD244A5E8AA4E537BD38AEAE4B073AA SWAP1 PUSH1 0x20 SWAP1 LOG1 STOP JUMPDEST PUSH4 0x8DFC202B PUSH1 0xE0 SHL PUSH0 MSTORE PUSH1 0x4 PUSH0 REVERT JUMPDEST CALLVALUE PUSH2 0x5E8 JUMPI PUSH2 0x97A PUSH2 0xF60 CALLDATASIZE PUSH2 0x1631 JUMP JUMPDEST SWAP2 PUSH2 0x177E JUMP JUMPDEST CALLVALUE PUSH2 0x5E8 JUMPI PUSH1 0x60 CALLDATASIZE PUSH1 0x3 NOT ADD SLT PUSH2 0x5E8 JUMPI PUSH2 0xF7F PUSH2 0x157F JUMP JUMPDEST PUSH1 0x24 CALLDATALOAD PUSH8 0xFFFFFFFFFFFFFFFF DUP2 GT PUSH2 0x5E8 JUMPI PUSH2 0xF9F SWAP1 CALLDATASIZE SWAP1 PUSH1 0x4 ADD PUSH2 0x1613 JUMP JUMPDEST PUSH1 0x44 CALLDATALOAD PUSH8 0xFFFFFFFFFFFFFFFF DUP2 GT PUSH2 0x5E8 JUMPI PUSH2 0xFC1 PUSH1 0xFF SWAP2 CALLDATASIZE SWAP1 PUSH1 0x4 ADD PUSH2 0x1613 JUMP JUMPDEST SWAP3 PUSH2 0xFCA PUSH2 0x1A28 JUMP JUMPDEST AND PUSH1 0x1 DUP2 LT ISZERO DUP1 PUSH2 0x126F JUMPI JUMPDEST PUSH2 0xFDF SWAP1 PUSH2 0x1743 JUMP JUMPDEST DUP1 PUSH0 MSTORE PUSH1 0x9 PUSH1 0x20 MSTORE PUSH1 0x40 PUSH0 KECCAK256 DUP3 MLOAD PUSH8 0xFFFFFFFFFFFFFFFF DUP2 GT PUSH2 0x4CF JUMPI PUSH2 0x1006 DUP3 SLOAD PUSH2 0x166B JUMP JUMPDEST PUSH1 0x1F DUP2 GT PUSH2 0x122A JUMPI JUMPDEST POP DUP1 PUSH1 0x20 PUSH1 0x1F DUP3 GT PUSH1 0x1 EQ PUSH2 0x11C9 JUMPI PUSH0 SWAP2 PUSH2 0x11BE JUMPI JUMPDEST POP DUP2 PUSH1 0x1 SHL SWAP2 PUSH0 NOT SWAP1 PUSH1 0x3 SHL SHR NOT AND OR SWAP1 SSTORE JUMPDEST DUP1 PUSH0 MSTORE PUSH1 0xA PUSH1 0x20 MSTORE PUSH1 0x40 PUSH0 KECCAK256 DUP4 MLOAD PUSH8 0xFFFFFFFFFFFFFFFF DUP2 GT PUSH2 0x4CF JUMPI PUSH2 0x105F DUP3 SLOAD PUSH2 0x166B JUMP JUMPDEST PUSH1 0x1F DUP2 GT PUSH2 0x1179 JUMPI JUMPDEST POP PUSH1 0x20 PUSH1 0x1F DUP3 GT PUSH1 0x1 EQ PUSH2 0x10F3 JUMPI SWAP2 DUP2 PUSH32 0x12264C3EA559E7DCA409E348A98001E75C02493374AE40713D11B6419E79DFE4 SWAP7 SWAP3 PUSH2 0x10E3 SWAP5 PUSH0 SWAP2 PUSH2 0x10E8 JUMPI JUMPDEST POP DUP2 PUSH1 0x1 SHL SWAP2 PUSH0 NOT SWAP1 PUSH1 0x3 SHL SHR NOT AND OR SWAP1 SSTORE JUMPDEST PUSH2 0x10D5 PUSH1 0x40 MLOAD SWAP5 DUP6 SWAP5 DUP6 MSTORE PUSH1 0x60 PUSH1 0x20 DUP7 ADD MSTORE PUSH1 0x60 DUP6 ADD SWAP1 PUSH2 0x152F JUMP JUMPDEST SWAP1 DUP4 DUP3 SUB PUSH1 0x40 DUP6 ADD MSTORE PUSH2 0x152F JUMP JUMPDEST SUB SWAP1 LOG1 STOP JUMPDEST SWAP1 POP DUP4 ADD MLOAD DUP9 PUSH2 0x10A6 JUMP JUMPDEST PUSH1 0x1F NOT DUP3 AND SWAP1 DUP4 PUSH0 MSTORE DUP1 PUSH0 KECCAK256 SWAP2 PUSH0 JUMPDEST DUP2 DUP2 LT PUSH2 0x1161 JUMPI POP SWAP3 PUSH2 0x10E3 SWAP5 SWAP3 PUSH1 0x1 SWAP3 DUP3 PUSH32 0x12264C3EA559E7DCA409E348A98001E75C02493374AE40713D11B6419E79DFE4 SWAP11 SWAP7 LT PUSH2 0x1149 JUMPI JUMPDEST POP POP DUP2 SHL ADD SWAP1 SSTORE PUSH2 0x10B9 JUMP JUMPDEST DUP6 ADD MLOAD PUSH0 NOT PUSH1 0xF8 DUP5 PUSH1 0x3 SHL AND SHR NOT AND SWAP1 SSTORE DUP9 DUP1 PUSH2 0x113D JUMP JUMPDEST SWAP2 SWAP3 PUSH1 0x20 PUSH1 0x1 DUP2 SWAP3 DUP7 DUP13 ADD MLOAD DUP2 SSTORE ADD SWAP5 ADD SWAP3 ADD PUSH2 0x1102 JUMP JUMPDEST DUP3 PUSH0 MSTORE PUSH1 0x20 PUSH0 KECCAK256 PUSH1 0x1F DUP4 ADD PUSH1 0x5 SHR DUP2 ADD SWAP2 PUSH1 0x20 DUP5 LT PUSH2 0x11B4 JUMPI JUMPDEST PUSH1 0x1F ADD PUSH1 0x5 SHR ADD SWAP1 JUMPDEST DUP2 DUP2 LT PUSH2 0x11A9 JUMPI POP PUSH2 0x1068 JUMP JUMPDEST PUSH0 DUP2 SSTORE PUSH1 0x1 ADD PUSH2 0x119C JUMP JUMPDEST SWAP1 SWAP2 POP DUP2 SWAP1 PUSH2 0x1193 JUMP JUMPDEST SWAP1 POP DUP5 ADD MLOAD DUP7 PUSH2 0x1025 JUMP JUMPDEST PUSH0 DUP5 DUP2 MSTORE DUP2 DUP2 KECCAK256 SWAP3 POP PUSH1 0x1F NOT DUP5 AND SWAP1 JUMPDEST DUP2 DUP2 LT PUSH2 0x1212 JUMPI POP SWAP1 DUP4 PUSH1 0x1 SWAP5 SWAP4 SWAP3 LT PUSH2 0x11FA JUMPI JUMPDEST POP POP DUP2 SHL ADD SWAP1 SSTORE PUSH2 0x1038 JUMP JUMPDEST DUP7 ADD MLOAD PUSH0 NOT PUSH1 0xF8 DUP5 PUSH1 0x3 SHL AND SHR NOT AND SWAP1 SSTORE DUP7 DUP1 PUSH2 0x11EE JUMP JUMPDEST SWAP2 SWAP3 PUSH1 0x20 PUSH1 0x1 DUP2 SWAP3 DUP7 DUP12 ADD MLOAD DUP2 SSTORE ADD SWAP5 ADD SWAP3 ADD PUSH2 0x11D9 JUMP JUMPDEST DUP3 PUSH0 MSTORE PUSH1 0x20 PUSH0 KECCAK256 PUSH1 0x1F DUP4 ADD PUSH1 0x5 SHR DUP2 ADD SWAP2 PUSH1 0x20 DUP5 LT PUSH2 0x1265 JUMPI JUMPDEST PUSH1 0x1F ADD PUSH1 0x5 SHR ADD SWAP1 JUMPDEST DUP2 DUP2 LT PUSH2 0x125A JUMPI POP PUSH2 0x100F JUMP JUMPDEST PUSH0 DUP2 SSTORE PUSH1 0x1 ADD PUSH2 0x124D JUMP JUMPDEST SWAP1 SWAP2 POP DUP2 SWAP1 PUSH2 0x1244 JUMP JUMPDEST POP PUSH1 0x4 DUP2 GT ISZERO PUSH2 0xFD6 JUMP JUMPDEST CALLVALUE PUSH2 0x5E8 JUMPI PUSH1 0x20 CALLDATASIZE PUSH1 0x3 NOT ADD SLT PUSH2 0x5E8 JUMPI PUSH2 0x1293 PUSH2 0x1553 JUMP JUMPDEST PUSH2 0x129B PUSH2 0x1A28 JUMP JUMPDEST PUSH1 0x1 PUSH1 0x1 PUSH1 0xA0 SHL SUB AND PUSH0 DUP2 DUP2 MSTORE PUSH1 0xE PUSH1 0x20 MSTORE PUSH1 0x40 DUP2 KECCAK256 DUP1 SLOAD PUSH1 0xFF NOT AND PUSH1 0x1 OR SWAP1 SSTORE PUSH32 0x83B05B6735ACD4B85E3BDED8E72C851D1A87718F81E3C8E6F0C9D9A2BAA88E46 SWAP1 DUP1 LOG2 STOP JUMPDEST CALLVALUE PUSH2 0x5E8 JUMPI PUSH1 0x40 CALLDATASIZE PUSH1 0x3 NOT ADD SLT PUSH2 0x5E8 JUMPI PUSH2 0x12FB PUSH2 0x1553 JUMP JUMPDEST PUSH1 0x24 CALLDATALOAD PUSH2 0x1307 DUP2 PUSH2 0x19F4 JUMP JUMPDEST CALLER ISZERO ISZERO DUP1 PUSH2 0x13B9 JUMPI JUMPDEST DUP1 PUSH2 0x138C JUMPI JUMPDEST PUSH2 0x1379 JUMPI DUP2 SWAP1 PUSH1 0x1 PUSH1 0x1 PUSH1 0xA0 SHL SUB DUP5 DUP2 AND SWAP2 AND PUSH32 0x8C5BE1E5EBEC7D5BD14F71427D1E84F3DD0314C0F7B2291E5B200AC8C7C3B925 PUSH0 DUP1 LOG4 PUSH0 SWAP1 DUP2 MSTORE PUSH1 0x4 PUSH1 0x20 MSTORE PUSH1 0x40 SWAP1 KECCAK256 DUP1 SLOAD PUSH1 0x1 PUSH1 0x1 PUSH1 0xA0 SHL SUB NOT AND PUSH1 0x1 PUSH1 0x1 PUSH1 0xA0 SHL SUB SWAP1 SWAP3 AND SWAP2 SWAP1 SWAP2 OR SWAP1 SSTORE STOP JUMPDEST PUSH4 0xA9FBF51F PUSH1 0xE0 SHL PUSH0 MSTORE CALLER PUSH1 0x4 MSTORE PUSH1 0x24 PUSH0 REVERT JUMPDEST POP PUSH1 0x1 PUSH1 0x1 PUSH1 0xA0 SHL SUB DUP2 AND PUSH0 SWAP1 DUP2 MSTORE PUSH1 0x5 PUSH1 0x20 SWAP1 DUP2 MSTORE PUSH1 0x40 DUP1 DUP4 KECCAK256 CALLER DUP5 MSTORE SWAP1 SWAP2 MSTORE SWAP1 KECCAK256 SLOAD PUSH1 0xFF AND ISZERO PUSH2 0x1316 JUMP JUMPDEST POP PUSH1 0x1 PUSH1 0x1 PUSH1 0xA0 SHL SUB DUP2 AND CALLER EQ ISZERO PUSH2 0x1310 JUMP JUMPDEST CALLVALUE PUSH2 0x5E8 JUMPI PUSH1 0x20 CALLDATASIZE PUSH1 0x3 NOT ADD SLT PUSH2 0x5E8 JUMPI PUSH1 0x4 CALLDATALOAD PUSH2 0x13E9 DUP2 PUSH2 0x19F4 JUMP JUMPDEST POP PUSH0 MSTORE PUSH1 0x4 PUSH1 0x20 MSTORE PUSH1 0x20 PUSH1 0x1 DUP1 PUSH1 0xA0 SHL SUB PUSH1 0x40 PUSH0 KECCAK256 SLOAD AND PUSH1 0x40 MLOAD SWAP1 DUP2 MSTORE RETURN JUMPDEST CALLVALUE PUSH2 0x5E8 JUMPI PUSH0 CALLDATASIZE PUSH1 0x3 NOT ADD SLT PUSH2 0x5E8 JUMPI PUSH1 0x40 MLOAD PUSH0 PUSH0 SLOAD PUSH2 0x1427 DUP2 PUSH2 0x166B JUMP JUMPDEST DUP1 DUP5 MSTORE SWAP1 PUSH1 0x1 DUP2 AND SWAP1 DUP2 ISZERO PUSH2 0xB4C JUMPI POP PUSH1 0x1 EQ PUSH2 0x144E JUMPI PUSH2 0x854 DUP4 PUSH2 0x840 DUP2 DUP6 SUB DUP3 PUSH2 0x159F JUMP JUMPDEST PUSH0 DUP1 DUP1 MSTORE PUSH32 0x290DECD9548B62A8D60345A988386FC84BA6BC95484008F6362F93160EF3E563 SWAP4 SWAP3 POP SWAP1 JUMPDEST DUP1 DUP3 LT PUSH2 0x1490 JUMPI POP SWAP1 SWAP2 POP DUP2 ADD PUSH1 0x20 ADD PUSH2 0x840 PUSH2 0xADE JUMP JUMPDEST SWAP2 SWAP3 PUSH1 0x1 DUP2 PUSH1 0x20 SWAP3 SLOAD DUP4 DUP6 DUP9 ADD ADD MSTORE ADD SWAP2 ADD SWAP1 SWAP3 SWAP2 PUSH2 0x1478 JUMP JUMPDEST CALLVALUE PUSH2 0x5E8 JUMPI PUSH1 0x20 CALLDATASIZE PUSH1 0x3 NOT ADD SLT PUSH2 0x5E8 JUMPI PUSH1 0x4 CALLDATALOAD SWAP1 PUSH4 0xFFFFFFFF PUSH1 0xE0 SHL DUP3 AND DUP1 SWAP3 SUB PUSH2 0x5E8 JUMPI PUSH1 0x20 SWAP2 PUSH4 0x24832483 PUSH1 0xE1 SHL DUP2 EQ SWAP1 DUP2 ISZERO PUSH2 0x14EC JUMPI JUMPDEST POP ISZERO ISZERO DUP2 MSTORE RETURN JUMPDEST PUSH4 0x80AC58CD PUSH1 0xE0 SHL DUP2 EQ SWAP2 POP DUP2 ISZERO PUSH2 0x151E JUMPI JUMPDEST DUP2 ISZERO PUSH2 0x150D JUMPI JUMPDEST POP DUP4 PUSH2 0x14E5 JUMP JUMPDEST PUSH4 0x1FFC9A7 PUSH1 0xE0 SHL EQ SWAP1 POP DUP4 PUSH2 0x1506 JUMP JUMPDEST PUSH4 0x5B5E139F PUSH1 0xE0 SHL DUP2 EQ SWAP2 POP PUSH2 0x14FF JUMP JUMPDEST DUP1 MLOAD DUP1 DUP4 MSTORE PUSH1 0x20 SWAP3 SWAP2 DUP2 SWAP1 DUP5 ADD DUP5 DUP5 ADD MCOPY PUSH0 DUP3 DUP3 ADD DUP5 ADD MSTORE PUSH1 0x1F ADD PUSH1 0x1F NOT AND ADD ADD SWAP1 JUMP JUMPDEST PUSH1 0x4 CALLDATALOAD SWAP1 PUSH1 0x1 PUSH1 0x1 PUSH1 0xA0 SHL SUB DUP3 AND DUP3 SUB PUSH2 0x5E8 JUMPI JUMP JUMPDEST PUSH1 0x24 CALLDATALOAD SWAP1 PUSH1 0x1 PUSH1 0x1 PUSH1 0xA0 SHL SUB DUP3 AND DUP3 SUB PUSH2 0x5E8 JUMPI JUMP JUMPDEST PUSH1 0x4 CALLDATALOAD SWAP1 PUSH1 0xFF DUP3 AND DUP3 SUB PUSH2 0x5E8 JUMPI JUMP JUMPDEST PUSH1 0x24 CALLDATALOAD SWAP1 PUSH1 0xFF DUP3 AND DUP3 SUB PUSH2 0x5E8 JUMPI JUMP JUMPDEST SWAP1 PUSH1 0x1F DUP1 NOT SWAP2 ADD AND DUP2 ADD SWAP1 DUP2 LT PUSH8 0xFFFFFFFFFFFFFFFF DUP3 GT OR PUSH2 0x4CF JUMPI PUSH1 0x40 MSTORE JUMP JUMPDEST PUSH8 0xFFFFFFFFFFFFFFFF DUP2 GT PUSH2 0x4CF JUMPI PUSH1 0x1F ADD PUSH1 0x1F NOT AND PUSH1 0x20 ADD SWAP1 JUMP JUMPDEST SWAP3 SWAP2 SWAP3 PUSH2 0x15E9 DUP3 PUSH2 0x15C1 JUMP JUMPDEST SWAP2 PUSH2 0x15F7 PUSH1 0x40 MLOAD SWAP4 DUP5 PUSH2 0x159F JUMP JUMPDEST DUP3 SWAP5 DUP2 DUP5 MSTORE DUP2 DUP4 ADD GT PUSH2 0x5E8 JUMPI DUP3 DUP2 PUSH1 0x20 SWAP4 DUP5 PUSH0 SWAP7 ADD CALLDATACOPY ADD ADD MSTORE JUMP JUMPDEST SWAP1 DUP1 PUSH1 0x1F DUP4 ADD SLT ISZERO PUSH2 0x5E8 JUMPI DUP2 PUSH1 0x20 PUSH2 0x162E SWAP4 CALLDATALOAD SWAP2 ADD PUSH2 0x15DD JUMP JUMPDEST SWAP1 JUMP JUMPDEST PUSH1 0x60 SWAP1 PUSH1 0x3 NOT ADD SLT PUSH2 0x5E8 JUMPI PUSH1 0x4 CALLDATALOAD PUSH1 0x1 PUSH1 0x1 PUSH1 0xA0 SHL SUB DUP2 AND DUP2 SUB PUSH2 0x5E8 JUMPI SWAP1 PUSH1 0x24 CALLDATALOAD PUSH1 0x1 PUSH1 0x1 PUSH1 0xA0 SHL SUB DUP2 AND DUP2 SUB PUSH2 0x5E8 JUMPI SWAP1 PUSH1 0x44 CALLDATALOAD SWAP1 JUMP JUMPDEST SWAP1 PUSH1 0x1 DUP3 DUP2 SHR SWAP3 AND DUP1 ISZERO PUSH2 0x1699 JUMPI JUMPDEST PUSH1 0x20 DUP4 LT EQ PUSH2 0x1685 JUMPI JUMP JUMPDEST PUSH4 0x4E487B71 PUSH1 0xE0 SHL PUSH0 MSTORE PUSH1 0x22 PUSH1 0x4 MSTORE PUSH1 0x24 PUSH0 REVERT JUMPDEST SWAP2 PUSH1 0x7F AND SWAP2 PUSH2 0x167A JUMP JUMPDEST SWAP1 PUSH1 0x40 MLOAD SWAP2 DUP3 PUSH0 DUP3 SLOAD SWAP3 PUSH2 0x16B6 DUP5 PUSH2 0x166B JUMP JUMPDEST DUP1 DUP5 MSTORE SWAP4 PUSH1 0x1 DUP2 AND SWAP1 DUP2 ISZERO PUSH2 0x1721 JUMPI POP PUSH1 0x1 EQ PUSH2 0x16DD JUMPI JUMPDEST POP PUSH2 0x16DB SWAP3 POP SUB DUP4 PUSH2 0x159F JUMP JUMPDEST JUMP JUMPDEST SWAP1 POP PUSH0 SWAP3 SWAP2 SWAP3 MSTORE PUSH1 0x20 PUSH0 KECCAK256 SWAP1 PUSH0 SWAP2 JUMPDEST DUP2 DUP4 LT PUSH2 0x1705 JUMPI POP POP SWAP1 PUSH1 0x20 PUSH2 0x16DB SWAP3 DUP3 ADD ADD PUSH0 PUSH2 0x16CE JUMP JUMPDEST PUSH1 0x20 SWAP2 SWAP4 POP DUP1 PUSH1 0x1 SWAP2 SLOAD DUP4 DUP6 DUP10 ADD ADD MSTORE ADD SWAP2 ADD SWAP1 SWAP2 DUP5 SWAP3 PUSH2 0x16EC JUMP JUMPDEST SWAP1 POP PUSH1 0x20 SWAP3 POP PUSH2 0x16DB SWAP5 SWAP2 POP PUSH1 0xFF NOT AND DUP3 DUP5 ADD MSTORE ISZERO ISZERO PUSH1 0x5 SHL DUP3 ADD ADD PUSH0 PUSH2 0x16CE JUMP JUMPDEST ISZERO PUSH2 0x174A JUMPI JUMP JUMPDEST PUSH1 0x40 MLOAD PUSH3 0x461BCD PUSH1 0xE5 SHL DUP2 MSTORE PUSH1 0x20 PUSH1 0x4 DUP3 ADD MSTORE PUSH1 0xC PUSH1 0x24 DUP3 ADD MSTORE PUSH12 0x24B73B30B634B2103A34B2B9 PUSH1 0xA1 SHL PUSH1 0x44 DUP3 ADD MSTORE PUSH1 0x64 SWAP1 REVERT JUMPDEST PUSH1 0x1 PUSH1 0x1 PUSH1 0xA0 SHL SUB SWAP1 SWAP2 AND SWAP2 SWAP1 DUP3 ISZERO PUSH2 0x690 JUMPI PUSH2 0x1799 PUSH2 0x1BB5 JUMP JUMPDEST PUSH0 DUP3 DUP2 MSTORE PUSH1 0x2 PUSH1 0x20 MSTORE PUSH1 0x40 SWAP1 KECCAK256 SLOAD PUSH1 0x1 PUSH1 0x1 PUSH1 0xA0 SHL SUB AND ISZERO ISZERO DUP1 PUSH2 0x1987 JUMPI JUMPDEST PUSH2 0x1936 JUMPI PUSH0 DUP3 DUP2 MSTORE PUSH1 0x2 PUSH1 0x20 MSTORE PUSH1 0x40 SWAP1 KECCAK256 SLOAD PUSH1 0x1 PUSH1 0x1 PUSH1 0xA0 SHL SUB AND SWAP3 DUP3 SWAP1 CALLER ISZERO ISZERO DUP1 PUSH2 0x18A1 JUMPI JUMPDEST POP DUP5 PUSH2 0x186E JUMPI JUMPDEST DUP1 PUSH0 MSTORE PUSH1 0x3 PUSH1 0x20 MSTORE PUSH1 0x40 PUSH0 KECCAK256 PUSH1 0x1 DUP2 SLOAD ADD SWAP1 SSTORE DUP2 PUSH0 MSTORE PUSH1 0x2 PUSH1 0x20 MSTORE PUSH1 0x40 PUSH0 KECCAK256 DUP2 PUSH12 0xFFFFFFFFFFFFFFFFFFFFFFFF PUSH1 0xA0 SHL DUP3 SLOAD AND OR SWAP1 SSTORE DUP5 PUSH32 0xDDF252AD1BE2C89B69C2B068FC378DAA952BA7F163C4A11628F55A4DF523B3EF PUSH0 DUP1 LOG4 PUSH1 0x1 PUSH1 0x1 PUSH1 0xA0 SHL SUB AND DUP1 DUP4 SUB PUSH2 0x1856 JUMPI POP POP POP JUMP JUMPDEST PUSH4 0x64283D7B PUSH1 0xE0 SHL PUSH0 MSTORE PUSH1 0x4 MSTORE PUSH1 0x24 MSTORE PUSH1 0x44 MSTORE PUSH1 0x64 PUSH0 REVERT JUMPDEST PUSH0 DUP3 DUP2 MSTORE PUSH1 0x4 PUSH1 0x20 MSTORE PUSH1 0x40 SWAP1 KECCAK256 DUP1 SLOAD PUSH1 0x1 PUSH1 0x1 PUSH1 0xA0 SHL SUB NOT AND SWAP1 SSTORE DUP5 PUSH0 MSTORE PUSH1 0x3 PUSH1 0x20 MSTORE PUSH1 0x40 PUSH0 KECCAK256 PUSH0 NOT DUP2 SLOAD ADD SWAP1 SSTORE PUSH2 0x17E6 JUMP JUMPDEST SWAP1 SWAP2 POP DUP1 PUSH2 0x18E5 JUMPI JUMPDEST ISZERO PUSH2 0x18B7 JUMPI DUP3 SWAP1 PUSH0 PUSH2 0x17DF JUMP JUMPDEST DUP3 DUP5 PUSH2 0x18CF JUMPI PUSH4 0x7E273289 PUSH1 0xE0 SHL PUSH0 MSTORE PUSH1 0x4 MSTORE PUSH1 0x24 PUSH0 REVERT JUMPDEST PUSH4 0x177E802F PUSH1 0xE0 SHL PUSH0 MSTORE CALLER PUSH1 0x4 MSTORE PUSH1 0x24 MSTORE PUSH1 0x44 PUSH0 REVERT JUMPDEST POP CALLER DUP5 EQ DUP1 ISZERO PUSH2 0x1914 JUMPI JUMPDEST DUP1 PUSH2 0x18AA JUMPI POP PUSH0 DUP4 DUP2 MSTORE PUSH1 0x4 PUSH1 0x20 MSTORE PUSH1 0x40 SWAP1 KECCAK256 SLOAD PUSH1 0x1 PUSH1 0x1 PUSH1 0xA0 SHL SUB AND CALLER EQ PUSH2 0x18AA JUMP JUMPDEST POP PUSH0 DUP5 DUP2 MSTORE PUSH1 0x5 PUSH1 0x20 SWAP1 DUP2 MSTORE PUSH1 0x40 DUP1 DUP4 KECCAK256 CALLER DUP5 MSTORE SWAP1 SWAP2 MSTORE SWAP1 KECCAK256 SLOAD PUSH1 0xFF AND PUSH2 0x18F0 JUMP JUMPDEST PUSH1 0x40 MLOAD PUSH3 0x461BCD PUSH1 0xE5 SHL DUP2 MSTORE PUSH1 0x20 PUSH1 0x4 DUP3 ADD MSTORE PUSH1 0x24 DUP1 DUP3 ADD MSTORE PUSH32 0x4D656D62657273686970204E46547320617265206E6F6E2D7472616E73666572 PUSH1 0x44 DUP3 ADD MSTORE PUSH4 0x61626C65 PUSH1 0xE0 SHL PUSH1 0x64 DUP3 ADD MSTORE PUSH1 0x84 SWAP1 REVERT JUMPDEST POP PUSH1 0x1 PUSH2 0x17B8 JUMP JUMPDEST PUSH8 0xFFFFFFFFFFFFFFFF DUP2 GT PUSH2 0x4CF JUMPI PUSH1 0x5 SHL PUSH1 0x20 ADD SWAP1 JUMP JUMPDEST PUSH1 0xFF AND PUSH1 0xFF DUP2 EQ PUSH2 0x19B8 JUMPI PUSH1 0x1 ADD SWAP1 JUMP JUMPDEST PUSH4 0x4E487B71 PUSH1 0xE0 SHL PUSH0 MSTORE PUSH1 0x11 PUSH1 0x4 MSTORE PUSH1 0x24 PUSH0 REVERT JUMPDEST DUP1 MLOAD DUP3 LT ISZERO PUSH2 0x19E0 JUMPI PUSH1 0x20 SWAP2 PUSH1 0x5 SHL ADD ADD SWAP1 JUMP JUMPDEST PUSH4 0x4E487B71 PUSH1 0xE0 SHL PUSH0 MSTORE PUSH1 0x32 PUSH1 0x4 MSTORE PUSH1 0x24 PUSH0 REVERT JUMPDEST PUSH0 DUP2 DUP2 MSTORE PUSH1 0x2 PUSH1 0x20 MSTORE PUSH1 0x40 SWAP1 KECCAK256 SLOAD PUSH1 0x1 PUSH1 0x1 PUSH1 0xA0 SHL SUB AND SWAP1 DUP2 ISZERO PUSH2 0x1A16 JUMPI POP SWAP1 JUMP JUMPDEST PUSH4 0x7E273289 PUSH1 0xE0 SHL PUSH0 MSTORE PUSH1 0x4 MSTORE PUSH1 0x24 PUSH0 REVERT JUMPDEST PUSH1 0x7 SLOAD PUSH1 0x1 PUSH1 0x1 PUSH1 0xA0 SHL SUB AND CALLER SUB PUSH2 0x1A3C JUMPI JUMP JUMPDEST PUSH4 0x118CDAA7 PUSH1 0xE0 SHL PUSH0 MSTORE CALLER PUSH1 0x4 MSTORE PUSH1 0x24 PUSH0 REVERT JUMPDEST DUP3 EXTCODESIZE PUSH2 0x1A5D JUMPI JUMPDEST POP POP POP POP POP JUMP JUMPDEST PUSH1 0x40 MLOAD PUSH4 0xA85BD01 PUSH1 0xE1 SHL DUP2 MSTORE PUSH1 0x1 PUSH1 0x1 PUSH1 0xA0 SHL SUB SWAP2 DUP3 AND PUSH1 0x4 DUP3 ADD MSTORE SWAP2 DUP2 AND PUSH1 0x24 DUP4 ADD MSTORE PUSH1 0x44 DUP3 ADD SWAP4 SWAP1 SWAP4 MSTORE PUSH1 0x80 PUSH1 0x64 DUP3 ADD MSTORE SWAP2 AND SWAP2 PUSH1 0x20 SWAP1 DUP3 SWAP1 DUP2 SWAP1 PUSH2 0x1AA9 SWAP1 PUSH1 0x84 DUP4 ADD SWAP1 PUSH2 0x152F JUMP JUMPDEST SUB DUP2 PUSH0 DUP7 GAS CALL PUSH0 SWAP2 DUP2 PUSH2 0x1B40 JUMPI JUMPDEST POP PUSH2 0x1B0C JUMPI POP RETURNDATASIZE ISZERO PUSH2 0x1B05 JUMPI RETURNDATASIZE PUSH2 0x1ACD DUP2 PUSH2 0x15C1 JUMP JUMPDEST SWAP1 PUSH2 0x1ADB PUSH1 0x40 MLOAD SWAP3 DUP4 PUSH2 0x159F JUMP JUMPDEST DUP2 MSTORE RETURNDATASIZE PUSH0 PUSH1 0x20 DUP4 ADD RETURNDATACOPY JUMPDEST DUP1 MLOAD SWAP1 DUP2 PUSH2 0x1B00 JUMPI DUP3 PUSH4 0x32505749 PUSH1 0xE1 SHL PUSH0 MSTORE PUSH1 0x4 MSTORE PUSH1 0x24 PUSH0 REVERT JUMPDEST PUSH1 0x20 ADD REVERT JUMPDEST PUSH1 0x60 PUSH2 0x1AE5 JUMP JUMPDEST PUSH1 0x1 PUSH1 0x1 PUSH1 0xE0 SHL SUB NOT AND PUSH4 0x757A42FF PUSH1 0xE1 SHL ADD PUSH2 0x1B2E JUMPI POP PUSH0 DUP1 DUP1 DUP1 DUP1 PUSH2 0x1A56 JUMP JUMPDEST PUSH4 0x32505749 PUSH1 0xE1 SHL PUSH0 MSTORE PUSH1 0x4 MSTORE PUSH1 0x24 PUSH0 REVERT JUMPDEST SWAP1 SWAP2 POP PUSH1 0x20 DUP2 RETURNDATASIZE PUSH1 0x20 GT PUSH2 0x1B7D JUMPI JUMPDEST DUP2 PUSH2 0x1B5C PUSH1 0x20 SWAP4 DUP4 PUSH2 0x159F JUMP JUMPDEST DUP2 ADD SUB SLT PUSH2 0x5E8 JUMPI MLOAD PUSH1 0x1 PUSH1 0x1 PUSH1 0xE0 SHL SUB NOT DUP2 AND DUP2 SUB PUSH2 0x5E8 JUMPI SWAP1 PUSH0 PUSH2 0x1AB7 JUMP JUMPDEST RETURNDATASIZE SWAP2 POP PUSH2 0x1B4F JUMP JUMPDEST PUSH2 0x1B8E DUP2 PUSH2 0x19F4 JUMP JUMPDEST POP PUSH0 MSTORE PUSH1 0x6 PUSH1 0x20 MSTORE PUSH2 0x1BA2 PUSH1 0x40 PUSH0 KECCAK256 PUSH2 0x16A3 JUMP JUMPDEST PUSH0 PUSH1 0x40 MLOAD PUSH2 0x1BB1 PUSH1 0x20 DUP3 PUSH2 0x159F JUMP JUMPDEST MSTORE SWAP1 JUMP JUMPDEST PUSH1 0xFF PUSH1 0x7 SLOAD PUSH1 0xA0 SHR AND PUSH2 0x1BC4 JUMPI JUMP JUMPDEST PUSH4 0xD93C0665 PUSH1 0xE0 SHL PUSH0 MSTORE PUSH1 0x4 PUSH0 REVERT INVALID LOG2 PUSH5 0x6970667358 0x22 SLT KECCAK256 0x2B 0xAD 0xD7 PUSH12 0x32FAB5C025ABCC327B2C64A5 0x23 0xE1 0xEC 0xE9 CODECOPY DUP3 LOG1 DUP12 SLT EXP BYTE 0xF6 0xEF 0x21 PUSH17 0x8264736F6C634300081C00330000000000 "},"methodIdentifiers":{"approve(address,uint256)":"095ea7b3","authorizeMinter(address)":"0c984832","authorizedMinters(address)":"aa2fe91b","balanceOf(address)":"70a08231","getApproved(uint256)":"081812fc","getTierName(uint8)":"e64bd593","getUserHighestTier(address)":"7a65cdca","getUserTiers(address)":"82023931","hasTierNFT(address,uint8)":"75036bc0","isApprovedForAll(address,address)":"e985e9c5","mintReward(address,uint256,uint8)":"ffe6c737","name()":"06fdde03","owner()":"8da5cb5b","ownerOf(uint256)":"6352211e","pause()":"8456cb59","paused()":"5c975abb","renounceOwnership()":"715018a6","revokeMinter(address)":"cfbd4885","safeTransferFrom(address,address,uint256)":"42842e0e","safeTransferFrom(address,address,uint256,bytes)":"b88d4fde","setApprovalForAll(address,bool)":"a22cb465","supportsInterface(bytes4)":"01ffc9a7","symbol()":"95d89b41","tierNames(uint8)":"de5f880d","tierURIs(uint8)":"c0f52dcd","tokenTier(uint256)":"649e705f","tokenURI(uint256)":"c87b56dd","transferFrom(address,address,uint256)":"23b872dd","transferOwnership(address)":"f2fde38b","unpause()":"3f4ba83a","updateTierMetadata(uint8,string,string)":"169ad1d5","userHasTier(address,uint8)":"970a8dbb","userHighestTier(address)":"6a88e3fc"}}}}}